{
  "_format": "hh-sol-artifact-1",
  "contractName": "vjkNFT",
  "sourceName": "contracts/vjkNFT.sol",
  "abi": [
    {
      "inputs": [],
      "stateMutability": "nonpayable",
      "type": "constructor"
    },
    {
      "anonymous": false,
      "inputs": [
        {
          "indexed": true,
          "internalType": "address",
          "name": "owner",
          "type": "address"
        },
        {
          "indexed": true,
          "internalType": "address",
          "name": "approved",
          "type": "address"
        },
        {
          "indexed": true,
          "internalType": "uint256",
          "name": "tokenId",
          "type": "uint256"
        }
      ],
      "name": "Approval",
      "type": "event"
    },
    {
      "anonymous": false,
      "inputs": [
        {
          "indexed": true,
          "internalType": "address",
          "name": "owner",
          "type": "address"
        },
        {
          "indexed": true,
          "internalType": "address",
          "name": "operator",
          "type": "address"
        },
        {
          "indexed": false,
          "internalType": "bool",
          "name": "approved",
          "type": "bool"
        }
      ],
      "name": "ApprovalForAll",
      "type": "event"
    },
    {
      "anonymous": false,
      "inputs": [
        {
          "indexed": true,
          "internalType": "address",
          "name": "from",
          "type": "address"
        },
        {
          "indexed": true,
          "internalType": "address",
          "name": "to",
          "type": "address"
        },
        {
          "indexed": true,
          "internalType": "uint256",
          "name": "tokenId",
          "type": "uint256"
        }
      ],
      "name": "Transfer",
      "type": "event"
    },
    {
      "inputs": [
        {
          "internalType": "address",
          "name": "to",
          "type": "address"
        },
        {
          "internalType": "uint256",
          "name": "tokenId",
          "type": "uint256"
        }
      ],
      "name": "approve",
      "outputs": [],
      "stateMutability": "nonpayable",
      "type": "function"
    },
    {
      "inputs": [
        {
          "internalType": "address",
          "name": "owner",
          "type": "address"
        }
      ],
      "name": "balanceOf",
      "outputs": [
        {
          "internalType": "uint256",
          "name": "",
          "type": "uint256"
        }
      ],
      "stateMutability": "view",
      "type": "function"
    },
    {
      "inputs": [
        {
          "internalType": "uint256",
          "name": "tokenId",
          "type": "uint256"
        }
      ],
      "name": "burn",
      "outputs": [],
      "stateMutability": "nonpayable",
      "type": "function"
    },
    {
      "inputs": [],
      "name": "getAllCollections",
      "outputs": [
        {
          "components": [
            {
              "internalType": "address",
              "name": "sender",
              "type": "address"
            },
            {
              "internalType": "string",
              "name": "tokenId",
              "type": "string"
            },
            {
              "internalType": "string",
              "name": "nameNFT",
              "type": "string"
            },
            {
              "internalType": "string",
              "name": "descriptionNFT",
              "type": "string"
            },
            {
              "internalType": "string",
              "name": "svg",
              "type": "string"
            }
          ],
          "internalType": "struct vjkNFT.CollectionStruct[]",
          "name": "",
          "type": "tuple[]"
        }
      ],
      "stateMutability": "view",
      "type": "function"
    },
    {
      "inputs": [
        {
          "internalType": "uint256",
          "name": "tokenId",
          "type": "uint256"
        }
      ],
      "name": "getApproved",
      "outputs": [
        {
          "internalType": "address",
          "name": "",
          "type": "address"
        }
      ],
      "stateMutability": "view",
      "type": "function"
    },
    {
      "inputs": [
        {
          "internalType": "address",
          "name": "owner",
          "type": "address"
        },
        {
          "internalType": "address",
          "name": "operator",
          "type": "address"
        }
      ],
      "name": "isApprovedForAll",
      "outputs": [
        {
          "internalType": "bool",
          "name": "",
          "type": "bool"
        }
      ],
      "stateMutability": "view",
      "type": "function"
    },
    {
      "inputs": [],
      "name": "name",
      "outputs": [
        {
          "internalType": "string",
          "name": "",
          "type": "string"
        }
      ],
      "stateMutability": "view",
      "type": "function"
    },
    {
      "inputs": [
        {
          "internalType": "uint256",
          "name": "tokenId",
          "type": "uint256"
        }
      ],
      "name": "ownerOf",
      "outputs": [
        {
          "internalType": "address",
          "name": "",
          "type": "address"
        }
      ],
      "stateMutability": "view",
      "type": "function"
    },
    {
      "inputs": [
        {
          "internalType": "string",
          "name": "nameNFT",
          "type": "string"
        },
        {
          "internalType": "string",
          "name": "descriptionNFT",
          "type": "string"
        },
        {
          "internalType": "string",
          "name": "svg",
          "type": "string"
        }
      ],
      "name": "safeMint",
      "outputs": [],
      "stateMutability": "nonpayable",
      "type": "function"
    },
    {
      "inputs": [
        {
          "internalType": "address",
          "name": "from",
          "type": "address"
        },
        {
          "internalType": "address",
          "name": "to",
          "type": "address"
        },
        {
          "internalType": "uint256",
          "name": "tokenId",
          "type": "uint256"
        }
      ],
      "name": "safeTransferFrom",
      "outputs": [],
      "stateMutability": "nonpayable",
      "type": "function"
    },
    {
      "inputs": [
        {
          "internalType": "address",
          "name": "from",
          "type": "address"
        },
        {
          "internalType": "address",
          "name": "to",
          "type": "address"
        },
        {
          "internalType": "uint256",
          "name": "tokenId",
          "type": "uint256"
        },
        {
          "internalType": "bytes",
          "name": "_data",
          "type": "bytes"
        }
      ],
      "name": "safeTransferFrom",
      "outputs": [],
      "stateMutability": "nonpayable",
      "type": "function"
    },
    {
      "inputs": [
        {
          "internalType": "address",
          "name": "operator",
          "type": "address"
        },
        {
          "internalType": "bool",
          "name": "approved",
          "type": "bool"
        }
      ],
      "name": "setApprovalForAll",
      "outputs": [],
      "stateMutability": "nonpayable",
      "type": "function"
    },
    {
      "inputs": [
        {
          "internalType": "bytes4",
          "name": "interfaceId",
          "type": "bytes4"
        }
      ],
      "name": "supportsInterface",
      "outputs": [
        {
          "internalType": "bool",
          "name": "",
          "type": "bool"
        }
      ],
      "stateMutability": "view",
      "type": "function"
    },
    {
      "inputs": [],
      "name": "symbol",
      "outputs": [
        {
          "internalType": "string",
          "name": "",
          "type": "string"
        }
      ],
      "stateMutability": "view",
      "type": "function"
    },
    {
      "inputs": [
        {
          "internalType": "uint256",
          "name": "tokenId",
          "type": "uint256"
        }
      ],
      "name": "tokenURI",
      "outputs": [
        {
          "internalType": "string",
          "name": "",
          "type": "string"
        }
      ],
      "stateMutability": "view",
      "type": "function"
    },
    {
      "inputs": [
        {
          "internalType": "address",
          "name": "from",
          "type": "address"
        },
        {
          "internalType": "address",
          "name": "to",
          "type": "address"
        },
        {
          "internalType": "uint256",
          "name": "tokenId",
          "type": "uint256"
        }
      ],
      "name": "transferFrom",
      "outputs": [],
      "stateMutability": "nonpayable",
      "type": "function"
    }
  ],
  "bytecode": "0x60806040523480156200001157600080fd5b506040518060400160405280600681526020017f766a6b4e465400000000000000000000000000000000000000000000000000008152506040518060400160405280600381526020017f564a4b0000000000000000000000000000000000000000000000000000000000815250816000908051906020019062000096929190620000b8565b508060019080519060200190620000af929190620000b8565b505050620001cd565b828054620000c69062000168565b90600052602060002090601f016020900481019282620000ea576000855562000136565b82601f106200010557805160ff191683800117855562000136565b8280016001018555821562000136579182015b828111156200013557825182559160200191906001019062000118565b5b50905062000145919062000149565b5090565b5b80821115620001645760008160009055506001016200014a565b5090565b600060028204905060018216806200018157607f821691505b602082108114156200019857620001976200019e565b5b50919050565b7f4e487b7100000000000000000000000000000000000000000000000000000000600052602260045260246000fd5b613a3e80620001dd6000396000f3fe608060405234801561001057600080fd5b50600436106101005760003560e01c80636352211e11610097578063a22cb46511610066578063a22cb465146102ab578063b88d4fde146102c7578063c87b56dd146102e3578063e985e9c51461031357610100565b80636352211e1461020f5780636804a9581461023f57806370a082311461025d57806395d89b411461028d57610100565b80631042f0c6116100d35780631042f0c61461019f57806323b872dd146101bb57806342842e0e146101d757806342966c68146101f357610100565b806301ffc9a71461010557806306fdde0314610135578063081812fc14610153578063095ea7b314610183575b600080fd5b61011f600480360381019061011a9190612501565b610343565b60405161012c9190612ca8565b60405180910390f35b61013d610425565b60405161014a9190612cc3565b60405180910390f35b61016d600480360381019061016891906125ea565b6104b7565b60405161017a9190612c1f565b60405180910390f35b61019d600480360381019061019891906124c5565b61053c565b005b6101b960048036038101906101b49190612553565b610654565b005b6101d560048036038101906101d091906123bf565b6107be565b005b6101f160048036038101906101ec91906123bf565b61081e565b005b61020d600480360381019061020891906125ea565b61083e565b005b610229600480360381019061022491906125ea565b61089a565b6040516102369190612c1f565b60405180910390f35b61024761094c565b6040516102549190612c86565b60405180910390f35b6102776004803603810190610272919061235a565b610c49565b6040516102849190612f05565b60405180910390f35b610295610d01565b6040516102a29190612cc3565b60405180910390f35b6102c560048036038101906102c09190612489565b610d93565b005b6102e160048036038101906102dc919061240e565b610da9565b005b6102fd60048036038101906102f891906125ea565b610e0b565b60405161030a9190612cc3565b60405180910390f35b61032d60048036038101906103289190612383565b610e1d565b60405161033a9190612ca8565b60405180910390f35b60007f80ac58cd000000000000000000000000000000000000000000000000000000007bffffffffffffffffffffffffffffffffffffffffffffffffffffffff1916827bffffffffffffffffffffffffffffffffffffffffffffffffffffffff1916148061040e57507f5b5e139f000000000000000000000000000000000000000000000000000000007bffffffffffffffffffffffffffffffffffffffffffffffffffffffff1916827bffffffffffffffffffffffffffffffffffffffffffffffffffffffff1916145b8061041e575061041d82610eb1565b5b9050919050565b606060008054610434906131ff565b80601f0160208091040260200160405190810160405280929190818152602001828054610460906131ff565b80156104ad5780601f10610482576101008083540402835291602001916104ad565b820191906000526020600020905b81548152906001019060200180831161049057829003601f168201915b5050505050905090565b60006104c282610f1b565b610501576040517f08c379a00000000000000000000000000000000000000000000000000000000081526004016104f890612e65565b60405180910390fd5b6004600083815260200190815260200160002060009054906101000a900473ffffffffffffffffffffffffffffffffffffffff169050919050565b60006105478261089a565b90508073ffffffffffffffffffffffffffffffffffffffff168373ffffffffffffffffffffffffffffffffffffffff1614156105b8576040517f08c379a00000000000000000000000000000000000000000000000000000000081526004016105af90612ea5565b60405180910390fd5b8073ffffffffffffffffffffffffffffffffffffffff166105d7610f87565b73ffffffffffffffffffffffffffffffffffffffff161480610606575061060581610600610f87565b610e1d565b5b610645576040517f08c379a000000000000000000000000000000000000000000000000000000000815260040161063c90612da5565b60405180910390fd5b61064f8383610f8f565b505050565b60006106606007611048565b905061066c6007611056565b610676338261106c565b61068b816106868686868661108a565b6110eb565b60086040518060a001604052803373ffffffffffffffffffffffffffffffffffffffff1681526020016106bd8461115f565b815260200186815260200185815260200184815250908060018154018082558091505060019003906000526020600020906005020160009091909190915060008201518160000160006101000a81548173ffffffffffffffffffffffffffffffffffffffff021916908373ffffffffffffffffffffffffffffffffffffffff160217905550602082015181600101908051906020019061075e92919061213e565b50604082015181600201908051906020019061077b92919061213e565b50606082015181600301908051906020019061079892919061213e565b5060808201518160040190805190602001906107b592919061213e565b50505050505050565b6107cf6107c9610f87565b8261130c565b61080e576040517f08c379a000000000000000000000000000000000000000000000000000000000815260040161080590612ec5565b60405180910390fd5b6108198383836113ea565b505050565b61083983838360405180602001604052806000815250610da9565b505050565b61084f610849610f87565b8261130c565b61088e576040517f08c379a000000000000000000000000000000000000000000000000000000000815260040161088590612ee5565b60405180910390fd5b61089781611651565b50565b6000806002600084815260200190815260200160002060009054906101000a900473ffffffffffffffffffffffffffffffffffffffff169050600073ffffffffffffffffffffffffffffffffffffffff168173ffffffffffffffffffffffffffffffffffffffff161415610943576040517f08c379a000000000000000000000000000000000000000000000000000000000815260040161093a90612de5565b60405180910390fd5b80915050919050565b60606008805480602002602001604051908101604052809291908181526020016000905b82821015610c4057838290600052602060002090600502016040518060a00160405290816000820160009054906101000a900473ffffffffffffffffffffffffffffffffffffffff1673ffffffffffffffffffffffffffffffffffffffff1673ffffffffffffffffffffffffffffffffffffffff1681526020016001820180546109f9906131ff565b80601f0160208091040260200160405190810160405280929190818152602001828054610a25906131ff565b8015610a725780601f10610a4757610100808354040283529160200191610a72565b820191906000526020600020905b815481529060010190602001808311610a5557829003601f168201915b50505050508152602001600282018054610a8b906131ff565b80601f0160208091040260200160405190810160405280929190818152602001828054610ab7906131ff565b8015610b045780601f10610ad957610100808354040283529160200191610b04565b820191906000526020600020905b815481529060010190602001808311610ae757829003601f168201915b50505050508152602001600382018054610b1d906131ff565b80601f0160208091040260200160405190810160405280929190818152602001828054610b49906131ff565b8015610b965780601f10610b6b57610100808354040283529160200191610b96565b820191906000526020600020905b815481529060010190602001808311610b7957829003601f168201915b50505050508152602001600482018054610baf906131ff565b80601f0160208091040260200160405190810160405280929190818152602001828054610bdb906131ff565b8015610c285780601f10610bfd57610100808354040283529160200191610c28565b820191906000526020600020905b815481529060010190602001808311610c0b57829003601f168201915b50505050508152505081526020019060010190610970565b50505050905090565b60008073ffffffffffffffffffffffffffffffffffffffff168273ffffffffffffffffffffffffffffffffffffffff161415610cba576040517f08c379a0000000000000000000000000000000000000000000000000000000008152600401610cb190612dc5565b60405180910390fd5b600360008373ffffffffffffffffffffffffffffffffffffffff1673ffffffffffffffffffffffffffffffffffffffff168152602001908152602001600020549050919050565b606060018054610d10906131ff565b80601f0160208091040260200160405190810160405280929190818152602001828054610d3c906131ff565b8015610d895780601f10610d5e57610100808354040283529160200191610d89565b820191906000526020600020905b815481529060010190602001808311610d6c57829003601f168201915b5050505050905090565b610da5610d9e610f87565b838361165d565b5050565b610dba610db4610f87565b8361130c565b610df9576040517f08c379a0000000000000000000000000000000000000000000000000000000008152600401610df090612ec5565b60405180910390fd5b610e05848484846117ca565b50505050565b6060610e1682611826565b9050919050565b6000600560008473ffffffffffffffffffffffffffffffffffffffff1673ffffffffffffffffffffffffffffffffffffffff16815260200190815260200160002060008373ffffffffffffffffffffffffffffffffffffffff1673ffffffffffffffffffffffffffffffffffffffff16815260200190815260200160002060009054906101000a900460ff16905092915050565b60007f01ffc9a7000000000000000000000000000000000000000000000000000000007bffffffffffffffffffffffffffffffffffffffffffffffffffffffff1916827bffffffffffffffffffffffffffffffffffffffffffffffffffffffff1916149050919050565b60008073ffffffffffffffffffffffffffffffffffffffff166002600084815260200190815260200160002060009054906101000a900473ffffffffffffffffffffffffffffffffffffffff1673ffffffffffffffffffffffffffffffffffffffff1614159050919050565b600033905090565b816004600083815260200190815260200160002060006101000a81548173ffffffffffffffffffffffffffffffffffffffff021916908373ffffffffffffffffffffffffffffffffffffffff160217905550808273ffffffffffffffffffffffffffffffffffffffff166110028361089a565b73ffffffffffffffffffffffffffffffffffffffff167f8c5be1e5ebec7d5bd14f71427d1e84f3dd0314c0f7b2291e5b200ac8c7c3b92560405160405180910390a45050565b600081600001549050919050565b6001816000016000828254019250508190555050565b611086828260405180602001604052806000815250611978565b5050565b60606110c285858561109b8661115f565b6040516020016110ae9493929190612b88565b6040516020818303038152906040526119d3565b6040516020016110d29190612bfd565b6040516020818303038152906040529050949350505050565b6110f482610f1b565b611133576040517f08c379a000000000000000000000000000000000000000000000000000000000815260040161112a90612e05565b60405180910390fd5b8060066000848152602001908152602001600020908051906020019061115a92919061213e565b505050565b606060008214156111a7576040518060400160405280600181526020017f30000000000000000000000000000000000000000000000000000000000000008152509050611307565b600082905060005b600082146111d95780806111c290613262565b915050600a826111d2919061308a565b91506111af565b60008167ffffffffffffffff81111561121b577f4e487b7100000000000000000000000000000000000000000000000000000000600052604160045260246000fd5b6040519080825280601f01601f19166020018201604052801561124d5781602001600182028036833780820191505090505b5090505b60008514611300576001826112669190613115565b9150600a8561127591906132ab565b60306112819190613034565b60f81b8183815181106112bd577f4e487b7100000000000000000000000000000000000000000000000000000000600052603260045260246000fd5b60200101907effffffffffffffffffffffffffffffffffffffffffffffffffffffffffffff1916908160001a905350600a856112f9919061308a565b9450611251565b8093505050505b919050565b600061131782610f1b565b611356576040517f08c379a000000000000000000000000000000000000000000000000000000000815260040161134d90612d85565b60405180910390fd5b60006113618361089a565b90508073ffffffffffffffffffffffffffffffffffffffff168473ffffffffffffffffffffffffffffffffffffffff1614806113d057508373ffffffffffffffffffffffffffffffffffffffff166113b8846104b7565b73ffffffffffffffffffffffffffffffffffffffff16145b806113e157506113e08185610e1d565b5b91505092915050565b8273ffffffffffffffffffffffffffffffffffffffff1661140a8261089a565b73ffffffffffffffffffffffffffffffffffffffff1614611460576040517f08c379a000000000000000000000000000000000000000000000000000000000815260040161145790612d05565b60405180910390fd5b600073ffffffffffffffffffffffffffffffffffffffff168273ffffffffffffffffffffffffffffffffffffffff1614156114d0576040517f08c379a00000000000000000000000000000000000000000000000000000000081526004016114c790612d45565b60405180910390fd5b6114db838383611b72565b6114e6600082610f8f565b6001600360008573ffffffffffffffffffffffffffffffffffffffff1673ffffffffffffffffffffffffffffffffffffffff16815260200190815260200160002060008282546115369190613115565b925050819055506001600360008473ffffffffffffffffffffffffffffffffffffffff1673ffffffffffffffffffffffffffffffffffffffff168152602001908152602001600020600082825461158d9190613034565b92505081905550816002600083815260200190815260200160002060006101000a81548173ffffffffffffffffffffffffffffffffffffffff021916908373ffffffffffffffffffffffffffffffffffffffff160217905550808273ffffffffffffffffffffffffffffffffffffffff168473ffffffffffffffffffffffffffffffffffffffff167fddf252ad1be2c89b69c2b068fc378daa952ba7f163c4a11628f55a4df523b3ef60405160405180910390a461164c838383611b77565b505050565b61165a81611b7c565b50565b8173ffffffffffffffffffffffffffffffffffffffff168373ffffffffffffffffffffffffffffffffffffffff1614156116cc576040517f08c379a00000000000000000000000000000000000000000000000000000000081526004016116c390612d65565b60405180910390fd5b80600560008573ffffffffffffffffffffffffffffffffffffffff1673ffffffffffffffffffffffffffffffffffffffff16815260200190815260200160002060008473ffffffffffffffffffffffffffffffffffffffff1673ffffffffffffffffffffffffffffffffffffffff16815260200190815260200160002060006101000a81548160ff0219169083151502179055508173ffffffffffffffffffffffffffffffffffffffff168373ffffffffffffffffffffffffffffffffffffffff167f17307eab39ab6107e8899845ad3d59bd9653f200f220920489ca2b5937696c31836040516117bd9190612ca8565b60405180910390a3505050565b6117d58484846113ea565b6117e184848484611bcf565b611820576040517f08c379a000000000000000000000000000000000000000000000000000000000815260040161181790612ce5565b60405180910390fd5b50505050565b606061183182610f1b565b611870576040517f08c379a000000000000000000000000000000000000000000000000000000000815260040161186790612e45565b60405180910390fd5b6000600660008481526020019081526020016000208054611890906131ff565b80601f01602080910402602001604051908101604052809291908181526020018280546118bc906131ff565b80156119095780601f106118de57610100808354040283529160200191611909565b820191906000526020600020905b8154815290600101906020018083116118ec57829003601f168201915b50505050509050600061191a611d66565b9050600081511415611930578192505050611973565b60008251111561196557808260405160200161194d929190612b64565b60405160208183030381529060405292505050611973565b61196e84611d7d565b925050505b919050565b6119828383611e24565b61198f6000848484611bcf565b6119ce576040517f08c379a00000000000000000000000000000000000000000000000000000000081526004016119c590612ce5565b60405180910390fd5b505050565b60606000825114156119f657604051806020016040528060008152509050611b6d565b60006040518060600160405280604081526020016139c96040913990506000600360028551611a259190613034565b611a2f919061308a565b6004611a3b91906130bb565b90506000602082611a4c9190613034565b67ffffffffffffffff811115611a8b577f4e487b7100000000000000000000000000000000000000000000000000000000600052604160045260246000fd5b6040519080825280601f01601f191660200182016040528015611abd5781602001600182028036833780820191505090505b509050818152600183018586518101602084015b81831015611b2c576003830192508251603f8160121c168501518253600182019150603f81600c1c168501518253600182019150603f8160061c168501518253600182019150603f8116850151825360018201915050611ad1565b600389510660018114611b465760028114611b5657611b61565b613d3d60f01b6002830352611b61565b603d60f81b60018303525b50505050508093505050505b919050565b505050565b505050565b611b8581611ffe565b6000600660008381526020019081526020016000208054611ba5906131ff565b905014611bcc57600660008281526020019081526020016000206000611bcb91906121c4565b5b50565b6000611bf08473ffffffffffffffffffffffffffffffffffffffff1661211b565b15611d59578373ffffffffffffffffffffffffffffffffffffffff1663150b7a02611c19610f87565b8786866040518563ffffffff1660e01b8152600401611c3b9493929190612c3a565b602060405180830381600087803b158015611c5557600080fd5b505af1925050508015611c8657506040513d601f19601f82011682018060405250810190611c83919061252a565b60015b611d09573d8060008114611cb6576040519150601f19603f3d011682016040523d82523d6000602084013e611cbb565b606091505b50600081511415611d01576040517f08c379a0000000000000000000000000000000000000000000000000000000008152600401611cf890612ce5565b60405180910390fd5b805181602001fd5b63150b7a0260e01b7bffffffffffffffffffffffffffffffffffffffffffffffffffffffff1916817bffffffffffffffffffffffffffffffffffffffffffffffffffffffff191614915050611d5e565b600190505b949350505050565b606060405180602001604052806000815250905090565b6060611d8882610f1b565b611dc7576040517f08c379a0000000000000000000000000000000000000000000000000000000008152600401611dbe90612e85565b60405180910390fd5b6000611dd1611d66565b90506000815111611df15760405180602001604052806000815250611e1c565b80611dfb8461115f565b604051602001611e0c929190612b64565b6040516020818303038152906040525b915050919050565b600073ffffffffffffffffffffffffffffffffffffffff168273ffffffffffffffffffffffffffffffffffffffff161415611e94576040517f08c379a0000000000000000000000000000000000000000000000000000000008152600401611e8b90612e25565b60405180910390fd5b611e9d81610f1b565b15611edd576040517f08c379a0000000000000000000000000000000000000000000000000000000008152600401611ed490612d25565b60405180910390fd5b611ee960008383611b72565b6001600360008473ffffffffffffffffffffffffffffffffffffffff1673ffffffffffffffffffffffffffffffffffffffff1681526020019081526020016000206000828254611f399190613034565b92505081905550816002600083815260200190815260200160002060006101000a81548173ffffffffffffffffffffffffffffffffffffffff021916908373ffffffffffffffffffffffffffffffffffffffff160217905550808273ffffffffffffffffffffffffffffffffffffffff16600073ffffffffffffffffffffffffffffffffffffffff167fddf252ad1be2c89b69c2b068fc378daa952ba7f163c4a11628f55a4df523b3ef60405160405180910390a4611ffa60008383611b77565b5050565b60006120098261089a565b905061201781600084611b72565b612022600083610f8f565b6001600360008373ffffffffffffffffffffffffffffffffffffffff1673ffffffffffffffffffffffffffffffffffffffff16815260200190815260200160002060008282546120729190613115565b925050819055506002600083815260200190815260200160002060006101000a81549073ffffffffffffffffffffffffffffffffffffffff021916905581600073ffffffffffffffffffffffffffffffffffffffff168273ffffffffffffffffffffffffffffffffffffffff167fddf252ad1be2c89b69c2b068fc378daa952ba7f163c4a11628f55a4df523b3ef60405160405180910390a461211781600084611b77565b5050565b6000808273ffffffffffffffffffffffffffffffffffffffff163b119050919050565b82805461214a906131ff565b90600052602060002090601f01602090048101928261216c57600085556121b3565b82601f1061218557805160ff19168380011785556121b3565b828001600101855582156121b3579182015b828111156121b2578251825591602001919060010190612197565b5b5090506121c09190612204565b5090565b5080546121d0906131ff565b6000825580601f106121e25750612201565b601f0160209004906000526020600020908101906122009190612204565b5b50565b5b8082111561221d576000816000905550600101612205565b5090565b600061223461222f84612f45565b612f20565b90508281526020810184848401111561224c57600080fd5b6122578482856131bd565b509392505050565b600061227261226d84612f76565b612f20565b90508281526020810184848401111561228a57600080fd5b6122958482856131bd565b509392505050565b6000813590506122ac8161396c565b92915050565b6000813590506122c181613983565b92915050565b6000813590506122d68161399a565b92915050565b6000815190506122eb8161399a565b92915050565b600082601f83011261230257600080fd5b8135612312848260208601612221565b91505092915050565b600082601f83011261232c57600080fd5b813561233c84826020860161225f565b91505092915050565b600081359050612354816139b1565b92915050565b60006020828403121561236c57600080fd5b600061237a8482850161229d565b91505092915050565b6000806040838503121561239657600080fd5b60006123a48582860161229d565b92505060206123b58582860161229d565b9150509250929050565b6000806000606084860312156123d457600080fd5b60006123e28682870161229d565b93505060206123f38682870161229d565b925050604061240486828701612345565b9150509250925092565b6000806000806080858703121561242457600080fd5b60006124328782880161229d565b94505060206124438782880161229d565b935050604061245487828801612345565b925050606085013567ffffffffffffffff81111561247157600080fd5b61247d878288016122f1565b91505092959194509250565b6000806040838503121561249c57600080fd5b60006124aa8582860161229d565b92505060206124bb858286016122b2565b9150509250929050565b600080604083850312156124d857600080fd5b60006124e68582860161229d565b92505060206124f785828601612345565b9150509250929050565b60006020828403121561251357600080fd5b6000612521848285016122c7565b91505092915050565b60006020828403121561253c57600080fd5b600061254a848285016122dc565b91505092915050565b60008060006060848603121561256857600080fd5b600084013567ffffffffffffffff81111561258257600080fd5b61258e8682870161231b565b935050602084013567ffffffffffffffff8111156125ab57600080fd5b6125b78682870161231b565b925050604084013567ffffffffffffffff8111156125d457600080fd5b6125e08682870161231b565b9150509250925092565b6000602082840312156125fc57600080fd5b600061260a84828501612345565b91505092915050565b600061261f8383612aca565b905092915050565b61263081613149565b82525050565b61263f81613149565b82525050565b600061265082612fb7565b61265a8185612fe5565b93508360208202850161266c85612fa7565b8060005b858110156126a857848403895281516126898582612613565b945061269483612fd8565b925060208a01995050600181019050612670565b50829750879550505050505092915050565b6126c38161315b565b82525050565b60006126d482612fc2565b6126de8185612ff6565b93506126ee8185602086016131cc565b6126f781613398565b840191505092915050565b600061270d82612fcd565b6127178185613007565b93506127278185602086016131cc565b61273081613398565b840191505092915050565b600061274682612fcd565b6127508185613018565b93506127608185602086016131cc565b61276981613398565b840191505092915050565b600061277f82612fcd565b6127898185613029565b93506127998185602086016131cc565b80840191505092915050565b60006127b2600f83613029565b91506127bd826133a9565b600f82019050919050565b60006127d5603283613018565b91506127e0826133d2565b604082019050919050565b60006127f8602583613018565b915061280382613421565b604082019050919050565b600061281b601c83613018565b915061282682613470565b602082019050919050565b600061283e600e83613029565b915061284982613499565b600e82019050919050565b6000612861601283613029565b915061286c826134c2565b601282019050919050565b6000612884602483613018565b915061288f826134eb565b604082019050919050565b60006128a7601983613018565b91506128b28261353a565b602082019050919050565b60006128ca600383613029565b91506128d582613563565b600382019050919050565b60006128ed602c83613018565b91506128f88261358c565b604082019050919050565b6000612910603883613018565b915061291b826135db565b604082019050919050565b6000612933602a83613018565b915061293e8261362a565b604082019050919050565b6000612956602983613018565b915061296182613679565b604082019050919050565b6000612979602e83613018565b9150612984826136c8565b604082019050919050565b600061299c602083613018565b91506129a782613717565b602082019050919050565b60006129bf603183613018565b91506129ca82613740565b604082019050919050565b60006129e2602c83613018565b91506129ed8261378f565b604082019050919050565b6000612a05600983613029565b9150612a10826137de565b600982019050919050565b6000612a28602f83613018565b9150612a3382613807565b604082019050919050565b6000612a4b602183613018565b9150612a5682613856565b604082019050919050565b6000612a6e601d83613029565b9150612a79826138a5565b601d82019050919050565b6000612a91603183613018565b9150612a9c826138ce565b604082019050919050565b6000612ab4603083613018565b9150612abf8261391d565b604082019050919050565b600060a083016000830151612ae26000860182612627565b5060208301518482036020860152612afa8282612702565b91505060408301518482036040860152612b148282612702565b91505060608301518482036060860152612b2e8282612702565b91505060808301518482036080860152612b488282612702565b9150508091505092915050565b612b5e816131b3565b82525050565b6000612b708285612774565b9150612b7c8284612774565b91508190509392505050565b6000612b93826129f8565b9150612b9f8287612774565b9150612baa82612854565b9150612bb68286612774565b9150612bc1826127a5565b9150612bcd8285612774565b9150612bd882612831565b9150612be48284612774565b9150612bef826128bd565b915081905095945050505050565b6000612c0882612a61565b9150612c148284612774565b915081905092915050565b6000602082019050612c346000830184612636565b92915050565b6000608082019050612c4f6000830187612636565b612c5c6020830186612636565b612c696040830185612b55565b8181036060830152612c7b81846126c9565b905095945050505050565b60006020820190508181036000830152612ca08184612645565b905092915050565b6000602082019050612cbd60008301846126ba565b92915050565b60006020820190508181036000830152612cdd818461273b565b905092915050565b60006020820190508181036000830152612cfe816127c8565b9050919050565b60006020820190508181036000830152612d1e816127eb565b9050919050565b60006020820190508181036000830152612d3e8161280e565b9050919050565b60006020820190508181036000830152612d5e81612877565b9050919050565b60006020820190508181036000830152612d7e8161289a565b9050919050565b60006020820190508181036000830152612d9e816128e0565b9050919050565b60006020820190508181036000830152612dbe81612903565b9050919050565b60006020820190508181036000830152612dde81612926565b9050919050565b60006020820190508181036000830152612dfe81612949565b9050919050565b60006020820190508181036000830152612e1e8161296c565b9050919050565b60006020820190508181036000830152612e3e8161298f565b9050919050565b60006020820190508181036000830152612e5e816129b2565b9050919050565b60006020820190508181036000830152612e7e816129d5565b9050919050565b60006020820190508181036000830152612e9e81612a1b565b9050919050565b60006020820190508181036000830152612ebe81612a3e565b9050919050565b60006020820190508181036000830152612ede81612a84565b9050919050565b60006020820190508181036000830152612efe81612aa7565b9050919050565b6000602082019050612f1a6000830184612b55565b92915050565b6000612f2a612f3b565b9050612f368282613231565b919050565b6000604051905090565b600067ffffffffffffffff821115612f6057612f5f613369565b5b612f6982613398565b9050602081019050919050565b600067ffffffffffffffff821115612f9157612f90613369565b5b612f9a82613398565b9050602081019050919050565b6000819050602082019050919050565b600081519050919050565b600081519050919050565b600081519050919050565b6000602082019050919050565b600082825260208201905092915050565b600082825260208201905092915050565b600082825260208201905092915050565b600082825260208201905092915050565b600081905092915050565b600061303f826131b3565b915061304a836131b3565b9250827fffffffffffffffffffffffffffffffffffffffffffffffffffffffffffffffff0382111561307f5761307e6132dc565b5b828201905092915050565b6000613095826131b3565b91506130a0836131b3565b9250826130b0576130af61330b565b5b828204905092915050565b60006130c6826131b3565b91506130d1836131b3565b9250817fffffffffffffffffffffffffffffffffffffffffffffffffffffffffffffffff048311821515161561310a576131096132dc565b5b828202905092915050565b6000613120826131b3565b915061312b836131b3565b92508282101561313e5761313d6132dc565b5b828203905092915050565b600061315482613193565b9050919050565b60008115159050919050565b60007fffffffff0000000000000000000000000000000000000000000000000000000082169050919050565b600073ffffffffffffffffffffffffffffffffffffffff82169050919050565b6000819050919050565b82818337600083830152505050565b60005b838110156131ea5780820151818401526020810190506131cf565b838111156131f9576000848401525b50505050565b6000600282049050600182168061321757607f821691505b6020821081141561322b5761322a61333a565b5b50919050565b61323a82613398565b810181811067ffffffffffffffff8211171561325957613258613369565b5b80604052505050565b600061326d826131b3565b91507fffffffffffffffffffffffffffffffffffffffffffffffffffffffffffffffff8214156132a05761329f6132dc565b5b600182019050919050565b60006132b6826131b3565b91506132c1836131b3565b9250826132d1576132d061330b565b5b828206905092915050565b7f4e487b7100000000000000000000000000000000000000000000000000000000600052601160045260246000fd5b7f4e487b7100000000000000000000000000000000000000000000000000000000600052601260045260246000fd5b7f4e487b7100000000000000000000000000000000000000000000000000000000600052602260045260246000fd5b7f4e487b7100000000000000000000000000000000000000000000000000000000600052604160045260246000fd5b6000601f19601f8301169050919050565b7f222c20225061696e74696e67223a220000000000000000000000000000000000600082015250565b7f4552433732313a207472616e7366657220746f206e6f6e20455243373231526560008201527f63656976657220696d706c656d656e7465720000000000000000000000000000602082015250565b7f4552433732313a207472616e736665722066726f6d20696e636f72726563742060008201527f6f776e6572000000000000000000000000000000000000000000000000000000602082015250565b7f4552433732313a20746f6b656e20616c7265616479206d696e74656400000000600082015250565b7f222c2022546f6b656e4964223a22000000000000000000000000000000000000600082015250565b7f222c20224465736372697074696f6e223a220000000000000000000000000000600082015250565b7f4552433732313a207472616e7366657220746f20746865207a65726f2061646460008201527f7265737300000000000000000000000000000000000000000000000000000000602082015250565b7f4552433732313a20617070726f766520746f2063616c6c657200000000000000600082015250565b7f22207d0000000000000000000000000000000000000000000000000000000000600082015250565b7f4552433732313a206f70657261746f7220717565727920666f72206e6f6e657860008201527f697374656e7420746f6b656e0000000000000000000000000000000000000000602082015250565b7f4552433732313a20617070726f76652063616c6c6572206973206e6f74206f7760008201527f6e6572206e6f7220617070726f76656420666f7220616c6c0000000000000000602082015250565b7f4552433732313a2062616c616e636520717565727920666f7220746865207a6560008201527f726f206164647265737300000000000000000000000000000000000000000000602082015250565b7f4552433732313a206f776e657220717565727920666f72206e6f6e657869737460008201527f656e7420746f6b656e0000000000000000000000000000000000000000000000602082015250565b7f45524337323155524953746f726167653a2055524920736574206f66206e6f6e60008201527f6578697374656e7420746f6b656e000000000000000000000000000000000000602082015250565b7f4552433732313a206d696e7420746f20746865207a65726f2061646472657373600082015250565b7f45524337323155524953746f726167653a2055524920717565727920666f722060008201527f6e6f6e6578697374656e7420746f6b656e000000000000000000000000000000602082015250565b7f4552433732313a20617070726f76656420717565727920666f72206e6f6e657860008201527f697374656e7420746f6b656e0000000000000000000000000000000000000000602082015250565b7f7b224e616d65223a220000000000000000000000000000000000000000000000600082015250565b7f4552433732314d657461646174613a2055524920717565727920666f72206e6f60008201527f6e6578697374656e7420746f6b656e0000000000000000000000000000000000602082015250565b7f4552433732313a20617070726f76616c20746f2063757272656e74206f776e6560008201527f7200000000000000000000000000000000000000000000000000000000000000602082015250565b7f646174613a6170706c69636174696f6e2f6a736f6e3b6261736536342c000000600082015250565b7f4552433732313a207472616e736665722063616c6c6572206973206e6f74206f60008201527f776e6572206e6f7220617070726f766564000000000000000000000000000000602082015250565b7f4552433732314275726e61626c653a2063616c6c6572206973206e6f74206f7760008201527f6e6572206e6f7220617070726f76656400000000000000000000000000000000602082015250565b61397581613149565b811461398057600080fd5b50565b61398c8161315b565b811461399757600080fd5b50565b6139a381613167565b81146139ae57600080fd5b50565b6139ba816131b3565b81146139c557600080fd5b5056fe4142434445464748494a4b4c4d4e4f505152535455565758595a6162636465666768696a6b6c6d6e6f707172737475767778797a303132333435363738392b2fa2646970667358221220150ae13f07e8188e4de400ef934dbe73c9fddd694bd58d473d4234b536de7a1b64736f6c63430008040033",
  "linkReferences": {},
  "deployedLinkReferences": {}
}