{
  "_format": "hh-sol-artifact-1",
  "contractName": "vjkNFT",
  "sourceName": "contracts/vjkNFT.sol",
  "abi": [
    {
      "inputs": [],
      "stateMutability": "payable",
      "type": "constructor"
    },
    {
      "anonymous": false,
      "inputs": [
        {
          "indexed": true,
          "internalType": "address",
          "name": "owner",
          "type": "address"
        },
        {
          "indexed": true,
          "internalType": "address",
          "name": "approved",
          "type": "address"
        },
        {
          "indexed": true,
          "internalType": "uint256",
          "name": "tokenId",
          "type": "uint256"
        }
      ],
      "name": "Approval",
      "type": "event"
    },
    {
      "anonymous": false,
      "inputs": [
        {
          "indexed": true,
          "internalType": "address",
          "name": "owner",
          "type": "address"
        },
        {
          "indexed": true,
          "internalType": "address",
          "name": "operator",
          "type": "address"
        },
        {
          "indexed": false,
          "internalType": "bool",
          "name": "approved",
          "type": "bool"
        }
      ],
      "name": "ApprovalForAll",
      "type": "event"
    },
    {
      "anonymous": false,
      "inputs": [
        {
          "indexed": true,
          "internalType": "address",
          "name": "previousOwner",
          "type": "address"
        },
        {
          "indexed": true,
          "internalType": "address",
          "name": "newOwner",
          "type": "address"
        }
      ],
      "name": "OwnershipTransferred",
      "type": "event"
    },
    {
      "anonymous": false,
      "inputs": [
        {
          "indexed": false,
          "internalType": "address",
          "name": "account",
          "type": "address"
        }
      ],
      "name": "Paused",
      "type": "event"
    },
    {
      "anonymous": false,
      "inputs": [
        {
          "indexed": true,
          "internalType": "address",
          "name": "from",
          "type": "address"
        },
        {
          "indexed": true,
          "internalType": "address",
          "name": "to",
          "type": "address"
        },
        {
          "indexed": true,
          "internalType": "uint256",
          "name": "tokenId",
          "type": "uint256"
        }
      ],
      "name": "Transfer",
      "type": "event"
    },
    {
      "anonymous": false,
      "inputs": [
        {
          "indexed": false,
          "internalType": "address",
          "name": "account",
          "type": "address"
        }
      ],
      "name": "Unpaused",
      "type": "event"
    },
    {
      "inputs": [
        {
          "internalType": "address",
          "name": "to",
          "type": "address"
        },
        {
          "internalType": "uint256",
          "name": "tokenId",
          "type": "uint256"
        }
      ],
      "name": "approve",
      "outputs": [],
      "stateMutability": "nonpayable",
      "type": "function"
    },
    {
      "inputs": [
        {
          "internalType": "address",
          "name": "owner",
          "type": "address"
        }
      ],
      "name": "balanceOf",
      "outputs": [
        {
          "internalType": "uint256",
          "name": "",
          "type": "uint256"
        }
      ],
      "stateMutability": "view",
      "type": "function"
    },
    {
      "inputs": [
        {
          "internalType": "uint256",
          "name": "tokenId",
          "type": "uint256"
        }
      ],
      "name": "getApproved",
      "outputs": [
        {
          "internalType": "address",
          "name": "",
          "type": "address"
        }
      ],
      "stateMutability": "view",
      "type": "function"
    },
    {
      "inputs": [
        {
          "internalType": "address",
          "name": "owner",
          "type": "address"
        },
        {
          "internalType": "address",
          "name": "operator",
          "type": "address"
        }
      ],
      "name": "isApprovedForAll",
      "outputs": [
        {
          "internalType": "bool",
          "name": "",
          "type": "bool"
        }
      ],
      "stateMutability": "view",
      "type": "function"
    },
    {
      "inputs": [],
      "name": "maxSupply",
      "outputs": [
        {
          "internalType": "uint256",
          "name": "",
          "type": "uint256"
        }
      ],
      "stateMutability": "view",
      "type": "function"
    },
    {
      "inputs": [],
      "name": "mintPrice",
      "outputs": [
        {
          "internalType": "uint256",
          "name": "",
          "type": "uint256"
        }
      ],
      "stateMutability": "view",
      "type": "function"
    },
    {
      "inputs": [
        {
          "internalType": "address",
          "name": "",
          "type": "address"
        }
      ],
      "name": "mintedWallets",
      "outputs": [
        {
          "internalType": "uint256",
          "name": "",
          "type": "uint256"
        }
      ],
      "stateMutability": "view",
      "type": "function"
    },
    {
      "inputs": [],
      "name": "name",
      "outputs": [
        {
          "internalType": "string",
          "name": "",
          "type": "string"
        }
      ],
      "stateMutability": "view",
      "type": "function"
    },
    {
      "inputs": [],
      "name": "owner",
      "outputs": [
        {
          "internalType": "address",
          "name": "",
          "type": "address"
        }
      ],
      "stateMutability": "view",
      "type": "function"
    },
    {
      "inputs": [
        {
          "internalType": "uint256",
          "name": "tokenId",
          "type": "uint256"
        }
      ],
      "name": "ownerOf",
      "outputs": [
        {
          "internalType": "address",
          "name": "",
          "type": "address"
        }
      ],
      "stateMutability": "view",
      "type": "function"
    },
    {
      "inputs": [],
      "name": "pause",
      "outputs": [],
      "stateMutability": "nonpayable",
      "type": "function"
    },
    {
      "inputs": [],
      "name": "paused",
      "outputs": [
        {
          "internalType": "bool",
          "name": "",
          "type": "bool"
        }
      ],
      "stateMutability": "view",
      "type": "function"
    },
    {
      "inputs": [],
      "name": "renounceOwnership",
      "outputs": [],
      "stateMutability": "nonpayable",
      "type": "function"
    },
    {
      "inputs": [
        {
          "internalType": "string",
          "name": "uri",
          "type": "string"
        }
      ],
      "name": "safeMint",
      "outputs": [],
      "stateMutability": "payable",
      "type": "function"
    },
    {
      "inputs": [
        {
          "internalType": "address",
          "name": "from",
          "type": "address"
        },
        {
          "internalType": "address",
          "name": "to",
          "type": "address"
        },
        {
          "internalType": "uint256",
          "name": "tokenId",
          "type": "uint256"
        }
      ],
      "name": "safeTransferFrom",
      "outputs": [],
      "stateMutability": "nonpayable",
      "type": "function"
    },
    {
      "inputs": [
        {
          "internalType": "address",
          "name": "from",
          "type": "address"
        },
        {
          "internalType": "address",
          "name": "to",
          "type": "address"
        },
        {
          "internalType": "uint256",
          "name": "tokenId",
          "type": "uint256"
        },
        {
          "internalType": "bytes",
          "name": "_data",
          "type": "bytes"
        }
      ],
      "name": "safeTransferFrom",
      "outputs": [],
      "stateMutability": "nonpayable",
      "type": "function"
    },
    {
      "inputs": [
        {
          "internalType": "address",
          "name": "operator",
          "type": "address"
        },
        {
          "internalType": "bool",
          "name": "approved",
          "type": "bool"
        }
      ],
      "name": "setApprovalForAll",
      "outputs": [],
      "stateMutability": "nonpayable",
      "type": "function"
    },
    {
      "inputs": [
        {
          "internalType": "uint256",
          "name": "_maxSupply",
          "type": "uint256"
        }
      ],
      "name": "setMaxSupply",
      "outputs": [],
      "stateMutability": "nonpayable",
      "type": "function"
    },
    {
      "inputs": [
        {
          "internalType": "bytes4",
          "name": "interfaceId",
          "type": "bytes4"
        }
      ],
      "name": "supportsInterface",
      "outputs": [
        {
          "internalType": "bool",
          "name": "",
          "type": "bool"
        }
      ],
      "stateMutability": "view",
      "type": "function"
    },
    {
      "inputs": [],
      "name": "symbol",
      "outputs": [
        {
          "internalType": "string",
          "name": "",
          "type": "string"
        }
      ],
      "stateMutability": "view",
      "type": "function"
    },
    {
      "inputs": [
        {
          "internalType": "uint256",
          "name": "tokenId",
          "type": "uint256"
        }
      ],
      "name": "tokenURI",
      "outputs": [
        {
          "internalType": "string",
          "name": "",
          "type": "string"
        }
      ],
      "stateMutability": "view",
      "type": "function"
    },
    {
      "inputs": [],
      "name": "totalSupply",
      "outputs": [
        {
          "internalType": "uint256",
          "name": "",
          "type": "uint256"
        }
      ],
      "stateMutability": "view",
      "type": "function"
    },
    {
      "inputs": [
        {
          "internalType": "address",
          "name": "from",
          "type": "address"
        },
        {
          "internalType": "address",
          "name": "to",
          "type": "address"
        },
        {
          "internalType": "uint256",
          "name": "tokenId",
          "type": "uint256"
        }
      ],
      "name": "transferFrom",
      "outputs": [],
      "stateMutability": "nonpayable",
      "type": "function"
    },
    {
      "inputs": [
        {
          "internalType": "address",
          "name": "newOwner",
          "type": "address"
        }
      ],
      "name": "transferOwnership",
      "outputs": [],
      "stateMutability": "nonpayable",
      "type": "function"
    },
    {
      "inputs": [],
      "name": "unpause",
      "outputs": [],
      "stateMutability": "nonpayable",
      "type": "function"
    }
  ],
  "bytecode": "0x608060405260006009556040518060400160405280600681526020017f766a6b4e465400000000000000000000000000000000000000000000000000008152506040518060400160405280600381526020017f564a4b000000000000000000000000000000000000000000000000000000000081525081600090805190602001906200008d929190620001c1565b508060019080519060200190620000a6929190620001c1565b5050506000600760006101000a81548160ff021916908315150217905550620000e4620000d8620000f360201b60201c565b620000fb60201b60201c565b612710600b81905550620002d6565b600033905090565b6000600760019054906101000a900473ffffffffffffffffffffffffffffffffffffffff16905081600760016101000a81548173ffffffffffffffffffffffffffffffffffffffff021916908373ffffffffffffffffffffffffffffffffffffffff1602179055508173ffffffffffffffffffffffffffffffffffffffff168173ffffffffffffffffffffffffffffffffffffffff167f8be0079c531659141344cd1fd0a4f28419497f9722a3daafe3b4186f6b6457e060405160405180910390a35050565b828054620001cf9062000271565b90600052602060002090601f016020900481019282620001f357600085556200023f565b82601f106200020e57805160ff19168380011785556200023f565b828001600101855582156200023f579182015b828111156200023e57825182559160200191906001019062000221565b5b5090506200024e919062000252565b5090565b5b808211156200026d57600081600090555060010162000253565b5090565b600060028204905060018216806200028a57607f821691505b60208210811415620002a157620002a0620002a7565b5b50919050565b7f4e487b7100000000000000000000000000000000000000000000000000000000600052602260045260246000fd5b61399180620002e66000396000f3fe6080604052600436106101665760003560e01c80636f8b44b0116100d1578063a22cb4651161008a578063c87b56dd11610064578063c87b56dd146104f5578063d5abeb0114610532578063e985e9c51461055d578063f2fde38b1461059a57610166565b8063a22cb46514610466578063ada7c4ed1461048f578063b88d4fde146104cc57610166565b80636f8b44b01461037c57806370a08231146103a5578063715018a6146103e25780638456cb59146103f95780638da5cb5b1461041057806395d89b411461043b57610166565b80633f4ba83a116101235780633f4ba83a1461028d57806342842e0e146102a45780635c975abb146102cd5780636352211e146102f85780636817c76c14610335578063695850fb1461036057610166565b806301ffc9a71461016b57806306fdde03146101a8578063081812fc146101d3578063095ea7b31461021057806318160ddd1461023957806323b872dd14610264575b600080fd5b34801561017757600080fd5b50610192600480360381019061018d91906126e3565b6105c3565b60405161019f9190612c1f565b60405180910390f35b3480156101b457600080fd5b506101bd6106a5565b6040516101ca9190612c3a565b60405180910390f35b3480156101df57600080fd5b506101fa60048036038101906101f59190612776565b610737565b6040516102079190612bb8565b60405180910390f35b34801561021c57600080fd5b50610237600480360381019061023291906126a7565b6107bc565b005b34801561024557600080fd5b5061024e6108d4565b60405161025b9190612f3c565b60405180910390f35b34801561027057600080fd5b5061028b600480360381019061028691906125a1565b6108da565b005b34801561029957600080fd5b506102a261093a565b005b3480156102b057600080fd5b506102cb60048036038101906102c691906125a1565b6109c0565b005b3480156102d957600080fd5b506102e26109e0565b6040516102ef9190612c1f565b60405180910390f35b34801561030457600080fd5b5061031f600480360381019061031a9190612776565b6109f7565b60405161032c9190612bb8565b60405180910390f35b34801561034157600080fd5b5061034a610aa9565b6040516103579190612f3c565b60405180910390f35b61037a60048036038101906103759190612735565b610aaf565b005b34801561038857600080fd5b506103a3600480360381019061039e9190612776565b610c8a565b005b3480156103b157600080fd5b506103cc60048036038101906103c7919061253c565b610d10565b6040516103d99190612f3c565b60405180910390f35b3480156103ee57600080fd5b506103f7610dc8565b005b34801561040557600080fd5b5061040e610e50565b005b34801561041c57600080fd5b50610425610ed6565b6040516104329190612bb8565b60405180910390f35b34801561044757600080fd5b50610450610f00565b60405161045d9190612c3a565b60405180910390f35b34801561047257600080fd5b5061048d6004803603810190610488919061266b565b610f92565b005b34801561049b57600080fd5b506104b660048036038101906104b1919061253c565b610fa8565b6040516104c39190612f3c565b60405180910390f35b3480156104d857600080fd5b506104f360048036038101906104ee91906125f0565b610fc0565b005b34801561050157600080fd5b5061051c60048036038101906105179190612776565b611022565b6040516105299190612c3a565b60405180910390f35b34801561053e57600080fd5b50610547611034565b6040516105549190612f3c565b60405180910390f35b34801561056957600080fd5b50610584600480360381019061057f9190612565565b61103a565b6040516105919190612c1f565b60405180910390f35b3480156105a657600080fd5b506105c160048036038101906105bc919061253c565b6110ce565b005b60007f80ac58cd000000000000000000000000000000000000000000000000000000007bffffffffffffffffffffffffffffffffffffffffffffffffffffffff1916827bffffffffffffffffffffffffffffffffffffffffffffffffffffffff1916148061068e57507f5b5e139f000000000000000000000000000000000000000000000000000000007bffffffffffffffffffffffffffffffffffffffffffffffffffffffff1916827bffffffffffffffffffffffffffffffffffffffffffffffffffffffff1916145b8061069e575061069d826111c6565b5b9050919050565b6060600080546106b490613192565b80601f01602080910402602001604051908101604052809291908181526020018280546106e090613192565b801561072d5780601f106107025761010080835404028352916020019161072d565b820191906000526020600020905b81548152906001019060200180831161071057829003601f168201915b5050505050905090565b600061074282611230565b610781576040517f08c379a000000000000000000000000000000000000000000000000000000000815260040161077890612e9c565b60405180910390fd5b6004600083815260200190815260200160002060009054906101000a900473ffffffffffffffffffffffffffffffffffffffff169050919050565b60006107c7826109f7565b90508073ffffffffffffffffffffffffffffffffffffffff168373ffffffffffffffffffffffffffffffffffffffff161415610838576040517f08c379a000000000000000000000000000000000000000000000000000000000815260040161082f90612efc565b60405180910390fd5b8073ffffffffffffffffffffffffffffffffffffffff1661085761129c565b73ffffffffffffffffffffffffffffffffffffffff16148061088657506108858161088061129c565b61103a565b5b6108c5576040517f08c379a00000000000000000000000000000000000000000000000000000000081526004016108bc90612d9c565b60405180910390fd5b6108cf83836112a4565b505050565b600a5481565b6108eb6108e561129c565b8261135d565b61092a576040517f08c379a000000000000000000000000000000000000000000000000000000000815260040161092190612f1c565b60405180910390fd5b61093583838361143b565b505050565b61094261129c565b73ffffffffffffffffffffffffffffffffffffffff16610960610ed6565b73ffffffffffffffffffffffffffffffffffffffff16146109b6576040517f08c379a00000000000000000000000000000000000000000000000000000000081526004016109ad90612ebc565b60405180910390fd5b6109be6116a2565b565b6109db83838360405180602001604052806000815250610fc0565b505050565b6000600760009054906101000a900460ff16905090565b6000806002600084815260200190815260200160002060009054906101000a900473ffffffffffffffffffffffffffffffffffffffff169050600073ffffffffffffffffffffffffffffffffffffffff168173ffffffffffffffffffffffffffffffffffffffff161415610aa0576040517f08c379a0000000000000000000000000000000000000000000000000000000008152600401610a9790612ddc565b60405180910390fd5b80915050919050565b60095481565b6000610abb6008611744565b90506001600c60003373ffffffffffffffffffffffffffffffffffffffff1673ffffffffffffffffffffffffffffffffffffffff1681526020019081526020016000205410610b3f576040517f08c379a0000000000000000000000000000000000000000000000000000000008152600401610b3690612e3c565b60405180910390fd5b6009543414610b83576040517f08c379a0000000000000000000000000000000000000000000000000000000008152600401610b7a90612e1c565b60405180910390fd5b80600b5411610bc7576040517f08c379a0000000000000000000000000000000000000000000000000000000008152600401610bbe90612d5c565b60405180910390fd5b600a6000815480929190610bda906131f5565b9190505550600c60003373ffffffffffffffffffffffffffffffffffffffff1673ffffffffffffffffffffffffffffffffffffffff1681526020019081526020016000206000815480929190610c2f906131f5565b9190505550610c3e6008611752565b610c483382611768565b6000610c52611786565b905060008184604051602001610c69929190612b94565b6040516020818303038152906040529050610c8483826117c3565b50505050565b610c9261129c565b73ffffffffffffffffffffffffffffffffffffffff16610cb0610ed6565b73ffffffffffffffffffffffffffffffffffffffff1614610d06576040517f08c379a0000000000000000000000000000000000000000000000000000000008152600401610cfd90612ebc565b60405180910390fd5b80600b8190555050565b60008073ffffffffffffffffffffffffffffffffffffffff168273ffffffffffffffffffffffffffffffffffffffff161415610d81576040517f08c379a0000000000000000000000000000000000000000000000000000000008152600401610d7890612dbc565b60405180910390fd5b600360008373ffffffffffffffffffffffffffffffffffffffff1673ffffffffffffffffffffffffffffffffffffffff168152602001908152602001600020549050919050565b610dd061129c565b73ffffffffffffffffffffffffffffffffffffffff16610dee610ed6565b73ffffffffffffffffffffffffffffffffffffffff1614610e44576040517f08c379a0000000000000000000000000000000000000000000000000000000008152600401610e3b90612ebc565b60405180910390fd5b610e4e6000611837565b565b610e5861129c565b73ffffffffffffffffffffffffffffffffffffffff16610e76610ed6565b73ffffffffffffffffffffffffffffffffffffffff1614610ecc576040517f08c379a0000000000000000000000000000000000000000000000000000000008152600401610ec390612ebc565b60405180910390fd5b610ed46118fd565b565b6000600760019054906101000a900473ffffffffffffffffffffffffffffffffffffffff16905090565b606060018054610f0f90613192565b80601f0160208091040260200160405190810160405280929190818152602001828054610f3b90613192565b8015610f885780601f10610f5d57610100808354040283529160200191610f88565b820191906000526020600020905b815481529060010190602001808311610f6b57829003601f168201915b5050505050905090565b610fa4610f9d61129c565b83836119a0565b5050565b600c6020528060005260406000206000915090505481565b610fd1610fcb61129c565b8361135d565b611010576040517f08c379a000000000000000000000000000000000000000000000000000000000815260040161100790612f1c565b60405180910390fd5b61101c84848484611b0d565b50505050565b606061102d82611b69565b9050919050565b600b5481565b6000600560008473ffffffffffffffffffffffffffffffffffffffff1673ffffffffffffffffffffffffffffffffffffffff16815260200190815260200160002060008373ffffffffffffffffffffffffffffffffffffffff1673ffffffffffffffffffffffffffffffffffffffff16815260200190815260200160002060009054906101000a900460ff16905092915050565b6110d661129c565b73ffffffffffffffffffffffffffffffffffffffff166110f4610ed6565b73ffffffffffffffffffffffffffffffffffffffff161461114a576040517f08c379a000000000000000000000000000000000000000000000000000000000815260040161114190612ebc565b60405180910390fd5b600073ffffffffffffffffffffffffffffffffffffffff168173ffffffffffffffffffffffffffffffffffffffff1614156111ba576040517f08c379a00000000000000000000000000000000000000000000000000000000081526004016111b190612c9c565b60405180910390fd5b6111c381611837565b50565b60007f01ffc9a7000000000000000000000000000000000000000000000000000000007bffffffffffffffffffffffffffffffffffffffffffffffffffffffff1916827bffffffffffffffffffffffffffffffffffffffffffffffffffffffff1916149050919050565b60008073ffffffffffffffffffffffffffffffffffffffff166002600084815260200190815260200160002060009054906101000a900473ffffffffffffffffffffffffffffffffffffffff1673ffffffffffffffffffffffffffffffffffffffff1614159050919050565b600033905090565b816004600083815260200190815260200160002060006101000a81548173ffffffffffffffffffffffffffffffffffffffff021916908373ffffffffffffffffffffffffffffffffffffffff160217905550808273ffffffffffffffffffffffffffffffffffffffff16611317836109f7565b73ffffffffffffffffffffffffffffffffffffffff167f8c5be1e5ebec7d5bd14f71427d1e84f3dd0314c0f7b2291e5b200ac8c7c3b92560405160405180910390a45050565b600061136882611230565b6113a7576040517f08c379a000000000000000000000000000000000000000000000000000000000815260040161139e90612d3c565b60405180910390fd5b60006113b2836109f7565b90508073ffffffffffffffffffffffffffffffffffffffff168473ffffffffffffffffffffffffffffffffffffffff16148061142157508373ffffffffffffffffffffffffffffffffffffffff1661140984610737565b73ffffffffffffffffffffffffffffffffffffffff16145b806114325750611431818561103a565b5b91505092915050565b8273ffffffffffffffffffffffffffffffffffffffff1661145b826109f7565b73ffffffffffffffffffffffffffffffffffffffff16146114b1576040517f08c379a00000000000000000000000000000000000000000000000000000000081526004016114a890612cbc565b60405180910390fd5b600073ffffffffffffffffffffffffffffffffffffffff168273ffffffffffffffffffffffffffffffffffffffff161415611521576040517f08c379a000000000000000000000000000000000000000000000000000000000815260040161151890612cfc565b60405180910390fd5b61152c838383611cbb565b6115376000826112a4565b6001600360008573ffffffffffffffffffffffffffffffffffffffff1673ffffffffffffffffffffffffffffffffffffffff168152602001908152602001600020600082825461158791906130a8565b925050819055506001600360008473ffffffffffffffffffffffffffffffffffffffff1673ffffffffffffffffffffffffffffffffffffffff16815260200190815260200160002060008282546115de9190613021565b92505081905550816002600083815260200190815260200160002060006101000a81548173ffffffffffffffffffffffffffffffffffffffff021916908373ffffffffffffffffffffffffffffffffffffffff160217905550808273ffffffffffffffffffffffffffffffffffffffff168473ffffffffffffffffffffffffffffffffffffffff167fddf252ad1be2c89b69c2b068fc378daa952ba7f163c4a11628f55a4df523b3ef60405160405180910390a461169d838383611d13565b505050565b6116aa6109e0565b6116e9576040517f08c379a00000000000000000000000000000000000000000000000000000000081526004016116e090612c5c565b60405180910390fd5b6000600760006101000a81548160ff0219169083151502179055507f5db9ee0a495bf2e6ff9c91a7834c1ba4fdd244a5e8aa4e537bd38aeae4b073aa61172d61129c565b60405161173a9190612bb8565b60405180910390a1565b600081600001549050919050565b6001816000016000828254019250508190555050565b611782828260405180602001604052806000815250611d18565b5050565b60606040518060400160405280601d81526020017f646174613a6170706c69636174696f6e2f6a736f6e3b6261736536342c000000815250905090565b6117cc82611230565b61180b576040517f08c379a000000000000000000000000000000000000000000000000000000000815260040161180290612dfc565b60405180910390fd5b80600660008481526020019081526020016000209080519060200190611832929190612360565b505050565b6000600760019054906101000a900473ffffffffffffffffffffffffffffffffffffffff16905081600760016101000a81548173ffffffffffffffffffffffffffffffffffffffff021916908373ffffffffffffffffffffffffffffffffffffffff1602179055508173ffffffffffffffffffffffffffffffffffffffff168173ffffffffffffffffffffffffffffffffffffffff167f8be0079c531659141344cd1fd0a4f28419497f9722a3daafe3b4186f6b6457e060405160405180910390a35050565b6119056109e0565b15611945576040517f08c379a000000000000000000000000000000000000000000000000000000000815260040161193c90612d7c565b60405180910390fd5b6001600760006101000a81548160ff0219169083151502179055507f62e78cea01bee320cd4e420270b5ea74000d11b0c9f74754ebdbfc544b05a25861198961129c565b6040516119969190612bb8565b60405180910390a1565b8173ffffffffffffffffffffffffffffffffffffffff168373ffffffffffffffffffffffffffffffffffffffff161415611a0f576040517f08c379a0000000000000000000000000000000000000000000000000000000008152600401611a0690612d1c565b60405180910390fd5b80600560008573ffffffffffffffffffffffffffffffffffffffff1673ffffffffffffffffffffffffffffffffffffffff16815260200190815260200160002060008473ffffffffffffffffffffffffffffffffffffffff1673ffffffffffffffffffffffffffffffffffffffff16815260200190815260200160002060006101000a81548160ff0219169083151502179055508173ffffffffffffffffffffffffffffffffffffffff168373ffffffffffffffffffffffffffffffffffffffff167f17307eab39ab6107e8899845ad3d59bd9653f200f220920489ca2b5937696c3183604051611b009190612c1f565b60405180910390a3505050565b611b1884848461143b565b611b2484848484611d73565b611b63576040517f08c379a0000000000000000000000000000000000000000000000000000000008152600401611b5a90612c7c565b60405180910390fd5b50505050565b6060611b7482611230565b611bb3576040517f08c379a0000000000000000000000000000000000000000000000000000000008152600401611baa90612e7c565b60405180910390fd5b6000600660008481526020019081526020016000208054611bd390613192565b80601f0160208091040260200160405190810160405280929190818152602001828054611bff90613192565b8015611c4c5780601f10611c2157610100808354040283529160200191611c4c565b820191906000526020600020905b815481529060010190602001808311611c2f57829003601f168201915b505050505090506000611c5d611786565b9050600081511415611c73578192505050611cb6565b600082511115611ca8578082604051602001611c90929190612b94565b60405160208183030381529060405292505050611cb6565b611cb184611f0a565b925050505b919050565b611cc36109e0565b15611d03576040517f08c379a0000000000000000000000000000000000000000000000000000000008152600401611cfa90612d7c565b60405180910390fd5b611d0e838383611fb1565b505050565b505050565b611d228383611fb6565b611d2f6000848484611d73565b611d6e576040517f08c379a0000000000000000000000000000000000000000000000000000000008152600401611d6590612c7c565b60405180910390fd5b505050565b6000611d948473ffffffffffffffffffffffffffffffffffffffff16612190565b15611efd578373ffffffffffffffffffffffffffffffffffffffff1663150b7a02611dbd61129c565b8786866040518563ffffffff1660e01b8152600401611ddf9493929190612bd3565b602060405180830381600087803b158015611df957600080fd5b505af1925050508015611e2a57506040513d601f19601f82011682018060405250810190611e27919061270c565b60015b611ead573d8060008114611e5a576040519150601f19603f3d011682016040523d82523d6000602084013e611e5f565b606091505b50600081511415611ea5576040517f08c379a0000000000000000000000000000000000000000000000000000000008152600401611e9c90612c7c565b60405180910390fd5b805181602001fd5b63150b7a0260e01b7bffffffffffffffffffffffffffffffffffffffffffffffffffffffff1916817bffffffffffffffffffffffffffffffffffffffffffffffffffffffff191614915050611f02565b600190505b949350505050565b6060611f1582611230565b611f54576040517f08c379a0000000000000000000000000000000000000000000000000000000008152600401611f4b90612edc565b60405180910390fd5b6000611f5e611786565b90506000815111611f7e5760405180602001604052806000815250611fa9565b80611f88846121b3565b604051602001611f99929190612b94565b6040516020818303038152906040525b915050919050565b505050565b600073ffffffffffffffffffffffffffffffffffffffff168273ffffffffffffffffffffffffffffffffffffffff161415612026576040517f08c379a000000000000000000000000000000000000000000000000000000000815260040161201d90612e5c565b60405180910390fd5b61202f81611230565b1561206f576040517f08c379a000000000000000000000000000000000000000000000000000000000815260040161206690612cdc565b60405180910390fd5b61207b60008383611cbb565b6001600360008473ffffffffffffffffffffffffffffffffffffffff1673ffffffffffffffffffffffffffffffffffffffff16815260200190815260200160002060008282546120cb9190613021565b92505081905550816002600083815260200190815260200160002060006101000a81548173ffffffffffffffffffffffffffffffffffffffff021916908373ffffffffffffffffffffffffffffffffffffffff160217905550808273ffffffffffffffffffffffffffffffffffffffff16600073ffffffffffffffffffffffffffffffffffffffff167fddf252ad1be2c89b69c2b068fc378daa952ba7f163c4a11628f55a4df523b3ef60405160405180910390a461218c60008383611d13565b5050565b6000808273ffffffffffffffffffffffffffffffffffffffff163b119050919050565b606060008214156121fb576040518060400160405280600181526020017f3000000000000000000000000000000000000000000000000000000000000000815250905061235b565b600082905060005b6000821461222d578080612216906131f5565b915050600a826122269190613077565b9150612203565b60008167ffffffffffffffff81111561226f577f4e487b7100000000000000000000000000000000000000000000000000000000600052604160045260246000fd5b6040519080825280601f01601f1916602001820160405280156122a15781602001600182028036833780820191505090505b5090505b60008514612354576001826122ba91906130a8565b9150600a856122c9919061323e565b60306122d59190613021565b60f81b818381518110612311577f4e487b7100000000000000000000000000000000000000000000000000000000600052603260045260246000fd5b60200101907effffffffffffffffffffffffffffffffffffffffffffffffffffffffffffff1916908160001a905350600a8561234d9190613077565b94506122a5565b8093505050505b919050565b82805461236c90613192565b90600052602060002090601f01602090048101928261238e57600085556123d5565b82601f106123a757805160ff19168380011785556123d5565b828001600101855582156123d5579182015b828111156123d45782518255916020019190600101906123b9565b5b5090506123e291906123e6565b5090565b5b808211156123ff5760008160009055506001016123e7565b5090565b600061241661241184612f7c565b612f57565b90508281526020810184848401111561242e57600080fd5b612439848285613150565b509392505050565b600061245461244f84612fad565b612f57565b90508281526020810184848401111561246c57600080fd5b612477848285613150565b509392505050565b60008135905061248e816138ff565b92915050565b6000813590506124a381613916565b92915050565b6000813590506124b88161392d565b92915050565b6000815190506124cd8161392d565b92915050565b600082601f8301126124e457600080fd5b81356124f4848260208601612403565b91505092915050565b600082601f83011261250e57600080fd5b813561251e848260208601612441565b91505092915050565b60008135905061253681613944565b92915050565b60006020828403121561254e57600080fd5b600061255c8482850161247f565b91505092915050565b6000806040838503121561257857600080fd5b60006125868582860161247f565b92505060206125978582860161247f565b9150509250929050565b6000806000606084860312156125b657600080fd5b60006125c48682870161247f565b93505060206125d58682870161247f565b92505060406125e686828701612527565b9150509250925092565b6000806000806080858703121561260657600080fd5b60006126148782880161247f565b94505060206126258782880161247f565b935050604061263687828801612527565b925050606085013567ffffffffffffffff81111561265357600080fd5b61265f878288016124d3565b91505092959194509250565b6000806040838503121561267e57600080fd5b600061268c8582860161247f565b925050602061269d85828601612494565b9150509250929050565b600080604083850312156126ba57600080fd5b60006126c88582860161247f565b92505060206126d985828601612527565b9150509250929050565b6000602082840312156126f557600080fd5b6000612703848285016124a9565b91505092915050565b60006020828403121561271e57600080fd5b600061272c848285016124be565b91505092915050565b60006020828403121561274757600080fd5b600082013567ffffffffffffffff81111561276157600080fd5b61276d848285016124fd565b91505092915050565b60006020828403121561278857600080fd5b600061279684828501612527565b91505092915050565b6127a8816130dc565b82525050565b6127b7816130ee565b82525050565b60006127c882612fde565b6127d28185612ff4565b93506127e281856020860161315f565b6127eb8161332b565b840191505092915050565b600061280182612fe9565b61280b8185613005565b935061281b81856020860161315f565b6128248161332b565b840191505092915050565b600061283a82612fe9565b6128448185613016565b935061285481856020860161315f565b80840191505092915050565b600061286d601483613005565b91506128788261333c565b602082019050919050565b6000612890603283613005565b915061289b82613365565b604082019050919050565b60006128b3602683613005565b91506128be826133b4565b604082019050919050565b60006128d6602583613005565b91506128e182613403565b604082019050919050565b60006128f9601c83613005565b915061290482613452565b602082019050919050565b600061291c602483613005565b91506129278261347b565b604082019050919050565b600061293f601983613005565b915061294a826134ca565b602082019050919050565b6000612962602c83613005565b915061296d826134f3565b604082019050919050565b6000612985600883613005565b915061299082613542565b602082019050919050565b60006129a8601083613005565b91506129b38261356b565b602082019050919050565b60006129cb603883613005565b91506129d682613594565b604082019050919050565b60006129ee602a83613005565b91506129f9826135e3565b604082019050919050565b6000612a11602983613005565b9150612a1c82613632565b604082019050919050565b6000612a34602e83613005565b9150612a3f82613681565b604082019050919050565b6000612a57600b83613005565b9150612a62826136d0565b602082019050919050565b6000612a7a601683613005565b9150612a85826136f9565b602082019050919050565b6000612a9d602083613005565b9150612aa882613722565b602082019050919050565b6000612ac0603183613005565b9150612acb8261374b565b604082019050919050565b6000612ae3602c83613005565b9150612aee8261379a565b604082019050919050565b6000612b06602083613005565b9150612b11826137e9565b602082019050919050565b6000612b29602f83613005565b9150612b3482613812565b604082019050919050565b6000612b4c602183613005565b9150612b5782613861565b604082019050919050565b6000612b6f603183613005565b9150612b7a826138b0565b604082019050919050565b612b8e81613146565b82525050565b6000612ba0828561282f565b9150612bac828461282f565b91508190509392505050565b6000602082019050612bcd600083018461279f565b92915050565b6000608082019050612be8600083018761279f565b612bf5602083018661279f565b612c026040830185612b85565b8181036060830152612c1481846127bd565b905095945050505050565b6000602082019050612c3460008301846127ae565b92915050565b60006020820190508181036000830152612c5481846127f6565b905092915050565b60006020820190508181036000830152612c7581612860565b9050919050565b60006020820190508181036000830152612c9581612883565b9050919050565b60006020820190508181036000830152612cb5816128a6565b9050919050565b60006020820190508181036000830152612cd5816128c9565b9050919050565b60006020820190508181036000830152612cf5816128ec565b9050919050565b60006020820190508181036000830152612d158161290f565b9050919050565b60006020820190508181036000830152612d3581612932565b9050919050565b60006020820190508181036000830152612d5581612955565b9050919050565b60006020820190508181036000830152612d7581612978565b9050919050565b60006020820190508181036000830152612d958161299b565b9050919050565b60006020820190508181036000830152612db5816129be565b9050919050565b60006020820190508181036000830152612dd5816129e1565b9050919050565b60006020820190508181036000830152612df581612a04565b9050919050565b60006020820190508181036000830152612e1581612a27565b9050919050565b60006020820190508181036000830152612e3581612a4a565b9050919050565b60006020820190508181036000830152612e5581612a6d565b9050919050565b60006020820190508181036000830152612e7581612a90565b9050919050565b60006020820190508181036000830152612e9581612ab3565b9050919050565b60006020820190508181036000830152612eb581612ad6565b9050919050565b60006020820190508181036000830152612ed581612af9565b9050919050565b60006020820190508181036000830152612ef581612b1c565b9050919050565b60006020820190508181036000830152612f1581612b3f565b9050919050565b60006020820190508181036000830152612f3581612b62565b9050919050565b6000602082019050612f516000830184612b85565b92915050565b6000612f61612f72565b9050612f6d82826131c4565b919050565b6000604051905090565b600067ffffffffffffffff821115612f9757612f966132fc565b5b612fa08261332b565b9050602081019050919050565b600067ffffffffffffffff821115612fc857612fc76132fc565b5b612fd18261332b565b9050602081019050919050565b600081519050919050565b600081519050919050565b600082825260208201905092915050565b600082825260208201905092915050565b600081905092915050565b600061302c82613146565b915061303783613146565b9250827fffffffffffffffffffffffffffffffffffffffffffffffffffffffffffffffff0382111561306c5761306b61326f565b5b828201905092915050565b600061308282613146565b915061308d83613146565b92508261309d5761309c61329e565b5b828204905092915050565b60006130b382613146565b91506130be83613146565b9250828210156130d1576130d061326f565b5b828203905092915050565b60006130e782613126565b9050919050565b60008115159050919050565b60007fffffffff0000000000000000000000000000000000000000000000000000000082169050919050565b600073ffffffffffffffffffffffffffffffffffffffff82169050919050565b6000819050919050565b82818337600083830152505050565b60005b8381101561317d578082015181840152602081019050613162565b8381111561318c576000848401525b50505050565b600060028204905060018216806131aa57607f821691505b602082108114156131be576131bd6132cd565b5b50919050565b6131cd8261332b565b810181811067ffffffffffffffff821117156131ec576131eb6132fc565b5b80604052505050565b600061320082613146565b91507fffffffffffffffffffffffffffffffffffffffffffffffffffffffffffffffff8214156132335761323261326f565b5b600182019050919050565b600061324982613146565b915061325483613146565b9250826132645761326361329e565b5b828206905092915050565b7f4e487b7100000000000000000000000000000000000000000000000000000000600052601160045260246000fd5b7f4e487b7100000000000000000000000000000000000000000000000000000000600052601260045260246000fd5b7f4e487b7100000000000000000000000000000000000000000000000000000000600052602260045260246000fd5b7f4e487b7100000000000000000000000000000000000000000000000000000000600052604160045260246000fd5b6000601f19601f8301169050919050565b7f5061757361626c653a206e6f7420706175736564000000000000000000000000600082015250565b7f4552433732313a207472616e7366657220746f206e6f6e20455243373231526560008201527f63656976657220696d706c656d656e7465720000000000000000000000000000602082015250565b7f4f776e61626c653a206e6577206f776e657220697320746865207a65726f206160008201527f6464726573730000000000000000000000000000000000000000000000000000602082015250565b7f4552433732313a207472616e736665722066726f6d20696e636f72726563742060008201527f6f776e6572000000000000000000000000000000000000000000000000000000602082015250565b7f4552433732313a20746f6b656e20616c7265616479206d696e74656400000000600082015250565b7f4552433732313a207472616e7366657220746f20746865207a65726f2061646460008201527f7265737300000000000000000000000000000000000000000000000000000000602082015250565b7f4552433732313a20617070726f766520746f2063616c6c657200000000000000600082015250565b7f4552433732313a206f70657261746f7220717565727920666f72206e6f6e657860008201527f697374656e7420746f6b656e0000000000000000000000000000000000000000602082015250565b7f736f6c64206f7574000000000000000000000000000000000000000000000000600082015250565b7f5061757361626c653a2070617573656400000000000000000000000000000000600082015250565b7f4552433732313a20617070726f76652063616c6c6572206973206e6f74206f7760008201527f6e6572206e6f7220617070726f76656420666f7220616c6c0000000000000000602082015250565b7f4552433732313a2062616c616e636520717565727920666f7220746865207a6560008201527f726f206164647265737300000000000000000000000000000000000000000000602082015250565b7f4552433732313a206f776e657220717565727920666f72206e6f6e657869737460008201527f656e7420746f6b656e0000000000000000000000000000000000000000000000602082015250565b7f45524337323155524953746f726167653a2055524920736574206f66206e6f6e60008201527f6578697374656e7420746f6b656e000000000000000000000000000000000000602082015250565b7f77726f6e672076616c7565000000000000000000000000000000000000000000600082015250565b7f65786365656473206d6178207065722077616c6c657400000000000000000000600082015250565b7f4552433732313a206d696e7420746f20746865207a65726f2061646472657373600082015250565b7f45524337323155524953746f726167653a2055524920717565727920666f722060008201527f6e6f6e6578697374656e7420746f6b656e000000000000000000000000000000602082015250565b7f4552433732313a20617070726f76656420717565727920666f72206e6f6e657860008201527f697374656e7420746f6b656e0000000000000000000000000000000000000000602082015250565b7f4f776e61626c653a2063616c6c6572206973206e6f7420746865206f776e6572600082015250565b7f4552433732314d657461646174613a2055524920717565727920666f72206e6f60008201527f6e6578697374656e7420746f6b656e0000000000000000000000000000000000602082015250565b7f4552433732313a20617070726f76616c20746f2063757272656e74206f776e6560008201527f7200000000000000000000000000000000000000000000000000000000000000602082015250565b7f4552433732313a207472616e736665722063616c6c6572206973206e6f74206f60008201527f776e6572206e6f7220617070726f766564000000000000000000000000000000602082015250565b613908816130dc565b811461391357600080fd5b50565b61391f816130ee565b811461392a57600080fd5b50565b613936816130fa565b811461394157600080fd5b50565b61394d81613146565b811461395857600080fd5b5056fea2646970667358221220e9f4634e57c86bf87869b303453482b80226fb36ac68386b88616753922cc06f64736f6c63430008040033",
  "linkReferences": {},
  "deployedLinkReferences": {}
}