{
  "_format": "hh-sol-artifact-1",
  "contractName": "vjkNFT",
  "sourceName": "contracts/vjkNFT.sol",
  "abi": [
    {
      "inputs": [],
      "stateMutability": "payable",
      "type": "constructor"
    },
    {
      "anonymous": false,
      "inputs": [
        {
          "indexed": true,
          "internalType": "address",
          "name": "owner",
          "type": "address"
        },
        {
          "indexed": true,
          "internalType": "address",
          "name": "approved",
          "type": "address"
        },
        {
          "indexed": true,
          "internalType": "uint256",
          "name": "tokenId",
          "type": "uint256"
        }
      ],
      "name": "Approval",
      "type": "event"
    },
    {
      "anonymous": false,
      "inputs": [
        {
          "indexed": true,
          "internalType": "address",
          "name": "owner",
          "type": "address"
        },
        {
          "indexed": true,
          "internalType": "address",
          "name": "operator",
          "type": "address"
        },
        {
          "indexed": false,
          "internalType": "bool",
          "name": "approved",
          "type": "bool"
        }
      ],
      "name": "ApprovalForAll",
      "type": "event"
    },
    {
      "anonymous": false,
      "inputs": [
        {
          "indexed": true,
          "internalType": "address",
          "name": "previousOwner",
          "type": "address"
        },
        {
          "indexed": true,
          "internalType": "address",
          "name": "newOwner",
          "type": "address"
        }
      ],
      "name": "OwnershipTransferred",
      "type": "event"
    },
    {
      "anonymous": false,
      "inputs": [
        {
          "indexed": false,
          "internalType": "address",
          "name": "account",
          "type": "address"
        }
      ],
      "name": "Paused",
      "type": "event"
    },
    {
      "anonymous": false,
      "inputs": [
        {
          "indexed": true,
          "internalType": "address",
          "name": "from",
          "type": "address"
        },
        {
          "indexed": true,
          "internalType": "address",
          "name": "to",
          "type": "address"
        },
        {
          "indexed": true,
          "internalType": "uint256",
          "name": "tokenId",
          "type": "uint256"
        }
      ],
      "name": "Transfer",
      "type": "event"
    },
    {
      "anonymous": false,
      "inputs": [
        {
          "indexed": false,
          "internalType": "address",
          "name": "account",
          "type": "address"
        }
      ],
      "name": "Unpaused",
      "type": "event"
    },
    {
      "inputs": [
        {
          "internalType": "address",
          "name": "to",
          "type": "address"
        },
        {
          "internalType": "uint256",
          "name": "tokenId",
          "type": "uint256"
        }
      ],
      "name": "approve",
      "outputs": [],
      "stateMutability": "nonpayable",
      "type": "function"
    },
    {
      "inputs": [
        {
          "internalType": "address",
          "name": "owner",
          "type": "address"
        }
      ],
      "name": "balanceOf",
      "outputs": [
        {
          "internalType": "uint256",
          "name": "",
          "type": "uint256"
        }
      ],
      "stateMutability": "view",
      "type": "function"
    },
    {
      "inputs": [
        {
          "internalType": "uint256",
          "name": "tokenId",
          "type": "uint256"
        }
      ],
      "name": "getApproved",
      "outputs": [
        {
          "internalType": "address",
          "name": "",
          "type": "address"
        }
      ],
      "stateMutability": "view",
      "type": "function"
    },
    {
      "inputs": [
        {
          "internalType": "address",
          "name": "owner",
          "type": "address"
        },
        {
          "internalType": "address",
          "name": "operator",
          "type": "address"
        }
      ],
      "name": "isApprovedForAll",
      "outputs": [
        {
          "internalType": "bool",
          "name": "",
          "type": "bool"
        }
      ],
      "stateMutability": "view",
      "type": "function"
    },
    {
      "inputs": [],
      "name": "maxSupply",
      "outputs": [
        {
          "internalType": "uint256",
          "name": "",
          "type": "uint256"
        }
      ],
      "stateMutability": "view",
      "type": "function"
    },
    {
      "inputs": [],
      "name": "mintPrice",
      "outputs": [
        {
          "internalType": "uint256",
          "name": "",
          "type": "uint256"
        }
      ],
      "stateMutability": "view",
      "type": "function"
    },
    {
      "inputs": [
        {
          "internalType": "address",
          "name": "",
          "type": "address"
        }
      ],
      "name": "mintedWallets",
      "outputs": [
        {
          "internalType": "uint256",
          "name": "",
          "type": "uint256"
        }
      ],
      "stateMutability": "view",
      "type": "function"
    },
    {
      "inputs": [],
      "name": "name",
      "outputs": [
        {
          "internalType": "string",
          "name": "",
          "type": "string"
        }
      ],
      "stateMutability": "view",
      "type": "function"
    },
    {
      "inputs": [],
      "name": "owner",
      "outputs": [
        {
          "internalType": "address",
          "name": "",
          "type": "address"
        }
      ],
      "stateMutability": "view",
      "type": "function"
    },
    {
      "inputs": [
        {
          "internalType": "uint256",
          "name": "tokenId",
          "type": "uint256"
        }
      ],
      "name": "ownerOf",
      "outputs": [
        {
          "internalType": "address",
          "name": "",
          "type": "address"
        }
      ],
      "stateMutability": "view",
      "type": "function"
    },
    {
      "inputs": [],
      "name": "pause",
      "outputs": [],
      "stateMutability": "nonpayable",
      "type": "function"
    },
    {
      "inputs": [],
      "name": "paused",
      "outputs": [
        {
          "internalType": "bool",
          "name": "",
          "type": "bool"
        }
      ],
      "stateMutability": "view",
      "type": "function"
    },
    {
      "inputs": [],
      "name": "renounceOwnership",
      "outputs": [],
      "stateMutability": "nonpayable",
      "type": "function"
    },
    {
      "inputs": [
        {
          "internalType": "string",
          "name": "uri",
          "type": "string"
        }
      ],
      "name": "safeMint",
      "outputs": [],
      "stateMutability": "payable",
      "type": "function"
    },
    {
      "inputs": [
        {
          "internalType": "address",
          "name": "from",
          "type": "address"
        },
        {
          "internalType": "address",
          "name": "to",
          "type": "address"
        },
        {
          "internalType": "uint256",
          "name": "tokenId",
          "type": "uint256"
        }
      ],
      "name": "safeTransferFrom",
      "outputs": [],
      "stateMutability": "nonpayable",
      "type": "function"
    },
    {
      "inputs": [
        {
          "internalType": "address",
          "name": "from",
          "type": "address"
        },
        {
          "internalType": "address",
          "name": "to",
          "type": "address"
        },
        {
          "internalType": "uint256",
          "name": "tokenId",
          "type": "uint256"
        },
        {
          "internalType": "bytes",
          "name": "_data",
          "type": "bytes"
        }
      ],
      "name": "safeTransferFrom",
      "outputs": [],
      "stateMutability": "nonpayable",
      "type": "function"
    },
    {
      "inputs": [
        {
          "internalType": "address",
          "name": "operator",
          "type": "address"
        },
        {
          "internalType": "bool",
          "name": "approved",
          "type": "bool"
        }
      ],
      "name": "setApprovalForAll",
      "outputs": [],
      "stateMutability": "nonpayable",
      "type": "function"
    },
    {
      "inputs": [
        {
          "internalType": "uint256",
          "name": "_maxSupply",
          "type": "uint256"
        }
      ],
      "name": "setMaxSupply",
      "outputs": [],
      "stateMutability": "nonpayable",
      "type": "function"
    },
    {
      "inputs": [
        {
          "internalType": "uint256",
          "name": "_mintPrice",
          "type": "uint256"
        }
      ],
      "name": "setMintPrice",
      "outputs": [],
      "stateMutability": "nonpayable",
      "type": "function"
    },
    {
      "inputs": [
        {
          "internalType": "bytes4",
          "name": "interfaceId",
          "type": "bytes4"
        }
      ],
      "name": "supportsInterface",
      "outputs": [
        {
          "internalType": "bool",
          "name": "",
          "type": "bool"
        }
      ],
      "stateMutability": "view",
      "type": "function"
    },
    {
      "inputs": [],
      "name": "symbol",
      "outputs": [
        {
          "internalType": "string",
          "name": "",
          "type": "string"
        }
      ],
      "stateMutability": "view",
      "type": "function"
    },
    {
      "inputs": [
        {
          "internalType": "uint256",
          "name": "index",
          "type": "uint256"
        }
      ],
      "name": "tokenByIndex",
      "outputs": [
        {
          "internalType": "uint256",
          "name": "",
          "type": "uint256"
        }
      ],
      "stateMutability": "view",
      "type": "function"
    },
    {
      "inputs": [
        {
          "internalType": "address",
          "name": "owner",
          "type": "address"
        },
        {
          "internalType": "uint256",
          "name": "index",
          "type": "uint256"
        }
      ],
      "name": "tokenOfOwnerByIndex",
      "outputs": [
        {
          "internalType": "uint256",
          "name": "",
          "type": "uint256"
        }
      ],
      "stateMutability": "view",
      "type": "function"
    },
    {
      "inputs": [
        {
          "internalType": "uint256",
          "name": "tokenId",
          "type": "uint256"
        }
      ],
      "name": "tokenURI",
      "outputs": [
        {
          "internalType": "string",
          "name": "",
          "type": "string"
        }
      ],
      "stateMutability": "view",
      "type": "function"
    },
    {
      "inputs": [],
      "name": "totalSupply",
      "outputs": [
        {
          "internalType": "uint256",
          "name": "",
          "type": "uint256"
        }
      ],
      "stateMutability": "view",
      "type": "function"
    },
    {
      "inputs": [
        {
          "internalType": "address",
          "name": "from",
          "type": "address"
        },
        {
          "internalType": "address",
          "name": "to",
          "type": "address"
        },
        {
          "internalType": "uint256",
          "name": "tokenId",
          "type": "uint256"
        }
      ],
      "name": "transferFrom",
      "outputs": [],
      "stateMutability": "nonpayable",
      "type": "function"
    },
    {
      "inputs": [
        {
          "internalType": "address",
          "name": "newOwner",
          "type": "address"
        }
      ],
      "name": "transferOwnership",
      "outputs": [],
      "stateMutability": "nonpayable",
      "type": "function"
    },
    {
      "inputs": [],
      "name": "unpause",
      "outputs": [],
      "stateMutability": "nonpayable",
      "type": "function"
    },
    {
      "inputs": [],
      "name": "withdraw",
      "outputs": [],
      "stateMutability": "payable",
      "type": "function"
    }
  ],
  "bytecode": "0x608060405266b1a2bc2ec50000600d556063600e556040518060400160405280600681526020017f766a6b4e465400000000000000000000000000000000000000000000000000008152506040518060400160405280600381526020017f564a4b0000000000000000000000000000000000000000000000000000000000815250816000908051906020019062000098929190620001c3565b508060019080519060200190620000b1929190620001c3565b5050506000600b60006101000a81548160ff021916908315150217905550620000ef620000e3620000f560201b60201c565b620000fd60201b60201c565b620002d8565b600033905090565b6000600b60019054906101000a900473ffffffffffffffffffffffffffffffffffffffff16905081600b60016101000a81548173ffffffffffffffffffffffffffffffffffffffff021916908373ffffffffffffffffffffffffffffffffffffffff1602179055508173ffffffffffffffffffffffffffffffffffffffff168173ffffffffffffffffffffffffffffffffffffffff167f8be0079c531659141344cd1fd0a4f28419497f9722a3daafe3b4186f6b6457e060405160405180910390a35050565b828054620001d19062000273565b90600052602060002090601f016020900481019282620001f5576000855562000241565b82601f106200021057805160ff191683800117855562000241565b8280016001018555821562000241579182015b828111156200024057825182559160200191906001019062000223565b5b50905062000250919062000254565b5090565b5b808211156200026f57600081600090555060010162000255565b5090565b600060028204905060018216806200028c57607f821691505b60208210811415620002a357620002a2620002a9565b5b50919050565b7f4e487b7100000000000000000000000000000000000000000000000000000000600052602260045260246000fd5b61438680620002e86000396000f3fe6080604052600436106101c25760003560e01c8063695850fb116100f7578063a22cb46511610095578063d5abeb0111610064578063d5abeb0114610612578063e985e9c51461063d578063f2fde38b1461067a578063f4a0a528146106a3576101c2565b8063a22cb46514610546578063ada7c4ed1461056f578063b88d4fde146105ac578063c87b56dd146105d5576101c2565b8063715018a6116100d1578063715018a6146104c25780638456cb59146104d95780638da5cb5b146104f057806395d89b411461051b576101c2565b8063695850fb146104405780636f8b44b01461045c57806370a0823114610485576101c2565b80633ccfd60b116101645780634f6ccce71161013e5780634f6ccce7146103705780635c975abb146103ad5780636352211e146103d85780636817c76c14610415576101c2565b80633ccfd60b146103265780633f4ba83a1461033057806342842e0e14610347576101c2565b8063095ea7b3116101a0578063095ea7b31461026c57806318160ddd1461029557806323b872dd146102c05780632f745c59146102e9576101c2565b806301ffc9a7146101c757806306fdde0314610204578063081812fc1461022f575b600080fd5b3480156101d357600080fd5b506101ee60048036038101906101e99190612f46565b6106cc565b6040516101fb919061350d565b60405180910390f35b34801561021057600080fd5b506102196106de565b6040516102269190613528565b60405180910390f35b34801561023b57600080fd5b5061025660048036038101906102519190612fd9565b610770565b60405161026391906134a6565b60405180910390f35b34801561027857600080fd5b50610293600480360381019061028e9190612f0a565b6107f5565b005b3480156102a157600080fd5b506102aa61090d565b6040516102b7919061386a565b60405180910390f35b3480156102cc57600080fd5b506102e760048036038101906102e29190612e04565b61091a565b005b3480156102f557600080fd5b50610310600480360381019061030b9190612f0a565b61097a565b60405161031d919061386a565b60405180910390f35b61032e610a1f565b005b34801561033c57600080fd5b50610345610aeb565b005b34801561035357600080fd5b5061036e60048036038101906103699190612e04565b610b71565b005b34801561037c57600080fd5b5061039760048036038101906103929190612fd9565b610b91565b6040516103a4919061386a565b60405180910390f35b3480156103b957600080fd5b506103c2610c28565b6040516103cf919061350d565b60405180910390f35b3480156103e457600080fd5b506103ff60048036038101906103fa9190612fd9565b610c3f565b60405161040c91906134a6565b60405180910390f35b34801561042157600080fd5b5061042a610cf1565b604051610437919061386a565b60405180910390f35b61045a60048036038101906104559190612f98565b610cf7565b005b34801561046857600080fd5b50610483600480360381019061047e9190612fd9565b610ea5565b005b34801561049157600080fd5b506104ac60048036038101906104a79190612d9f565b610f2b565b6040516104b9919061386a565b60405180910390f35b3480156104ce57600080fd5b506104d7610fe3565b005b3480156104e557600080fd5b506104ee61106b565b005b3480156104fc57600080fd5b506105056110f1565b60405161051291906134a6565b60405180910390f35b34801561052757600080fd5b5061053061111b565b60405161053d9190613528565b60405180910390f35b34801561055257600080fd5b5061056d60048036038101906105689190612ece565b6111ad565b005b34801561057b57600080fd5b5061059660048036038101906105919190612d9f565b6111c3565b6040516105a3919061386a565b60405180910390f35b3480156105b857600080fd5b506105d360048036038101906105ce9190612e53565b6111db565b005b3480156105e157600080fd5b506105fc60048036038101906105f79190612fd9565b61123d565b6040516106099190613528565b60405180910390f35b34801561061e57600080fd5b5061062761124f565b604051610634919061386a565b60405180910390f35b34801561064957600080fd5b50610664600480360381019061065f9190612dc8565b611255565b604051610671919061350d565b60405180910390f35b34801561068657600080fd5b506106a1600480360381019061069c9190612d9f565b6112e9565b005b3480156106af57600080fd5b506106ca60048036038101906106c59190612fd9565b6113e1565b005b60006106d782611467565b9050919050565b6060600080546106ed90613ac0565b80601f016020809104026020016040519081016040528092919081815260200182805461071990613ac0565b80156107665780601f1061073b57610100808354040283529160200191610766565b820191906000526020600020905b81548152906001019060200180831161074957829003601f168201915b5050505050905090565b600061077b826114e1565b6107ba576040517f08c379a00000000000000000000000000000000000000000000000000000000081526004016107b1906137aa565b60405180910390fd5b6004600083815260200190815260200160002060009054906101000a900473ffffffffffffffffffffffffffffffffffffffff169050919050565b600061080082610c3f565b90508073ffffffffffffffffffffffffffffffffffffffff168373ffffffffffffffffffffffffffffffffffffffff161415610871576040517f08c379a00000000000000000000000000000000000000000000000000000000081526004016108689061380a565b60405180910390fd5b8073ffffffffffffffffffffffffffffffffffffffff1661089061154d565b73ffffffffffffffffffffffffffffffffffffffff1614806108bf57506108be816108b961154d565b611255565b5b6108fe576040517f08c379a00000000000000000000000000000000000000000000000000000000081526004016108f5906136aa565b60405180910390fd5b6109088383611555565b505050565b6000600880549050905090565b61092b61092561154d565b8261160e565b61096a576040517f08c379a00000000000000000000000000000000000000000000000000000000081526004016109619061382a565b60405180910390fd5b6109758383836116ec565b505050565b600061098583610f2b565b82106109c6576040517f08c379a00000000000000000000000000000000000000000000000000000000081526004016109bd9061356a565b60405180910390fd5b600660008473ffffffffffffffffffffffffffffffffffffffff1673ffffffffffffffffffffffffffffffffffffffff168152602001908152602001600020600083815260200190815260200160002054905092915050565b610a2761154d565b73ffffffffffffffffffffffffffffffffffffffff16610a456110f1565b73ffffffffffffffffffffffffffffffffffffffff1614610a9b576040517f08c379a0000000000000000000000000000000000000000000000000000000008152600401610a92906137ca565b60405180910390fd5b610aa36110f1565b73ffffffffffffffffffffffffffffffffffffffff166108fc479081150290604051600060405180830381858888f19350505050158015610ae8573d6000803e3d6000fd5b50565b610af361154d565b73ffffffffffffffffffffffffffffffffffffffff16610b116110f1565b73ffffffffffffffffffffffffffffffffffffffff1614610b67576040517f08c379a0000000000000000000000000000000000000000000000000000000008152600401610b5e906137ca565b60405180910390fd5b610b6f611953565b565b610b8c838383604051806020016040528060008152506111db565b505050565b6000610b9b61090d565b8210610bdc576040517f08c379a0000000000000000000000000000000000000000000000000000000008152600401610bd39061384a565b60405180910390fd5b60088281548110610c16577f4e487b7100000000000000000000000000000000000000000000000000000000600052603260045260246000fd5b90600052602060002001549050919050565b6000600b60009054906101000a900460ff16905090565b6000806002600084815260200190815260200160002060009054906101000a900473ffffffffffffffffffffffffffffffffffffffff169050600073ffffffffffffffffffffffffffffffffffffffff168173ffffffffffffffffffffffffffffffffffffffff161415610ce8576040517f08c379a0000000000000000000000000000000000000000000000000000000008152600401610cdf906136ea565b60405180910390fd5b80915050919050565b600d5481565b6000610d03600c6119f5565b90506003600f60003373ffffffffffffffffffffffffffffffffffffffff1673ffffffffffffffffffffffffffffffffffffffff1681526020019081526020016000205410610d87576040517f08c379a0000000000000000000000000000000000000000000000000000000008152600401610d7e9061374a565b60405180910390fd5b600d543414610dcb576040517f08c379a0000000000000000000000000000000000000000000000000000000008152600401610dc29061372a565b60405180910390fd5b80600e5411610e0f576040517f08c379a0000000000000000000000000000000000000000000000000000000008152600401610e069061366a565b60405180910390fd5b600f60003373ffffffffffffffffffffffffffffffffffffffff1673ffffffffffffffffffffffffffffffffffffffff1681526020019081526020016000206000815480929190610e5f90613b23565b9190505550610e6e600c611a03565b610e783382611a19565b610ea18183604051602001610e8d9190613484565b604051602081830303815290604052611a37565b5050565b610ead61154d565b73ffffffffffffffffffffffffffffffffffffffff16610ecb6110f1565b73ffffffffffffffffffffffffffffffffffffffff1614610f21576040517f08c379a0000000000000000000000000000000000000000000000000000000008152600401610f18906137ca565b60405180910390fd5b80600e8190555050565b60008073ffffffffffffffffffffffffffffffffffffffff168273ffffffffffffffffffffffffffffffffffffffff161415610f9c576040517f08c379a0000000000000000000000000000000000000000000000000000000008152600401610f93906136ca565b60405180910390fd5b600360008373ffffffffffffffffffffffffffffffffffffffff1673ffffffffffffffffffffffffffffffffffffffff168152602001908152602001600020549050919050565b610feb61154d565b73ffffffffffffffffffffffffffffffffffffffff166110096110f1565b73ffffffffffffffffffffffffffffffffffffffff161461105f576040517f08c379a0000000000000000000000000000000000000000000000000000000008152600401611056906137ca565b60405180910390fd5b6110696000611aab565b565b61107361154d565b73ffffffffffffffffffffffffffffffffffffffff166110916110f1565b73ffffffffffffffffffffffffffffffffffffffff16146110e7576040517f08c379a00000000000000000000000000000000000000000000000000000000081526004016110de906137ca565b60405180910390fd5b6110ef611b71565b565b6000600b60019054906101000a900473ffffffffffffffffffffffffffffffffffffffff16905090565b60606001805461112a90613ac0565b80601f016020809104026020016040519081016040528092919081815260200182805461115690613ac0565b80156111a35780601f10611178576101008083540402835291602001916111a3565b820191906000526020600020905b81548152906001019060200180831161118657829003601f168201915b5050505050905090565b6111bf6111b861154d565b8383611c14565b5050565b600f6020528060005260406000206000915090505481565b6111ec6111e661154d565b8361160e565b61122b576040517f08c379a00000000000000000000000000000000000000000000000000000000081526004016112229061382a565b60405180910390fd5b61123784848484611d81565b50505050565b606061124882611ddd565b9050919050565b600e5481565b6000600560008473ffffffffffffffffffffffffffffffffffffffff1673ffffffffffffffffffffffffffffffffffffffff16815260200190815260200160002060008373ffffffffffffffffffffffffffffffffffffffff1673ffffffffffffffffffffffffffffffffffffffff16815260200190815260200160002060009054906101000a900460ff16905092915050565b6112f161154d565b73ffffffffffffffffffffffffffffffffffffffff1661130f6110f1565b73ffffffffffffffffffffffffffffffffffffffff1614611365576040517f08c379a000000000000000000000000000000000000000000000000000000000815260040161135c906137ca565b60405180910390fd5b600073ffffffffffffffffffffffffffffffffffffffff168173ffffffffffffffffffffffffffffffffffffffff1614156113d5576040517f08c379a00000000000000000000000000000000000000000000000000000000081526004016113cc906135aa565b60405180910390fd5b6113de81611aab565b50565b6113e961154d565b73ffffffffffffffffffffffffffffffffffffffff166114076110f1565b73ffffffffffffffffffffffffffffffffffffffff161461145d576040517f08c379a0000000000000000000000000000000000000000000000000000000008152600401611454906137ca565b60405180910390fd5b80600d8190555050565b60007f780e9d63000000000000000000000000000000000000000000000000000000007bffffffffffffffffffffffffffffffffffffffffffffffffffffffff1916827bffffffffffffffffffffffffffffffffffffffffffffffffffffffff191614806114da57506114d982611f2f565b5b9050919050565b60008073ffffffffffffffffffffffffffffffffffffffff166002600084815260200190815260200160002060009054906101000a900473ffffffffffffffffffffffffffffffffffffffff1673ffffffffffffffffffffffffffffffffffffffff1614159050919050565b600033905090565b816004600083815260200190815260200160002060006101000a81548173ffffffffffffffffffffffffffffffffffffffff021916908373ffffffffffffffffffffffffffffffffffffffff160217905550808273ffffffffffffffffffffffffffffffffffffffff166115c883610c3f565b73ffffffffffffffffffffffffffffffffffffffff167f8c5be1e5ebec7d5bd14f71427d1e84f3dd0314c0f7b2291e5b200ac8c7c3b92560405160405180910390a45050565b6000611619826114e1565b611658576040517f08c379a000000000000000000000000000000000000000000000000000000000815260040161164f9061364a565b60405180910390fd5b600061166383610c3f565b90508073ffffffffffffffffffffffffffffffffffffffff168473ffffffffffffffffffffffffffffffffffffffff1614806116d257508373ffffffffffffffffffffffffffffffffffffffff166116ba84610770565b73ffffffffffffffffffffffffffffffffffffffff16145b806116e357506116e28185611255565b5b91505092915050565b8273ffffffffffffffffffffffffffffffffffffffff1661170c82610c3f565b73ffffffffffffffffffffffffffffffffffffffff1614611762576040517f08c379a0000000000000000000000000000000000000000000000000000000008152600401611759906135ca565b60405180910390fd5b600073ffffffffffffffffffffffffffffffffffffffff168273ffffffffffffffffffffffffffffffffffffffff1614156117d2576040517f08c379a00000000000000000000000000000000000000000000000000000000081526004016117c99061360a565b60405180910390fd5b6117dd838383612011565b6117e8600082611555565b6001600360008573ffffffffffffffffffffffffffffffffffffffff1673ffffffffffffffffffffffffffffffffffffffff168152602001908152602001600020600082825461183891906139d6565b925050819055506001600360008473ffffffffffffffffffffffffffffffffffffffff1673ffffffffffffffffffffffffffffffffffffffff168152602001908152602001600020600082825461188f919061394f565b92505081905550816002600083815260200190815260200160002060006101000a81548173ffffffffffffffffffffffffffffffffffffffff021916908373ffffffffffffffffffffffffffffffffffffffff160217905550808273ffffffffffffffffffffffffffffffffffffffff168473ffffffffffffffffffffffffffffffffffffffff167fddf252ad1be2c89b69c2b068fc378daa952ba7f163c4a11628f55a4df523b3ef60405160405180910390a461194e838383612069565b505050565b61195b610c28565b61199a576040517f08c379a00000000000000000000000000000000000000000000000000000000081526004016119919061354a565b60405180910390fd5b6000600b60006101000a81548160ff0219169083151502179055507f5db9ee0a495bf2e6ff9c91a7834c1ba4fdd244a5e8aa4e537bd38aeae4b073aa6119de61154d565b6040516119eb91906134a6565b60405180910390a1565b600081600001549050919050565b6001816000016000828254019250508190555050565b611a3382826040518060200160405280600081525061206e565b5050565b611a40826114e1565b611a7f576040517f08c379a0000000000000000000000000000000000000000000000000000000008152600401611a769061370a565b60405180910390fd5b80600a60008481526020019081526020016000209080519060200190611aa6929190612bc3565b505050565b6000600b60019054906101000a900473ffffffffffffffffffffffffffffffffffffffff16905081600b60016101000a81548173ffffffffffffffffffffffffffffffffffffffff021916908373ffffffffffffffffffffffffffffffffffffffff1602179055508173ffffffffffffffffffffffffffffffffffffffff168173ffffffffffffffffffffffffffffffffffffffff167f8be0079c531659141344cd1fd0a4f28419497f9722a3daafe3b4186f6b6457e060405160405180910390a35050565b611b79610c28565b15611bb9576040517f08c379a0000000000000000000000000000000000000000000000000000000008152600401611bb09061368a565b60405180910390fd5b6001600b60006101000a81548160ff0219169083151502179055507f62e78cea01bee320cd4e420270b5ea74000d11b0c9f74754ebdbfc544b05a258611bfd61154d565b604051611c0a91906134a6565b60405180910390a1565b8173ffffffffffffffffffffffffffffffffffffffff168373ffffffffffffffffffffffffffffffffffffffff161415611c83576040517f08c379a0000000000000000000000000000000000000000000000000000000008152600401611c7a9061362a565b60405180910390fd5b80600560008573ffffffffffffffffffffffffffffffffffffffff1673ffffffffffffffffffffffffffffffffffffffff16815260200190815260200160002060008473ffffffffffffffffffffffffffffffffffffffff1673ffffffffffffffffffffffffffffffffffffffff16815260200190815260200160002060006101000a81548160ff0219169083151502179055508173ffffffffffffffffffffffffffffffffffffffff168373ffffffffffffffffffffffffffffffffffffffff167f17307eab39ab6107e8899845ad3d59bd9653f200f220920489ca2b5937696c3183604051611d74919061350d565b60405180910390a3505050565b611d8c8484846116ec565b611d98848484846120c9565b611dd7576040517f08c379a0000000000000000000000000000000000000000000000000000000008152600401611dce9061358a565b60405180910390fd5b50505050565b6060611de8826114e1565b611e27576040517f08c379a0000000000000000000000000000000000000000000000000000000008152600401611e1e9061378a565b60405180910390fd5b6000600a60008481526020019081526020016000208054611e4790613ac0565b80601f0160208091040260200160405190810160405280929190818152602001828054611e7390613ac0565b8015611ec05780601f10611e9557610100808354040283529160200191611ec0565b820191906000526020600020905b815481529060010190602001808311611ea357829003601f168201915b505050505090506000611ed1612260565b9050600081511415611ee7578192505050611f2a565b600082511115611f1c578082604051602001611f04929190613460565b60405160208183030381529060405292505050611f2a565b611f2584612277565b925050505b919050565b60007f80ac58cd000000000000000000000000000000000000000000000000000000007bffffffffffffffffffffffffffffffffffffffffffffffffffffffff1916827bffffffffffffffffffffffffffffffffffffffffffffffffffffffff19161480611ffa57507f5b5e139f000000000000000000000000000000000000000000000000000000007bffffffffffffffffffffffffffffffffffffffffffffffffffffffff1916827bffffffffffffffffffffffffffffffffffffffffffffffffffffffff1916145b8061200a57506120098261231e565b5b9050919050565b612019610c28565b15612059576040517f08c379a00000000000000000000000000000000000000000000000000000000081526004016120509061368a565b60405180910390fd5b612064838383612388565b505050565b505050565b612078838361249c565b61208560008484846120c9565b6120c4576040517f08c379a00000000000000000000000000000000000000000000000000000000081526004016120bb9061358a565b60405180910390fd5b505050565b60006120ea8473ffffffffffffffffffffffffffffffffffffffff16612676565b15612253578373ffffffffffffffffffffffffffffffffffffffff1663150b7a0261211361154d565b8786866040518563ffffffff1660e01b815260040161213594939291906134c1565b602060405180830381600087803b15801561214f57600080fd5b505af192505050801561218057506040513d601f19601f8201168201806040525081019061217d9190612f6f565b60015b612203573d80600081146121b0576040519150601f19603f3d011682016040523d82523d6000602084013e6121b5565b606091505b506000815114156121fb576040517f08c379a00000000000000000000000000000000000000000000000000000000081526004016121f29061358a565b60405180910390fd5b805181602001fd5b63150b7a0260e01b7bffffffffffffffffffffffffffffffffffffffffffffffffffffffff1916817bffffffffffffffffffffffffffffffffffffffffffffffffffffffff191614915050612258565b600190505b949350505050565b606060405180602001604052806000815250905090565b6060612282826114e1565b6122c1576040517f08c379a00000000000000000000000000000000000000000000000000000000081526004016122b8906137ea565b60405180910390fd5b60006122cb612260565b905060008151116122eb5760405180602001604052806000815250612316565b806122f584612699565b604051602001612306929190613460565b6040516020818303038152906040525b915050919050565b60007f01ffc9a7000000000000000000000000000000000000000000000000000000007bffffffffffffffffffffffffffffffffffffffffffffffffffffffff1916827bffffffffffffffffffffffffffffffffffffffffffffffffffffffff1916149050919050565b612393838383612846565b600073ffffffffffffffffffffffffffffffffffffffff168373ffffffffffffffffffffffffffffffffffffffff1614156123d6576123d18161284b565b612415565b8173ffffffffffffffffffffffffffffffffffffffff168373ffffffffffffffffffffffffffffffffffffffff1614612414576124138382612894565b5b5b600073ffffffffffffffffffffffffffffffffffffffff168273ffffffffffffffffffffffffffffffffffffffff1614156124585761245381612a01565b612497565b8273ffffffffffffffffffffffffffffffffffffffff168273ffffffffffffffffffffffffffffffffffffffff1614612496576124958282612b44565b5b5b505050565b600073ffffffffffffffffffffffffffffffffffffffff168273ffffffffffffffffffffffffffffffffffffffff16141561250c576040517f08c379a00000000000000000000000000000000000000000000000000000000081526004016125039061376a565b60405180910390fd5b612515816114e1565b15612555576040517f08c379a000000000000000000000000000000000000000000000000000000000815260040161254c906135ea565b60405180910390fd5b61256160008383612011565b6001600360008473ffffffffffffffffffffffffffffffffffffffff1673ffffffffffffffffffffffffffffffffffffffff16815260200190815260200160002060008282546125b1919061394f565b92505081905550816002600083815260200190815260200160002060006101000a81548173ffffffffffffffffffffffffffffffffffffffff021916908373ffffffffffffffffffffffffffffffffffffffff160217905550808273ffffffffffffffffffffffffffffffffffffffff16600073ffffffffffffffffffffffffffffffffffffffff167fddf252ad1be2c89b69c2b068fc378daa952ba7f163c4a11628f55a4df523b3ef60405160405180910390a461267260008383612069565b5050565b6000808273ffffffffffffffffffffffffffffffffffffffff163b119050919050565b606060008214156126e1576040518060400160405280600181526020017f30000000000000000000000000000000000000000000000000000000000000008152509050612841565b600082905060005b600082146127135780806126fc90613b23565b915050600a8261270c91906139a5565b91506126e9565b60008167ffffffffffffffff811115612755577f4e487b7100000000000000000000000000000000000000000000000000000000600052604160045260246000fd5b6040519080825280601f01601f1916602001820160405280156127875781602001600182028036833780820191505090505b5090505b6000851461283a576001826127a091906139d6565b9150600a856127af9190613b6c565b60306127bb919061394f565b60f81b8183815181106127f7577f4e487b7100000000000000000000000000000000000000000000000000000000600052603260045260246000fd5b60200101907effffffffffffffffffffffffffffffffffffffffffffffffffffffffffffff1916908160001a905350600a8561283391906139a5565b945061278b565b8093505050505b919050565b505050565b6008805490506009600083815260200190815260200160002081905550600881908060018154018082558091505060019003906000526020600020016000909190919091505550565b600060016128a184610f2b565b6128ab91906139d6565b9050600060076000848152602001908152602001600020549050818114612990576000600660008673ffffffffffffffffffffffffffffffffffffffff1673ffffffffffffffffffffffffffffffffffffffff168152602001908152602001600020600084815260200190815260200160002054905080600660008773ffffffffffffffffffffffffffffffffffffffff1673ffffffffffffffffffffffffffffffffffffffff168152602001908152602001600020600084815260200190815260200160002081905550816007600083815260200190815260200160002081905550505b6007600084815260200190815260200160002060009055600660008573ffffffffffffffffffffffffffffffffffffffff1673ffffffffffffffffffffffffffffffffffffffff16815260200190815260200160002060008381526020019081526020016000206000905550505050565b60006001600880549050612a1591906139d6565b9050600060096000848152602001908152602001600020549050600060088381548110612a6b577f4e487b7100000000000000000000000000000000000000000000000000000000600052603260045260246000fd5b906000526020600020015490508060088381548110612ab3577f4e487b7100000000000000000000000000000000000000000000000000000000600052603260045260246000fd5b906000526020600020018190555081600960008381526020019081526020016000208190555060096000858152602001908152602001600020600090556008805480612b28577f4e487b7100000000000000000000000000000000000000000000000000000000600052603160045260246000fd5b6001900381819060005260206000200160009055905550505050565b6000612b4f83610f2b565b905081600660008573ffffffffffffffffffffffffffffffffffffffff1673ffffffffffffffffffffffffffffffffffffffff168152602001908152602001600020600083815260200190815260200160002081905550806007600084815260200190815260200160002081905550505050565b828054612bcf90613ac0565b90600052602060002090601f016020900481019282612bf15760008555612c38565b82601f10612c0a57805160ff1916838001178555612c38565b82800160010185558215612c38579182015b82811115612c37578251825591602001919060010190612c1c565b5b509050612c459190612c49565b5090565b5b80821115612c62576000816000905550600101612c4a565b5090565b6000612c79612c74846138aa565b613885565b905082815260208101848484011115612c9157600080fd5b612c9c848285613a7e565b509392505050565b6000612cb7612cb2846138db565b613885565b905082815260208101848484011115612ccf57600080fd5b612cda848285613a7e565b509392505050565b600081359050612cf1816142f4565b92915050565b600081359050612d068161430b565b92915050565b600081359050612d1b81614322565b92915050565b600081519050612d3081614322565b92915050565b600082601f830112612d4757600080fd5b8135612d57848260208601612c66565b91505092915050565b600082601f830112612d7157600080fd5b8135612d81848260208601612ca4565b91505092915050565b600081359050612d9981614339565b92915050565b600060208284031215612db157600080fd5b6000612dbf84828501612ce2565b91505092915050565b60008060408385031215612ddb57600080fd5b6000612de985828601612ce2565b9250506020612dfa85828601612ce2565b9150509250929050565b600080600060608486031215612e1957600080fd5b6000612e2786828701612ce2565b9350506020612e3886828701612ce2565b9250506040612e4986828701612d8a565b9150509250925092565b60008060008060808587031215612e6957600080fd5b6000612e7787828801612ce2565b9450506020612e8887828801612ce2565b9350506040612e9987828801612d8a565b925050606085013567ffffffffffffffff811115612eb657600080fd5b612ec287828801612d36565b91505092959194509250565b60008060408385031215612ee157600080fd5b6000612eef85828601612ce2565b9250506020612f0085828601612cf7565b9150509250929050565b60008060408385031215612f1d57600080fd5b6000612f2b85828601612ce2565b9250506020612f3c85828601612d8a565b9150509250929050565b600060208284031215612f5857600080fd5b6000612f6684828501612d0c565b91505092915050565b600060208284031215612f8157600080fd5b6000612f8f84828501612d21565b91505092915050565b600060208284031215612faa57600080fd5b600082013567ffffffffffffffff811115612fc457600080fd5b612fd084828501612d60565b91505092915050565b600060208284031215612feb57600080fd5b6000612ff984828501612d8a565b91505092915050565b61300b81613a0a565b82525050565b61301a81613a1c565b82525050565b600061302b8261390c565b6130358185613922565b9350613045818560208601613a8d565b61304e81613c59565b840191505092915050565b600061306482613917565b61306e8185613933565b935061307e818560208601613a8d565b61308781613c59565b840191505092915050565b600061309d82613917565b6130a78185613944565b93506130b7818560208601613a8d565b80840191505092915050565b60006130d0601483613933565b91506130db82613c6a565b602082019050919050565b60006130f3602b83613933565b91506130fe82613c93565b604082019050919050565b6000613116603283613933565b915061312182613ce2565b604082019050919050565b6000613139602683613933565b915061314482613d31565b604082019050919050565b600061315c602583613933565b915061316782613d80565b604082019050919050565b600061317f601c83613933565b915061318a82613dcf565b602082019050919050565b60006131a2602483613933565b91506131ad82613df8565b604082019050919050565b60006131c5601983613933565b91506131d082613e47565b602082019050919050565b60006131e8602c83613933565b91506131f382613e70565b604082019050919050565b600061320b600883613933565b915061321682613ebf565b602082019050919050565b600061322e601083613933565b915061323982613ee8565b602082019050919050565b6000613251603883613933565b915061325c82613f11565b604082019050919050565b6000613274602a83613933565b915061327f82613f60565b604082019050919050565b6000613297602983613933565b91506132a282613faf565b604082019050919050565b60006132ba602e83613933565b91506132c582613ffe565b604082019050919050565b60006132dd600b83613933565b91506132e88261404d565b602082019050919050565b6000613300601683613933565b915061330b82614076565b602082019050919050565b6000613323602083613933565b915061332e8261409f565b602082019050919050565b6000613346603183613933565b9150613351826140c8565b604082019050919050565b6000613369602c83613933565b915061337482614117565b604082019050919050565b600061338c602083613933565b915061339782614166565b602082019050919050565b60006133af602f83613933565b91506133ba8261418f565b604082019050919050565b60006133d2602183613933565b91506133dd826141de565b604082019050919050565b60006133f5601d83613944565b91506134008261422d565b601d82019050919050565b6000613418603183613933565b915061342382614256565b604082019050919050565b600061343b602c83613933565b9150613446826142a5565b604082019050919050565b61345a81613a74565b82525050565b600061346c8285613092565b91506134788284613092565b91508190509392505050565b600061348f826133e8565b915061349b8284613092565b915081905092915050565b60006020820190506134bb6000830184613002565b92915050565b60006080820190506134d66000830187613002565b6134e36020830186613002565b6134f06040830185613451565b81810360608301526135028184613020565b905095945050505050565b60006020820190506135226000830184613011565b92915050565b600060208201905081810360008301526135428184613059565b905092915050565b60006020820190508181036000830152613563816130c3565b9050919050565b60006020820190508181036000830152613583816130e6565b9050919050565b600060208201905081810360008301526135a381613109565b9050919050565b600060208201905081810360008301526135c38161312c565b9050919050565b600060208201905081810360008301526135e38161314f565b9050919050565b6000602082019050818103600083015261360381613172565b9050919050565b6000602082019050818103600083015261362381613195565b9050919050565b60006020820190508181036000830152613643816131b8565b9050919050565b60006020820190508181036000830152613663816131db565b9050919050565b60006020820190508181036000830152613683816131fe565b9050919050565b600060208201905081810360008301526136a381613221565b9050919050565b600060208201905081810360008301526136c381613244565b9050919050565b600060208201905081810360008301526136e381613267565b9050919050565b600060208201905081810360008301526137038161328a565b9050919050565b60006020820190508181036000830152613723816132ad565b9050919050565b60006020820190508181036000830152613743816132d0565b9050919050565b60006020820190508181036000830152613763816132f3565b9050919050565b6000602082019050818103600083015261378381613316565b9050919050565b600060208201905081810360008301526137a381613339565b9050919050565b600060208201905081810360008301526137c38161335c565b9050919050565b600060208201905081810360008301526137e38161337f565b9050919050565b60006020820190508181036000830152613803816133a2565b9050919050565b60006020820190508181036000830152613823816133c5565b9050919050565b600060208201905081810360008301526138438161340b565b9050919050565b600060208201905081810360008301526138638161342e565b9050919050565b600060208201905061387f6000830184613451565b92915050565b600061388f6138a0565b905061389b8282613af2565b919050565b6000604051905090565b600067ffffffffffffffff8211156138c5576138c4613c2a565b5b6138ce82613c59565b9050602081019050919050565b600067ffffffffffffffff8211156138f6576138f5613c2a565b5b6138ff82613c59565b9050602081019050919050565b600081519050919050565b600081519050919050565b600082825260208201905092915050565b600082825260208201905092915050565b600081905092915050565b600061395a82613a74565b915061396583613a74565b9250827fffffffffffffffffffffffffffffffffffffffffffffffffffffffffffffffff0382111561399a57613999613b9d565b5b828201905092915050565b60006139b082613a74565b91506139bb83613a74565b9250826139cb576139ca613bcc565b5b828204905092915050565b60006139e182613a74565b91506139ec83613a74565b9250828210156139ff576139fe613b9d565b5b828203905092915050565b6000613a1582613a54565b9050919050565b60008115159050919050565b60007fffffffff0000000000000000000000000000000000000000000000000000000082169050919050565b600073ffffffffffffffffffffffffffffffffffffffff82169050919050565b6000819050919050565b82818337600083830152505050565b60005b83811015613aab578082015181840152602081019050613a90565b83811115613aba576000848401525b50505050565b60006002820490506001821680613ad857607f821691505b60208210811415613aec57613aeb613bfb565b5b50919050565b613afb82613c59565b810181811067ffffffffffffffff82111715613b1a57613b19613c2a565b5b80604052505050565b6000613b2e82613a74565b91507fffffffffffffffffffffffffffffffffffffffffffffffffffffffffffffffff821415613b6157613b60613b9d565b5b600182019050919050565b6000613b7782613a74565b9150613b8283613a74565b925082613b9257613b91613bcc565b5b828206905092915050565b7f4e487b7100000000000000000000000000000000000000000000000000000000600052601160045260246000fd5b7f4e487b7100000000000000000000000000000000000000000000000000000000600052601260045260246000fd5b7f4e487b7100000000000000000000000000000000000000000000000000000000600052602260045260246000fd5b7f4e487b7100000000000000000000000000000000000000000000000000000000600052604160045260246000fd5b6000601f19601f8301169050919050565b7f5061757361626c653a206e6f7420706175736564000000000000000000000000600082015250565b7f455243373231456e756d657261626c653a206f776e657220696e646578206f7560008201527f74206f6620626f756e6473000000000000000000000000000000000000000000602082015250565b7f4552433732313a207472616e7366657220746f206e6f6e20455243373231526560008201527f63656976657220696d706c656d656e7465720000000000000000000000000000602082015250565b7f4f776e61626c653a206e6577206f776e657220697320746865207a65726f206160008201527f6464726573730000000000000000000000000000000000000000000000000000602082015250565b7f4552433732313a207472616e736665722066726f6d20696e636f72726563742060008201527f6f776e6572000000000000000000000000000000000000000000000000000000602082015250565b7f4552433732313a20746f6b656e20616c7265616479206d696e74656400000000600082015250565b7f4552433732313a207472616e7366657220746f20746865207a65726f2061646460008201527f7265737300000000000000000000000000000000000000000000000000000000602082015250565b7f4552433732313a20617070726f766520746f2063616c6c657200000000000000600082015250565b7f4552433732313a206f70657261746f7220717565727920666f72206e6f6e657860008201527f697374656e7420746f6b656e0000000000000000000000000000000000000000602082015250565b7f736f6c64206f7574000000000000000000000000000000000000000000000000600082015250565b7f5061757361626c653a2070617573656400000000000000000000000000000000600082015250565b7f4552433732313a20617070726f76652063616c6c6572206973206e6f74206f7760008201527f6e6572206e6f7220617070726f76656420666f7220616c6c0000000000000000602082015250565b7f4552433732313a2062616c616e636520717565727920666f7220746865207a6560008201527f726f206164647265737300000000000000000000000000000000000000000000602082015250565b7f4552433732313a206f776e657220717565727920666f72206e6f6e657869737460008201527f656e7420746f6b656e0000000000000000000000000000000000000000000000602082015250565b7f45524337323155524953746f726167653a2055524920736574206f66206e6f6e60008201527f6578697374656e7420746f6b656e000000000000000000000000000000000000602082015250565b7f77726f6e672076616c7565000000000000000000000000000000000000000000600082015250565b7f65786365656473206d6178207065722077616c6c657400000000000000000000600082015250565b7f4552433732313a206d696e7420746f20746865207a65726f2061646472657373600082015250565b7f45524337323155524953746f726167653a2055524920717565727920666f722060008201527f6e6f6e6578697374656e7420746f6b656e000000000000000000000000000000602082015250565b7f4552433732313a20617070726f76656420717565727920666f72206e6f6e657860008201527f697374656e7420746f6b656e0000000000000000000000000000000000000000602082015250565b7f4f776e61626c653a2063616c6c6572206973206e6f7420746865206f776e6572600082015250565b7f4552433732314d657461646174613a2055524920717565727920666f72206e6f60008201527f6e6578697374656e7420746f6b656e0000000000000000000000000000000000602082015250565b7f4552433732313a20617070726f76616c20746f2063757272656e74206f776e6560008201527f7200000000000000000000000000000000000000000000000000000000000000602082015250565b7f646174613a6170706c69636174696f6e2f6a736f6e3b6261736536342c000000600082015250565b7f4552433732313a207472616e736665722063616c6c6572206973206e6f74206f60008201527f776e6572206e6f7220617070726f766564000000000000000000000000000000602082015250565b7f455243373231456e756d657261626c653a20676c6f62616c20696e646578206f60008201527f7574206f6620626f756e64730000000000000000000000000000000000000000602082015250565b6142fd81613a0a565b811461430857600080fd5b50565b61431481613a1c565b811461431f57600080fd5b50565b61432b81613a28565b811461433657600080fd5b50565b61434281613a74565b811461434d57600080fd5b5056fea264697066735822122016b771a25ef5ceb9a24a156c4e0825a5f57cefffff3add627fed1c309126bfad64736f6c63430008040033",
  "linkReferences": {},
  "deployedLinkReferences": {}
}