{
  "_format": "hh-sol-artifact-1",
  "contractName": "VjkNFT",
  "sourceName": "contracts/VjkNFT.sol",
  "abi": [
    {
      "inputs": [
        {
          "internalType": "uint64",
          "name": "subscriptionId",
          "type": "uint64"
        }
      ],
      "stateMutability": "nonpayable",
      "type": "constructor"
    },
    {
      "inputs": [
        {
          "internalType": "address",
          "name": "have",
          "type": "address"
        },
        {
          "internalType": "address",
          "name": "want",
          "type": "address"
        }
      ],
      "name": "OnlyCoordinatorCanFulfill",
      "type": "error"
    },
    {
      "anonymous": false,
      "inputs": [
        {
          "indexed": true,
          "internalType": "address",
          "name": "owner",
          "type": "address"
        },
        {
          "indexed": true,
          "internalType": "address",
          "name": "approved",
          "type": "address"
        },
        {
          "indexed": true,
          "internalType": "uint256",
          "name": "tokenId",
          "type": "uint256"
        }
      ],
      "name": "Approval",
      "type": "event"
    },
    {
      "anonymous": false,
      "inputs": [
        {
          "indexed": true,
          "internalType": "address",
          "name": "owner",
          "type": "address"
        },
        {
          "indexed": true,
          "internalType": "address",
          "name": "operator",
          "type": "address"
        },
        {
          "indexed": false,
          "internalType": "bool",
          "name": "approved",
          "type": "bool"
        }
      ],
      "name": "ApprovalForAll",
      "type": "event"
    },
    {
      "anonymous": false,
      "inputs": [
        {
          "indexed": true,
          "internalType": "address",
          "name": "from",
          "type": "address"
        },
        {
          "indexed": true,
          "internalType": "address",
          "name": "to",
          "type": "address"
        }
      ],
      "name": "OwnershipTransferRequested",
      "type": "event"
    },
    {
      "anonymous": false,
      "inputs": [
        {
          "indexed": true,
          "internalType": "address",
          "name": "from",
          "type": "address"
        },
        {
          "indexed": true,
          "internalType": "address",
          "name": "to",
          "type": "address"
        }
      ],
      "name": "OwnershipTransferred",
      "type": "event"
    },
    {
      "anonymous": false,
      "inputs": [
        {
          "indexed": false,
          "internalType": "uint256",
          "name": "requestId",
          "type": "uint256"
        },
        {
          "indexed": false,
          "internalType": "uint256[]",
          "name": "randomWords",
          "type": "uint256[]"
        }
      ],
      "name": "RequestFulfilled",
      "type": "event"
    },
    {
      "anonymous": false,
      "inputs": [
        {
          "indexed": false,
          "internalType": "uint256",
          "name": "requestId",
          "type": "uint256"
        },
        {
          "indexed": false,
          "internalType": "uint32",
          "name": "numWords",
          "type": "uint32"
        }
      ],
      "name": "RequestSent",
      "type": "event"
    },
    {
      "anonymous": false,
      "inputs": [
        {
          "indexed": true,
          "internalType": "address",
          "name": "from",
          "type": "address"
        },
        {
          "indexed": true,
          "internalType": "address",
          "name": "to",
          "type": "address"
        },
        {
          "indexed": true,
          "internalType": "uint256",
          "name": "tokenId",
          "type": "uint256"
        }
      ],
      "name": "Transfer",
      "type": "event"
    },
    {
      "inputs": [],
      "name": "acceptOwnership",
      "outputs": [],
      "stateMutability": "nonpayable",
      "type": "function"
    },
    {
      "inputs": [
        {
          "internalType": "address",
          "name": "to",
          "type": "address"
        },
        {
          "internalType": "uint256",
          "name": "tokenId",
          "type": "uint256"
        }
      ],
      "name": "approve",
      "outputs": [],
      "stateMutability": "nonpayable",
      "type": "function"
    },
    {
      "inputs": [
        {
          "internalType": "address",
          "name": "owner",
          "type": "address"
        }
      ],
      "name": "balanceOf",
      "outputs": [
        {
          "internalType": "uint256",
          "name": "",
          "type": "uint256"
        }
      ],
      "stateMutability": "view",
      "type": "function"
    },
    {
      "inputs": [
        {
          "internalType": "uint256",
          "name": "tokenId",
          "type": "uint256"
        }
      ],
      "name": "getApproved",
      "outputs": [
        {
          "internalType": "address",
          "name": "",
          "type": "address"
        }
      ],
      "stateMutability": "view",
      "type": "function"
    },
    {
      "inputs": [
        {
          "internalType": "uint256",
          "name": "_requestId",
          "type": "uint256"
        }
      ],
      "name": "getRequestStatus",
      "outputs": [
        {
          "internalType": "bool",
          "name": "fulfilled",
          "type": "bool"
        },
        {
          "internalType": "uint256[]",
          "name": "randomWords",
          "type": "uint256[]"
        },
        {
          "internalType": "string",
          "name": "name",
          "type": "string"
        },
        {
          "internalType": "string",
          "name": "uri",
          "type": "string"
        }
      ],
      "stateMutability": "view",
      "type": "function"
    },
    {
      "inputs": [
        {
          "internalType": "address",
          "name": "owner",
          "type": "address"
        },
        {
          "internalType": "address",
          "name": "operator",
          "type": "address"
        }
      ],
      "name": "isApprovedForAll",
      "outputs": [
        {
          "internalType": "bool",
          "name": "",
          "type": "bool"
        }
      ],
      "stateMutability": "view",
      "type": "function"
    },
    {
      "inputs": [],
      "name": "lastRequestId",
      "outputs": [
        {
          "internalType": "uint256",
          "name": "",
          "type": "uint256"
        }
      ],
      "stateMutability": "view",
      "type": "function"
    },
    {
      "inputs": [],
      "name": "name",
      "outputs": [
        {
          "internalType": "string",
          "name": "",
          "type": "string"
        }
      ],
      "stateMutability": "view",
      "type": "function"
    },
    {
      "inputs": [],
      "name": "owner",
      "outputs": [
        {
          "internalType": "address",
          "name": "",
          "type": "address"
        }
      ],
      "stateMutability": "view",
      "type": "function"
    },
    {
      "inputs": [
        {
          "internalType": "uint256",
          "name": "tokenId",
          "type": "uint256"
        }
      ],
      "name": "ownerOf",
      "outputs": [
        {
          "internalType": "address",
          "name": "",
          "type": "address"
        }
      ],
      "stateMutability": "view",
      "type": "function"
    },
    {
      "inputs": [
        {
          "internalType": "uint256",
          "name": "requestId",
          "type": "uint256"
        },
        {
          "internalType": "uint256[]",
          "name": "randomWords",
          "type": "uint256[]"
        }
      ],
      "name": "rawFulfillRandomWords",
      "outputs": [],
      "stateMutability": "nonpayable",
      "type": "function"
    },
    {
      "inputs": [
        {
          "internalType": "uint256",
          "name": "",
          "type": "uint256"
        }
      ],
      "name": "requestIds",
      "outputs": [
        {
          "internalType": "uint256",
          "name": "",
          "type": "uint256"
        }
      ],
      "stateMutability": "view",
      "type": "function"
    },
    {
      "inputs": [
        {
          "internalType": "string",
          "name": "_name",
          "type": "string"
        },
        {
          "internalType": "string",
          "name": "_description",
          "type": "string"
        }
      ],
      "name": "requestRandomWords",
      "outputs": [
        {
          "internalType": "uint256",
          "name": "requestId",
          "type": "uint256"
        }
      ],
      "stateMutability": "nonpayable",
      "type": "function"
    },
    {
      "inputs": [
        {
          "internalType": "uint256",
          "name": "",
          "type": "uint256"
        }
      ],
      "name": "s_requests",
      "outputs": [
        {
          "internalType": "bool",
          "name": "fulfilled",
          "type": "bool"
        },
        {
          "internalType": "bool",
          "name": "exists",
          "type": "bool"
        },
        {
          "internalType": "string",
          "name": "name",
          "type": "string"
        },
        {
          "internalType": "string",
          "name": "description",
          "type": "string"
        },
        {
          "internalType": "string",
          "name": "uri",
          "type": "string"
        }
      ],
      "stateMutability": "view",
      "type": "function"
    },
    {
      "inputs": [
        {
          "internalType": "address",
          "name": "from",
          "type": "address"
        },
        {
          "internalType": "address",
          "name": "to",
          "type": "address"
        },
        {
          "internalType": "uint256",
          "name": "tokenId",
          "type": "uint256"
        }
      ],
      "name": "safeTransferFrom",
      "outputs": [],
      "stateMutability": "nonpayable",
      "type": "function"
    },
    {
      "inputs": [
        {
          "internalType": "address",
          "name": "from",
          "type": "address"
        },
        {
          "internalType": "address",
          "name": "to",
          "type": "address"
        },
        {
          "internalType": "uint256",
          "name": "tokenId",
          "type": "uint256"
        },
        {
          "internalType": "bytes",
          "name": "_data",
          "type": "bytes"
        }
      ],
      "name": "safeTransferFrom",
      "outputs": [],
      "stateMutability": "nonpayable",
      "type": "function"
    },
    {
      "inputs": [
        {
          "internalType": "address",
          "name": "operator",
          "type": "address"
        },
        {
          "internalType": "bool",
          "name": "approved",
          "type": "bool"
        }
      ],
      "name": "setApprovalForAll",
      "outputs": [],
      "stateMutability": "nonpayable",
      "type": "function"
    },
    {
      "inputs": [
        {
          "internalType": "bytes4",
          "name": "interfaceId",
          "type": "bytes4"
        }
      ],
      "name": "supportsInterface",
      "outputs": [
        {
          "internalType": "bool",
          "name": "",
          "type": "bool"
        }
      ],
      "stateMutability": "view",
      "type": "function"
    },
    {
      "inputs": [],
      "name": "symbol",
      "outputs": [
        {
          "internalType": "string",
          "name": "",
          "type": "string"
        }
      ],
      "stateMutability": "view",
      "type": "function"
    },
    {
      "inputs": [
        {
          "internalType": "uint256",
          "name": "tokenId",
          "type": "uint256"
        }
      ],
      "name": "tokenURI",
      "outputs": [
        {
          "internalType": "string",
          "name": "",
          "type": "string"
        }
      ],
      "stateMutability": "view",
      "type": "function"
    },
    {
      "inputs": [
        {
          "internalType": "address",
          "name": "from",
          "type": "address"
        },
        {
          "internalType": "address",
          "name": "to",
          "type": "address"
        },
        {
          "internalType": "uint256",
          "name": "tokenId",
          "type": "uint256"
        }
      ],
      "name": "transferFrom",
      "outputs": [],
      "stateMutability": "nonpayable",
      "type": "function"
    },
    {
      "inputs": [
        {
          "internalType": "address",
          "name": "to",
          "type": "address"
        }
      ],
      "name": "transferOwnership",
      "outputs": [],
      "stateMutability": "nonpayable",
      "type": "function"
    },
    {
      "inputs": [],
      "name": "withdraw",
      "outputs": [],
      "stateMutability": "payable",
      "type": "function"
    }
  ],
  "bytecode": "0x60a06040527f79d3d8832d904592c0bf9818b621522c988bb8b0c05cdc3b15aea1b6e8db0c1560001b600d5562249f00600e60006101000a81548163ffffffff021916908363ffffffff1602179055506003600e60046101000a81548161ffff021916908361ffff1602179055506017600e60066101000a81548163ffffffff021916908363ffffffff1602179055503480156200009c57600080fd5b50604051620067f8380380620067f88339818101604052810190620000c291906200052f565b33806000732ca8e0c643bde4c2e08ab1fa0da3401adad7734d6040518060400160405280600681526020017f766a6b4e465400000000000000000000000000000000000000000000000000008152506040518060400160405280600381526020017f564a4b000000000000000000000000000000000000000000000000000000000081525081600090805190602001906200015f92919062000468565b5080600190805190602001906200017892919062000468565b5050508073ffffffffffffffffffffffffffffffffffffffff1660808173ffffffffffffffffffffffffffffffffffffffff1660601b8152505050600073ffffffffffffffffffffffffffffffffffffffff168273ffffffffffffffffffffffffffffffffffffffff16141562000226576040517f08c379a00000000000000000000000000000000000000000000000000000000081526004016200021d90620005a9565b60405180910390fd5b81600760006101000a81548173ffffffffffffffffffffffffffffffffffffffff021916908373ffffffffffffffffffffffffffffffffffffffff160217905550600073ffffffffffffffffffffffffffffffffffffffff168173ffffffffffffffffffffffffffffffffffffffff1614620002ae57620002ad816200033660201b60201c565b5b505050732ca8e0c643bde4c2e08ab1fa0da3401adad7734d600a60006101000a81548173ffffffffffffffffffffffffffffffffffffffff021916908373ffffffffffffffffffffffffffffffffffffffff16021790555080600a60146101000a81548167ffffffffffffffff021916908367ffffffffffffffff16021790555050620006e3565b3373ffffffffffffffffffffffffffffffffffffffff168173ffffffffffffffffffffffffffffffffffffffff161415620003a8576040517f08c379a00000000000000000000000000000000000000000000000000000000081526004016200039f90620005cb565b60405180910390fd5b80600860006101000a81548173ffffffffffffffffffffffffffffffffffffffff021916908373ffffffffffffffffffffffffffffffffffffffff1602179055508073ffffffffffffffffffffffffffffffffffffffff16600760009054906101000a900473ffffffffffffffffffffffffffffffffffffffff1673ffffffffffffffffffffffffffffffffffffffff167fed8889f560326eb138920d842192f0eb3dd22b4f139c87a2c57538e05bae127860405160405180910390a350565b828054620004769062000612565b90600052602060002090601f0160209004810192826200049a5760008555620004e6565b82601f10620004b557805160ff1916838001178555620004e6565b82800160010185558215620004e6579182015b82811115620004e5578251825591602001919060010190620004c8565b5b509050620004f59190620004f9565b5090565b5b8082111562000514576000816000905550600101620004fa565b5090565b6000815190506200052981620006c9565b92915050565b6000602082840312156200054257600080fd5b6000620005528482850162000518565b91505092915050565b60006200056a601883620005ed565b9150620005778262000677565b602082019050919050565b600062000591601783620005ed565b91506200059e82620006a0565b602082019050919050565b60006020820190508181036000830152620005c4816200055b565b9050919050565b60006020820190508181036000830152620005e68162000582565b9050919050565b600082825260208201905092915050565b600067ffffffffffffffff82169050919050565b600060028204905060018216806200062b57607f821691505b6020821081141562000642576200064162000648565b5b50919050565b7f4e487b7100000000000000000000000000000000000000000000000000000000600052602260045260246000fd5b7f43616e6e6f7420736574206f776e657220746f207a65726f0000000000000000600082015250565b7f43616e6e6f74207472616e7366657220746f2073656c66000000000000000000600082015250565b620006d481620005fe565b8114620006e057600080fd5b50565b60805160601c6160ef6200070960003960008181610bb80152610c0c01526160ef6000f3fe6080604052600436106101405760003560e01c806379ba5097116100b6578063b88d4fde1161006f578063b88d4fde14610463578063c87b56dd1461048c578063d8a4676f146104c9578063e985e9c514610509578063f2fde38b14610546578063fc2a88c31461056f57610140565b806379ba50971461034f5780638796ba8c146103665780638da5cb5b146103a357806395d89b41146103ce578063a168fa89146103f9578063a22cb4651461043a57610140565b80631fe543e3116101085780631fe543e31461025057806323b872dd146102795780633ccfd60b146102a257806342842e0e146102ac5780636352211e146102d557806370a082311461031257610140565b806301ffc9a71461014557806306fdde0314610182578063081812fc146101ad578063095ea7b3146101ea5780631cfa99e014610213575b600080fd5b34801561015157600080fd5b5061016c60048036038101906101679190613f9e565b61059a565b6040516101799190614ced565b60405180910390f35b34801561018e57600080fd5b5061019761067c565b6040516101a49190614e1d565b60405180910390f35b3480156101b957600080fd5b506101d460048036038101906101cf919061405c565b61070e565b6040516101e19190614c5d565b60405180910390f35b3480156101f657600080fd5b50610211600480360381019061020c9190613f62565b610793565b005b34801561021f57600080fd5b5061023a60048036038101906102359190613ff0565b6108ab565b60405161024791906150bf565b60405180910390f35b34801561025c57600080fd5b50610277600480360381019061027291906140ae565b610bb6565b005b34801561028557600080fd5b506102a0600480360381019061029b9190613e5c565b610c76565b005b6102aa610cd6565b005b3480156102b857600080fd5b506102d360048036038101906102ce9190613e5c565b610d2e565b005b3480156102e157600080fd5b506102fc60048036038101906102f7919061405c565b610d4e565b6040516103099190614c5d565b60405180910390f35b34801561031e57600080fd5b5061033960048036038101906103349190613df7565b610e00565b60405161034691906150bf565b60405180910390f35b34801561035b57600080fd5b50610364610eb8565b005b34801561037257600080fd5b5061038d6004803603810190610388919061405c565b61104f565b60405161039a91906150bf565b60405180910390f35b3480156103af57600080fd5b506103b8611073565b6040516103c59190614c5d565b60405180910390f35b3480156103da57600080fd5b506103e361109d565b6040516103f09190614e1d565b60405180910390f35b34801561040557600080fd5b50610420600480360381019061041b919061405c565b61112f565b604051610431959493929190614d62565b60405180910390f35b34801561044657600080fd5b50610461600480360381019061045c9190613f26565b611317565b005b34801561046f57600080fd5b5061048a60048036038101906104859190613eab565b61132d565b005b34801561049857600080fd5b506104b360048036038101906104ae919061405c565b61138f565b6040516104c09190614e1d565b60405180910390f35b3480156104d557600080fd5b506104f060048036038101906104eb919061405c565b6113a1565b6040516105009493929190614d08565b60405180910390f35b34801561051557600080fd5b50610530600480360381019061052b9190613e20565b611695565b60405161053d9190614ced565b60405180910390f35b34801561055257600080fd5b5061056d60048036038101906105689190613df7565b611729565b005b34801561057b57600080fd5b5061058461173d565b60405161059191906150bf565b60405180910390f35b60007f80ac58cd000000000000000000000000000000000000000000000000000000007bffffffffffffffffffffffffffffffffffffffffffffffffffffffff1916827bffffffffffffffffffffffffffffffffffffffffffffffffffffffff1916148061066557507f5b5e139f000000000000000000000000000000000000000000000000000000007bffffffffffffffffffffffffffffffffffffffffffffffffffffffff1916827bffffffffffffffffffffffffffffffffffffffffffffffffffffffff1916145b80610675575061067482611743565b5b9050919050565b60606000805461068b90615469565b80601f01602080910402602001604051908101604052809291908181526020018280546106b790615469565b80156107045780601f106106d957610100808354040283529160200191610704565b820191906000526020600020905b8154815290600101906020018083116106e757829003601f168201915b5050505050905090565b6000610719826117ad565b610758576040517f08c379a000000000000000000000000000000000000000000000000000000000815260040161074f9061501f565b60405180910390fd5b6004600083815260200190815260200160002060009054906101000a900473ffffffffffffffffffffffffffffffffffffffff169050919050565b600061079e82610d4e565b90508073ffffffffffffffffffffffffffffffffffffffff168373ffffffffffffffffffffffffffffffffffffffff16141561080f576040517f08c379a00000000000000000000000000000000000000000000000000000000081526004016108069061505f565b60405180910390fd5b8073ffffffffffffffffffffffffffffffffffffffff1661082e611819565b73ffffffffffffffffffffffffffffffffffffffff16148061085d575061085c81610857611819565b611695565b5b61089c576040517f08c379a000000000000000000000000000000000000000000000000000000000815260040161089390614f5f565b60405180910390fd5b6108a68383611821565b505050565b6000600a60009054906101000a900473ffffffffffffffffffffffffffffffffffffffff1673ffffffffffffffffffffffffffffffffffffffff16635d3b1d30600d54600a60149054906101000a900467ffffffffffffffff16600e60049054906101000a900461ffff16600e60009054906101000a900463ffffffff16600e60069054906101000a900463ffffffff166040518663ffffffff1660e01b815260040161095c959493929190614dca565b602060405180830381600087803b15801561097657600080fd5b505af115801561098a573d6000803e3d6000fd5b505050506040513d601f19601f820116820180604052508101906109ae9190614085565b90506040518060c00160405280600015158152602001600115158152602001600067ffffffffffffffff811115610a0e577f4e487b7100000000000000000000000000000000000000000000000000000000600052604160045260246000fd5b604051908082528060200260200182016040528015610a3c5781602001602082028036833780820191505090505b508152602001848152602001838152602001604051806020016040528060008152508152506009600083815260200190815260200160002060008201518160000160006101000a81548160ff02191690831515021790555060208201518160000160016101000a81548160ff0219169083151502179055506040820151816001019080519060200190610ad0929190613b23565b506060820151816002019080519060200190610aed929190613b70565b506080820151816003019080519060200190610b0a929190613b70565b5060a0820151816004019080519060200190610b27929190613b70565b50905050600b81908060018154018082558091505060019003906000526020600020016000909190919091505580600c81905550610b6533826118da565b7fcc58b13ad3eab50626c6a6300b1d139cd6ebb1688a7cced9461c2f7e762665ee81600e60069054906101000a900463ffffffff16604051610ba892919061510a565b60405180910390a192915050565b7f000000000000000000000000000000000000000000000000000000000000000073ffffffffffffffffffffffffffffffffffffffff163373ffffffffffffffffffffffffffffffffffffffff1614610c6857337f00000000000000000000000000000000000000000000000000000000000000006040517f1cf993f4000000000000000000000000000000000000000000000000000000008152600401610c5f929190614c78565b60405180910390fd5b610c7282826118e8565b5050565b610c87610c81611819565b82611cd0565b610cc6576040517f08c379a0000000000000000000000000000000000000000000000000000000008152600401610cbd9061507f565b60405180910390fd5b610cd1838383611dae565b505050565b610cde612015565b610ce6611073565b73ffffffffffffffffffffffffffffffffffffffff166108fc479081150290604051600060405180830381858888f19350505050158015610d2b573d6000803e3d6000fd5b50565b610d498383836040518060200160405280600081525061132d565b505050565b6000806002600084815260200190815260200160002060009054906101000a900473ffffffffffffffffffffffffffffffffffffffff169050600073ffffffffffffffffffffffffffffffffffffffff168173ffffffffffffffffffffffffffffffffffffffff161415610df7576040517f08c379a0000000000000000000000000000000000000000000000000000000008152600401610dee90614f9f565b60405180910390fd5b80915050919050565b60008073ffffffffffffffffffffffffffffffffffffffff168273ffffffffffffffffffffffffffffffffffffffff161415610e71576040517f08c379a0000000000000000000000000000000000000000000000000000000008152600401610e6890614f7f565b60405180910390fd5b600360008373ffffffffffffffffffffffffffffffffffffffff1673ffffffffffffffffffffffffffffffffffffffff168152602001908152602001600020549050919050565b600860009054906101000a900473ffffffffffffffffffffffffffffffffffffffff1673ffffffffffffffffffffffffffffffffffffffff163373ffffffffffffffffffffffffffffffffffffffff1614610f48576040517f08c379a0000000000000000000000000000000000000000000000000000000008152600401610f3f90614e5f565b60405180910390fd5b6000600760009054906101000a900473ffffffffffffffffffffffffffffffffffffffff16905033600760006101000a81548173ffffffffffffffffffffffffffffffffffffffff021916908373ffffffffffffffffffffffffffffffffffffffff1602179055506000600860006101000a81548173ffffffffffffffffffffffffffffffffffffffff021916908373ffffffffffffffffffffffffffffffffffffffff1602179055503373ffffffffffffffffffffffffffffffffffffffff168173ffffffffffffffffffffffffffffffffffffffff167f8be0079c531659141344cd1fd0a4f28419497f9722a3daafe3b4186f6b6457e060405160405180910390a350565b600b818154811061105f57600080fd5b906000526020600020016000915090505481565b6000600760009054906101000a900473ffffffffffffffffffffffffffffffffffffffff16905090565b6060600180546110ac90615469565b80601f01602080910402602001604051908101604052809291908181526020018280546110d890615469565b80156111255780601f106110fa57610100808354040283529160200191611125565b820191906000526020600020905b81548152906001019060200180831161110857829003601f168201915b5050505050905090565b60096020528060005260406000206000915090508060000160009054906101000a900460ff16908060000160019054906101000a900460ff169080600201805461117890615469565b80601f01602080910402602001604051908101604052809291908181526020018280546111a490615469565b80156111f15780601f106111c6576101008083540402835291602001916111f1565b820191906000526020600020905b8154815290600101906020018083116111d457829003601f168201915b50505050509080600301805461120690615469565b80601f016020809104026020016040519081016040528092919081815260200182805461123290615469565b801561127f5780601f106112545761010080835404028352916020019161127f565b820191906000526020600020905b81548152906001019060200180831161126257829003601f168201915b50505050509080600401805461129490615469565b80601f01602080910402602001604051908101604052809291908181526020018280546112c090615469565b801561130d5780601f106112e25761010080835404028352916020019161130d565b820191906000526020600020905b8154815290600101906020018083116112f057829003601f168201915b5050505050905085565b611329611322611819565b83836120a7565b5050565b61133e611338611819565b83611cd0565b61137d576040517f08c379a00000000000000000000000000000000000000000000000000000000081526004016113749061507f565b60405180910390fd5b61138984848484612214565b50505050565b606061139a82612270565b9050919050565b600060608060606009600086815260200190815260200160002060000160019054906101000a900460ff1661140b576040517f08c379a000000000000000000000000000000000000000000000000000000000815260040161140290614e3f565b60405180910390fd5b6000600960008781526020019081526020016000206040518060c00160405290816000820160009054906101000a900460ff161515151581526020016000820160019054906101000a900460ff16151515158152602001600182018054806020026020016040519081016040528092919081815260200182805480156114b057602002820191906000526020600020905b81548152602001906001019080831161149c575b505050505081526020016002820180546114c990615469565b80601f01602080910402602001604051908101604052809291908181526020018280546114f590615469565b80156115425780601f1061151757610100808354040283529160200191611542565b820191906000526020600020905b81548152906001019060200180831161152557829003601f168201915b5050505050815260200160038201805461155b90615469565b80601f016020809104026020016040519081016040528092919081815260200182805461158790615469565b80156115d45780601f106115a9576101008083540402835291602001916115d4565b820191906000526020600020905b8154815290600101906020018083116115b757829003601f168201915b505050505081526020016004820180546115ed90615469565b80601f016020809104026020016040519081016040528092919081815260200182805461161990615469565b80156116665780601f1061163b57610100808354040283529160200191611666565b820191906000526020600020905b81548152906001019060200180831161164957829003601f168201915b50505050508152505090508060000151816040015182606001518360a001519450945094509450509193509193565b6000600560008473ffffffffffffffffffffffffffffffffffffffff1673ffffffffffffffffffffffffffffffffffffffff16815260200190815260200160002060008373ffffffffffffffffffffffffffffffffffffffff1673ffffffffffffffffffffffffffffffffffffffff16815260200190815260200160002060009054906101000a900460ff16905092915050565b611731612015565b61173a816123c2565b50565b600c5481565b60007f01ffc9a7000000000000000000000000000000000000000000000000000000007bffffffffffffffffffffffffffffffffffffffffffffffffffffffff1916827bffffffffffffffffffffffffffffffffffffffffffffffffffffffff1916149050919050565b60008073ffffffffffffffffffffffffffffffffffffffff166002600084815260200190815260200160002060009054906101000a900473ffffffffffffffffffffffffffffffffffffffff1673ffffffffffffffffffffffffffffffffffffffff1614159050919050565b600033905090565b816004600083815260200190815260200160002060006101000a81548173ffffffffffffffffffffffffffffffffffffffff021916908373ffffffffffffffffffffffffffffffffffffffff160217905550808273ffffffffffffffffffffffffffffffffffffffff1661189483610d4e565b73ffffffffffffffffffffffffffffffffffffffff167f8c5be1e5ebec7d5bd14f71427d1e84f3dd0314c0f7b2291e5b200ac8c7c3b92560405160405180910390a45050565b6118e482826124f1565b5050565b6009600083815260200190815260200160002060000160019054906101000a900460ff1661194b576040517f08c379a000000000000000000000000000000000000000000000000000000000815260040161194290614e3f565b60405180910390fd5b60005b600e60069054906101000a900463ffffffff1663ffffffff16811015611a1f57600160648383815181106119ab577f4e487b7100000000000000000000000000000000000000000000000000000000600052603260045260246000fd5b60200260200101516119bd9190615515565b6119c79190615262565b828281518110611a00577f4e487b7100000000000000000000000000000000000000000000000000000000600052603260045260246000fd5b6020026020010181815250508080611a17906154cc565b91505061194e565b5060016009600084815260200190815260200160002060000160006101000a81548160ff02191690831515021790555080600960008481526020019081526020016000206001019080519060200190611a79929190613b23565b50611bc181600960008581526020019081526020016000206002018054611a9f90615469565b80601f0160208091040260200160405190810160405280929190818152602001828054611acb90615469565b8015611b185780601f10611aed57610100808354040283529160200191611b18565b820191906000526020600020905b815481529060010190602001808311611afb57829003601f168201915b5050505050600960008681526020019081526020016000206003018054611b3e90615469565b80601f0160208091040260200160405190810160405280929190818152602001828054611b6a90615469565b8015611bb75780601f10611b8c57610100808354040283529160200191611bb7565b820191906000526020600020905b815481529060010190602001808311611b9a57829003601f168201915b505050505061250f565b600960008481526020019081526020016000206004019080519060200190611bea929190613b70565b50611c9382600960008581526020019081526020016000206004018054611c1090615469565b80601f0160208091040260200160405190810160405280929190818152602001828054611c3c90615469565b8015611c895780601f10611c5e57610100808354040283529160200191611c89565b820191906000526020600020905b815481529060010190602001808311611c6c57829003601f168201915b505050505061329e565b7ffe2e2d779dba245964d4e3ef9b994be63856fd568bf7d3ca9e224755cb1bd54d8282604051611cc49291906150da565b60405180910390a15050565b6000611cdb826117ad565b611d1a576040517f08c379a0000000000000000000000000000000000000000000000000000000008152600401611d1190614f3f565b60405180910390fd5b6000611d2583610d4e565b90508073ffffffffffffffffffffffffffffffffffffffff168473ffffffffffffffffffffffffffffffffffffffff161480611d9457508373ffffffffffffffffffffffffffffffffffffffff16611d7c8461070e565b73ffffffffffffffffffffffffffffffffffffffff16145b80611da55750611da48185611695565b5b91505092915050565b8273ffffffffffffffffffffffffffffffffffffffff16611dce82610d4e565b73ffffffffffffffffffffffffffffffffffffffff1614611e24576040517f08c379a0000000000000000000000000000000000000000000000000000000008152600401611e1b90614e9f565b60405180910390fd5b600073ffffffffffffffffffffffffffffffffffffffff168273ffffffffffffffffffffffffffffffffffffffff161415611e94576040517f08c379a0000000000000000000000000000000000000000000000000000000008152600401611e8b90614eff565b60405180910390fd5b611e9f8383836132ac565b611eaa600082611821565b6001600360008573ffffffffffffffffffffffffffffffffffffffff1673ffffffffffffffffffffffffffffffffffffffff1681526020019081526020016000206000828254611efa9190615343565b925050819055506001600360008473ffffffffffffffffffffffffffffffffffffffff1673ffffffffffffffffffffffffffffffffffffffff1681526020019081526020016000206000828254611f519190615262565b92505081905550816002600083815260200190815260200160002060006101000a81548173ffffffffffffffffffffffffffffffffffffffff021916908373ffffffffffffffffffffffffffffffffffffffff160217905550808273ffffffffffffffffffffffffffffffffffffffff168473ffffffffffffffffffffffffffffffffffffffff167fddf252ad1be2c89b69c2b068fc378daa952ba7f163c4a11628f55a4df523b3ef60405160405180910390a46120108383836132b1565b505050565b600760009054906101000a900473ffffffffffffffffffffffffffffffffffffffff1673ffffffffffffffffffffffffffffffffffffffff163373ffffffffffffffffffffffffffffffffffffffff16146120a5576040517f08c379a000000000000000000000000000000000000000000000000000000000815260040161209c90614edf565b60405180910390fd5b565b8173ffffffffffffffffffffffffffffffffffffffff168373ffffffffffffffffffffffffffffffffffffffff161415612116576040517f08c379a000000000000000000000000000000000000000000000000000000000815260040161210d90614f1f565b60405180910390fd5b80600560008573ffffffffffffffffffffffffffffffffffffffff1673ffffffffffffffffffffffffffffffffffffffff16815260200190815260200160002060008473ffffffffffffffffffffffffffffffffffffffff1673ffffffffffffffffffffffffffffffffffffffff16815260200190815260200160002060006101000a81548160ff0219169083151502179055508173ffffffffffffffffffffffffffffffffffffffff168373ffffffffffffffffffffffffffffffffffffffff167f17307eab39ab6107e8899845ad3d59bd9653f200f220920489ca2b5937696c31836040516122079190614ced565b60405180910390a3505050565b61221f848484611dae565b61222b848484846132b6565b61226a576040517f08c379a000000000000000000000000000000000000000000000000000000000815260040161226190614e7f565b60405180910390fd5b50505050565b606061227b826117ad565b6122ba576040517f08c379a00000000000000000000000000000000000000000000000000000000081526004016122b190614fff565b60405180910390fd5b60006006600084815260200190815260200160002080546122da90615469565b80601f016020809104026020016040519081016040528092919081815260200182805461230690615469565b80156123535780601f1061232857610100808354040283529160200191612353565b820191906000526020600020905b81548152906001019060200180831161233657829003601f168201915b50505050509050600061236461344d565b905060008151141561237a5781925050506123bd565b6000825111156123af5780826040516020016123979291906148dd565b604051602081830303815290604052925050506123bd565b6123b884613464565b925050505b919050565b3373ffffffffffffffffffffffffffffffffffffffff168173ffffffffffffffffffffffffffffffffffffffff161415612431576040517f08c379a00000000000000000000000000000000000000000000000000000000081526004016124289061509f565b60405180910390fd5b80600860006101000a81548173ffffffffffffffffffffffffffffffffffffffff021916908373ffffffffffffffffffffffffffffffffffffffff1602179055508073ffffffffffffffffffffffffffffffffffffffff16600760009054906101000a900473ffffffffffffffffffffffffffffffffffffffff1673ffffffffffffffffffffffffffffffffffffffff167fed8889f560326eb138920d842192f0eb3dd22b4f139c87a2c57538e05bae127860405160405180910390a350565b61250b82826040518060200160405280600081525061350b565b5050565b606060006040518061028001604052806040518060400160405280600781526020017f234537454244410000000000000000000000000000000000000000000000000081525081526020016040518060400160405280600781526020017f234646413432300000000000000000000000000000000000000000000000000081525081526020016040518060400160405280600781526020017f233138313731430000000000000000000000000000000000000000000000000081525081526020016040518060400160405280600781526020017f233538373234360000000000000000000000000000000000000000000000000081525081526020016040518060400160405280600781526020017f233236323532440000000000000000000000000000000000000000000000000081525081526020016040518060400160405280600781526020017f233430334133410000000000000000000000000000000000000000000000000081525081526020016040518060400160405280600781526020017f234344413433340000000000000000000000000000000000000000000000000081525081526020016040518060400160405280600781526020017f234544373630450000000000000000000000000000000000000000000000000081525081526020016040518060400160405280600781526020017f233342334333360000000000000000000000000000000000000000000000000081525081526020016040518060400160405280600781526020017f234337423434360000000000000000000000000000000000000000000000000081525081526020016040518060400160405280600781526020017f233545323132390000000000000000000000000000000000000000000000000081525081526020016040518060400160405280600781526020017f233335363832440000000000000000000000000000000000000000000000000081525081526020016040518060400160405280600781526020017f233345354638410000000000000000000000000000000000000000000000000081525081526020016040518060400160405280600781526020017f234544464632310000000000000000000000000000000000000000000000000081525081526020016040518060400160405280600781526020017f233746423542350000000000000000000000000000000000000000000000000081525081526020016040518060400160405280600781526020017f234433364537300000000000000000000000000000000000000000000000000081525081526020016040518060400160405280600781526020017f233745374235320000000000000000000000000000000000000000000000000081525081526020016040518060400160405280600781526020017f233641354633310000000000000000000000000000000000000000000000000081525081526020016040518060400160405280600781526020017f234433364537300000000000000000000000000000000000000000000000000081525081526020016040518060400160405280600781526020017f233437343032450000000000000000000000000000000000000000000000000081525081525090506000816014876001815181106129fa577f4e487b7100000000000000000000000000000000000000000000000000000000600052603260045260246000fd5b6020026020010151612a0c9190615515565b60148110612a43577f4e487b7100000000000000000000000000000000000000000000000000000000600052603260045260246000fd5b6020020151612a9287600281518110612a85577f4e487b7100000000000000000000000000000000000000000000000000000000600052603260045260246000fd5b6020026020010151613566565b612adc88600381518110612acf577f4e487b7100000000000000000000000000000000000000000000000000000000600052603260045260246000fd5b6020026020010151613566565b612b2689600481518110612b19577f4e487b7100000000000000000000000000000000000000000000000000000000600052603260045260246000fd5b6020026020010151613566565b612b708a600581518110612b63577f4e487b7100000000000000000000000000000000000000000000000000000000600052603260045260246000fd5b6020026020010151613566565b612bba8b600681518110612bad577f4e487b7100000000000000000000000000000000000000000000000000000000600052603260045260246000fd5b6020026020010151613566565b612c048c600781518110612bf7577f4e487b7100000000000000000000000000000000000000000000000000000000600052603260045260246000fd5b6020026020010151613566565b604051602001612c1a97969594939291906149f8565b60405160208183030381529060405290506000612c7787600881518110612c6a577f4e487b7100000000000000000000000000000000000000000000000000000000600052603260045260246000fd5b6020026020010151613566565b612cc188600981518110612cb4577f4e487b7100000000000000000000000000000000000000000000000000000000600052603260045260246000fd5b6020026020010151613566565b612d1760028a600a81518110612d00577f4e487b7100000000000000000000000000000000000000000000000000000000600052603260045260246000fd5b6020026020010151612d1291906152b8565b613566565b612d618a600b81518110612d54577f4e487b7100000000000000000000000000000000000000000000000000000000600052603260045260246000fd5b6020026020010151613566565b8660148c600c81518110612d9e577f4e487b7100000000000000000000000000000000000000000000000000000000600052603260045260246000fd5b6020026020010151612db09190615515565b60148110612de7577f4e487b7100000000000000000000000000000000000000000000000000000000600052603260045260246000fd5b6020020151604051602001612e00959493929190614bd0565b6040516020818303038152906040529050600083601489600d81518110612e50577f4e487b7100000000000000000000000000000000000000000000000000000000600052603260045260246000fd5b6020026020010151612e629190615515565b60148110612e99577f4e487b7100000000000000000000000000000000000000000000000000000000600052603260045260246000fd5b6020020151612ee889601681518110612edb577f4e487b7100000000000000000000000000000000000000000000000000000000600052603260045260246000fd5b6020026020010151613566565b612f328a600e81518110612f25577f4e487b7100000000000000000000000000000000000000000000000000000000600052603260045260246000fd5b6020026020010151613566565b612f7c8b600f81518110612f6f577f4e487b7100000000000000000000000000000000000000000000000000000000600052603260045260246000fd5b6020026020010151613566565b612fc68c601081518110612fb9577f4e487b7100000000000000000000000000000000000000000000000000000000600052603260045260246000fd5b6020026020010151613566565b604051602001612fda959493929190614b21565b604051602081830303815290604052905060006130378960118151811061302a577f4e487b7100000000000000000000000000000000000000000000000000000000600052603260045260246000fd5b6020026020010151613566565b6130818a601281518110613074577f4e487b7100000000000000000000000000000000000000000000000000000000600052603260045260246000fd5b6020026020010151613566565b6130cb8b6013815181106130be577f4e487b7100000000000000000000000000000000000000000000000000000000600052603260045260246000fd5b6020026020010151613566565b6131158c601481518110613108577f4e487b7100000000000000000000000000000000000000000000000000000000600052603260045260246000fd5b6020026020010151613566565b61315f8d601581518110613152577f4e487b7100000000000000000000000000000000000000000000000000000000600052603260045260246000fd5b6020026020010151613566565b604051602001613173959493929190614901565b604051602081830303815290604052905060008560148b6000815181106131c3577f4e487b7100000000000000000000000000000000000000000000000000000000600052603260045260246000fd5b60200260200101516131d59190615515565b6014811061320c577f4e487b7100000000000000000000000000000000000000000000000000000000600052603260045260246000fd5b602002015185858585604051602001613229959493929190614ab5565b604051602081830303815290604052905061327089898b61324985613713565b60405160200161325c9493929190614983565b604051602081830303815290604052613713565b6040516020016132809190614bae565b60405160208183030381529060405296505050505050509392505050565b6132a882826138b2565b5050565b505050565b505050565b60006132d78473ffffffffffffffffffffffffffffffffffffffff16613926565b15613440578373ffffffffffffffffffffffffffffffffffffffff1663150b7a02613300611819565b8786866040518563ffffffff1660e01b81526004016133229493929190614ca1565b602060405180830381600087803b15801561333c57600080fd5b505af192505050801561336d57506040513d601f19601f8201168201806040525081019061336a9190613fc7565b60015b6133f0573d806000811461339d576040519150601f19603f3d011682016040523d82523d6000602084013e6133a2565b606091505b506000815114156133e8576040517f08c379a00000000000000000000000000000000000000000000000000000000081526004016133df90614e7f565b60405180910390fd5b805181602001fd5b63150b7a0260e01b7bffffffffffffffffffffffffffffffffffffffffffffffffffffffff1916817bffffffffffffffffffffffffffffffffffffffffffffffffffffffff191614915050613445565b600190505b949350505050565b606060405180602001604052806000815250905090565b606061346f826117ad565b6134ae576040517f08c379a00000000000000000000000000000000000000000000000000000000081526004016134a59061503f565b60405180910390fd5b60006134b861344d565b905060008151116134d85760405180602001604052806000815250613503565b806134e284613566565b6040516020016134f39291906148dd565b6040516020818303038152906040525b915050919050565b6135158383613949565b61352260008484846132b6565b613561576040517f08c379a000000000000000000000000000000000000000000000000000000000815260040161355890614e7f565b60405180910390fd5b505050565b606060008214156135ae576040518060400160405280600181526020017f3000000000000000000000000000000000000000000000000000000000000000815250905061370e565b600082905060005b600082146135e05780806135c9906154cc565b915050600a826135d991906152b8565b91506135b6565b60008167ffffffffffffffff811115613622577f4e487b7100000000000000000000000000000000000000000000000000000000600052604160045260246000fd5b6040519080825280601f01601f1916602001820160405280156136545781602001600182028036833780820191505090505b5090505b600085146137075760018261366d9190615343565b9150600a8561367c9190615515565b60306136889190615262565b60f81b8183815181106136c4577f4e487b7100000000000000000000000000000000000000000000000000000000600052603260045260246000fd5b60200101907effffffffffffffffffffffffffffffffffffffffffffffffffffffffffffff1916908160001a905350600a8561370091906152b8565b9450613658565b8093505050505b919050565b6060600082511415613736576040518060200160405280600081525090506138ad565b600060405180606001604052806040815260200161607a60409139905060006003600285516137659190615262565b61376f91906152b8565b600461377b91906152e9565b9050600060208261378c9190615262565b67ffffffffffffffff8111156137cb577f4e487b7100000000000000000000000000000000000000000000000000000000600052604160045260246000fd5b6040519080825280601f01601f1916602001820160405280156137fd5781602001600182028036833780820191505090505b509050818152600183018586518101602084015b8183101561386c576003830192508251603f8160121c168501518253600182019150603f81600c1c168501518253600182019150603f8160061c168501518253600182019150603f8116850151825360018201915050613811565b6003895106600181146138865760028114613896576138a1565b613d3d60f01b60028303526138a1565b603d60f81b60018303525b50505050508093505050505b919050565b6138bb826117ad565b6138fa576040517f08c379a00000000000000000000000000000000000000000000000000000000081526004016138f190614fbf565b60405180910390fd5b80600660008481526020019081526020016000209080519060200190613921929190613b70565b505050565b6000808273ffffffffffffffffffffffffffffffffffffffff163b119050919050565b600073ffffffffffffffffffffffffffffffffffffffff168273ffffffffffffffffffffffffffffffffffffffff1614156139b9576040517f08c379a00000000000000000000000000000000000000000000000000000000081526004016139b090614fdf565b60405180910390fd5b6139c2816117ad565b15613a02576040517f08c379a00000000000000000000000000000000000000000000000000000000081526004016139f990614ebf565b60405180910390fd5b613a0e600083836132ac565b6001600360008473ffffffffffffffffffffffffffffffffffffffff1673ffffffffffffffffffffffffffffffffffffffff1681526020019081526020016000206000828254613a5e9190615262565b92505081905550816002600083815260200190815260200160002060006101000a81548173ffffffffffffffffffffffffffffffffffffffff021916908373ffffffffffffffffffffffffffffffffffffffff160217905550808273ffffffffffffffffffffffffffffffffffffffff16600073ffffffffffffffffffffffffffffffffffffffff167fddf252ad1be2c89b69c2b068fc378daa952ba7f163c4a11628f55a4df523b3ef60405160405180910390a4613b1f600083836132b1565b5050565b828054828255906000526020600020908101928215613b5f579160200282015b82811115613b5e578251825591602001919060010190613b43565b5b509050613b6c9190613bf6565b5090565b828054613b7c90615469565b90600052602060002090601f016020900481019282613b9e5760008555613be5565b82601f10613bb757805160ff1916838001178555613be5565b82800160010185558215613be5579182015b82811115613be4578251825591602001919060010190613bc9565b5b509050613bf29190613bf6565b5090565b5b80821115613c0f576000816000905550600101613bf7565b5090565b6000613c26613c2184615158565b615133565b90508083825260208201905082856020860282011115613c4557600080fd5b60005b85811015613c755781613c5b8882613dcd565b845260208401935060208301925050600181019050613c48565b5050509392505050565b6000613c92613c8d84615184565b615133565b905082815260208101848484011115613caa57600080fd5b613cb5848285615427565b509392505050565b6000613cd0613ccb846151b5565b615133565b905082815260208101848484011115613ce857600080fd5b613cf3848285615427565b509392505050565b600081359050613d0a8161601d565b92915050565b600082601f830112613d2157600080fd5b8135613d31848260208601613c13565b91505092915050565b600081359050613d4981616034565b92915050565b600081359050613d5e8161604b565b92915050565b600081519050613d738161604b565b92915050565b600082601f830112613d8a57600080fd5b8135613d9a848260208601613c7f565b91505092915050565b600082601f830112613db457600080fd5b8135613dc4848260208601613cbd565b91505092915050565b600081359050613ddc81616062565b92915050565b600081519050613df181616062565b92915050565b600060208284031215613e0957600080fd5b6000613e1784828501613cfb565b91505092915050565b60008060408385031215613e3357600080fd5b6000613e4185828601613cfb565b9250506020613e5285828601613cfb565b9150509250929050565b600080600060608486031215613e7157600080fd5b6000613e7f86828701613cfb565b9350506020613e9086828701613cfb565b9250506040613ea186828701613dcd565b9150509250925092565b60008060008060808587031215613ec157600080fd5b6000613ecf87828801613cfb565b9450506020613ee087828801613cfb565b9350506040613ef187828801613dcd565b925050606085013567ffffffffffffffff811115613f0e57600080fd5b613f1a87828801613d79565b91505092959194509250565b60008060408385031215613f3957600080fd5b6000613f4785828601613cfb565b9250506020613f5885828601613d3a565b9150509250929050565b60008060408385031215613f7557600080fd5b6000613f8385828601613cfb565b9250506020613f9485828601613dcd565b9150509250929050565b600060208284031215613fb057600080fd5b6000613fbe84828501613d4f565b91505092915050565b600060208284031215613fd957600080fd5b6000613fe784828501613d64565b91505092915050565b6000806040838503121561400357600080fd5b600083013567ffffffffffffffff81111561401d57600080fd5b61402985828601613da3565b925050602083013567ffffffffffffffff81111561404657600080fd5b61405285828601613da3565b9150509250929050565b60006020828403121561406e57600080fd5b600061407c84828501613dcd565b91505092915050565b60006020828403121561409757600080fd5b60006140a584828501613de2565b91505092915050565b600080604083850312156140c157600080fd5b60006140cf85828601613dcd565b925050602083013567ffffffffffffffff8111156140ec57600080fd5b6140f885828601613d10565b9150509250929050565b600061410e83836148a1565b60208301905092915050565b61412381615377565b82525050565b6000614134826151f6565b61413e8185615224565b9350614149836151e6565b8060005b8381101561417a5781516141618882614102565b975061416c83615217565b92505060018101905061414d565b5085935050505092915050565b61419081615389565b82525050565b61419f81615395565b82525050565b60006141b082615201565b6141ba8185615235565b93506141ca818560208601615436565b6141d381615602565b840191505092915050565b60006141e98261520c565b6141f38185615246565b9350614203818560208601615436565b61420c81615602565b840191505092915050565b60006142228261520c565b61422c8185615257565b935061423c818560208601615436565b80840191505092915050565b6000614255602583615257565b915061426082615613565b602582019050919050565b6000614278600a83615257565b915061428382615662565b600a82019050919050565b600061429b601183615246565b91506142a68261568b565b602082019050919050565b60006142be601683615246565b91506142c9826156b4565b602082019050919050565b60006142e1600983615257565b91506142ec826156dd565b600982019050919050565b6000614304600e83615257565b915061430f82615706565b600e82019050919050565b6000614327603283615246565b91506143328261572f565b604082019050919050565b600061434a602583615246565b91506143558261577e565b604082019050919050565b600061436d600383615257565b9150614378826157cd565b600382019050919050565b6000614390601c83615246565b915061439b826157f6565b602082019050919050565b60006143b3600883615257565b91506143be8261581f565b600882019050919050565b60006143d6602683615257565b91506143e182615848565b602682019050919050565b60006143f9601683615246565b915061440482615897565b602082019050919050565b600061441c600183615257565b9150614427826158c0565b600182019050919050565b600061443f602483615246565b915061444a826158e9565b604082019050919050565b6000614462601983615246565b915061446d82615938565b602082019050919050565b6000614485601183615257565b915061449082615961565b601182019050919050565b60006144a8600683615257565b91506144b38261598a565b600682019050919050565b60006144cb602c83615246565b91506144d6826159b3565b604082019050919050565b60006144ee600183615257565b91506144f982615a02565b600182019050919050565b6000614511600383615257565b915061451c82615a2b565b600382019050919050565b6000614534603883615246565b915061453f82615a54565b604082019050919050565b6000614557602a83615246565b915061456282615aa3565b604082019050919050565b600061457a602983615246565b915061458582615af2565b604082019050919050565b600061459d602e83615246565b91506145a882615b41565b604082019050919050565b60006145c0601183615257565b91506145cb82615b90565b601182019050919050565b60006145e3606583615257565b91506145ee82615bb9565b606582019050919050565b6000614606600583615257565b915061461182615c54565b600582019050919050565b6000614629600283615257565b915061463482615c7d565b600282019050919050565b600061464c602083615246565b915061465782615ca6565b602082019050919050565b600061466f603183615246565b915061467a82615ccf565b604082019050919050565b6000614692602c83615246565b915061469d82615d1e565b604082019050919050565b60006146b5602f83615246565b91506146c082615d6d565b604082019050919050565b60006146d8600d83615257565b91506146e382615dbc565b600d82019050919050565b60006146fb600683615257565b915061470682615de5565b600682019050919050565b600061471e600f83615257565b915061472982615e0e565b600f82019050919050565b6000614741602183615246565b915061474c82615e37565b604082019050919050565b6000614764600683615257565b915061476f82615e86565b600682019050919050565b6000614787601d83615257565b915061479282615eaf565b601d82019050919050565b60006147aa600683615257565b91506147b582615ed8565b600682019050919050565b60006147cd603183615246565b91506147d882615f01565b604082019050919050565b60006147f0600c83615257565b91506147fb82615f50565b600c82019050919050565b6000614813601783615246565b915061481e82615f79565b602082019050919050565b6000614836600483615257565b915061484182615fa2565b600482019050919050565b6000614859600683615257565b915061486482615fcb565b600682019050919050565b600061487c600683615257565b915061488782615ff4565b600682019050919050565b61489b816153cb565b82525050565b6148aa816153f9565b82525050565b6148b9816153f9565b82525050565b6148c881615403565b82525050565b6148d781615413565b82525050565b60006148e98285614217565b91506148f58284614217565b91508190509392505050565b600061490d8288614217565b9150614918826144e1565b91506149248287614217565b915061492f8261440f565b915061493b8286614217565b9150614946826144e1565b91506149528285614217565b915061495d8261440f565b91506149698284614217565b915061497482614829565b91508190509695505050505050565b600061498e826142d4565b915061499a8287614217565b91506149a582614478565b91506149b18286614217565b91506149bc826143c9565b91506149c88285614217565b91506149d382614248565b91506149df8284614217565b91506149ea8261461c565b915081905095945050505050565b6000614a03826142f7565b9150614a0f828a614217565b9150614a1a826145b3565b9150614a268289614217565b9150614a31826146cb565b9150614a3d8288614217565b9150614a4882614757565b9150614a548287614217565b9150614a5f826146ee565b9150614a6b8286614217565b9150614a768261484c565b9150614a828285614217565b9150614a8d8261449b565b9150614a998284614217565b9150614aa482614829565b915081905098975050505050505050565b6000614ac0826145d6565b9150614acc8288614217565b9150614ad782614360565b9150614ae38287614217565b9150614aef8286614217565b9150614afb8285614217565b9150614b078284614217565b9150614b128261486f565b91508190509695505050505050565b6000614b2c82614711565b9150614b388288614217565b9150614b43826146cb565b9150614b4f8287614217565b9150614b5a8261426b565b9150614b668286614217565b9150614b718261440f565b9150614b7d8285614217565b9150614b88826144e1565b9150614b948284614217565b9150614b9f8261440f565b91508190509695505050505050565b6000614bb98261477a565b9150614bc58284614217565b915081905092915050565b6000614bdb826147e3565b9150614be78288614217565b9150614bf28261479d565b9150614bfe8287614217565b9150614c09826145f9565b9150614c158286614217565b9150614c20826146cb565b9150614c2c8285614217565b9150614c37826143a6565b9150614c438284614217565b9150614c4e82614504565b91508190509695505050505050565b6000602082019050614c72600083018461411a565b92915050565b6000604082019050614c8d600083018561411a565b614c9a602083018461411a565b9392505050565b6000608082019050614cb6600083018761411a565b614cc3602083018661411a565b614cd060408301856148b0565b8181036060830152614ce281846141a5565b905095945050505050565b6000602082019050614d026000830184614187565b92915050565b6000608082019050614d1d6000830187614187565b8181036020830152614d2f8186614129565b90508181036040830152614d4381856141de565b90508181036060830152614d5781846141de565b905095945050505050565b600060a082019050614d776000830188614187565b614d846020830187614187565b8181036040830152614d9681866141de565b90508181036060830152614daa81856141de565b90508181036080830152614dbe81846141de565b90509695505050505050565b600060a082019050614ddf6000830188614196565b614dec60208301876148ce565b614df96040830186614892565b614e0660608301856148bf565b614e1360808301846148bf565b9695505050505050565b60006020820190508181036000830152614e3781846141de565b905092915050565b60006020820190508181036000830152614e588161428e565b9050919050565b60006020820190508181036000830152614e78816142b1565b9050919050565b60006020820190508181036000830152614e988161431a565b9050919050565b60006020820190508181036000830152614eb88161433d565b9050919050565b60006020820190508181036000830152614ed881614383565b9050919050565b60006020820190508181036000830152614ef8816143ec565b9050919050565b60006020820190508181036000830152614f1881614432565b9050919050565b60006020820190508181036000830152614f3881614455565b9050919050565b60006020820190508181036000830152614f58816144be565b9050919050565b60006020820190508181036000830152614f7881614527565b9050919050565b60006020820190508181036000830152614f988161454a565b9050919050565b60006020820190508181036000830152614fb88161456d565b9050919050565b60006020820190508181036000830152614fd881614590565b9050919050565b60006020820190508181036000830152614ff88161463f565b9050919050565b6000602082019050818103600083015261501881614662565b9050919050565b6000602082019050818103600083015261503881614685565b9050919050565b60006020820190508181036000830152615058816146a8565b9050919050565b6000602082019050818103600083015261507881614734565b9050919050565b60006020820190508181036000830152615098816147c0565b9050919050565b600060208201905081810360008301526150b881614806565b9050919050565b60006020820190506150d460008301846148b0565b92915050565b60006040820190506150ef60008301856148b0565b81810360208301526151018184614129565b90509392505050565b600060408201905061511f60008301856148b0565b61512c60208301846148bf565b9392505050565b600061513d61514e565b9050615149828261549b565b919050565b6000604051905090565b600067ffffffffffffffff821115615173576151726155d3565b5b602082029050602081019050919050565b600067ffffffffffffffff82111561519f5761519e6155d3565b5b6151a882615602565b9050602081019050919050565b600067ffffffffffffffff8211156151d0576151cf6155d3565b5b6151d982615602565b9050602081019050919050565b6000819050602082019050919050565b600081519050919050565b600081519050919050565b600081519050919050565b6000602082019050919050565b600082825260208201905092915050565b600082825260208201905092915050565b600082825260208201905092915050565b600081905092915050565b600061526d826153f9565b9150615278836153f9565b9250827fffffffffffffffffffffffffffffffffffffffffffffffffffffffffffffffff038211156152ad576152ac615546565b5b828201905092915050565b60006152c3826153f9565b91506152ce836153f9565b9250826152de576152dd615575565b5b828204905092915050565b60006152f4826153f9565b91506152ff836153f9565b9250817fffffffffffffffffffffffffffffffffffffffffffffffffffffffffffffffff048311821515161561533857615337615546565b5b828202905092915050565b600061534e826153f9565b9150615359836153f9565b92508282101561536c5761536b615546565b5b828203905092915050565b6000615382826153d9565b9050919050565b60008115159050919050565b6000819050919050565b60007fffffffff0000000000000000000000000000000000000000000000000000000082169050919050565b600061ffff82169050919050565b600073ffffffffffffffffffffffffffffffffffffffff82169050919050565b6000819050919050565b600063ffffffff82169050919050565b600067ffffffffffffffff82169050919050565b82818337600083830152505050565b60005b83811015615454578082015181840152602081019050615439565b83811115615463576000848401525b50505050565b6000600282049050600182168061548157607f821691505b60208210811415615495576154946155a4565b5b50919050565b6154a482615602565b810181811067ffffffffffffffff821117156154c3576154c26155d3565b5b80604052505050565b60006154d7826153f9565b91507fffffffffffffffffffffffffffffffffffffffffffffffffffffffffffffffff82141561550a57615509615546565b5b600182019050919050565b6000615520826153f9565b915061552b836153f9565b92508261553b5761553a615575565b5b828206905092915050565b7f4e487b7100000000000000000000000000000000000000000000000000000000600052601160045260246000fd5b7f4e487b7100000000000000000000000000000000000000000000000000000000600052601260045260246000fd5b7f4e487b7100000000000000000000000000000000000000000000000000000000600052602260045260246000fd5b7f4e487b7100000000000000000000000000000000000000000000000000000000600052604160045260246000fd5b6000601f19601f8301169050919050565b7f222c22696d616765223a22646174613a696d6167652f7376672b786d6c3b626160008201527f736536342c000000000000000000000000000000000000000000000000000000602082015250565b7f2720706f696e74733d2700000000000000000000000000000000000000000000600082015250565b7f72657175657374206e6f7420666f756e64000000000000000000000000000000600082015250565b7f4d7573742062652070726f706f736564206f776e657200000000000000000000600082015250565b7f7b226e616d65223a220000000000000000000000000000000000000000000000600082015250565b7f3c6c696e65207374726f6b653d27000000000000000000000000000000000000600082015250565b7f4552433732313a207472616e7366657220746f206e6f6e20455243373231526560008201527f63656976657220696d706c656d656e7465720000000000000000000000000000602082015250565b7f4552433732313a207472616e736665722066726f6d20696e636f72726563742060008201527f6f776e6572000000000000000000000000000000000000000000000000000000602082015250565b7f20273e0000000000000000000000000000000000000000000000000000000000600082015250565b7f4552433732313a20746f6b656e20616c7265616479206d696e74656400000000600082015250565b7f272066696c6c3d27000000000000000000000000000000000000000000000000600082015250565b7f222c2265787465726e616c5f75726c223a22766a6b6e66742e6272756e6f766a60008201527f6b2e636f6d2f0000000000000000000000000000000000000000000000000000602082015250565b7f4f6e6c792063616c6c61626c65206279206f776e657200000000000000000000600082015250565b7f2c00000000000000000000000000000000000000000000000000000000000000600082015250565b7f4552433732313a207472616e7366657220746f20746865207a65726f2061646460008201527f7265737300000000000000000000000000000000000000000000000000000000602082015250565b7f4552433732313a20617070726f766520746f2063616c6c657200000000000000600082015250565b7f222c226465736372697074696f6e223a22000000000000000000000000000000600082015250565b7f272079323d270000000000000000000000000000000000000000000000000000600082015250565b7f4552433732313a206f70657261746f7220717565727920666f72206e6f6e657860008201527f697374656e7420746f6b656e0000000000000000000000000000000000000000602082015250565b7f2000000000000000000000000000000000000000000000000000000000000000600082015250565b7f272f3e0000000000000000000000000000000000000000000000000000000000600082015250565b7f4552433732313a20617070726f76652063616c6c6572206973206e6f74206f7760008201527f6e6572206e6f7220617070726f76656420666f7220616c6c0000000000000000602082015250565b7f4552433732313a2062616c616e636520717565727920666f7220746865207a6560008201527f726f206164647265737300000000000000000000000000000000000000000000602082015250565b7f4552433732313a206f776e657220717565727920666f72206e6f6e657869737460008201527f656e7420746f6b656e0000000000000000000000000000000000000000000000602082015250565b7f45524337323155524953746f726167653a2055524920736574206f66206e6f6e60008201527f6578697374656e7420746f6b656e000000000000000000000000000000000000602082015250565b7f2027207374726f6b652d77696474683d27000000000000000000000000000000600082015250565b7f3c7376672076657273696f6e3d27312e31272076696577426f783d273020302060008201527f313030203130302720786d6c6e733d27687474703a2f2f7777772e77332e6f7260208201527f672f323030302f73766727207374796c653d276261636b67726f756e642d636f60408201527f6c6f723a20000000000000000000000000000000000000000000000000000000606082015250565b7f2720723d27000000000000000000000000000000000000000000000000000000600082015250565b7f227d000000000000000000000000000000000000000000000000000000000000600082015250565b7f4552433732313a206d696e7420746f20746865207a65726f2061646472657373600082015250565b7f45524337323155524953746f726167653a2055524920717565727920666f722060008201527f6e6f6e6578697374656e7420746f6b656e000000000000000000000000000000602082015250565b7f4552433732313a20617070726f76656420717565727920666f72206e6f6e657860008201527f697374656e7420746f6b656e0000000000000000000000000000000000000000602082015250565b7f4552433732314d657461646174613a2055524920717565727920666f72206e6f60008201527f6e6578697374656e7420746f6b656e0000000000000000000000000000000000602082015250565b7f27206f7061636974793d27302e00000000000000000000000000000000000000600082015250565b7f272079313d270000000000000000000000000000000000000000000000000000600082015250565b7f3c706f6c79676f6e2066696c6c3d270000000000000000000000000000000000600082015250565b7f4552433732313a20617070726f76616c20746f2063757272656e74206f776e6560008201527f7200000000000000000000000000000000000000000000000000000000000000602082015250565b7f272078313d270000000000000000000000000000000000000000000000000000600082015250565b7f646174613a6170706c69636174696f6e2f6a736f6e3b6261736536342c000000600082015250565b7f272063793d270000000000000000000000000000000000000000000000000000600082015250565b7f4552433732313a207472616e736665722063616c6c6572206973206e6f74206f60008201527f776e6572206e6f7220617070726f766564000000000000000000000000000000602082015250565b7f3c636972636c652063783d270000000000000000000000000000000000000000600082015250565b7f43616e6e6f74207472616e7366657220746f2073656c66000000000000000000600082015250565b7f27202f3e00000000000000000000000000000000000000000000000000000000600082015250565b7f272078323d270000000000000000000000000000000000000000000000000000600082015250565b7f3c2f7376673e0000000000000000000000000000000000000000000000000000600082015250565b61602681615377565b811461603157600080fd5b50565b61603d81615389565b811461604857600080fd5b50565b6160548161539f565b811461605f57600080fd5b50565b61606b816153f9565b811461607657600080fd5b5056fe4142434445464748494a4b4c4d4e4f505152535455565758595a6162636465666768696a6b6c6d6e6f707172737475767778797a303132333435363738392b2fa26469706673582212200169aa1d95ed548b6776e190d029bc43d483e22236d4c3b634a8acb19565630e64736f6c63430008040033",
  "linkReferences": {},
  "deployedLinkReferences": {}
}