{
  "_format": "hh-sol-artifact-1",
  "contractName": "VjkNFT",
  "sourceName": "contracts/VjkNFT.sol",
  "abi": [
    {
      "inputs": [
        {
          "internalType": "contract IAPIConsumer",
          "name": "_apiConsumer",
          "type": "address"
        },
        {
          "internalType": "contract IVRF",
          "name": "_vrf",
          "type": "address"
        },
        {
          "internalType": "contract ISwaper",
          "name": "_swaper",
          "type": "address"
        },
        {
          "internalType": "contract LinkTokenInterface",
          "name": "_link",
          "type": "address"
        },
        {
          "internalType": "address",
          "name": "_registrar",
          "type": "address"
        },
        {
          "internalType": "contract AutomationRegistryInterface",
          "name": "_registry",
          "type": "address"
        },
        {
          "internalType": "uint96",
          "name": "_apiConsumerLinkAmount",
          "type": "uint96"
        },
        {
          "internalType": "uint96",
          "name": "_vrfLinkAmount",
          "type": "uint96"
        },
        {
          "internalType": "uint96",
          "name": "_automateLinkAmount",
          "type": "uint96"
        }
      ],
      "stateMutability": "nonpayable",
      "type": "constructor"
    },
    {
      "anonymous": false,
      "inputs": [
        {
          "indexed": true,
          "internalType": "address",
          "name": "owner",
          "type": "address"
        },
        {
          "indexed": true,
          "internalType": "address",
          "name": "approved",
          "type": "address"
        },
        {
          "indexed": true,
          "internalType": "uint256",
          "name": "tokenId",
          "type": "uint256"
        }
      ],
      "name": "Approval",
      "type": "event"
    },
    {
      "anonymous": false,
      "inputs": [
        {
          "indexed": true,
          "internalType": "address",
          "name": "owner",
          "type": "address"
        },
        {
          "indexed": true,
          "internalType": "address",
          "name": "operator",
          "type": "address"
        },
        {
          "indexed": false,
          "internalType": "bool",
          "name": "approved",
          "type": "bool"
        }
      ],
      "name": "ApprovalForAll",
      "type": "event"
    },
    {
      "anonymous": false,
      "inputs": [
        {
          "indexed": true,
          "internalType": "uint256",
          "name": "tokenID",
          "type": "uint256"
        }
      ],
      "name": "Created",
      "type": "event"
    },
    {
      "anonymous": false,
      "inputs": [
        {
          "indexed": true,
          "internalType": "address",
          "name": "previousOwner",
          "type": "address"
        },
        {
          "indexed": true,
          "internalType": "address",
          "name": "newOwner",
          "type": "address"
        }
      ],
      "name": "OwnershipTransferred",
      "type": "event"
    },
    {
      "anonymous": false,
      "inputs": [
        {
          "indexed": true,
          "internalType": "address",
          "name": "from",
          "type": "address"
        },
        {
          "indexed": true,
          "internalType": "address",
          "name": "to",
          "type": "address"
        },
        {
          "indexed": true,
          "internalType": "uint256",
          "name": "tokenId",
          "type": "uint256"
        }
      ],
      "name": "Transfer",
      "type": "event"
    },
    {
      "inputs": [
        {
          "internalType": "address",
          "name": "",
          "type": "address"
        },
        {
          "internalType": "uint256",
          "name": "",
          "type": "uint256"
        }
      ],
      "name": "IDbyAddres",
      "outputs": [
        {
          "internalType": "string",
          "name": "tokenName",
          "type": "string"
        },
        {
          "internalType": "uint256",
          "name": "tokenID",
          "type": "uint256"
        },
        {
          "internalType": "bytes32",
          "name": "quoteID",
          "type": "bytes32"
        },
        {
          "internalType": "uint256",
          "name": "svgID",
          "type": "uint256"
        }
      ],
      "stateMutability": "view",
      "type": "function"
    },
    {
      "inputs": [
        {
          "internalType": "address",
          "name": "to",
          "type": "address"
        },
        {
          "internalType": "uint256",
          "name": "tokenId",
          "type": "uint256"
        }
      ],
      "name": "approve",
      "outputs": [],
      "stateMutability": "nonpayable",
      "type": "function"
    },
    {
      "inputs": [
        {
          "internalType": "address",
          "name": "owner",
          "type": "address"
        }
      ],
      "name": "balanceOf",
      "outputs": [
        {
          "internalType": "uint256",
          "name": "",
          "type": "uint256"
        }
      ],
      "stateMutability": "view",
      "type": "function"
    },
    {
      "inputs": [
        {
          "internalType": "bytes",
          "name": "checkData",
          "type": "bytes"
        }
      ],
      "name": "checkUpkeep",
      "outputs": [
        {
          "internalType": "bool",
          "name": "upkeepNeeded",
          "type": "bool"
        },
        {
          "internalType": "bytes",
          "name": "performData",
          "type": "bytes"
        }
      ],
      "stateMutability": "view",
      "type": "function"
    },
    {
      "inputs": [],
      "name": "contractLinkBalance",
      "outputs": [
        {
          "internalType": "uint256",
          "name": "balance",
          "type": "uint256"
        }
      ],
      "stateMutability": "view",
      "type": "function"
    },
    {
      "inputs": [
        {
          "internalType": "uint256",
          "name": "tokenId",
          "type": "uint256"
        }
      ],
      "name": "getApproved",
      "outputs": [
        {
          "internalType": "address",
          "name": "",
          "type": "address"
        }
      ],
      "stateMutability": "view",
      "type": "function"
    },
    {
      "inputs": [
        {
          "internalType": "address",
          "name": "owner",
          "type": "address"
        },
        {
          "internalType": "address",
          "name": "operator",
          "type": "address"
        }
      ],
      "name": "isApprovedForAll",
      "outputs": [
        {
          "internalType": "bool",
          "name": "",
          "type": "bool"
        }
      ],
      "stateMutability": "view",
      "type": "function"
    },
    {
      "inputs": [],
      "name": "maxPerWallet",
      "outputs": [
        {
          "internalType": "uint256",
          "name": "",
          "type": "uint256"
        }
      ],
      "stateMutability": "view",
      "type": "function"
    },
    {
      "inputs": [],
      "name": "maxSupply",
      "outputs": [
        {
          "internalType": "uint256",
          "name": "",
          "type": "uint256"
        }
      ],
      "stateMutability": "view",
      "type": "function"
    },
    {
      "inputs": [
        {
          "internalType": "uint32",
          "name": "gasLimit",
          "type": "uint32"
        }
      ],
      "name": "mint",
      "outputs": [],
      "stateMutability": "payable",
      "type": "function"
    },
    {
      "inputs": [],
      "name": "mintPrice",
      "outputs": [
        {
          "internalType": "uint256",
          "name": "",
          "type": "uint256"
        }
      ],
      "stateMutability": "view",
      "type": "function"
    },
    {
      "inputs": [
        {
          "internalType": "address",
          "name": "",
          "type": "address"
        }
      ],
      "name": "mintedPerWallet",
      "outputs": [
        {
          "internalType": "uint256",
          "name": "",
          "type": "uint256"
        }
      ],
      "stateMutability": "view",
      "type": "function"
    },
    {
      "inputs": [],
      "name": "name",
      "outputs": [
        {
          "internalType": "string",
          "name": "",
          "type": "string"
        }
      ],
      "stateMutability": "view",
      "type": "function"
    },
    {
      "inputs": [],
      "name": "owner",
      "outputs": [
        {
          "internalType": "address",
          "name": "",
          "type": "address"
        }
      ],
      "stateMutability": "view",
      "type": "function"
    },
    {
      "inputs": [
        {
          "internalType": "uint256",
          "name": "tokenId",
          "type": "uint256"
        }
      ],
      "name": "ownerOf",
      "outputs": [
        {
          "internalType": "address",
          "name": "",
          "type": "address"
        }
      ],
      "stateMutability": "view",
      "type": "function"
    },
    {
      "inputs": [
        {
          "internalType": "bytes",
          "name": "performData",
          "type": "bytes"
        }
      ],
      "name": "performUpkeep",
      "outputs": [],
      "stateMutability": "nonpayable",
      "type": "function"
    },
    {
      "inputs": [],
      "name": "renounceOwnership",
      "outputs": [],
      "stateMutability": "nonpayable",
      "type": "function"
    },
    {
      "inputs": [
        {
          "internalType": "address",
          "name": "from",
          "type": "address"
        },
        {
          "internalType": "address",
          "name": "to",
          "type": "address"
        },
        {
          "internalType": "uint256",
          "name": "tokenId",
          "type": "uint256"
        }
      ],
      "name": "safeTransferFrom",
      "outputs": [],
      "stateMutability": "nonpayable",
      "type": "function"
    },
    {
      "inputs": [
        {
          "internalType": "address",
          "name": "from",
          "type": "address"
        },
        {
          "internalType": "address",
          "name": "to",
          "type": "address"
        },
        {
          "internalType": "uint256",
          "name": "tokenId",
          "type": "uint256"
        },
        {
          "internalType": "bytes",
          "name": "data",
          "type": "bytes"
        }
      ],
      "name": "safeTransferFrom",
      "outputs": [],
      "stateMutability": "nonpayable",
      "type": "function"
    },
    {
      "inputs": [
        {
          "internalType": "address",
          "name": "operator",
          "type": "address"
        },
        {
          "internalType": "bool",
          "name": "approved",
          "type": "bool"
        }
      ],
      "name": "setApprovalForAll",
      "outputs": [],
      "stateMutability": "nonpayable",
      "type": "function"
    },
    {
      "inputs": [
        {
          "internalType": "bytes4",
          "name": "interfaceId",
          "type": "bytes4"
        }
      ],
      "name": "supportsInterface",
      "outputs": [
        {
          "internalType": "bool",
          "name": "",
          "type": "bool"
        }
      ],
      "stateMutability": "view",
      "type": "function"
    },
    {
      "inputs": [],
      "name": "symbol",
      "outputs": [
        {
          "internalType": "string",
          "name": "",
          "type": "string"
        }
      ],
      "stateMutability": "view",
      "type": "function"
    },
    {
      "inputs": [
        {
          "internalType": "uint256",
          "name": "",
          "type": "uint256"
        }
      ],
      "name": "tokenToUpkeepID",
      "outputs": [
        {
          "internalType": "uint256",
          "name": "",
          "type": "uint256"
        }
      ],
      "stateMutability": "view",
      "type": "function"
    },
    {
      "inputs": [
        {
          "internalType": "uint256",
          "name": "tokenId",
          "type": "uint256"
        }
      ],
      "name": "tokenURI",
      "outputs": [
        {
          "internalType": "string",
          "name": "",
          "type": "string"
        }
      ],
      "stateMutability": "view",
      "type": "function"
    },
    {
      "inputs": [],
      "name": "totalSupply",
      "outputs": [
        {
          "internalType": "uint256",
          "name": "",
          "type": "uint256"
        }
      ],
      "stateMutability": "view",
      "type": "function"
    },
    {
      "inputs": [
        {
          "internalType": "address",
          "name": "from",
          "type": "address"
        },
        {
          "internalType": "address",
          "name": "to",
          "type": "address"
        },
        {
          "internalType": "uint256",
          "name": "tokenId",
          "type": "uint256"
        }
      ],
      "name": "transferFrom",
      "outputs": [],
      "stateMutability": "nonpayable",
      "type": "function"
    },
    {
      "inputs": [
        {
          "internalType": "address",
          "name": "newOwner",
          "type": "address"
        }
      ],
      "name": "transferOwnership",
      "outputs": [],
      "stateMutability": "nonpayable",
      "type": "function"
    },
    {
      "inputs": [],
      "name": "withdrawLink",
      "outputs": [],
      "stateMutability": "nonpayable",
      "type": "function"
    }
  ],
  "bytecode": "0x610140604052633659d66660e01b6011600c6101000a81548163ffffffff021916908360e01c02179055503480156200003757600080fd5b50604051620065d6380380620065d683398181016040528101906200005d91906200054a565b6040518060400160405280600681526020017f566a6b4e465400000000000000000000000000000000000000000000000000008152506040518060400160405280600381526020017f564a4b00000000000000000000000000000000000000000000000000000000008152508160009080519060200190620000e1929190620003f9565b508060019080519060200190620000fa929190620003f9565b5050506200011d620001116200032b60201b60201c565b6200033360201b60201c565b8873ffffffffffffffffffffffffffffffffffffffff1660c08173ffffffffffffffffffffffffffffffffffffffff1660601b815250508773ffffffffffffffffffffffffffffffffffffffff1660e08173ffffffffffffffffffffffffffffffffffffffff1660601b815250508673ffffffffffffffffffffffffffffffffffffffff1660a08173ffffffffffffffffffffffffffffffffffffffff1660601b815250508573ffffffffffffffffffffffffffffffffffffffff1660808173ffffffffffffffffffffffffffffffffffffffff1660601b815250508473ffffffffffffffffffffffffffffffffffffffff166101008173ffffffffffffffffffffffffffffffffffffffff1660601b815250508373ffffffffffffffffffffffffffffffffffffffff166101208173ffffffffffffffffffffffffffffffffffffffff1660601b815250506701326beb03e0a000600c819055506003600d8190555061270f600e8190555082601060006101000a8154816bffffffffffffffffffffffff02191690836bffffffffffffffffffffffff160217905550816010600c6101000a8154816bffffffffffffffffffffffff02191690836bffffffffffffffffffffffff16021790555080601160006101000a8154816bffffffffffffffffffffffff02191690836bffffffffffffffffffffffff160217905550505050505050505050620007f9565b600033905090565b6000600760009054906101000a900473ffffffffffffffffffffffffffffffffffffffff16905081600760006101000a81548173ffffffffffffffffffffffffffffffffffffffff021916908373ffffffffffffffffffffffffffffffffffffffff1602179055508173ffffffffffffffffffffffffffffffffffffffff168173ffffffffffffffffffffffffffffffffffffffff167f8be0079c531659141344cd1fd0a4f28419497f9722a3daafe3b4186f6b6457e060405160405180910390a35050565b8280546200040790620006d9565b90600052602060002090601f0160209004810192826200042b576000855562000477565b82601f106200044657805160ff191683800117855562000477565b8280016001018555821562000477579182015b828111156200047657825182559160200191906001019062000459565b5b5090506200048691906200048a565b5090565b5b80821115620004a55760008160009055506001016200048b565b5090565b600081519050620004ba8162000743565b92915050565b600081519050620004d1816200075d565b92915050565b600081519050620004e88162000777565b92915050565b600081519050620004ff8162000791565b92915050565b6000815190506200051681620007ab565b92915050565b6000815190506200052d81620007c5565b92915050565b6000815190506200054481620007df565b92915050565b60008060008060008060008060006101208a8c03121562000570576200056f6200073e565b5b6000620005808c828d01620004d7565b9950506020620005938c828d0162000505565b9850506040620005a68c828d01620004ee565b9750506060620005b98c828d016200051c565b9650506080620005cc8c828d01620004a9565b95505060a0620005df8c828d01620004c0565b94505060c0620005f28c828d0162000533565b93505060e0620006058c828d0162000533565b925050610100620006198c828d0162000533565b9150509295985092959850929598565b60006200063682620006a1565b9050919050565b60006200064a8262000629565b9050919050565b60006200065e8262000629565b9050919050565b6000620006728262000629565b9050919050565b6000620006868262000629565b9050919050565b60006200069a8262000629565b9050919050565b600073ffffffffffffffffffffffffffffffffffffffff82169050919050565b60006bffffffffffffffffffffffff82169050919050565b60006002820490506001821680620006f257607f821691505b602082108114156200070957620007086200070f565b5b50919050565b7f4e487b7100000000000000000000000000000000000000000000000000000000600052602260045260246000fd5b600080fd5b6200074e8162000629565b81146200075a57600080fd5b50565b62000768816200063d565b81146200077457600080fd5b50565b620007828162000651565b81146200078e57600080fd5b50565b6200079c8162000665565b8114620007a857600080fd5b50565b620007b68162000679565b8114620007c257600080fd5b50565b620007d0816200068d565b8114620007dc57600080fd5b50565b620007ea81620006c1565b8114620007f657600080fd5b50565b60805160601c60a05160601c60c05160601c60e05160601c6101005160601c6101205160601c615d04620008d260003960008181611665015281816118ac015261198e015260006117ce015260008181610bf701528181610e4f0152818161112b0152818161225d015281816128360152612a15015260008181610b4301528181610d9b0152818161104c0152818161219e0152818161271001526129700152600061157401526000818161120a015281816112470152818161179201528181611ab1015281816126d401526127fa0152615d046000f3fe6080604052600436106101b75760003560e01c806370a08231116100ec578063a71bbebe1161008a578063c87b56dd11610064578063c87b56dd14610615578063d5abeb0114610652578063e985e9c51461067d578063f2fde38b146106ba576101b7565b8063a71bbebe146105a5578063b88d4fde146105c1578063c17f31e1146105ea576101b7565b80638dc654a2116100c65780638dc654a2146104fd57806395d89b4114610514578063a22cb4651461053f578063a6b8376b14610568576101b7565b806370a082311461047e578063715018a6146104bb5780638da5cb5b146104d2576101b7565b80633a602b4d116101595780634585e33b116101335780634585e33b146103af5780636352211e146103d85780636817c76c146104155780636e04ff0d14610440576101b7565b80633a602b4d1461031e57806342842e0e1461035b578063453c231014610384576101b7565b8063095ea7b311610195578063095ea7b31461026157806318160ddd1461028a5780631bd3dbde146102b557806323b872dd146102f5576101b7565b806301ffc9a7146101bc57806306fdde03146101f9578063081812fc14610224575b600080fd5b3480156101c857600080fd5b506101e360048036038101906101de9190613fe4565b6106e3565b6040516101f09190614b10565b60405180910390f35b34801561020557600080fd5b5061020e6107c5565b60405161021b9190614b76565b60405180910390f35b34801561023057600080fd5b5061024b6004803603810190610246919061418e565b610857565b6040516102589190614a19565b60405180910390f35b34801561026d57600080fd5b5061028860048036038101906102839190613f4a565b61089d565b005b34801561029657600080fd5b5061029f6109b5565b6040516102ac9190614fa6565b60405180910390f35b3480156102c157600080fd5b506102dc60048036038101906102d79190613f4a565b6109bb565b6040516102ec9493929190614c38565b60405180910390f35b34801561030157600080fd5b5061031c60048036038101906103179190613e34565b610a90565b005b34801561032a57600080fd5b5061034560048036038101906103409190613dc7565b610af0565b6040516103529190614fa6565b60405180910390f35b34801561036757600080fd5b50610382600480360381019061037d9190613e34565b610b08565b005b34801561039057600080fd5b50610399610b28565b6040516103a69190614fa6565b60405180910390f35b3480156103bb57600080fd5b506103d660048036038101906103d1919061403e565b610b2e565b005b3480156103e457600080fd5b506103ff60048036038101906103fa919061418e565b610cf5565b60405161040c9190614a19565b60405180910390f35b34801561042157600080fd5b5061042a610d7c565b6040516104379190614fa6565b60405180910390f35b34801561044c57600080fd5b506104676004803603810190610462919061403e565b610d82565b604051610475929190614b2b565b60405180910390f35b34801561048a57600080fd5b506104a560048036038101906104a09190613dc7565b610f4c565b6040516104b29190614fa6565b60405180910390f35b3480156104c757600080fd5b506104d0611004565b005b3480156104de57600080fd5b506104e7611018565b6040516104f49190614a19565b60405180910390f35b34801561050957600080fd5b50610512611042565b005b34801561052057600080fd5b5061052961139e565b6040516105369190614b76565b60405180910390f35b34801561054b57600080fd5b5061056660048036038101906105619190613f0a565b611430565b005b34801561057457600080fd5b5061058f600480360381019061058a919061418e565b611446565b60405161059c9190614fa6565b60405180910390f35b6105bf60048036038101906105ba91906141e8565b61145e565b005b3480156105cd57600080fd5b506105e860048036038101906105e39190613e87565b611a43565b005b3480156105f657600080fd5b506105ff611aa5565b60405161060c9190614fa6565b60405180910390f35b34801561062157600080fd5b5061063c6004803603810190610637919061418e565b611b5d565b6040516106499190614b76565b60405180910390f35b34801561065e57600080fd5b50610667611b6f565b6040516106749190614fa6565b60405180910390f35b34801561068957600080fd5b506106a4600480360381019061069f9190613df4565b611b75565b6040516106b19190614b10565b60405180910390f35b3480156106c657600080fd5b506106e160048036038101906106dc9190613dc7565b611c09565b005b60007f80ac58cd000000000000000000000000000000000000000000000000000000007bffffffffffffffffffffffffffffffffffffffffffffffffffffffff1916827bffffffffffffffffffffffffffffffffffffffffffffffffffffffff191614806107ae57507f5b5e139f000000000000000000000000000000000000000000000000000000007bffffffffffffffffffffffffffffffffffffffffffffffffffffffff1916827bffffffffffffffffffffffffffffffffffffffffffffffffffffffff1916145b806107be57506107bd82611c8d565b5b9050919050565b6060600080546107d49061531e565b80601f01602080910402602001604051908101604052809291908181526020018280546108009061531e565b801561084d5780601f106108225761010080835404028352916020019161084d565b820191906000526020600020905b81548152906001019060200180831161083057829003601f168201915b5050505050905090565b600061086282611cf7565b6004600083815260200190815260200160002060009054906101000a900473ffffffffffffffffffffffffffffffffffffffff169050919050565b60006108a882610cf5565b90508073ffffffffffffffffffffffffffffffffffffffff168373ffffffffffffffffffffffffffffffffffffffff161415610919576040517f08c379a000000000000000000000000000000000000000000000000000000000815260040161091090614f44565b60405180910390fd5b8073ffffffffffffffffffffffffffffffffffffffff16610938611d42565b73ffffffffffffffffffffffffffffffffffffffff161480610967575061096681610961611d42565b611b75565b5b6109a6576040517f08c379a000000000000000000000000000000000000000000000000000000000815260040161099d90614f64565b60405180910390fd5b6109b08383611d4a565b505050565b600f5481565b600960205281600052604060002081815481106109d757600080fd5b9060005260206000209060040201600091509150508060000180546109fb9061531e565b80601f0160208091040260200160405190810160405280929190818152602001828054610a279061531e565b8015610a745780601f10610a4957610100808354040283529160200191610a74565b820191906000526020600020905b815481529060010190602001808311610a5757829003601f168201915b5050505050908060010154908060020154908060030154905084565b610aa1610a9b611d42565b82611e03565b610ae0576040517f08c379a0000000000000000000000000000000000000000000000000000000008152600401610ad790614c84565b60405180910390fd5b610aeb838383611e98565b505050565b600a6020528060005260406000206000915090505481565b610b2383838360405180602001604052806000815250611a43565b505050565b600d5481565b60008282810190610b3f91906140d4565b90507f000000000000000000000000000000000000000000000000000000000000000073ffffffffffffffffffffffffffffffffffffffff166338a699a482604001516040518263ffffffff1660e01b8152600401610b9e9190614b5b565b60206040518083038186803b158015610bb657600080fd5b505afa158015610bca573d6000803e3d6000fd5b505050506040513d601f19601f82011682018060405250810190610bee9190613f8a565b8015610ca357507f000000000000000000000000000000000000000000000000000000000000000073ffffffffffffffffffffffffffffffffffffffff16634f558e7982606001516040518263ffffffff1660e01b8152600401610c529190614fa6565b60206040518083038186803b158015610c6a57600080fd5b505afa158015610c7e573d6000803e3d6000fd5b505050506040513d601f19601f82011682018060405250810190610ca29190613f8a565b5b15610cf057610cbe8160200151610cb983612192565b61235a565b80602001517f06acbfb32bcf8383f3b0a768b70ac9ec234ea0f2d3b9c77fa6a2de69b919aad160405160405180910390a25b505050565b600080610d01836123ce565b9050600073ffffffffffffffffffffffffffffffffffffffff168173ffffffffffffffffffffffffffffffffffffffff161415610d73576040517f08c379a0000000000000000000000000000000000000000000000000000000008152600401610d6a90614f24565b60405180910390fd5b80915050919050565b600c5481565b6000606060008484810190610d9791906140d4565b90507f000000000000000000000000000000000000000000000000000000000000000073ffffffffffffffffffffffffffffffffffffffff166338a699a482604001516040518263ffffffff1660e01b8152600401610df69190614b5b565b60206040518083038186803b158015610e0e57600080fd5b505afa158015610e22573d6000803e3d6000fd5b505050506040513d601f19601f82011682018060405250810190610e469190613f8a565b8015610efb57507f000000000000000000000000000000000000000000000000000000000000000073ffffffffffffffffffffffffffffffffffffffff16634f558e7982606001516040518263ffffffff1660e01b8152600401610eaa9190614fa6565b60206040518083038186803b158015610ec257600080fd5b505afa158015610ed6573d6000803e3d6000fd5b505050506040513d601f19601f82011682018060405250810190610efa9190613f8a565b5b925084848080601f016020809104026020016040519081016040528093929190818152602001838380828437600081840152601f19601f820116905080830192505050505050509150509250929050565b60008073ffffffffffffffffffffffffffffffffffffffff168273ffffffffffffffffffffffffffffffffffffffff161415610fbd576040517f08c379a0000000000000000000000000000000000000000000000000000000008152600401610fb490614de4565b60405180910390fd5b600360008373ffffffffffffffffffffffffffffffffffffffff1673ffffffffffffffffffffffffffffffffffffffff168152602001908152602001600020549050919050565b61100c61240b565b6110166000612489565b565b6000600760009054906101000a900473ffffffffffffffffffffffffffffffffffffffff16905090565b61104a61240b565b7f000000000000000000000000000000000000000000000000000000000000000073ffffffffffffffffffffffffffffffffffffffff16638dc654a26040518163ffffffff1660e01b8152600401602060405180830381600087803b1580156110b257600080fd5b505af11580156110c6573d6000803e3d6000fd5b505050506040513d601f19601f820116820180604052508101906110ea9190613f8a565b611129576040517f08c379a000000000000000000000000000000000000000000000000000000000815260040161112090614d24565b60405180910390fd5b7f000000000000000000000000000000000000000000000000000000000000000073ffffffffffffffffffffffffffffffffffffffff16638dc654a26040518163ffffffff1660e01b8152600401602060405180830381600087803b15801561119157600080fd5b505af11580156111a5573d6000803e3d6000fd5b505050506040513d601f19601f820116820180604052508101906111c99190613f8a565b611208576040517f08c379a00000000000000000000000000000000000000000000000000000000081526004016111ff90614d44565b60405180910390fd5b7f000000000000000000000000000000000000000000000000000000000000000073ffffffffffffffffffffffffffffffffffffffff1663a9059cbb337f000000000000000000000000000000000000000000000000000000000000000073ffffffffffffffffffffffffffffffffffffffff166370a08231306040518263ffffffff1660e01b815260040161129e9190614a19565b60206040518083038186803b1580156112b657600080fd5b505afa1580156112ca573d6000803e3d6000fd5b505050506040513d601f19601f820116820180604052508101906112ee91906141bb565b6040518363ffffffff1660e01b815260040161130b929190614a80565b602060405180830381600087803b15801561132557600080fd5b505af1158015611339573d6000803e3d6000fd5b505050506040513d601f19601f8201168201806040525081019061135d9190613f8a565b61139c576040517f08c379a000000000000000000000000000000000000000000000000000000000815260040161139390614ec4565b60405180910390fd5b565b6060600180546113ad9061531e565b80601f01602080910402602001604051908101604052809291908181526020018280546113d99061531e565b80156114265780601f106113fb57610100808354040283529160200191611426565b820191906000526020600020905b81548152906001019060200180831161140957829003601f168201915b5050505050905090565b61144261143b611d42565b838361254f565b5050565b600b6020528060005260406000206000915090505481565b600c5434146114a2576040517f08c379a000000000000000000000000000000000000000000000000000000000815260040161149990614e24565b60405180910390fd5b600d54600a60003373ffffffffffffffffffffffffffffffffffffffff1673ffffffffffffffffffffffffffffffffffffffff1681526020019081526020016000205410611525576040517f08c379a000000000000000000000000000000000000000000000000000000000815260040161151c90614e64565b60405180910390fd5b61152f60086126bc565b600e5411611572576040517f08c379a000000000000000000000000000000000000000000000000000000000815260040161156990614da4565b60405180910390fd5b7f000000000000000000000000000000000000000000000000000000000000000073ffffffffffffffffffffffffffffffffffffffff1663c7d57deb346040518263ffffffff1660e01b81526004016020604051808303818588803b1580156115da57600080fd5b505af11580156115ee573d6000803e3d6000fd5b50505050506040513d601f19601f820116820180604052508101906116139190613f8a565b611652576040517f08c379a000000000000000000000000000000000000000000000000000000000815260040161164990614e44565b60405180910390fd5b600061165c6126ca565b905060008060007f000000000000000000000000000000000000000000000000000000000000000073ffffffffffffffffffffffffffffffffffffffff16631865c57d6040518163ffffffff1660e01b815260040160006040518083038186803b1580156116c957600080fd5b505afa1580156116dd573d6000803e3d6000fd5b505050506040513d6000823e3d601f19601f82011682018060405250810190611706919061411d565b9250925092506000836000015163ffffffff16905060008560405160200161172e9190614f84565b60405160208183030381529060405290506000866000015130893385601160009054906101000a90046bffffffffffffffffffffffff1660003060405160200161177f989796959493929190614b98565b60405160208183030381529060405290507f000000000000000000000000000000000000000000000000000000000000000073ffffffffffffffffffffffffffffffffffffffff16634000aea07f0000000000000000000000000000000000000000000000000000000000000000601160009054906101000a90046bffffffffffffffffffffffff166011600c9054906101000a900460e01b8560405160200161182a929190614914565b6040516020818303038152906040526040518463ffffffff1660e01b815260040161185793929190614ad2565b602060405180830381600087803b15801561187157600080fd5b505af1158015611885573d6000803e3d6000fd5b505050506040513d601f19601f820116820180604052508101906118a99190613f8a565b507f000000000000000000000000000000000000000000000000000000000000000073ffffffffffffffffffffffffffffffffffffffff16631865c57d6040518163ffffffff1660e01b815260040160006040518083038186803b15801561191057600080fd5b505afa158015611924573d6000803e3d6000fd5b505050506040513d6000823e3d601f19601f8201168201806040525081019061194d919061411d565b8096508197508298505050506000866000015163ffffffff16905060018461197591906150d3565b8114156119fd57600060014361198b91906151b4565b407f0000000000000000000000000000000000000000000000000000000000000000866040516020016119c0939291906148d7565b6040516020818303038152906040528051906020012060001c905080600b60008b6020015181526020019081526020016000208190555050611a38565b6040517f08c379a0000000000000000000000000000000000000000000000000000000008152600401611a2f90614ea4565b60405180910390fd5b505050505050505050565b611a54611a4e611d42565b83611e03565b611a93576040517f08c379a0000000000000000000000000000000000000000000000000000000008152600401611a8a90614c84565b60405180910390fd5b611a9f84848484612be6565b50505050565b6000611aaf61240b565b7f000000000000000000000000000000000000000000000000000000000000000073ffffffffffffffffffffffffffffffffffffffff166370a08231306040518263ffffffff1660e01b8152600401611b089190614a19565b60206040518083038186803b158015611b2057600080fd5b505afa158015611b34573d6000803e3d6000fd5b505050506040513d601f19601f82011682018060405250810190611b5891906141bb565b905090565b6060611b6882612c42565b9050919050565b600e5481565b6000600560008473ffffffffffffffffffffffffffffffffffffffff1673ffffffffffffffffffffffffffffffffffffffff16815260200190815260200160002060008373ffffffffffffffffffffffffffffffffffffffff1673ffffffffffffffffffffffffffffffffffffffff16815260200190815260200160002060009054906101000a900460ff16905092915050565b611c1161240b565b600073ffffffffffffffffffffffffffffffffffffffff168173ffffffffffffffffffffffffffffffffffffffff161415611c81576040517f08c379a0000000000000000000000000000000000000000000000000000000008152600401611c7890614cc4565b60405180910390fd5b611c8a81612489565b50565b60007f01ffc9a7000000000000000000000000000000000000000000000000000000007bffffffffffffffffffffffffffffffffffffffffffffffffffffffff1916827bffffffffffffffffffffffffffffffffffffffffffffffffffffffff1916149050919050565b611d0081612d55565b611d3f576040517f08c379a0000000000000000000000000000000000000000000000000000000008152600401611d3690614f24565b60405180910390fd5b50565b600033905090565b816004600083815260200190815260200160002060006101000a81548173ffffffffffffffffffffffffffffffffffffffff021916908373ffffffffffffffffffffffffffffffffffffffff160217905550808273ffffffffffffffffffffffffffffffffffffffff16611dbd83610cf5565b73ffffffffffffffffffffffffffffffffffffffff167f8c5be1e5ebec7d5bd14f71427d1e84f3dd0314c0f7b2291e5b200ac8c7c3b92560405160405180910390a45050565b600080611e0f83610cf5565b90508073ffffffffffffffffffffffffffffffffffffffff168473ffffffffffffffffffffffffffffffffffffffff161480611e515750611e508185611b75565b5b80611e8f57508373ffffffffffffffffffffffffffffffffffffffff16611e7784610857565b73ffffffffffffffffffffffffffffffffffffffff16145b91505092915050565b8273ffffffffffffffffffffffffffffffffffffffff16611eb882610cf5565b73ffffffffffffffffffffffffffffffffffffffff1614611f0e576040517f08c379a0000000000000000000000000000000000000000000000000000000008152600401611f0590614ce4565b60405180910390fd5b600073ffffffffffffffffffffffffffffffffffffffff168273ffffffffffffffffffffffffffffffffffffffff161415611f7e576040517f08c379a0000000000000000000000000000000000000000000000000000000008152600401611f7590614d64565b60405180910390fd5b611f8b8383836001612d96565b8273ffffffffffffffffffffffffffffffffffffffff16611fab82610cf5565b73ffffffffffffffffffffffffffffffffffffffff1614612001576040517f08c379a0000000000000000000000000000000000000000000000000000000008152600401611ff890614ce4565b60405180910390fd5b6004600082815260200190815260200160002060006101000a81549073ffffffffffffffffffffffffffffffffffffffff02191690556001600360008573ffffffffffffffffffffffffffffffffffffffff1673ffffffffffffffffffffffffffffffffffffffff168152602001908152602001600020600082825403925050819055506001600360008473ffffffffffffffffffffffffffffffffffffffff1673ffffffffffffffffffffffffffffffffffffffff16815260200190815260200160002060008282540192505081905550816002600083815260200190815260200160002060006101000a81548173ffffffffffffffffffffffffffffffffffffffff021916908373ffffffffffffffffffffffffffffffffffffffff160217905550808273ffffffffffffffffffffffffffffffffffffffff168473ffffffffffffffffffffffffffffffffffffffff167fddf252ad1be2c89b69c2b068fc378daa952ba7f163c4a11628f55a4df523b3ef60405160405180910390a461218d8383836001612ebc565b505050565b606061233482600001517f000000000000000000000000000000000000000000000000000000000000000073ffffffffffffffffffffffffffffffffffffffff166315f05b0585604001516040518263ffffffff1660e01b81526004016121f99190614b5b565b60006040518083038186803b15801561221157600080fd5b505afa158015612225573d6000803e3d6000fd5b505050506040513d6000823e3d601f19601f8201168201806040525081019061224e919061408b565b61225b8560200151612ec2565b7f000000000000000000000000000000000000000000000000000000000000000073ffffffffffffffffffffffffffffffffffffffff166344b285db87606001516040518263ffffffff1660e01b81526004016122b89190614fa6565b60006040518083038186803b1580156122d057600080fd5b505afa1580156122e4573d6000803e3d6000fd5b505050506040513d6000823e3d601f19601f8201168201806040525081019061230d919061408b565b6040516020016123209493929190614960565b604051602081830303815290604052612f9a565b60405160200161234491906149f7565b6040516020818303038152906040529050919050565b61236382612d55565b6123a2576040517f08c379a000000000000000000000000000000000000000000000000000000000815260040161239990614e04565b60405180910390fd5b806006600084815260200190815260200160002090805190602001906123c992919061374c565b505050565b60006002600083815260200190815260200160002060009054906101000a900473ffffffffffffffffffffffffffffffffffffffff169050919050565b612413611d42565b73ffffffffffffffffffffffffffffffffffffffff16612431611018565b73ffffffffffffffffffffffffffffffffffffffff1614612487576040517f08c379a000000000000000000000000000000000000000000000000000000000815260040161247e90614f04565b60405180910390fd5b565b6000600760009054906101000a900473ffffffffffffffffffffffffffffffffffffffff16905081600760006101000a81548173ffffffffffffffffffffffffffffffffffffffff021916908373ffffffffffffffffffffffffffffffffffffffff1602179055508173ffffffffffffffffffffffffffffffffffffffff168173ffffffffffffffffffffffffffffffffffffffff167f8be0079c531659141344cd1fd0a4f28419497f9722a3daafe3b4186f6b6457e060405160405180910390a35050565b8173ffffffffffffffffffffffffffffffffffffffff168373ffffffffffffffffffffffffffffffffffffffff1614156125be576040517f08c379a00000000000000000000000000000000000000000000000000000000081526004016125b590614d84565b60405180910390fd5b80600560008573ffffffffffffffffffffffffffffffffffffffff1673ffffffffffffffffffffffffffffffffffffffff16815260200190815260200160002060008473ffffffffffffffffffffffffffffffffffffffff1673ffffffffffffffffffffffffffffffffffffffff16815260200190815260200160002060006101000a81548160ff0219169083151502179055508173ffffffffffffffffffffffffffffffffffffffff168373ffffffffffffffffffffffffffffffffffffffff167f17307eab39ab6107e8899845ad3d59bd9653f200f220920489ca2b5937696c31836040516126af9190614b10565b60405180910390a3505050565b600081600001549050919050565b6126d26137d2565b7f000000000000000000000000000000000000000000000000000000000000000073ffffffffffffffffffffffffffffffffffffffff1663a9059cbb7f0000000000000000000000000000000000000000000000000000000000000000601060009054906101000a90046bffffffffffffffffffffffff166040518363ffffffff1660e01b8152600401612767929190614aa9565b602060405180830381600087803b15801561278157600080fd5b505af1158015612795573d6000803e3d6000fd5b505050506040513d601f19601f820116820180604052508101906127b99190613f8a565b6127f8576040517f08c379a00000000000000000000000000000000000000000000000000000000081526004016127ef90614ee4565b60405180910390fd5b7f000000000000000000000000000000000000000000000000000000000000000073ffffffffffffffffffffffffffffffffffffffff1663a9059cbb7f00000000000000000000000000000000000000000000000000000000000000006010600c9054906101000a90046bffffffffffffffffffffffff166040518363ffffffff1660e01b815260040161288d929190614aa9565b602060405180830381600087803b1580156128a757600080fd5b505af11580156128bb573d6000803e3d6000fd5b505050506040513d601f19601f820116820180604052508101906128df9190613f8a565b61291e576040517f08c379a000000000000000000000000000000000000000000000000000000000815260040161291590614dc4565b60405180910390fd5b604051806080016040528061293b61293660086126bc565b612ec2565b60405160200161294b91906149d5565b604051602081830303815290604052815260200161296960086126bc565b81526020017f000000000000000000000000000000000000000000000000000000000000000073ffffffffffffffffffffffffffffffffffffffff1663179cf9f56040518163ffffffff1660e01b8152600401602060405180830381600087803b1580156129d657600080fd5b505af11580156129ea573d6000803e3d6000fd5b505050506040513d601f19601f82011682018060405250810190612a0e9190613fb7565b81526020017f000000000000000000000000000000000000000000000000000000000000000073ffffffffffffffffffffffffffffffffffffffff1663e0c862896040518163ffffffff1660e01b8152600401602060405180830381600087803b158015612a7b57600080fd5b505af1158015612a8f573d6000803e3d6000fd5b505050506040513d601f19601f82011682018060405250810190612ab391906141bb565b8152509050612ac26008613113565b600f6000815480929190612ad590615381565b9190505550600a60003373ffffffffffffffffffffffffffffffffffffffff1673ffffffffffffffffffffffffffffffffffffffff1681526020019081526020016000206000815480929190612b2a90615381565b9190505550600960003373ffffffffffffffffffffffffffffffffffffffff1673ffffffffffffffffffffffffffffffffffffffff1681526020019081526020016000208190806001815401808255809150506001900390600052602060002090600402016000909190919091506000820151816000019080519060200190612bb492919061374c565b506020820151816001015560408201518160020155606082015181600301555050612be3338260200151613129565b90565b612bf1848484611e98565b612bfd84848484613147565b612c3c576040517f08c379a0000000000000000000000000000000000000000000000000000000008152600401612c3390614ca4565b60405180910390fd5b50505050565b6060612c4d82611cf7565b6000600660008481526020019081526020016000208054612c6d9061531e565b80601f0160208091040260200160405190810160405280929190818152602001828054612c999061531e565b8015612ce65780601f10612cbb57610100808354040283529160200191612ce6565b820191906000526020600020905b815481529060010190602001808311612cc957829003601f168201915b505050505090506000612cf76132de565b9050600081511415612d0d578192505050612d50565b600082511115612d42578082604051602001612d2a92919061493c565b60405160208183030381529060405292505050612d50565b612d4b846132f5565b925050505b919050565b60008073ffffffffffffffffffffffffffffffffffffffff16612d77836123ce565b73ffffffffffffffffffffffffffffffffffffffff1614159050919050565b6001811115612eb657600073ffffffffffffffffffffffffffffffffffffffff168473ffffffffffffffffffffffffffffffffffffffff1614612e2a5780600360008673ffffffffffffffffffffffffffffffffffffffff1673ffffffffffffffffffffffffffffffffffffffff1681526020019081526020016000206000828254612e2291906151b4565b925050819055505b600073ffffffffffffffffffffffffffffffffffffffff168373ffffffffffffffffffffffffffffffffffffffff1614612eb55780600360008573ffffffffffffffffffffffffffffffffffffffff1673ffffffffffffffffffffffffffffffffffffffff1681526020019081526020016000206000828254612ead91906150d3565b925050819055505b5b50505050565b50505050565b606060006001612ed18461335d565b01905060008167ffffffffffffffff811115612ef057612eef6154a1565b5b6040519080825280601f01601f191660200182016040528015612f225781602001600182028036833780820191505090505b509050600082602001820190505b600115612f8f578080600190039150507f3031323334353637383961626364656600000000000000000000000000000000600a86061a8153600a8581612f7957612f78615443565b5b0494506000851415612f8a57612f8f565b612f30565b819350505050919050565b6060600082511415612fbd5760405180602001604052806000815250905061310e565b6000604051806060016040528060408152602001615c8f6040913990506000600360028551612fec91906150d3565b612ff69190615129565b6004613002919061515a565b9050600060208261301391906150d3565b67ffffffffffffffff81111561302c5761302b6154a1565b5b6040519080825280601f01601f19166020018201604052801561305e5781602001600182028036833780820191505090505b509050818152600183018586518101602084015b818310156130cd576003830192508251603f8160121c168501518253600182019150603f81600c1c168501518253600182019150603f8160061c168501518253600182019150603f8116850151825360018201915050613072565b6003895106600181146130e757600281146130f757613102565b613d3d60f01b6002830352613102565b603d60f81b60018303525b50505050508093505050505b919050565b6001816000016000828254019250508190555050565b6131438282604051806020016040528060008152506134b0565b5050565b60006131688473ffffffffffffffffffffffffffffffffffffffff1661350b565b156132d1578373ffffffffffffffffffffffffffffffffffffffff1663150b7a02613191611d42565b8786866040518563ffffffff1660e01b81526004016131b39493929190614a34565b602060405180830381600087803b1580156131cd57600080fd5b505af19250505080156131fe57506040513d601f19601f820116820180604052508101906131fb9190614011565b60015b613281573d806000811461322e576040519150601f19603f3d011682016040523d82523d6000602084013e613233565b606091505b50600081511415613279576040517f08c379a000000000000000000000000000000000000000000000000000000000815260040161327090614ca4565b60405180910390fd5b805181602001fd5b63150b7a0260e01b7bffffffffffffffffffffffffffffffffffffffffffffffffffffffff1916817bffffffffffffffffffffffffffffffffffffffffffffffffffffffff1916149150506132d6565b600190505b949350505050565b606060405180602001604052806000815250905090565b606061330082611cf7565b600061330a6132de565b9050600081511161332a5760405180602001604052806000815250613355565b8061333484612ec2565b60405160200161334592919061493c565b6040516020818303038152906040525b915050919050565b600080600090507a184f03e93ff9f4daa797ed6e38ed64bf6a1f01000000000000000083106133bb577a184f03e93ff9f4daa797ed6e38ed64bf6a1f01000000000000000083816133b1576133b0615443565b5b0492506040810190505b6d04ee2d6d415b85acef810000000083106133f8576d04ee2d6d415b85acef810000000083816133ee576133ed615443565b5b0492506020810190505b662386f26fc10000831061342757662386f26fc10000838161341d5761341c615443565b5b0492506010810190505b6305f5e1008310613450576305f5e100838161344657613445615443565b5b0492506008810190505b612710831061347557612710838161346b5761346a615443565b5b0492506004810190505b60648310613498576064838161348e5761348d615443565b5b0492506002810190505b600a83106134a7576001810190505b80915050919050565b6134ba838361352e565b6134c76000848484613147565b613506576040517f08c379a00000000000000000000000000000000000000000000000000000000081526004016134fd90614ca4565b60405180910390fd5b505050565b6000808273ffffffffffffffffffffffffffffffffffffffff163b119050919050565b600073ffffffffffffffffffffffffffffffffffffffff168273ffffffffffffffffffffffffffffffffffffffff16141561359e576040517f08c379a000000000000000000000000000000000000000000000000000000000815260040161359590614e84565b60405180910390fd5b6135a781612d55565b156135e7576040517f08c379a00000000000000000000000000000000000000000000000000000000081526004016135de90614d04565b60405180910390fd5b6135f5600083836001612d96565b6135fe81612d55565b1561363e576040517f08c379a000000000000000000000000000000000000000000000000000000000815260040161363590614d04565b60405180910390fd5b6001600360008473ffffffffffffffffffffffffffffffffffffffff1673ffffffffffffffffffffffffffffffffffffffff16815260200190815260200160002060008282540192505081905550816002600083815260200190815260200160002060006101000a81548173ffffffffffffffffffffffffffffffffffffffff021916908373ffffffffffffffffffffffffffffffffffffffff160217905550808273ffffffffffffffffffffffffffffffffffffffff16600073ffffffffffffffffffffffffffffffffffffffff167fddf252ad1be2c89b69c2b068fc378daa952ba7f163c4a11628f55a4df523b3ef60405160405180910390a4613748600083836001612ebc565b5050565b8280546137589061531e565b90600052602060002090601f01602090048101928261377a57600085556137c1565b82601f1061379357805160ff19168380011785556137c1565b828001600101855582156137c1579182015b828111156137c05782518255916020019190600101906137a5565b5b5090506137ce91906137fd565b5090565b6040518060800160405280606081526020016000815260200160008019168152602001600081525090565b5b808211156138165760008160009055506001016137fe565b5090565b600061382d61382884614fe6565b614fc1565b905080838252602082019050828560208602820111156138505761384f6154e4565b5b60005b8581101561388057816138668882613965565b845260208401935060208301925050600181019050613853565b5050509392505050565b600061389d61389884615012565b614fc1565b9050828152602081018484840111156138b9576138b86154e9565b5b6138c48482856152dc565b509392505050565b60006138df6138da84615043565b614fc1565b9050828152602081018484840111156138fb576138fa6154e9565b5b6139068482856152dc565b509392505050565b600061392161391c84615043565b614fc1565b90508281526020810184848401111561393d5761393c6154e9565b5b6139488482856152eb565b509392505050565b60008135905061395f81615bbf565b92915050565b60008151905061397481615bbf565b92915050565b600082601f83011261398f5761398e6154d5565b5b815161399f84826020860161381a565b91505092915050565b6000813590506139b781615bd6565b92915050565b6000815190506139cc81615bd6565b92915050565b6000813590506139e181615bed565b92915050565b6000815190506139f681615bed565b92915050565b600081359050613a0b81615c04565b92915050565b600081519050613a2081615c04565b92915050565b60008083601f840112613a3c57613a3b6154d5565b5b8235905067ffffffffffffffff811115613a5957613a586154d0565b5b602083019150836001820283011115613a7557613a746154e4565b5b9250929050565b600082601f830112613a9157613a906154d5565b5b8135613aa184826020860161388a565b91505092915050565b600082601f830112613abf57613abe6154d5565b5b8135613acf8482602086016138cc565b91505092915050565b600082601f830112613aed57613aec6154d5565b5b8151613afd84826020860161390e565b91505092915050565b60006101808284031215613b1d57613b1c6154da565b5b613b28610180614fc1565b90506000613b3884828501613d9d565b6000830152506020613b4c84828501613d9d565b6020830152506040613b6084828501613d49565b6040830152506060613b7484828501613d9d565b6060830152506080613b8884828501613d49565b60808301525060a0613b9c84828501613d34565b60a08301525060c0613bb084828501613db2565b60c08301525060e0613bc484828501613d9d565b60e083015250610100613bd984828501613d73565b61010083015250610120613bef84828501613d73565b61012083015250610140613c0584828501613965565b61014083015250610160613c1b84828501613965565b6101608301525092915050565b600060808284031215613c3e57613c3d6154da565b5b613c486080614fc1565b9050600082013567ffffffffffffffff811115613c6857613c676154df565b5b613c7484828501613aaa565b6000830152506020613c8884828501613d5e565b6020830152506040613c9c848285016139d2565b6040830152506060613cb084828501613d5e565b60608301525092915050565b600060808284031215613cd257613cd16154da565b5b613cdc6080614fc1565b90506000613cec84828501613d9d565b6000830152506020613d0084828501613db2565b6020830152506040613d1484828501613d73565b6040830152506060613d2884828501613d73565b60608301525092915050565b600081519050613d4381615c1b565b92915050565b600081519050613d5881615c32565b92915050565b600081359050613d6d81615c49565b92915050565b600081519050613d8281615c49565b92915050565b600081359050613d9781615c60565b92915050565b600081519050613dac81615c60565b92915050565b600081519050613dc181615c77565b92915050565b600060208284031215613ddd57613ddc6154f3565b5b6000613deb84828501613950565b91505092915050565b60008060408385031215613e0b57613e0a6154f3565b5b6000613e1985828601613950565b9250506020613e2a85828601613950565b9150509250929050565b600080600060608486031215613e4d57613e4c6154f3565b5b6000613e5b86828701613950565b9350506020613e6c86828701613950565b9250506040613e7d86828701613d5e565b9150509250925092565b60008060008060808587031215613ea157613ea06154f3565b5b6000613eaf87828801613950565b9450506020613ec087828801613950565b9350506040613ed187828801613d5e565b925050606085013567ffffffffffffffff811115613ef257613ef16154ee565b5b613efe87828801613a7c565b91505092959194509250565b60008060408385031215613f2157613f206154f3565b5b6000613f2f85828601613950565b9250506020613f40858286016139a8565b9150509250929050565b60008060408385031215613f6157613f606154f3565b5b6000613f6f85828601613950565b9250506020613f8085828601613d5e565b9150509250929050565b600060208284031215613fa057613f9f6154f3565b5b6000613fae848285016139bd565b91505092915050565b600060208284031215613fcd57613fcc6154f3565b5b6000613fdb848285016139e7565b91505092915050565b600060208284031215613ffa57613ff96154f3565b5b6000614008848285016139fc565b91505092915050565b600060208284031215614027576140266154f3565b5b600061403584828501613a11565b91505092915050565b60008060208385031215614055576140546154f3565b5b600083013567ffffffffffffffff811115614073576140726154ee565b5b61407f85828601613a26565b92509250509250929050565b6000602082840312156140a1576140a06154f3565b5b600082015167ffffffffffffffff8111156140bf576140be6154ee565b5b6140cb84828501613ad8565b91505092915050565b6000602082840312156140ea576140e96154f3565b5b600082013567ffffffffffffffff811115614108576141076154ee565b5b61411484828501613c28565b91505092915050565b60008060006102208486031215614137576141366154f3565b5b600061414586828701613cbc565b935050608061415686828701613b06565b92505061020084015167ffffffffffffffff811115614178576141776154ee565b5b6141848682870161397a565b9150509250925092565b6000602082840312156141a4576141a36154f3565b5b60006141b284828501613d5e565b91505092915050565b6000602082840312156141d1576141d06154f3565b5b60006141df84828501613d73565b91505092915050565b6000602082840312156141fe576141fd6154f3565b5b600061420c84828501613d88565b91505092915050565b61421e816151e8565b82525050565b614235614230826151e8565b6153ca565b82525050565b614244816151fa565b82525050565b61425381615206565b82525050565b61426281615206565b82525050565b61427961427482615206565b6153dc565b82525050565b61429061428b82615210565b6153e6565b82525050565b60006142a182615074565b6142ab818561508a565b93506142bb8185602086016152eb565b6142c4816154f8565b840191505092915050565b60006142da82615074565b6142e4818561509b565b93506142f48185602086016152eb565b80840191505092915050565b614309816152b8565b82525050565b600061431a8261507f565b61432481856150a6565b93506143348185602086016152eb565b61433d816154f8565b840191505092915050565b60006143538261507f565b61435d81856150b7565b935061436d8185602086016152eb565b614376816154f8565b840191505092915050565b600061438c8261507f565b61439681856150c8565b93506143a68185602086016152eb565b80840191505092915050565b60006143bf602d836150b7565b91506143ca82615523565b604082019050919050565b60006143e26009836150c8565b91506143ed82615572565b600982019050919050565b6000614405600b836150c8565b91506144108261559b565b600b82019050919050565b60006144286032836150b7565b9150614433826155c4565b604082019050919050565b600061444b6026836150b7565b915061445682615613565b604082019050919050565b600061446e6025836150b7565b915061447982615662565b604082019050919050565b6000614491601c836150b7565b915061449c826156b1565b602082019050919050565b60006144b4601e836150b7565b91506144bf826156da565b602082019050919050565b60006144d76002836150b7565b91506144e282615703565b602082019050919050565b60006144fa6026836150c8565b91506145058261572c565b602682019050919050565b600061451d6016836150b7565b91506145288261577b565b602082019050919050565b60006145406024836150b7565b915061454b826157a4565b604082019050919050565b60006145636019836150b7565b915061456e826157f3565b602082019050919050565b60006145866011836150c8565b91506145918261581c565b601182019050919050565b60006145a96003836150c8565b91506145b482615845565b600382019050919050565b60006145cc6008836150b7565b91506145d78261586e565b602082019050919050565b60006145ef6014836150b7565b91506145fa82615897565b602082019050919050565b60006146126029836150b7565b915061461d826158c0565b604082019050919050565b6000614635602e836150b7565b91506146408261590f565b604082019050919050565b6000614658600b836150b7565b91506146638261595e565b602082019050919050565b600061467b6016836150b7565b915061468682615987565b602082019050919050565b600061469e6002836150c8565b91506146a9826159b0565b600282019050919050565b60006146c16016836150b7565b91506146cc826159d9565b602082019050919050565b60006146e46020836150b7565b91506146ef82615a02565b602082019050919050565b60006147076015836150b7565b915061471282615a2b565b602082019050919050565b600061472a6012836150b7565b915061473582615a54565b602082019050919050565b600061474d601c836150b7565b915061475882615a7d565b602082019050919050565b60006147706020836150b7565b915061477b82615aa6565b602082019050919050565b60006147936018836150b7565b915061479e82615acf565b602082019050919050565b60006147b66021836150b7565b91506147c182615af8565b604082019050919050565b60006147d9601d836150c8565b91506147e482615b47565b601d82019050919050565b60006147fc603d836150b7565b915061480782615b70565b604082019050919050565b6000608083016000830151848203600086015261482f828261430f565b91505060208301516148446020860182614875565b506040830151614857604086018261424a565b50606083015161486a6060860182614875565b508091505092915050565b61487e81615279565b82525050565b61488d81615279565b82525050565b61489c81615283565b82525050565b6148b36148ae82615283565b615402565b82525050565b6148c2816152ca565b82525050565b6148d1816152a0565b82525050565b60006148e38286614268565b6020820191506148f38285614224565b60148201915061490382846148a2565b600482019150819050949350505050565b6000614920828561427f565b60048201915061493082846142cf565b91508190509392505050565b60006149488285614381565b91506149548284614381565b91508190509392505050565b600061496b826143d5565b91506149778287614381565b915061498282614579565b915061498e8286614381565b9150614999826144ed565b91506149a58285614381565b91506149b0826143f8565b91506149bc8284614381565b91506149c782614691565b915081905095945050505050565b60006149e08261459c565b91506149ec8284614381565b915081905092915050565b6000614a02826147cc565b9150614a0e8284614381565b915081905092915050565b6000602082019050614a2e6000830184614215565b92915050565b6000608082019050614a496000830187614215565b614a566020830186614215565b614a636040830185614884565b8181036060830152614a758184614296565b905095945050505050565b6000604082019050614a956000830185614215565b614aa26020830184614884565b9392505050565b6000604082019050614abe6000830185614215565b614acb60208301846148b9565b9392505050565b6000606082019050614ae76000830186614215565b614af460208301856148b9565b8181036040830152614b068184614296565b9050949350505050565b6000602082019050614b25600083018461423b565b92915050565b6000604082019050614b40600083018561423b565b8181036020830152614b528184614296565b90509392505050565b6000602082019050614b706000830184614259565b92915050565b60006020820190508181036000830152614b908184614348565b905092915050565b6000610120820190508181036000830152614bb3818b614348565b90508181036020830152614bc6816144ca565b9050614bd5604083018a614215565b614be26060830189614893565b614bef6080830188614215565b81810360a0830152614c018187614296565b9050614c1060c08301866148c8565b614c1d60e0830185614300565b614c2b610100830184614215565b9998505050505050505050565b60006080820190508181036000830152614c528187614348565b9050614c616020830186614884565b614c6e6040830185614259565b614c7b6060830184614884565b95945050505050565b60006020820190508181036000830152614c9d816143b2565b9050919050565b60006020820190508181036000830152614cbd8161441b565b9050919050565b60006020820190508181036000830152614cdd8161443e565b9050919050565b60006020820190508181036000830152614cfd81614461565b9050919050565b60006020820190508181036000830152614d1d81614484565b9050919050565b60006020820190508181036000830152614d3d816144a7565b9050919050565b60006020820190508181036000830152614d5d81614510565b9050919050565b60006020820190508181036000830152614d7d81614533565b9050919050565b60006020820190508181036000830152614d9d81614556565b9050919050565b60006020820190508181036000830152614dbd816145bf565b9050919050565b60006020820190508181036000830152614ddd816145e2565b9050919050565b60006020820190508181036000830152614dfd81614605565b9050919050565b60006020820190508181036000830152614e1d81614628565b9050919050565b60006020820190508181036000830152614e3d8161464b565b9050919050565b60006020820190508181036000830152614e5d8161466e565b9050919050565b60006020820190508181036000830152614e7d816146b4565b9050919050565b60006020820190508181036000830152614e9d816146d7565b9050919050565b60006020820190508181036000830152614ebd816146fa565b9050919050565b60006020820190508181036000830152614edd8161471d565b9050919050565b60006020820190508181036000830152614efd81614740565b9050919050565b60006020820190508181036000830152614f1d81614763565b9050919050565b60006020820190508181036000830152614f3d81614786565b9050919050565b60006020820190508181036000830152614f5d816147a9565b9050919050565b60006020820190508181036000830152614f7d816147ef565b9050919050565b60006020820190508181036000830152614f9e8184614812565b905092915050565b6000602082019050614fbb6000830184614884565b92915050565b6000614fcb614fdc565b9050614fd78282615350565b919050565b6000604051905090565b600067ffffffffffffffff821115615001576150006154a1565b5b602082029050602081019050919050565b600067ffffffffffffffff82111561502d5761502c6154a1565b5b615036826154f8565b9050602081019050919050565b600067ffffffffffffffff82111561505e5761505d6154a1565b5b615067826154f8565b9050602081019050919050565b600081519050919050565b600081519050919050565b600082825260208201905092915050565b600081905092915050565b600082825260208201905092915050565b600082825260208201905092915050565b600081905092915050565b60006150de82615279565b91506150e983615279565b9250827fffffffffffffffffffffffffffffffffffffffffffffffffffffffffffffffff0382111561511e5761511d615414565b5b828201905092915050565b600061513482615279565b915061513f83615279565b92508261514f5761514e615443565b5b828204905092915050565b600061516582615279565b915061517083615279565b9250817fffffffffffffffffffffffffffffffffffffffffffffffffffffffffffffffff04831182151516156151a9576151a8615414565b5b828202905092915050565b60006151bf82615279565b91506151ca83615279565b9250828210156151dd576151dc615414565b5b828203905092915050565b60006151f38261524a565b9050919050565b60008115159050919050565b6000819050919050565b60007fffffffff0000000000000000000000000000000000000000000000000000000082169050919050565b600061ffff82169050919050565b600073ffffffffffffffffffffffffffffffffffffffff82169050919050565b600062ffffff82169050919050565b6000819050919050565b600063ffffffff82169050919050565b600060ff82169050919050565b60006bffffffffffffffffffffffff82169050919050565b60006152c382615293565b9050919050565b60006152d5826152a0565b9050919050565b82818337600083830152505050565b60005b838110156153095780820151818401526020810190506152ee565b83811115615318576000848401525b50505050565b6000600282049050600182168061533657607f821691505b6020821081141561534a57615349615472565b5b50919050565b615359826154f8565b810181811067ffffffffffffffff82111715615378576153776154a1565b5b80604052505050565b600061538c82615279565b91507fffffffffffffffffffffffffffffffffffffffffffffffffffffffffffffffff8214156153bf576153be615414565b5b600182019050919050565b60006153d5826153f0565b9050919050565b6000819050919050565b6000819050919050565b60006153fb82615516565b9050919050565b600061540d82615509565b9050919050565b7f4e487b7100000000000000000000000000000000000000000000000000000000600052601160045260246000fd5b7f4e487b7100000000000000000000000000000000000000000000000000000000600052601260045260246000fd5b7f4e487b7100000000000000000000000000000000000000000000000000000000600052602260045260246000fd5b7f4e487b7100000000000000000000000000000000000000000000000000000000600052604160045260246000fd5b600080fd5b600080fd5b600080fd5b600080fd5b600080fd5b600080fd5b600080fd5b600080fd5b6000601f19601f8301169050919050565b60008160e01b9050919050565b60008160601b9050919050565b7f4552433732313a2063616c6c6572206973206e6f7420746f6b656e206f776e6560008201527f72206f7220617070726f76656400000000000000000000000000000000000000602082015250565b7f7b226e616d65223a220000000000000000000000000000000000000000000000600082015250565b7f222c22696d616765223a22000000000000000000000000000000000000000000600082015250565b7f4552433732313a207472616e7366657220746f206e6f6e20455243373231526560008201527f63656976657220696d706c656d656e7465720000000000000000000000000000602082015250565b7f4f776e61626c653a206e6577206f776e657220697320746865207a65726f206160008201527f6464726573730000000000000000000000000000000000000000000000000000602082015250565b7f4552433732313a207472616e736665722066726f6d20696e636f72726563742060008201527f6f776e6572000000000000000000000000000000000000000000000000000000602082015250565b7f4552433732313a20746f6b656e20616c7265616479206d696e74656400000000600082015250565b7f556e61626c6520746f20776974686472617720415049436f6e73756d65720000600082015250565b7f3078000000000000000000000000000000000000000000000000000000000000600082015250565b7f222c2265787465726e616c5f75726c223a22766a6b6e66742e6272756e6f766a60008201527f6b2e636f6d2f0000000000000000000000000000000000000000000000000000602082015250565b7f556e61626c6520746f2077697468647261772056524600000000000000000000600082015250565b7f4552433732313a207472616e7366657220746f20746865207a65726f2061646460008201527f7265737300000000000000000000000000000000000000000000000000000000602082015250565b7f4552433732313a20617070726f766520746f2063616c6c657200000000000000600082015250565b7f222c226465736372697074696f6e223a22000000000000000000000000000000600082015250565b7f564a4b0000000000000000000000000000000000000000000000000000000000600082015250565b7f736f6c64206f7574000000000000000000000000000000000000000000000000600082015250565b7f6e6f742061626c6520746f2066756e6420767266000000000000000000000000600082015250565b7f4552433732313a2061646472657373207a65726f206973206e6f74206120766160008201527f6c6964206f776e65720000000000000000000000000000000000000000000000602082015250565b7f45524337323155524953746f726167653a2055524920736574206f66206e6f6e60008201527f6578697374656e7420746f6b656e000000000000000000000000000000000000602082015250565b7f77726f6e672076616c7565000000000000000000000000000000000000000000600082015250565b7f6e6f742061626c6520746f2066756e64205061696e7400000000000000000000600082015250565b7f227d000000000000000000000000000000000000000000000000000000000000600082015250565b7f65786365656473206d6178207065722077616c6c657400000000000000000000600082015250565b7f4552433732313a206d696e7420746f20746865207a65726f2061646472657373600082015250565b7f6175746f2d617070726f76652064697361626c65640000000000000000000000600082015250565b7f556e61626c6520746f207472616e736665720000000000000000000000000000600082015250565b7f6e6f742061626c6520746f2066756e6420617069436f6e73756d657200000000600082015250565b7f4f776e61626c653a2063616c6c6572206973206e6f7420746865206f776e6572600082015250565b7f4552433732313a20696e76616c696420746f6b656e2049440000000000000000600082015250565b7f4552433732313a20617070726f76616c20746f2063757272656e74206f776e6560008201527f7200000000000000000000000000000000000000000000000000000000000000602082015250565b7f646174613a6170706c69636174696f6e2f6a736f6e3b6261736536342c000000600082015250565b7f4552433732313a20617070726f76652063616c6c6572206973206e6f7420746f60008201527f6b656e206f776e6572206f7220617070726f76656420666f7220616c6c000000602082015250565b615bc8816151e8565b8114615bd357600080fd5b50565b615bdf816151fa565b8114615bea57600080fd5b50565b615bf681615206565b8114615c0157600080fd5b50565b615c0d81615210565b8114615c1857600080fd5b50565b615c248161523c565b8114615c2f57600080fd5b50565b615c3b8161526a565b8114615c4657600080fd5b50565b615c5281615279565b8114615c5d57600080fd5b50565b615c6981615283565b8114615c7457600080fd5b50565b615c80816152a0565b8114615c8b57600080fd5b5056fe4142434445464748494a4b4c4d4e4f505152535455565758595a6162636465666768696a6b6c6d6e6f707172737475767778797a303132333435363738392b2fa2646970667358221220e893cb0a460506cf77fcee5d6d10a11abab7b62306132c21c270a35917949c5364736f6c63430008070033",
  "linkReferences": {},
  "deployedLinkReferences": {}
}