{
  "_format": "hh-sol-artifact-1",
  "contractName": "vjkNFT",
  "sourceName": "contracts/vjkNFT.sol",
  "abi": [
    {
      "inputs": [],
      "stateMutability": "payable",
      "type": "constructor"
    },
    {
      "anonymous": false,
      "inputs": [
        {
          "indexed": true,
          "internalType": "address",
          "name": "owner",
          "type": "address"
        },
        {
          "indexed": true,
          "internalType": "address",
          "name": "approved",
          "type": "address"
        },
        {
          "indexed": true,
          "internalType": "uint256",
          "name": "tokenId",
          "type": "uint256"
        }
      ],
      "name": "Approval",
      "type": "event"
    },
    {
      "anonymous": false,
      "inputs": [
        {
          "indexed": true,
          "internalType": "address",
          "name": "owner",
          "type": "address"
        },
        {
          "indexed": true,
          "internalType": "address",
          "name": "operator",
          "type": "address"
        },
        {
          "indexed": false,
          "internalType": "bool",
          "name": "approved",
          "type": "bool"
        }
      ],
      "name": "ApprovalForAll",
      "type": "event"
    },
    {
      "anonymous": false,
      "inputs": [
        {
          "indexed": true,
          "internalType": "address",
          "name": "previousOwner",
          "type": "address"
        },
        {
          "indexed": true,
          "internalType": "address",
          "name": "newOwner",
          "type": "address"
        }
      ],
      "name": "OwnershipTransferred",
      "type": "event"
    },
    {
      "anonymous": false,
      "inputs": [
        {
          "indexed": false,
          "internalType": "address",
          "name": "account",
          "type": "address"
        }
      ],
      "name": "Paused",
      "type": "event"
    },
    {
      "anonymous": false,
      "inputs": [
        {
          "indexed": true,
          "internalType": "address",
          "name": "from",
          "type": "address"
        },
        {
          "indexed": true,
          "internalType": "address",
          "name": "to",
          "type": "address"
        },
        {
          "indexed": true,
          "internalType": "uint256",
          "name": "tokenId",
          "type": "uint256"
        }
      ],
      "name": "Transfer",
      "type": "event"
    },
    {
      "anonymous": false,
      "inputs": [
        {
          "indexed": false,
          "internalType": "address",
          "name": "account",
          "type": "address"
        }
      ],
      "name": "Unpaused",
      "type": "event"
    },
    {
      "inputs": [
        {
          "internalType": "address",
          "name": "to",
          "type": "address"
        },
        {
          "internalType": "uint256",
          "name": "tokenId",
          "type": "uint256"
        }
      ],
      "name": "approve",
      "outputs": [],
      "stateMutability": "nonpayable",
      "type": "function"
    },
    {
      "inputs": [
        {
          "internalType": "address",
          "name": "owner",
          "type": "address"
        }
      ],
      "name": "balanceOf",
      "outputs": [
        {
          "internalType": "uint256",
          "name": "",
          "type": "uint256"
        }
      ],
      "stateMutability": "view",
      "type": "function"
    },
    {
      "inputs": [
        {
          "internalType": "uint256",
          "name": "tokenId",
          "type": "uint256"
        }
      ],
      "name": "burn",
      "outputs": [],
      "stateMutability": "nonpayable",
      "type": "function"
    },
    {
      "inputs": [
        {
          "internalType": "uint256",
          "name": "tokenId",
          "type": "uint256"
        }
      ],
      "name": "getApproved",
      "outputs": [
        {
          "internalType": "address",
          "name": "",
          "type": "address"
        }
      ],
      "stateMutability": "view",
      "type": "function"
    },
    {
      "inputs": [
        {
          "internalType": "address",
          "name": "owner",
          "type": "address"
        },
        {
          "internalType": "address",
          "name": "operator",
          "type": "address"
        }
      ],
      "name": "isApprovedForAll",
      "outputs": [
        {
          "internalType": "bool",
          "name": "",
          "type": "bool"
        }
      ],
      "stateMutability": "view",
      "type": "function"
    },
    {
      "inputs": [],
      "name": "maxSupply",
      "outputs": [
        {
          "internalType": "uint256",
          "name": "",
          "type": "uint256"
        }
      ],
      "stateMutability": "view",
      "type": "function"
    },
    {
      "inputs": [],
      "name": "mintPrice",
      "outputs": [
        {
          "internalType": "uint256",
          "name": "",
          "type": "uint256"
        }
      ],
      "stateMutability": "view",
      "type": "function"
    },
    {
      "inputs": [
        {
          "internalType": "address",
          "name": "",
          "type": "address"
        }
      ],
      "name": "mintedWallets",
      "outputs": [
        {
          "internalType": "uint256",
          "name": "",
          "type": "uint256"
        }
      ],
      "stateMutability": "view",
      "type": "function"
    },
    {
      "inputs": [],
      "name": "name",
      "outputs": [
        {
          "internalType": "string",
          "name": "",
          "type": "string"
        }
      ],
      "stateMutability": "view",
      "type": "function"
    },
    {
      "inputs": [],
      "name": "owner",
      "outputs": [
        {
          "internalType": "address",
          "name": "",
          "type": "address"
        }
      ],
      "stateMutability": "view",
      "type": "function"
    },
    {
      "inputs": [
        {
          "internalType": "uint256",
          "name": "tokenId",
          "type": "uint256"
        }
      ],
      "name": "ownerOf",
      "outputs": [
        {
          "internalType": "address",
          "name": "",
          "type": "address"
        }
      ],
      "stateMutability": "view",
      "type": "function"
    },
    {
      "inputs": [],
      "name": "pause",
      "outputs": [],
      "stateMutability": "nonpayable",
      "type": "function"
    },
    {
      "inputs": [],
      "name": "paused",
      "outputs": [
        {
          "internalType": "bool",
          "name": "",
          "type": "bool"
        }
      ],
      "stateMutability": "view",
      "type": "function"
    },
    {
      "inputs": [],
      "name": "renounceOwnership",
      "outputs": [],
      "stateMutability": "nonpayable",
      "type": "function"
    },
    {
      "inputs": [
        {
          "internalType": "string",
          "name": "uri",
          "type": "string"
        }
      ],
      "name": "safeMint",
      "outputs": [],
      "stateMutability": "payable",
      "type": "function"
    },
    {
      "inputs": [
        {
          "internalType": "address",
          "name": "from",
          "type": "address"
        },
        {
          "internalType": "address",
          "name": "to",
          "type": "address"
        },
        {
          "internalType": "uint256",
          "name": "tokenId",
          "type": "uint256"
        }
      ],
      "name": "safeTransferFrom",
      "outputs": [],
      "stateMutability": "nonpayable",
      "type": "function"
    },
    {
      "inputs": [
        {
          "internalType": "address",
          "name": "from",
          "type": "address"
        },
        {
          "internalType": "address",
          "name": "to",
          "type": "address"
        },
        {
          "internalType": "uint256",
          "name": "tokenId",
          "type": "uint256"
        },
        {
          "internalType": "bytes",
          "name": "_data",
          "type": "bytes"
        }
      ],
      "name": "safeTransferFrom",
      "outputs": [],
      "stateMutability": "nonpayable",
      "type": "function"
    },
    {
      "inputs": [
        {
          "internalType": "address",
          "name": "operator",
          "type": "address"
        },
        {
          "internalType": "bool",
          "name": "approved",
          "type": "bool"
        }
      ],
      "name": "setApprovalForAll",
      "outputs": [],
      "stateMutability": "nonpayable",
      "type": "function"
    },
    {
      "inputs": [
        {
          "internalType": "uint256",
          "name": "_maxSupply",
          "type": "uint256"
        }
      ],
      "name": "setMaxSupply",
      "outputs": [],
      "stateMutability": "nonpayable",
      "type": "function"
    },
    {
      "inputs": [
        {
          "internalType": "bytes4",
          "name": "interfaceId",
          "type": "bytes4"
        }
      ],
      "name": "supportsInterface",
      "outputs": [
        {
          "internalType": "bool",
          "name": "",
          "type": "bool"
        }
      ],
      "stateMutability": "view",
      "type": "function"
    },
    {
      "inputs": [],
      "name": "symbol",
      "outputs": [
        {
          "internalType": "string",
          "name": "",
          "type": "string"
        }
      ],
      "stateMutability": "view",
      "type": "function"
    },
    {
      "inputs": [
        {
          "internalType": "uint256",
          "name": "index",
          "type": "uint256"
        }
      ],
      "name": "tokenByIndex",
      "outputs": [
        {
          "internalType": "uint256",
          "name": "",
          "type": "uint256"
        }
      ],
      "stateMutability": "view",
      "type": "function"
    },
    {
      "inputs": [
        {
          "internalType": "address",
          "name": "owner",
          "type": "address"
        },
        {
          "internalType": "uint256",
          "name": "index",
          "type": "uint256"
        }
      ],
      "name": "tokenOfOwnerByIndex",
      "outputs": [
        {
          "internalType": "uint256",
          "name": "",
          "type": "uint256"
        }
      ],
      "stateMutability": "view",
      "type": "function"
    },
    {
      "inputs": [
        {
          "internalType": "uint256",
          "name": "tokenId",
          "type": "uint256"
        }
      ],
      "name": "tokenURI",
      "outputs": [
        {
          "internalType": "string",
          "name": "",
          "type": "string"
        }
      ],
      "stateMutability": "view",
      "type": "function"
    },
    {
      "inputs": [],
      "name": "totalSupply",
      "outputs": [
        {
          "internalType": "uint256",
          "name": "",
          "type": "uint256"
        }
      ],
      "stateMutability": "view",
      "type": "function"
    },
    {
      "inputs": [
        {
          "internalType": "address",
          "name": "from",
          "type": "address"
        },
        {
          "internalType": "address",
          "name": "to",
          "type": "address"
        },
        {
          "internalType": "uint256",
          "name": "tokenId",
          "type": "uint256"
        }
      ],
      "name": "transferFrom",
      "outputs": [],
      "stateMutability": "nonpayable",
      "type": "function"
    },
    {
      "inputs": [
        {
          "internalType": "address",
          "name": "newOwner",
          "type": "address"
        }
      ],
      "name": "transferOwnership",
      "outputs": [],
      "stateMutability": "nonpayable",
      "type": "function"
    },
    {
      "inputs": [],
      "name": "unpause",
      "outputs": [],
      "stateMutability": "nonpayable",
      "type": "function"
    }
  ],
  "bytecode": "0x608060405266b1a2bc2ec50000600d5561270f600e556040518060400160405280600681526020017f766a6b4e465400000000000000000000000000000000000000000000000000008152506040518060400160405280600381526020017f564a4b0000000000000000000000000000000000000000000000000000000000815250816000908051906020019062000099929190620001c4565b508060019080519060200190620000b2929190620001c4565b5050506000600b60006101000a81548160ff021916908315150217905550620000f0620000e4620000f660201b60201c565b620000fe60201b60201c565b620002d9565b600033905090565b6000600b60019054906101000a900473ffffffffffffffffffffffffffffffffffffffff16905081600b60016101000a81548173ffffffffffffffffffffffffffffffffffffffff021916908373ffffffffffffffffffffffffffffffffffffffff1602179055508173ffffffffffffffffffffffffffffffffffffffff168173ffffffffffffffffffffffffffffffffffffffff167f8be0079c531659141344cd1fd0a4f28419497f9722a3daafe3b4186f6b6457e060405160405180910390a35050565b828054620001d29062000274565b90600052602060002090601f016020900481019282620001f6576000855562000242565b82601f106200021157805160ff191683800117855562000242565b8280016001018555821562000242579182015b828111156200024157825182559160200191906001019062000224565b5b50905062000251919062000255565b5090565b5b808211156200027057600081600090555060010162000256565b5090565b600060028204905060018216806200028d57607f821691505b60208210811415620002a457620002a3620002aa565b5b50919050565b7f4e487b7100000000000000000000000000000000000000000000000000000000600052602260045260246000fd5b6144c980620002e96000396000f3fe6080604052600436106101b75760003560e01c8063695850fb116100ec578063a22cb4651161008a578063c87b56dd11610064578063c87b56dd146105e9578063d5abeb0114610626578063e985e9c514610651578063f2fde38b1461068e576101b7565b8063a22cb4651461055a578063ada7c4ed14610583578063b88d4fde146105c0576101b7565b8063715018a6116100c6578063715018a6146104d65780638456cb59146104ed5780638da5cb5b1461050457806395d89b411461052f576101b7565b8063695850fb146104545780636f8b44b01461047057806370a0823114610499576101b7565b80633f4ba83a116101595780634f6ccce7116101335780634f6ccce7146103845780635c975abb146103c15780636352211e146103ec5780636817c76c14610429576101b7565b80633f4ba83a1461031b57806342842e0e1461033257806342966c681461035b576101b7565b8063095ea7b311610195578063095ea7b31461026157806318160ddd1461028a57806323b872dd146102b55780632f745c59146102de576101b7565b806301ffc9a7146101bc57806306fdde03146101f9578063081812fc14610224575b600080fd5b3480156101c857600080fd5b506101e360048036038101906101de9190612ff7565b6106b7565b6040516101f091906135e1565b60405180910390f35b34801561020557600080fd5b5061020e6106c9565b60405161021b91906135fc565b60405180910390f35b34801561023057600080fd5b5061024b6004803603810190610246919061308a565b61075b565b604051610258919061357a565b60405180910390f35b34801561026d57600080fd5b5061028860048036038101906102839190612fbb565b6107e0565b005b34801561029657600080fd5b5061029f6108f8565b6040516102ac919061395e565b60405180910390f35b3480156102c157600080fd5b506102dc60048036038101906102d79190612eb5565b610905565b005b3480156102ea57600080fd5b5061030560048036038101906103009190612fbb565b610965565b604051610312919061395e565b60405180910390f35b34801561032757600080fd5b50610330610a0a565b005b34801561033e57600080fd5b5061035960048036038101906103549190612eb5565b610a90565b005b34801561036757600080fd5b50610382600480360381019061037d919061308a565b610ab0565b005b34801561039057600080fd5b506103ab60048036038101906103a6919061308a565b610b0c565b6040516103b8919061395e565b60405180910390f35b3480156103cd57600080fd5b506103d6610ba3565b6040516103e391906135e1565b60405180910390f35b3480156103f857600080fd5b50610413600480360381019061040e919061308a565b610bba565b604051610420919061357a565b60405180910390f35b34801561043557600080fd5b5061043e610c6c565b60405161044b919061395e565b60405180910390f35b61046e60048036038101906104699190613049565b610c72565b005b34801561047c57600080fd5b506104976004803603810190610492919061308a565b610e20565b005b3480156104a557600080fd5b506104c060048036038101906104bb9190612e50565b610ea6565b6040516104cd919061395e565b60405180910390f35b3480156104e257600080fd5b506104eb610f5e565b005b3480156104f957600080fd5b50610502610fe6565b005b34801561051057600080fd5b5061051961106c565b604051610526919061357a565b60405180910390f35b34801561053b57600080fd5b50610544611096565b60405161055191906135fc565b60405180910390f35b34801561056657600080fd5b50610581600480360381019061057c9190612f7f565b611128565b005b34801561058f57600080fd5b506105aa60048036038101906105a59190612e50565b61113e565b6040516105b7919061395e565b60405180910390f35b3480156105cc57600080fd5b506105e760048036038101906105e29190612f04565b611156565b005b3480156105f557600080fd5b50610610600480360381019061060b919061308a565b6111b8565b60405161061d91906135fc565b60405180910390f35b34801561063257600080fd5b5061063b6111ca565b604051610648919061395e565b60405180910390f35b34801561065d57600080fd5b5061067860048036038101906106739190612e79565b6111d0565b60405161068591906135e1565b60405180910390f35b34801561069a57600080fd5b506106b560048036038101906106b09190612e50565b611264565b005b60006106c28261135c565b9050919050565b6060600080546106d890613bb4565b80601f016020809104026020016040519081016040528092919081815260200182805461070490613bb4565b80156107515780601f1061072657610100808354040283529160200191610751565b820191906000526020600020905b81548152906001019060200180831161073457829003601f168201915b5050505050905090565b6000610766826113d6565b6107a5576040517f08c379a000000000000000000000000000000000000000000000000000000000815260040161079c9061387e565b60405180910390fd5b6004600083815260200190815260200160002060009054906101000a900473ffffffffffffffffffffffffffffffffffffffff169050919050565b60006107eb82610bba565b90508073ffffffffffffffffffffffffffffffffffffffff168373ffffffffffffffffffffffffffffffffffffffff16141561085c576040517f08c379a0000000000000000000000000000000000000000000000000000000008152600401610853906138de565b60405180910390fd5b8073ffffffffffffffffffffffffffffffffffffffff1661087b611442565b73ffffffffffffffffffffffffffffffffffffffff1614806108aa57506108a9816108a4611442565b6111d0565b5b6108e9576040517f08c379a00000000000000000000000000000000000000000000000000000000081526004016108e09061377e565b60405180910390fd5b6108f3838361144a565b505050565b6000600880549050905090565b610916610910611442565b82611503565b610955576040517f08c379a000000000000000000000000000000000000000000000000000000000815260040161094c906138fe565b60405180910390fd5b6109608383836115e1565b505050565b600061097083610ea6565b82106109b1576040517f08c379a00000000000000000000000000000000000000000000000000000000081526004016109a89061363e565b60405180910390fd5b600660008473ffffffffffffffffffffffffffffffffffffffff1673ffffffffffffffffffffffffffffffffffffffff168152602001908152602001600020600083815260200190815260200160002054905092915050565b610a12611442565b73ffffffffffffffffffffffffffffffffffffffff16610a3061106c565b73ffffffffffffffffffffffffffffffffffffffff1614610a86576040517f08c379a0000000000000000000000000000000000000000000000000000000008152600401610a7d9061389e565b60405180910390fd5b610a8e611848565b565b610aab83838360405180602001604052806000815250611156565b505050565b610ac1610abb611442565b82611503565b610b00576040517f08c379a0000000000000000000000000000000000000000000000000000000008152600401610af79061393e565b60405180910390fd5b610b09816118ea565b50565b6000610b166108f8565b8210610b57576040517f08c379a0000000000000000000000000000000000000000000000000000000008152600401610b4e9061391e565b60405180910390fd5b60088281548110610b91577f4e487b7100000000000000000000000000000000000000000000000000000000600052603260045260246000fd5b90600052602060002001549050919050565b6000600b60009054906101000a900460ff16905090565b6000806002600084815260200190815260200160002060009054906101000a900473ffffffffffffffffffffffffffffffffffffffff169050600073ffffffffffffffffffffffffffffffffffffffff168173ffffffffffffffffffffffffffffffffffffffff161415610c63576040517f08c379a0000000000000000000000000000000000000000000000000000000008152600401610c5a906137be565b60405180910390fd5b80915050919050565b600d5481565b6000610c7e600c6118f6565b9050600a600f60003373ffffffffffffffffffffffffffffffffffffffff1673ffffffffffffffffffffffffffffffffffffffff1681526020019081526020016000205410610d02576040517f08c379a0000000000000000000000000000000000000000000000000000000008152600401610cf99061381e565b60405180910390fd5b600d543414610d46576040517f08c379a0000000000000000000000000000000000000000000000000000000008152600401610d3d906137fe565b60405180910390fd5b80600e5411610d8a576040517f08c379a0000000000000000000000000000000000000000000000000000000008152600401610d819061373e565b60405180910390fd5b600f60003373ffffffffffffffffffffffffffffffffffffffff1673ffffffffffffffffffffffffffffffffffffffff1681526020019081526020016000206000815480929190610dda90613c17565b9190505550610de9600c611904565b610df3338261191a565b610e1c8183604051602001610e089190613558565b604051602081830303815290604052611938565b5050565b610e28611442565b73ffffffffffffffffffffffffffffffffffffffff16610e4661106c565b73ffffffffffffffffffffffffffffffffffffffff1614610e9c576040517f08c379a0000000000000000000000000000000000000000000000000000000008152600401610e939061389e565b60405180910390fd5b80600e8190555050565b60008073ffffffffffffffffffffffffffffffffffffffff168273ffffffffffffffffffffffffffffffffffffffff161415610f17576040517f08c379a0000000000000000000000000000000000000000000000000000000008152600401610f0e9061379e565b60405180910390fd5b600360008373ffffffffffffffffffffffffffffffffffffffff1673ffffffffffffffffffffffffffffffffffffffff168152602001908152602001600020549050919050565b610f66611442565b73ffffffffffffffffffffffffffffffffffffffff16610f8461106c565b73ffffffffffffffffffffffffffffffffffffffff1614610fda576040517f08c379a0000000000000000000000000000000000000000000000000000000008152600401610fd19061389e565b60405180910390fd5b610fe460006119ac565b565b610fee611442565b73ffffffffffffffffffffffffffffffffffffffff1661100c61106c565b73ffffffffffffffffffffffffffffffffffffffff1614611062576040517f08c379a00000000000000000000000000000000000000000000000000000000081526004016110599061389e565b60405180910390fd5b61106a611a72565b565b6000600b60019054906101000a900473ffffffffffffffffffffffffffffffffffffffff16905090565b6060600180546110a590613bb4565b80601f01602080910402602001604051908101604052809291908181526020018280546110d190613bb4565b801561111e5780601f106110f35761010080835404028352916020019161111e565b820191906000526020600020905b81548152906001019060200180831161110157829003601f168201915b5050505050905090565b61113a611133611442565b8383611b15565b5050565b600f6020528060005260406000206000915090505481565b611167611161611442565b83611503565b6111a6576040517f08c379a000000000000000000000000000000000000000000000000000000000815260040161119d906138fe565b60405180910390fd5b6111b284848484611c82565b50505050565b60606111c382611cde565b9050919050565b600e5481565b6000600560008473ffffffffffffffffffffffffffffffffffffffff1673ffffffffffffffffffffffffffffffffffffffff16815260200190815260200160002060008373ffffffffffffffffffffffffffffffffffffffff1673ffffffffffffffffffffffffffffffffffffffff16815260200190815260200160002060009054906101000a900460ff16905092915050565b61126c611442565b73ffffffffffffffffffffffffffffffffffffffff1661128a61106c565b73ffffffffffffffffffffffffffffffffffffffff16146112e0576040517f08c379a00000000000000000000000000000000000000000000000000000000081526004016112d79061389e565b60405180910390fd5b600073ffffffffffffffffffffffffffffffffffffffff168173ffffffffffffffffffffffffffffffffffffffff161415611350576040517f08c379a00000000000000000000000000000000000000000000000000000000081526004016113479061367e565b60405180910390fd5b611359816119ac565b50565b60007f780e9d63000000000000000000000000000000000000000000000000000000007bffffffffffffffffffffffffffffffffffffffffffffffffffffffff1916827bffffffffffffffffffffffffffffffffffffffffffffffffffffffff191614806113cf57506113ce82611e30565b5b9050919050565b60008073ffffffffffffffffffffffffffffffffffffffff166002600084815260200190815260200160002060009054906101000a900473ffffffffffffffffffffffffffffffffffffffff1673ffffffffffffffffffffffffffffffffffffffff1614159050919050565b600033905090565b816004600083815260200190815260200160002060006101000a81548173ffffffffffffffffffffffffffffffffffffffff021916908373ffffffffffffffffffffffffffffffffffffffff160217905550808273ffffffffffffffffffffffffffffffffffffffff166114bd83610bba565b73ffffffffffffffffffffffffffffffffffffffff167f8c5be1e5ebec7d5bd14f71427d1e84f3dd0314c0f7b2291e5b200ac8c7c3b92560405160405180910390a45050565b600061150e826113d6565b61154d576040517f08c379a00000000000000000000000000000000000000000000000000000000081526004016115449061371e565b60405180910390fd5b600061155883610bba565b90508073ffffffffffffffffffffffffffffffffffffffff168473ffffffffffffffffffffffffffffffffffffffff1614806115c757508373ffffffffffffffffffffffffffffffffffffffff166115af8461075b565b73ffffffffffffffffffffffffffffffffffffffff16145b806115d857506115d781856111d0565b5b91505092915050565b8273ffffffffffffffffffffffffffffffffffffffff1661160182610bba565b73ffffffffffffffffffffffffffffffffffffffff1614611657576040517f08c379a000000000000000000000000000000000000000000000000000000000815260040161164e9061369e565b60405180910390fd5b600073ffffffffffffffffffffffffffffffffffffffff168273ffffffffffffffffffffffffffffffffffffffff1614156116c7576040517f08c379a00000000000000000000000000000000000000000000000000000000081526004016116be906136de565b60405180910390fd5b6116d2838383611f12565b6116dd60008261144a565b6001600360008573ffffffffffffffffffffffffffffffffffffffff1673ffffffffffffffffffffffffffffffffffffffff168152602001908152602001600020600082825461172d9190613aca565b925050819055506001600360008473ffffffffffffffffffffffffffffffffffffffff1673ffffffffffffffffffffffffffffffffffffffff16815260200190815260200160002060008282546117849190613a43565b92505081905550816002600083815260200190815260200160002060006101000a81548173ffffffffffffffffffffffffffffffffffffffff021916908373ffffffffffffffffffffffffffffffffffffffff160217905550808273ffffffffffffffffffffffffffffffffffffffff168473ffffffffffffffffffffffffffffffffffffffff167fddf252ad1be2c89b69c2b068fc378daa952ba7f163c4a11628f55a4df523b3ef60405160405180910390a4611843838383611f6a565b505050565b611850610ba3565b61188f576040517f08c379a00000000000000000000000000000000000000000000000000000000081526004016118869061361e565b60405180910390fd5b6000600b60006101000a81548160ff0219169083151502179055507f5db9ee0a495bf2e6ff9c91a7834c1ba4fdd244a5e8aa4e537bd38aeae4b073aa6118d3611442565b6040516118e0919061357a565b60405180910390a1565b6118f381611f6f565b50565b600081600001549050919050565b6001816000016000828254019250508190555050565b611934828260405180602001604052806000815250611fc2565b5050565b611941826113d6565b611980576040517f08c379a0000000000000000000000000000000000000000000000000000000008152600401611977906137de565b60405180910390fd5b80600a600084815260200190815260200160002090805190602001906119a7929190612c34565b505050565b6000600b60019054906101000a900473ffffffffffffffffffffffffffffffffffffffff16905081600b60016101000a81548173ffffffffffffffffffffffffffffffffffffffff021916908373ffffffffffffffffffffffffffffffffffffffff1602179055508173ffffffffffffffffffffffffffffffffffffffff168173ffffffffffffffffffffffffffffffffffffffff167f8be0079c531659141344cd1fd0a4f28419497f9722a3daafe3b4186f6b6457e060405160405180910390a35050565b611a7a610ba3565b15611aba576040517f08c379a0000000000000000000000000000000000000000000000000000000008152600401611ab19061375e565b60405180910390fd5b6001600b60006101000a81548160ff0219169083151502179055507f62e78cea01bee320cd4e420270b5ea74000d11b0c9f74754ebdbfc544b05a258611afe611442565b604051611b0b919061357a565b60405180910390a1565b8173ffffffffffffffffffffffffffffffffffffffff168373ffffffffffffffffffffffffffffffffffffffff161415611b84576040517f08c379a0000000000000000000000000000000000000000000000000000000008152600401611b7b906136fe565b60405180910390fd5b80600560008573ffffffffffffffffffffffffffffffffffffffff1673ffffffffffffffffffffffffffffffffffffffff16815260200190815260200160002060008473ffffffffffffffffffffffffffffffffffffffff1673ffffffffffffffffffffffffffffffffffffffff16815260200190815260200160002060006101000a81548160ff0219169083151502179055508173ffffffffffffffffffffffffffffffffffffffff168373ffffffffffffffffffffffffffffffffffffffff167f17307eab39ab6107e8899845ad3d59bd9653f200f220920489ca2b5937696c3183604051611c7591906135e1565b60405180910390a3505050565b611c8d8484846115e1565b611c998484848461201d565b611cd8576040517f08c379a0000000000000000000000000000000000000000000000000000000008152600401611ccf9061365e565b60405180910390fd5b50505050565b6060611ce9826113d6565b611d28576040517f08c379a0000000000000000000000000000000000000000000000000000000008152600401611d1f9061385e565b60405180910390fd5b6000600a60008481526020019081526020016000208054611d4890613bb4565b80601f0160208091040260200160405190810160405280929190818152602001828054611d7490613bb4565b8015611dc15780601f10611d9657610100808354040283529160200191611dc1565b820191906000526020600020905b815481529060010190602001808311611da457829003601f168201915b505050505090506000611dd26121b4565b9050600081511415611de8578192505050611e2b565b600082511115611e1d578082604051602001611e05929190613534565b60405160208183030381529060405292505050611e2b565b611e26846121cb565b925050505b919050565b60007f80ac58cd000000000000000000000000000000000000000000000000000000007bffffffffffffffffffffffffffffffffffffffffffffffffffffffff1916827bffffffffffffffffffffffffffffffffffffffffffffffffffffffff19161480611efb57507f5b5e139f000000000000000000000000000000000000000000000000000000007bffffffffffffffffffffffffffffffffffffffffffffffffffffffff1916827bffffffffffffffffffffffffffffffffffffffffffffffffffffffff1916145b80611f0b5750611f0a82612272565b5b9050919050565b611f1a610ba3565b15611f5a576040517f08c379a0000000000000000000000000000000000000000000000000000000008152600401611f519061375e565b60405180910390fd5b611f658383836122dc565b505050565b505050565b611f78816123f0565b6000600a60008381526020019081526020016000208054611f9890613bb4565b905014611fbf57600a60008281526020019081526020016000206000611fbe9190612cba565b5b50565b611fcc838361250d565b611fd9600084848461201d565b612018576040517f08c379a000000000000000000000000000000000000000000000000000000000815260040161200f9061365e565b60405180910390fd5b505050565b600061203e8473ffffffffffffffffffffffffffffffffffffffff166126e7565b156121a7578373ffffffffffffffffffffffffffffffffffffffff1663150b7a02612067611442565b8786866040518563ffffffff1660e01b81526004016120899493929190613595565b602060405180830381600087803b1580156120a357600080fd5b505af19250505080156120d457506040513d601f19601f820116820180604052508101906120d19190613020565b60015b612157573d8060008114612104576040519150601f19603f3d011682016040523d82523d6000602084013e612109565b606091505b5060008151141561214f576040517f08c379a00000000000000000000000000000000000000000000000000000000081526004016121469061365e565b60405180910390fd5b805181602001fd5b63150b7a0260e01b7bffffffffffffffffffffffffffffffffffffffffffffffffffffffff1916817bffffffffffffffffffffffffffffffffffffffffffffffffffffffff1916149150506121ac565b600190505b949350505050565b606060405180602001604052806000815250905090565b60606121d6826113d6565b612215576040517f08c379a000000000000000000000000000000000000000000000000000000000815260040161220c906138be565b60405180910390fd5b600061221f6121b4565b9050600081511161223f576040518060200160405280600081525061226a565b806122498461270a565b60405160200161225a929190613534565b6040516020818303038152906040525b915050919050565b60007f01ffc9a7000000000000000000000000000000000000000000000000000000007bffffffffffffffffffffffffffffffffffffffffffffffffffffffff1916827bffffffffffffffffffffffffffffffffffffffffffffffffffffffff1916149050919050565b6122e78383836128b7565b600073ffffffffffffffffffffffffffffffffffffffff168373ffffffffffffffffffffffffffffffffffffffff16141561232a57612325816128bc565b612369565b8173ffffffffffffffffffffffffffffffffffffffff168373ffffffffffffffffffffffffffffffffffffffff1614612368576123678382612905565b5b5b600073ffffffffffffffffffffffffffffffffffffffff168273ffffffffffffffffffffffffffffffffffffffff1614156123ac576123a781612a72565b6123eb565b8273ffffffffffffffffffffffffffffffffffffffff168273ffffffffffffffffffffffffffffffffffffffff16146123ea576123e98282612bb5565b5b5b505050565b60006123fb82610bba565b905061240981600084611f12565b61241460008361144a565b6001600360008373ffffffffffffffffffffffffffffffffffffffff1673ffffffffffffffffffffffffffffffffffffffff16815260200190815260200160002060008282546124649190613aca565b925050819055506002600083815260200190815260200160002060006101000a81549073ffffffffffffffffffffffffffffffffffffffff021916905581600073ffffffffffffffffffffffffffffffffffffffff168273ffffffffffffffffffffffffffffffffffffffff167fddf252ad1be2c89b69c2b068fc378daa952ba7f163c4a11628f55a4df523b3ef60405160405180910390a461250981600084611f6a565b5050565b600073ffffffffffffffffffffffffffffffffffffffff168273ffffffffffffffffffffffffffffffffffffffff16141561257d576040517f08c379a00000000000000000000000000000000000000000000000000000000081526004016125749061383e565b60405180910390fd5b612586816113d6565b156125c6576040517f08c379a00000000000000000000000000000000000000000000000000000000081526004016125bd906136be565b60405180910390fd5b6125d260008383611f12565b6001600360008473ffffffffffffffffffffffffffffffffffffffff1673ffffffffffffffffffffffffffffffffffffffff16815260200190815260200160002060008282546126229190613a43565b92505081905550816002600083815260200190815260200160002060006101000a81548173ffffffffffffffffffffffffffffffffffffffff021916908373ffffffffffffffffffffffffffffffffffffffff160217905550808273ffffffffffffffffffffffffffffffffffffffff16600073ffffffffffffffffffffffffffffffffffffffff167fddf252ad1be2c89b69c2b068fc378daa952ba7f163c4a11628f55a4df523b3ef60405160405180910390a46126e360008383611f6a565b5050565b6000808273ffffffffffffffffffffffffffffffffffffffff163b119050919050565b60606000821415612752576040518060400160405280600181526020017f300000000000000000000000000000000000000000000000000000000000000081525090506128b2565b600082905060005b6000821461278457808061276d90613c17565b915050600a8261277d9190613a99565b915061275a565b60008167ffffffffffffffff8111156127c6577f4e487b7100000000000000000000000000000000000000000000000000000000600052604160045260246000fd5b6040519080825280601f01601f1916602001820160405280156127f85781602001600182028036833780820191505090505b5090505b600085146128ab576001826128119190613aca565b9150600a856128209190613c60565b603061282c9190613a43565b60f81b818381518110612868577f4e487b7100000000000000000000000000000000000000000000000000000000600052603260045260246000fd5b60200101907effffffffffffffffffffffffffffffffffffffffffffffffffffffffffffff1916908160001a905350600a856128a49190613a99565b94506127fc565b8093505050505b919050565b505050565b6008805490506009600083815260200190815260200160002081905550600881908060018154018082558091505060019003906000526020600020016000909190919091505550565b6000600161291284610ea6565b61291c9190613aca565b9050600060076000848152602001908152602001600020549050818114612a01576000600660008673ffffffffffffffffffffffffffffffffffffffff1673ffffffffffffffffffffffffffffffffffffffff168152602001908152602001600020600084815260200190815260200160002054905080600660008773ffffffffffffffffffffffffffffffffffffffff1673ffffffffffffffffffffffffffffffffffffffff168152602001908152602001600020600084815260200190815260200160002081905550816007600083815260200190815260200160002081905550505b6007600084815260200190815260200160002060009055600660008573ffffffffffffffffffffffffffffffffffffffff1673ffffffffffffffffffffffffffffffffffffffff16815260200190815260200160002060008381526020019081526020016000206000905550505050565b60006001600880549050612a869190613aca565b9050600060096000848152602001908152602001600020549050600060088381548110612adc577f4e487b7100000000000000000000000000000000000000000000000000000000600052603260045260246000fd5b906000526020600020015490508060088381548110612b24577f4e487b7100000000000000000000000000000000000000000000000000000000600052603260045260246000fd5b906000526020600020018190555081600960008381526020019081526020016000208190555060096000858152602001908152602001600020600090556008805480612b99577f4e487b7100000000000000000000000000000000000000000000000000000000600052603160045260246000fd5b6001900381819060005260206000200160009055905550505050565b6000612bc083610ea6565b905081600660008573ffffffffffffffffffffffffffffffffffffffff1673ffffffffffffffffffffffffffffffffffffffff168152602001908152602001600020600083815260200190815260200160002081905550806007600084815260200190815260200160002081905550505050565b828054612c4090613bb4565b90600052602060002090601f016020900481019282612c625760008555612ca9565b82601f10612c7b57805160ff1916838001178555612ca9565b82800160010185558215612ca9579182015b82811115612ca8578251825591602001919060010190612c8d565b5b509050612cb69190612cfa565b5090565b508054612cc690613bb4565b6000825580601f10612cd85750612cf7565b601f016020900490600052602060002090810190612cf69190612cfa565b5b50565b5b80821115612d13576000816000905550600101612cfb565b5090565b6000612d2a612d258461399e565b613979565b905082815260208101848484011115612d4257600080fd5b612d4d848285613b72565b509392505050565b6000612d68612d63846139cf565b613979565b905082815260208101848484011115612d8057600080fd5b612d8b848285613b72565b509392505050565b600081359050612da281614437565b92915050565b600081359050612db78161444e565b92915050565b600081359050612dcc81614465565b92915050565b600081519050612de181614465565b92915050565b600082601f830112612df857600080fd5b8135612e08848260208601612d17565b91505092915050565b600082601f830112612e2257600080fd5b8135612e32848260208601612d55565b91505092915050565b600081359050612e4a8161447c565b92915050565b600060208284031215612e6257600080fd5b6000612e7084828501612d93565b91505092915050565b60008060408385031215612e8c57600080fd5b6000612e9a85828601612d93565b9250506020612eab85828601612d93565b9150509250929050565b600080600060608486031215612eca57600080fd5b6000612ed886828701612d93565b9350506020612ee986828701612d93565b9250506040612efa86828701612e3b565b9150509250925092565b60008060008060808587031215612f1a57600080fd5b6000612f2887828801612d93565b9450506020612f3987828801612d93565b9350506040612f4a87828801612e3b565b925050606085013567ffffffffffffffff811115612f6757600080fd5b612f7387828801612de7565b91505092959194509250565b60008060408385031215612f9257600080fd5b6000612fa085828601612d93565b9250506020612fb185828601612da8565b9150509250929050565b60008060408385031215612fce57600080fd5b6000612fdc85828601612d93565b9250506020612fed85828601612e3b565b9150509250929050565b60006020828403121561300957600080fd5b600061301784828501612dbd565b91505092915050565b60006020828403121561303257600080fd5b600061304084828501612dd2565b91505092915050565b60006020828403121561305b57600080fd5b600082013567ffffffffffffffff81111561307557600080fd5b61308184828501612e11565b91505092915050565b60006020828403121561309c57600080fd5b60006130aa84828501612e3b565b91505092915050565b6130bc81613afe565b82525050565b6130cb81613b10565b82525050565b60006130dc82613a00565b6130e68185613a16565b93506130f6818560208601613b81565b6130ff81613d4d565b840191505092915050565b600061311582613a0b565b61311f8185613a27565b935061312f818560208601613b81565b61313881613d4d565b840191505092915050565b600061314e82613a0b565b6131588185613a38565b9350613168818560208601613b81565b80840191505092915050565b6000613181601483613a27565b915061318c82613d5e565b602082019050919050565b60006131a4602b83613a27565b91506131af82613d87565b604082019050919050565b60006131c7603283613a27565b91506131d282613dd6565b604082019050919050565b60006131ea602683613a27565b91506131f582613e25565b604082019050919050565b600061320d602583613a27565b915061321882613e74565b604082019050919050565b6000613230601c83613a27565b915061323b82613ec3565b602082019050919050565b6000613253602483613a27565b915061325e82613eec565b604082019050919050565b6000613276601983613a27565b915061328182613f3b565b602082019050919050565b6000613299602c83613a27565b91506132a482613f64565b604082019050919050565b60006132bc600883613a27565b91506132c782613fb3565b602082019050919050565b60006132df601083613a27565b91506132ea82613fdc565b602082019050919050565b6000613302603883613a27565b915061330d82614005565b604082019050919050565b6000613325602a83613a27565b915061333082614054565b604082019050919050565b6000613348602983613a27565b9150613353826140a3565b604082019050919050565b600061336b602e83613a27565b9150613376826140f2565b604082019050919050565b600061338e600b83613a27565b915061339982614141565b602082019050919050565b60006133b1601683613a27565b91506133bc8261416a565b602082019050919050565b60006133d4602083613a27565b91506133df82614193565b602082019050919050565b60006133f7603183613a27565b9150613402826141bc565b604082019050919050565b600061341a602c83613a27565b91506134258261420b565b604082019050919050565b600061343d602083613a27565b91506134488261425a565b602082019050919050565b6000613460602f83613a27565b915061346b82614283565b604082019050919050565b6000613483602183613a27565b915061348e826142d2565b604082019050919050565b60006134a6601d83613a38565b91506134b182614321565b601d82019050919050565b60006134c9603183613a27565b91506134d48261434a565b604082019050919050565b60006134ec602c83613a27565b91506134f782614399565b604082019050919050565b600061350f603083613a27565b915061351a826143e8565b604082019050919050565b61352e81613b68565b82525050565b60006135408285613143565b915061354c8284613143565b91508190509392505050565b600061356382613499565b915061356f8284613143565b915081905092915050565b600060208201905061358f60008301846130b3565b92915050565b60006080820190506135aa60008301876130b3565b6135b760208301866130b3565b6135c46040830185613525565b81810360608301526135d681846130d1565b905095945050505050565b60006020820190506135f660008301846130c2565b92915050565b60006020820190508181036000830152613616818461310a565b905092915050565b6000602082019050818103600083015261363781613174565b9050919050565b6000602082019050818103600083015261365781613197565b9050919050565b60006020820190508181036000830152613677816131ba565b9050919050565b60006020820190508181036000830152613697816131dd565b9050919050565b600060208201905081810360008301526136b781613200565b9050919050565b600060208201905081810360008301526136d781613223565b9050919050565b600060208201905081810360008301526136f781613246565b9050919050565b6000602082019050818103600083015261371781613269565b9050919050565b600060208201905081810360008301526137378161328c565b9050919050565b60006020820190508181036000830152613757816132af565b9050919050565b60006020820190508181036000830152613777816132d2565b9050919050565b60006020820190508181036000830152613797816132f5565b9050919050565b600060208201905081810360008301526137b781613318565b9050919050565b600060208201905081810360008301526137d78161333b565b9050919050565b600060208201905081810360008301526137f78161335e565b9050919050565b6000602082019050818103600083015261381781613381565b9050919050565b60006020820190508181036000830152613837816133a4565b9050919050565b60006020820190508181036000830152613857816133c7565b9050919050565b60006020820190508181036000830152613877816133ea565b9050919050565b600060208201905081810360008301526138978161340d565b9050919050565b600060208201905081810360008301526138b781613430565b9050919050565b600060208201905081810360008301526138d781613453565b9050919050565b600060208201905081810360008301526138f781613476565b9050919050565b60006020820190508181036000830152613917816134bc565b9050919050565b60006020820190508181036000830152613937816134df565b9050919050565b6000602082019050818103600083015261395781613502565b9050919050565b60006020820190506139736000830184613525565b92915050565b6000613983613994565b905061398f8282613be6565b919050565b6000604051905090565b600067ffffffffffffffff8211156139b9576139b8613d1e565b5b6139c282613d4d565b9050602081019050919050565b600067ffffffffffffffff8211156139ea576139e9613d1e565b5b6139f382613d4d565b9050602081019050919050565b600081519050919050565b600081519050919050565b600082825260208201905092915050565b600082825260208201905092915050565b600081905092915050565b6000613a4e82613b68565b9150613a5983613b68565b9250827fffffffffffffffffffffffffffffffffffffffffffffffffffffffffffffffff03821115613a8e57613a8d613c91565b5b828201905092915050565b6000613aa482613b68565b9150613aaf83613b68565b925082613abf57613abe613cc0565b5b828204905092915050565b6000613ad582613b68565b9150613ae083613b68565b925082821015613af357613af2613c91565b5b828203905092915050565b6000613b0982613b48565b9050919050565b60008115159050919050565b60007fffffffff0000000000000000000000000000000000000000000000000000000082169050919050565b600073ffffffffffffffffffffffffffffffffffffffff82169050919050565b6000819050919050565b82818337600083830152505050565b60005b83811015613b9f578082015181840152602081019050613b84565b83811115613bae576000848401525b50505050565b60006002820490506001821680613bcc57607f821691505b60208210811415613be057613bdf613cef565b5b50919050565b613bef82613d4d565b810181811067ffffffffffffffff82111715613c0e57613c0d613d1e565b5b80604052505050565b6000613c2282613b68565b91507fffffffffffffffffffffffffffffffffffffffffffffffffffffffffffffffff821415613c5557613c54613c91565b5b600182019050919050565b6000613c6b82613b68565b9150613c7683613b68565b925082613c8657613c85613cc0565b5b828206905092915050565b7f4e487b7100000000000000000000000000000000000000000000000000000000600052601160045260246000fd5b7f4e487b7100000000000000000000000000000000000000000000000000000000600052601260045260246000fd5b7f4e487b7100000000000000000000000000000000000000000000000000000000600052602260045260246000fd5b7f4e487b7100000000000000000000000000000000000000000000000000000000600052604160045260246000fd5b6000601f19601f8301169050919050565b7f5061757361626c653a206e6f7420706175736564000000000000000000000000600082015250565b7f455243373231456e756d657261626c653a206f776e657220696e646578206f7560008201527f74206f6620626f756e6473000000000000000000000000000000000000000000602082015250565b7f4552433732313a207472616e7366657220746f206e6f6e20455243373231526560008201527f63656976657220696d706c656d656e7465720000000000000000000000000000602082015250565b7f4f776e61626c653a206e6577206f776e657220697320746865207a65726f206160008201527f6464726573730000000000000000000000000000000000000000000000000000602082015250565b7f4552433732313a207472616e736665722066726f6d20696e636f72726563742060008201527f6f776e6572000000000000000000000000000000000000000000000000000000602082015250565b7f4552433732313a20746f6b656e20616c7265616479206d696e74656400000000600082015250565b7f4552433732313a207472616e7366657220746f20746865207a65726f2061646460008201527f7265737300000000000000000000000000000000000000000000000000000000602082015250565b7f4552433732313a20617070726f766520746f2063616c6c657200000000000000600082015250565b7f4552433732313a206f70657261746f7220717565727920666f72206e6f6e657860008201527f697374656e7420746f6b656e0000000000000000000000000000000000000000602082015250565b7f736f6c64206f7574000000000000000000000000000000000000000000000000600082015250565b7f5061757361626c653a2070617573656400000000000000000000000000000000600082015250565b7f4552433732313a20617070726f76652063616c6c6572206973206e6f74206f7760008201527f6e6572206e6f7220617070726f76656420666f7220616c6c0000000000000000602082015250565b7f4552433732313a2062616c616e636520717565727920666f7220746865207a6560008201527f726f206164647265737300000000000000000000000000000000000000000000602082015250565b7f4552433732313a206f776e657220717565727920666f72206e6f6e657869737460008201527f656e7420746f6b656e0000000000000000000000000000000000000000000000602082015250565b7f45524337323155524953746f726167653a2055524920736574206f66206e6f6e60008201527f6578697374656e7420746f6b656e000000000000000000000000000000000000602082015250565b7f77726f6e672076616c7565000000000000000000000000000000000000000000600082015250565b7f65786365656473206d6178207065722077616c6c657400000000000000000000600082015250565b7f4552433732313a206d696e7420746f20746865207a65726f2061646472657373600082015250565b7f45524337323155524953746f726167653a2055524920717565727920666f722060008201527f6e6f6e6578697374656e7420746f6b656e000000000000000000000000000000602082015250565b7f4552433732313a20617070726f76656420717565727920666f72206e6f6e657860008201527f697374656e7420746f6b656e0000000000000000000000000000000000000000602082015250565b7f4f776e61626c653a2063616c6c6572206973206e6f7420746865206f776e6572600082015250565b7f4552433732314d657461646174613a2055524920717565727920666f72206e6f60008201527f6e6578697374656e7420746f6b656e0000000000000000000000000000000000602082015250565b7f4552433732313a20617070726f76616c20746f2063757272656e74206f776e6560008201527f7200000000000000000000000000000000000000000000000000000000000000602082015250565b7f646174613a6170706c69636174696f6e2f6a736f6e3b6261736536342c000000600082015250565b7f4552433732313a207472616e736665722063616c6c6572206973206e6f74206f60008201527f776e6572206e6f7220617070726f766564000000000000000000000000000000602082015250565b7f455243373231456e756d657261626c653a20676c6f62616c20696e646578206f60008201527f7574206f6620626f756e64730000000000000000000000000000000000000000602082015250565b7f4552433732314275726e61626c653a2063616c6c6572206973206e6f74206f7760008201527f6e6572206e6f7220617070726f76656400000000000000000000000000000000602082015250565b61444081613afe565b811461444b57600080fd5b50565b61445781613b10565b811461446257600080fd5b50565b61446e81613b1c565b811461447957600080fd5b50565b61448581613b68565b811461449057600080fd5b5056fea26469706673582212204c78d8d553b4f6b9a54372c6e0c84e3bf2fe5c37946281f5a7719f978e209b4164736f6c63430008040033",
  "linkReferences": {},
  "deployedLinkReferences": {}
}