{
  "_format": "hh-sol-artifact-1",
  "contractName": "vjkNFT",
  "sourceName": "contracts/vjkNFT.sol",
  "abi": [
    {
      "inputs": [],
      "stateMutability": "nonpayable",
      "type": "constructor"
    },
    {
      "anonymous": false,
      "inputs": [
        {
          "indexed": true,
          "internalType": "address",
          "name": "owner",
          "type": "address"
        },
        {
          "indexed": true,
          "internalType": "address",
          "name": "approved",
          "type": "address"
        },
        {
          "indexed": true,
          "internalType": "uint256",
          "name": "tokenId",
          "type": "uint256"
        }
      ],
      "name": "Approval",
      "type": "event"
    },
    {
      "anonymous": false,
      "inputs": [
        {
          "indexed": true,
          "internalType": "address",
          "name": "owner",
          "type": "address"
        },
        {
          "indexed": true,
          "internalType": "address",
          "name": "operator",
          "type": "address"
        },
        {
          "indexed": false,
          "internalType": "bool",
          "name": "approved",
          "type": "bool"
        }
      ],
      "name": "ApprovalForAll",
      "type": "event"
    },
    {
      "anonymous": false,
      "inputs": [
        {
          "indexed": true,
          "internalType": "uint256",
          "name": "tokenId",
          "type": "uint256"
        },
        {
          "indexed": false,
          "internalType": "string",
          "name": "tokenURI",
          "type": "string"
        }
      ],
      "name": "CreatedSVGNFT",
      "type": "event"
    },
    {
      "anonymous": false,
      "inputs": [
        {
          "indexed": true,
          "internalType": "address",
          "name": "previousOwner",
          "type": "address"
        },
        {
          "indexed": true,
          "internalType": "address",
          "name": "newOwner",
          "type": "address"
        }
      ],
      "name": "OwnershipTransferred",
      "type": "event"
    },
    {
      "anonymous": false,
      "inputs": [
        {
          "indexed": true,
          "internalType": "address",
          "name": "from",
          "type": "address"
        },
        {
          "indexed": true,
          "internalType": "address",
          "name": "to",
          "type": "address"
        },
        {
          "indexed": true,
          "internalType": "uint256",
          "name": "tokenId",
          "type": "uint256"
        }
      ],
      "name": "Transfer",
      "type": "event"
    },
    {
      "inputs": [
        {
          "internalType": "address",
          "name": "to",
          "type": "address"
        },
        {
          "internalType": "uint256",
          "name": "tokenId",
          "type": "uint256"
        }
      ],
      "name": "approve",
      "outputs": [],
      "stateMutability": "nonpayable",
      "type": "function"
    },
    {
      "inputs": [
        {
          "internalType": "address",
          "name": "owner",
          "type": "address"
        }
      ],
      "name": "balanceOf",
      "outputs": [
        {
          "internalType": "uint256",
          "name": "",
          "type": "uint256"
        }
      ],
      "stateMutability": "view",
      "type": "function"
    },
    {
      "inputs": [
        {
          "internalType": "string",
          "name": "svg",
          "type": "string"
        }
      ],
      "name": "create",
      "outputs": [],
      "stateMutability": "nonpayable",
      "type": "function"
    },
    {
      "inputs": [
        {
          "internalType": "string",
          "name": "imageURI",
          "type": "string"
        },
        {
          "internalType": "uint256",
          "name": "tokenCounterr",
          "type": "uint256"
        }
      ],
      "name": "formatTokenURI",
      "outputs": [
        {
          "internalType": "string",
          "name": "",
          "type": "string"
        }
      ],
      "stateMutability": "pure",
      "type": "function"
    },
    {
      "inputs": [],
      "name": "getAllCollections",
      "outputs": [
        {
          "components": [
            {
              "internalType": "address",
              "name": "sender",
              "type": "address"
            },
            {
              "internalType": "string",
              "name": "tokenId",
              "type": "string"
            },
            {
              "internalType": "string",
              "name": "svg",
              "type": "string"
            },
            {
              "internalType": "uint256",
              "name": "timestamp",
              "type": "uint256"
            }
          ],
          "internalType": "struct vjkNFT.CollectionStruct[]",
          "name": "",
          "type": "tuple[]"
        }
      ],
      "stateMutability": "view",
      "type": "function"
    },
    {
      "inputs": [
        {
          "internalType": "uint256",
          "name": "tokenId",
          "type": "uint256"
        }
      ],
      "name": "getApproved",
      "outputs": [
        {
          "internalType": "address",
          "name": "",
          "type": "address"
        }
      ],
      "stateMutability": "view",
      "type": "function"
    },
    {
      "inputs": [
        {
          "internalType": "address",
          "name": "owner",
          "type": "address"
        },
        {
          "internalType": "address",
          "name": "operator",
          "type": "address"
        }
      ],
      "name": "isApprovedForAll",
      "outputs": [
        {
          "internalType": "bool",
          "name": "",
          "type": "bool"
        }
      ],
      "stateMutability": "view",
      "type": "function"
    },
    {
      "inputs": [],
      "name": "name",
      "outputs": [
        {
          "internalType": "string",
          "name": "",
          "type": "string"
        }
      ],
      "stateMutability": "view",
      "type": "function"
    },
    {
      "inputs": [],
      "name": "owner",
      "outputs": [
        {
          "internalType": "address",
          "name": "",
          "type": "address"
        }
      ],
      "stateMutability": "view",
      "type": "function"
    },
    {
      "inputs": [
        {
          "internalType": "uint256",
          "name": "tokenId",
          "type": "uint256"
        }
      ],
      "name": "ownerOf",
      "outputs": [
        {
          "internalType": "address",
          "name": "",
          "type": "address"
        }
      ],
      "stateMutability": "view",
      "type": "function"
    },
    {
      "inputs": [],
      "name": "renounceOwnership",
      "outputs": [],
      "stateMutability": "nonpayable",
      "type": "function"
    },
    {
      "inputs": [
        {
          "internalType": "address",
          "name": "from",
          "type": "address"
        },
        {
          "internalType": "address",
          "name": "to",
          "type": "address"
        },
        {
          "internalType": "uint256",
          "name": "tokenId",
          "type": "uint256"
        }
      ],
      "name": "safeTransferFrom",
      "outputs": [],
      "stateMutability": "nonpayable",
      "type": "function"
    },
    {
      "inputs": [
        {
          "internalType": "address",
          "name": "from",
          "type": "address"
        },
        {
          "internalType": "address",
          "name": "to",
          "type": "address"
        },
        {
          "internalType": "uint256",
          "name": "tokenId",
          "type": "uint256"
        },
        {
          "internalType": "bytes",
          "name": "_data",
          "type": "bytes"
        }
      ],
      "name": "safeTransferFrom",
      "outputs": [],
      "stateMutability": "nonpayable",
      "type": "function"
    },
    {
      "inputs": [
        {
          "internalType": "address",
          "name": "operator",
          "type": "address"
        },
        {
          "internalType": "bool",
          "name": "approved",
          "type": "bool"
        }
      ],
      "name": "setApprovalForAll",
      "outputs": [],
      "stateMutability": "nonpayable",
      "type": "function"
    },
    {
      "inputs": [
        {
          "internalType": "bytes4",
          "name": "interfaceId",
          "type": "bytes4"
        }
      ],
      "name": "supportsInterface",
      "outputs": [
        {
          "internalType": "bool",
          "name": "",
          "type": "bool"
        }
      ],
      "stateMutability": "view",
      "type": "function"
    },
    {
      "inputs": [],
      "name": "symbol",
      "outputs": [
        {
          "internalType": "string",
          "name": "",
          "type": "string"
        }
      ],
      "stateMutability": "view",
      "type": "function"
    },
    {
      "inputs": [],
      "name": "tokenCounter",
      "outputs": [
        {
          "internalType": "uint256",
          "name": "",
          "type": "uint256"
        }
      ],
      "stateMutability": "view",
      "type": "function"
    },
    {
      "inputs": [
        {
          "internalType": "uint256",
          "name": "tokenId",
          "type": "uint256"
        }
      ],
      "name": "tokenURI",
      "outputs": [
        {
          "internalType": "string",
          "name": "",
          "type": "string"
        }
      ],
      "stateMutability": "view",
      "type": "function"
    },
    {
      "inputs": [
        {
          "internalType": "address",
          "name": "from",
          "type": "address"
        },
        {
          "internalType": "address",
          "name": "to",
          "type": "address"
        },
        {
          "internalType": "uint256",
          "name": "tokenId",
          "type": "uint256"
        }
      ],
      "name": "transferFrom",
      "outputs": [],
      "stateMutability": "nonpayable",
      "type": "function"
    },
    {
      "inputs": [
        {
          "internalType": "address",
          "name": "newOwner",
          "type": "address"
        }
      ],
      "name": "transferOwnership",
      "outputs": [],
      "stateMutability": "nonpayable",
      "type": "function"
    }
  ],
  "bytecode": "0x60806040523480156200001157600080fd5b506040518060400160405280600c81526020017f6272756e6f766a6b204e465400000000000000000000000000000000000000008152506040518060400160405280600681526020017f766a6b4e46540000000000000000000000000000000000000000000000000000815250816000908051906020019062000096929190620001ae565b508060019080519060200190620000af929190620001ae565b505050620000d2620000c6620000e060201b60201c565b620000e860201b60201c565b6000600881905550620002c3565b600033905090565b6000600760009054906101000a900473ffffffffffffffffffffffffffffffffffffffff16905081600760006101000a81548173ffffffffffffffffffffffffffffffffffffffff021916908373ffffffffffffffffffffffffffffffffffffffff1602179055508173ffffffffffffffffffffffffffffffffffffffff168173ffffffffffffffffffffffffffffffffffffffff167f8be0079c531659141344cd1fd0a4f28419497f9722a3daafe3b4186f6b6457e060405160405180910390a35050565b828054620001bc906200025e565b90600052602060002090601f016020900481019282620001e057600085556200022c565b82601f10620001fb57805160ff19168380011785556200022c565b828001600101855582156200022c579182015b828111156200022b5782518255916020019190600101906200020e565b5b5090506200023b91906200023f565b5090565b5b808211156200025a57600081600090555060010162000240565b5090565b600060028204905060018216806200027757607f821691505b602082108114156200028e576200028d62000294565b5b50919050565b7f4e487b7100000000000000000000000000000000000000000000000000000000600052602260045260246000fd5b613b9b80620002d36000396000f3fe608060405234801561001057600080fd5b506004361061012c5760003560e01c80638da5cb5b116100ad578063c4d53dea11610071578063c4d53dea1461031b578063c87b56dd1461034b578063d082e3811461037b578063e985e9c514610399578063f2fde38b146103c95761012c565b80638da5cb5b1461028b57806395d89b41146102a9578063a22cb465146102c7578063b6a46b3b146102e3578063b88d4fde146102ff5761012c565b806342842e0e116100f457806342842e0e146101e75780636352211e146102035780636804a9581461023357806370a0823114610251578063715018a6146102815761012c565b806301ffc9a71461013157806306fdde0314610161578063081812fc1461017f578063095ea7b3146101af57806323b872dd146101cb575b600080fd5b61014b6004803603810190610146919061268a565b6103e5565b6040516101589190612dca565b60405180910390f35b6101696104c7565b6040516101769190612de5565b60405180910390f35b61019960048036038101906101949190612771565b610559565b6040516101a69190612d41565b60405180910390f35b6101c960048036038101906101c4919061264e565b6105de565b005b6101e560048036038101906101e09190612548565b6106f6565b005b61020160048036038101906101fc9190612548565b610756565b005b61021d60048036038101906102189190612771565b610776565b60405161022a9190612d41565b60405180910390f35b61023b610828565b6040516102489190612da8565b60405180910390f35b61026b600480360381019061026691906124e3565b610a0b565b6040516102789190613047565b60405180910390f35b610289610ac3565b005b610293610b4b565b6040516102a09190612d41565b60405180910390f35b6102b1610b75565b6040516102be9190612de5565b60405180910390f35b6102e160048036038101906102dc9190612612565b610c07565b005b6102fd60048036038101906102f891906126dc565b610c1d565b005b61031960048036038101906103149190612597565b610d91565b005b6103356004803603810190610330919061271d565b610df3565b6040516103429190612de5565b60405180910390f35b61036560048036038101906103609190612771565b610e4e565b6040516103729190612de5565b60405180910390f35b610383610fa0565b6040516103909190613047565b60405180910390f35b6103b360048036038101906103ae919061250c565b610fa6565b6040516103c09190612dca565b60405180910390f35b6103e360048036038101906103de91906124e3565b61103a565b005b60007f80ac58cd000000000000000000000000000000000000000000000000000000007bffffffffffffffffffffffffffffffffffffffffffffffffffffffff1916827bffffffffffffffffffffffffffffffffffffffffffffffffffffffff191614806104b057507f5b5e139f000000000000000000000000000000000000000000000000000000007bffffffffffffffffffffffffffffffffffffffffffffffffffffffff1916827bffffffffffffffffffffffffffffffffffffffffffffffffffffffff1916145b806104c057506104bf82611132565b5b9050919050565b6060600080546104d690613385565b80601f016020809104026020016040519081016040528092919081815260200182805461050290613385565b801561054f5780601f106105245761010080835404028352916020019161054f565b820191906000526020600020905b81548152906001019060200180831161053257829003601f168201915b5050505050905090565b60006105648261119c565b6105a3576040517f08c379a000000000000000000000000000000000000000000000000000000000815260040161059a90612fa7565b60405180910390fd5b6004600083815260200190815260200160002060009054906101000a900473ffffffffffffffffffffffffffffffffffffffff169050919050565b60006105e982610776565b90508073ffffffffffffffffffffffffffffffffffffffff168373ffffffffffffffffffffffffffffffffffffffff16141561065a576040517f08c379a000000000000000000000000000000000000000000000000000000000815260040161065190613007565b60405180910390fd5b8073ffffffffffffffffffffffffffffffffffffffff16610679611208565b73ffffffffffffffffffffffffffffffffffffffff1614806106a857506106a7816106a2611208565b610fa6565b5b6106e7576040517f08c379a00000000000000000000000000000000000000000000000000000000081526004016106de90612ee7565b60405180910390fd5b6106f18383611210565b505050565b610707610701611208565b826112c9565b610746576040517f08c379a000000000000000000000000000000000000000000000000000000000815260040161073d90613027565b60405180910390fd5b6107518383836113a7565b505050565b61077183838360405180602001604052806000815250610d91565b505050565b6000806002600084815260200190815260200160002060009054906101000a900473ffffffffffffffffffffffffffffffffffffffff169050600073ffffffffffffffffffffffffffffffffffffffff168173ffffffffffffffffffffffffffffffffffffffff16141561081f576040517f08c379a000000000000000000000000000000000000000000000000000000000815260040161081690612f27565b60405180910390fd5b80915050919050565b60606009805480602002602001604051908101604052809291908181526020016000905b82821015610a0257838290600052602060002090600402016040518060800160405290816000820160009054906101000a900473ffffffffffffffffffffffffffffffffffffffff1673ffffffffffffffffffffffffffffffffffffffff1673ffffffffffffffffffffffffffffffffffffffff1681526020016001820180546108d590613385565b80601f016020809104026020016040519081016040528092919081815260200182805461090190613385565b801561094e5780601f106109235761010080835404028352916020019161094e565b820191906000526020600020905b81548152906001019060200180831161093157829003601f168201915b5050505050815260200160028201805461096790613385565b80601f016020809104026020016040519081016040528092919081815260200182805461099390613385565b80156109e05780601f106109b5576101008083540402835291602001916109e0565b820191906000526020600020905b8154815290600101906020018083116109c357829003601f168201915b505050505081526020016003820154815250508152602001906001019061084c565b50505050905090565b60008073ffffffffffffffffffffffffffffffffffffffff168273ffffffffffffffffffffffffffffffffffffffff161415610a7c576040517f08c379a0000000000000000000000000000000000000000000000000000000008152600401610a7390612f07565b60405180910390fd5b600360008373ffffffffffffffffffffffffffffffffffffffff1673ffffffffffffffffffffffffffffffffffffffff168152602001908152602001600020549050919050565b610acb611208565b73ffffffffffffffffffffffffffffffffffffffff16610ae9610b4b565b73ffffffffffffffffffffffffffffffffffffffff1614610b3f576040517f08c379a0000000000000000000000000000000000000000000000000000000008152600401610b3690612fc7565b60405180910390fd5b610b49600061160e565b565b6000600760009054906101000a900473ffffffffffffffffffffffffffffffffffffffff16905090565b606060018054610b8490613385565b80601f0160208091040260200160405190810160405280929190818152602001828054610bb090613385565b8015610bfd5780601f10610bd257610100808354040283529160200191610bfd565b820191906000526020600020905b815481529060010190602001808311610be057829003601f168201915b5050505050905090565b610c19610c12611208565b83836116d4565b5050565b610c2933600854611841565b6000819050610c45600854610c4083600854610df3565b61185f565b600960405180608001604052803373ffffffffffffffffffffffffffffffffffffffff168152602001610c796008546118d3565b815260200184815260200142815250908060018154018082558091505060019003906000526020600020906004020160009091909190915060008201518160000160006101000a81548173ffffffffffffffffffffffffffffffffffffffff021916908373ffffffffffffffffffffffffffffffffffffffff1602179055506020820151816001019080519060200190610d14929190612307565b506040820151816002019080519060200190610d31929190612307565b506060820151816003015550506008547ff5acc616aa8ecd00e5d76674d7812f9c3c3571d662c9fba4499deefa6d0be12d83604051610d709190612de5565b60405180910390a26001600854610d879190613176565b6008819055505050565b610da2610d9c611208565b836112c9565b610de1576040517f08c379a0000000000000000000000000000000000000000000000000000000008152600401610dd890613027565b60405180910390fd5b610ded84848484611aa8565b50505050565b6060610e27610e01836118d3565b84604051602001610e13929190612cda565b604051602081830303815290604052611b04565b604051602001610e379190612d1f565b604051602081830303815290604052905092915050565b6060610e598261119c565b610e98576040517f08c379a0000000000000000000000000000000000000000000000000000000008152600401610e8f90612f87565b60405180910390fd5b6000600660008481526020019081526020016000208054610eb890613385565b80601f0160208091040260200160405190810160405280929190818152602001828054610ee490613385565b8015610f315780601f10610f0657610100808354040283529160200191610f31565b820191906000526020600020905b815481529060010190602001808311610f1457829003601f168201915b505050505090506000610f42611ca3565b9050600081511415610f58578192505050610f9b565b600082511115610f8d578082604051602001610f75929190612cb6565b60405160208183030381529060405292505050610f9b565b610f9684611cba565b925050505b919050565b60085481565b6000600560008473ffffffffffffffffffffffffffffffffffffffff1673ffffffffffffffffffffffffffffffffffffffff16815260200190815260200160002060008373ffffffffffffffffffffffffffffffffffffffff1673ffffffffffffffffffffffffffffffffffffffff16815260200190815260200160002060009054906101000a900460ff16905092915050565b611042611208565b73ffffffffffffffffffffffffffffffffffffffff16611060610b4b565b73ffffffffffffffffffffffffffffffffffffffff16146110b6576040517f08c379a00000000000000000000000000000000000000000000000000000000081526004016110ad90612fc7565b60405180910390fd5b600073ffffffffffffffffffffffffffffffffffffffff168173ffffffffffffffffffffffffffffffffffffffff161415611126576040517f08c379a000000000000000000000000000000000000000000000000000000000815260040161111d90612e27565b60405180910390fd5b61112f8161160e565b50565b60007f01ffc9a7000000000000000000000000000000000000000000000000000000007bffffffffffffffffffffffffffffffffffffffffffffffffffffffff1916827bffffffffffffffffffffffffffffffffffffffffffffffffffffffff1916149050919050565b60008073ffffffffffffffffffffffffffffffffffffffff166002600084815260200190815260200160002060009054906101000a900473ffffffffffffffffffffffffffffffffffffffff1673ffffffffffffffffffffffffffffffffffffffff1614159050919050565b600033905090565b816004600083815260200190815260200160002060006101000a81548173ffffffffffffffffffffffffffffffffffffffff021916908373ffffffffffffffffffffffffffffffffffffffff160217905550808273ffffffffffffffffffffffffffffffffffffffff1661128383610776565b73ffffffffffffffffffffffffffffffffffffffff167f8c5be1e5ebec7d5bd14f71427d1e84f3dd0314c0f7b2291e5b200ac8c7c3b92560405160405180910390a45050565b60006112d48261119c565b611313576040517f08c379a000000000000000000000000000000000000000000000000000000000815260040161130a90612ec7565b60405180910390fd5b600061131e83610776565b90508073ffffffffffffffffffffffffffffffffffffffff168473ffffffffffffffffffffffffffffffffffffffff16148061138d57508373ffffffffffffffffffffffffffffffffffffffff1661137584610559565b73ffffffffffffffffffffffffffffffffffffffff16145b8061139e575061139d8185610fa6565b5b91505092915050565b8273ffffffffffffffffffffffffffffffffffffffff166113c782610776565b73ffffffffffffffffffffffffffffffffffffffff161461141d576040517f08c379a000000000000000000000000000000000000000000000000000000000815260040161141490612e47565b60405180910390fd5b600073ffffffffffffffffffffffffffffffffffffffff168273ffffffffffffffffffffffffffffffffffffffff16141561148d576040517f08c379a000000000000000000000000000000000000000000000000000000000815260040161148490612e87565b60405180910390fd5b611498838383611d61565b6114a3600082611210565b6001600360008573ffffffffffffffffffffffffffffffffffffffff1673ffffffffffffffffffffffffffffffffffffffff16815260200190815260200160002060008282546114f3919061328e565b925050819055506001600360008473ffffffffffffffffffffffffffffffffffffffff1673ffffffffffffffffffffffffffffffffffffffff168152602001908152602001600020600082825461154a9190613176565b92505081905550816002600083815260200190815260200160002060006101000a81548173ffffffffffffffffffffffffffffffffffffffff021916908373ffffffffffffffffffffffffffffffffffffffff160217905550808273ffffffffffffffffffffffffffffffffffffffff168473ffffffffffffffffffffffffffffffffffffffff167fddf252ad1be2c89b69c2b068fc378daa952ba7f163c4a11628f55a4df523b3ef60405160405180910390a4611609838383611d66565b505050565b6000600760009054906101000a900473ffffffffffffffffffffffffffffffffffffffff16905081600760006101000a81548173ffffffffffffffffffffffffffffffffffffffff021916908373ffffffffffffffffffffffffffffffffffffffff1602179055508173ffffffffffffffffffffffffffffffffffffffff168173ffffffffffffffffffffffffffffffffffffffff167f8be0079c531659141344cd1fd0a4f28419497f9722a3daafe3b4186f6b6457e060405160405180910390a35050565b8173ffffffffffffffffffffffffffffffffffffffff168373ffffffffffffffffffffffffffffffffffffffff161415611743576040517f08c379a000000000000000000000000000000000000000000000000000000000815260040161173a90612ea7565b60405180910390fd5b80600560008573ffffffffffffffffffffffffffffffffffffffff1673ffffffffffffffffffffffffffffffffffffffff16815260200190815260200160002060008473ffffffffffffffffffffffffffffffffffffffff1673ffffffffffffffffffffffffffffffffffffffff16815260200190815260200160002060006101000a81548160ff0219169083151502179055508173ffffffffffffffffffffffffffffffffffffffff168373ffffffffffffffffffffffffffffffffffffffff167f17307eab39ab6107e8899845ad3d59bd9653f200f220920489ca2b5937696c31836040516118349190612dca565b60405180910390a3505050565b61185b828260405180602001604052806000815250611d6b565b5050565b6118688261119c565b6118a7576040517f08c379a000000000000000000000000000000000000000000000000000000000815260040161189e90612f47565b60405180910390fd5b806006600084815260200190815260200160002090805190602001906118ce929190612307565b505050565b6060600082141561191b576040518060400160405280600181526020017f30000000000000000000000000000000000000000000000000000000000000008152509050611aa3565b600082905060005b6000821461194d578080611936906133e8565b915050600a826119469190613203565b9150611923565b60008167ffffffffffffffff81111561198f577f4e487b7100000000000000000000000000000000000000000000000000000000600052604160045260246000fd5b6040519080825280601f01601f1916602001820160405280156119c15781602001600182028036833780820191505090505b50905060008290505b60008614611a9b576001816119df919061328e565b90506000600a80886119f19190613203565b6119fb9190613234565b87611a06919061328e565b6030611a1291906131cc565b905060008160f81b905080848481518110611a56577f4e487b7100000000000000000000000000000000000000000000000000000000600052603260045260246000fd5b60200101907effffffffffffffffffffffffffffffffffffffffffffffffffffffffffffff1916908160001a905350600a88611a929190613203565b975050506119ca565b819450505050505b919050565b611ab38484846113a7565b611abf84848484611dc6565b611afe576040517f08c379a0000000000000000000000000000000000000000000000000000000008152600401611af590612e07565b60405180910390fd5b50505050565b6060600082511415611b2757604051806020016040528060008152509050611c9e565b6000604051806060016040528060408152602001613b266040913990506000600360028551611b569190613176565b611b609190613203565b6004611b6c9190613234565b90506000602082611b7d9190613176565b67ffffffffffffffff811115611bbc577f4e487b7100000000000000000000000000000000000000000000000000000000600052604160045260246000fd5b6040519080825280601f01601f191660200182016040528015611bee5781602001600182028036833780820191505090505b509050818152600183018586518101602084015b81831015611c5d576003830192508251603f8160121c168501518253600182019150603f81600c1c168501518253600182019150603f8160061c168501518253600182019150603f8116850151825360018201915050611c02565b600389510660018114611c775760028114611c8757611c92565b613d3d60f01b6002830352611c92565b603d60f81b60018303525b50505050508093505050505b919050565b606060405180602001604052806000815250905090565b6060611cc58261119c565b611d04576040517f08c379a0000000000000000000000000000000000000000000000000000000008152600401611cfb90612fe7565b60405180910390fd5b6000611d0e611ca3565b90506000815111611d2e5760405180602001604052806000815250611d59565b80611d3884611f5d565b604051602001611d49929190612cb6565b6040516020818303038152906040525b915050919050565b505050565b505050565b611d75838361210a565b611d826000848484611dc6565b611dc1576040517f08c379a0000000000000000000000000000000000000000000000000000000008152600401611db890612e07565b60405180910390fd5b505050565b6000611de78473ffffffffffffffffffffffffffffffffffffffff166122e4565b15611f50578373ffffffffffffffffffffffffffffffffffffffff1663150b7a02611e10611208565b8786866040518563ffffffff1660e01b8152600401611e329493929190612d5c565b602060405180830381600087803b158015611e4c57600080fd5b505af1925050508015611e7d57506040513d601f19601f82011682018060405250810190611e7a91906126b3565b60015b611f00573d8060008114611ead576040519150601f19603f3d011682016040523d82523d6000602084013e611eb2565b606091505b50600081511415611ef8576040517f08c379a0000000000000000000000000000000000000000000000000000000008152600401611eef90612e07565b60405180910390fd5b805181602001fd5b63150b7a0260e01b7bffffffffffffffffffffffffffffffffffffffffffffffffffffffff1916817bffffffffffffffffffffffffffffffffffffffffffffffffffffffff191614915050611f55565b600190505b949350505050565b60606000821415611fa5576040518060400160405280600181526020017f30000000000000000000000000000000000000000000000000000000000000008152509050612105565b600082905060005b60008214611fd7578080611fc0906133e8565b915050600a82611fd09190613203565b9150611fad565b60008167ffffffffffffffff811115612019577f4e487b7100000000000000000000000000000000000000000000000000000000600052604160045260246000fd5b6040519080825280601f01601f19166020018201604052801561204b5781602001600182028036833780820191505090505b5090505b600085146120fe57600182612064919061328e565b9150600a856120739190613431565b603061207f9190613176565b60f81b8183815181106120bb577f4e487b7100000000000000000000000000000000000000000000000000000000600052603260045260246000fd5b60200101907effffffffffffffffffffffffffffffffffffffffffffffffffffffffffffff1916908160001a905350600a856120f79190613203565b945061204f565b8093505050505b919050565b600073ffffffffffffffffffffffffffffffffffffffff168273ffffffffffffffffffffffffffffffffffffffff16141561217a576040517f08c379a000000000000000000000000000000000000000000000000000000000815260040161217190612f67565b60405180910390fd5b6121838161119c565b156121c3576040517f08c379a00000000000000000000000000000000000000000000000000000000081526004016121ba90612e67565b60405180910390fd5b6121cf60008383611d61565b6001600360008473ffffffffffffffffffffffffffffffffffffffff1673ffffffffffffffffffffffffffffffffffffffff168152602001908152602001600020600082825461221f9190613176565b92505081905550816002600083815260200190815260200160002060006101000a81548173ffffffffffffffffffffffffffffffffffffffff021916908373ffffffffffffffffffffffffffffffffffffffff160217905550808273ffffffffffffffffffffffffffffffffffffffff16600073ffffffffffffffffffffffffffffffffffffffff167fddf252ad1be2c89b69c2b068fc378daa952ba7f163c4a11628f55a4df523b3ef60405160405180910390a46122e060008383611d66565b5050565b6000808273ffffffffffffffffffffffffffffffffffffffff163b119050919050565b82805461231390613385565b90600052602060002090601f016020900481019282612335576000855561237c565b82601f1061234e57805160ff191683800117855561237c565b8280016001018555821561237c579182015b8281111561237b578251825591602001919060010190612360565b5b509050612389919061238d565b5090565b5b808211156123a657600081600090555060010161238e565b5090565b60006123bd6123b884613087565b613062565b9050828152602081018484840111156123d557600080fd5b6123e0848285613343565b509392505050565b60006123fb6123f6846130b8565b613062565b90508281526020810184848401111561241357600080fd5b61241e848285613343565b509392505050565b60008135905061243581613ac9565b92915050565b60008135905061244a81613ae0565b92915050565b60008135905061245f81613af7565b92915050565b60008151905061247481613af7565b92915050565b600082601f83011261248b57600080fd5b813561249b8482602086016123aa565b91505092915050565b600082601f8301126124b557600080fd5b81356124c58482602086016123e8565b91505092915050565b6000813590506124dd81613b0e565b92915050565b6000602082840312156124f557600080fd5b600061250384828501612426565b91505092915050565b6000806040838503121561251f57600080fd5b600061252d85828601612426565b925050602061253e85828601612426565b9150509250929050565b60008060006060848603121561255d57600080fd5b600061256b86828701612426565b935050602061257c86828701612426565b925050604061258d868287016124ce565b9150509250925092565b600080600080608085870312156125ad57600080fd5b60006125bb87828801612426565b94505060206125cc87828801612426565b93505060406125dd878288016124ce565b925050606085013567ffffffffffffffff8111156125fa57600080fd5b6126068782880161247a565b91505092959194509250565b6000806040838503121561262557600080fd5b600061263385828601612426565b92505060206126448582860161243b565b9150509250929050565b6000806040838503121561266157600080fd5b600061266f85828601612426565b9250506020612680858286016124ce565b9150509250929050565b60006020828403121561269c57600080fd5b60006126aa84828501612450565b91505092915050565b6000602082840312156126c557600080fd5b60006126d384828501612465565b91505092915050565b6000602082840312156126ee57600080fd5b600082013567ffffffffffffffff81111561270857600080fd5b612714848285016124a4565b91505092915050565b6000806040838503121561273057600080fd5b600083013567ffffffffffffffff81111561274a57600080fd5b612756858286016124a4565b9250506020612767858286016124ce565b9150509250929050565b60006020828403121561278357600080fd5b6000612791848285016124ce565b91505092915050565b60006127a68383612c2e565b905092915050565b6127b7816132c2565b82525050565b6127c6816132c2565b82525050565b60006127d7826130f9565b6127e18185613127565b9350836020820285016127f3856130e9565b8060005b8581101561282f5784840389528151612810858261279a565b945061281b8361311a565b925060208a019950506001810190506127f7565b50829750879550505050505092915050565b61284a816132d4565b82525050565b600061285b82613104565b6128658185613138565b9350612875818560208601613352565b61287e8161351e565b840191505092915050565b60006128948261310f565b61289e8185613149565b93506128ae818560208601613352565b6128b78161351e565b840191505092915050565b60006128cd8261310f565b6128d7818561315a565b93506128e7818560208601613352565b6128f08161351e565b840191505092915050565b60006129068261310f565b612910818561316b565b9350612920818560208601613352565b80840191505092915050565b600061293960098361316b565b91506129448261352f565b600982019050919050565b600061295c60328361315a565b915061296782613558565b604082019050919050565b600061297f60268361315a565b915061298a826135a7565b604082019050919050565b60006129a260258361315a565b91506129ad826135f6565b604082019050919050565b60006129c5601c8361315a565b91506129d082613645565b602082019050919050565b60006129e860248361315a565b91506129f38261366e565b604082019050919050565b6000612a0b60198361315a565b9150612a16826136bd565b602082019050919050565b6000612a2e602c8361315a565b9150612a39826136e6565b604082019050919050565b6000612a5160388361315a565b9150612a5c82613735565b604082019050919050565b6000612a74602a8361315a565b9150612a7f82613784565b604082019050919050565b6000612a9760298361315a565b9150612aa2826137d3565b604082019050919050565b6000612aba600c8361316b565b9150612ac582613822565b600c82019050919050565b6000612add602e8361315a565b9150612ae88261384b565b604082019050919050565b6000612b0060028361316b565b9150612b0b8261389a565b600282019050919050565b6000612b2360208361315a565b9150612b2e826138c3565b602082019050919050565b6000612b4660318361315a565b9150612b51826138ec565b604082019050919050565b6000612b69602c8361315a565b9150612b748261393b565b604082019050919050565b6000612b8c60208361315a565b9150612b978261398a565b602082019050919050565b6000612baf602f8361315a565b9150612bba826139b3565b604082019050919050565b6000612bd260218361315a565b9150612bdd82613a02565b604082019050919050565b6000612bf5601d8361316b565b9150612c0082613a51565b601d82019050919050565b6000612c1860318361315a565b9150612c2382613a7a565b604082019050919050565b6000608083016000830151612c4660008601826127ae565b5060208301518482036020860152612c5e8282612889565b91505060408301518482036040860152612c788282612889565b9150506060830151612c8d6060860182612c98565b508091505092915050565b612ca18161332c565b82525050565b612cb08161332c565b82525050565b6000612cc282856128fb565b9150612cce82846128fb565b91508190509392505050565b6000612ce58261292c565b9150612cf182856128fb565b9150612cfc82612aad565b9150612d0882846128fb565b9150612d1382612af3565b91508190509392505050565b6000612d2a82612be8565b9150612d3682846128fb565b915081905092915050565b6000602082019050612d5660008301846127bd565b92915050565b6000608082019050612d7160008301876127bd565b612d7e60208301866127bd565b612d8b6040830185612ca7565b8181036060830152612d9d8184612850565b905095945050505050565b60006020820190508181036000830152612dc281846127cc565b905092915050565b6000602082019050612ddf6000830184612841565b92915050565b60006020820190508181036000830152612dff81846128c2565b905092915050565b60006020820190508181036000830152612e208161294f565b9050919050565b60006020820190508181036000830152612e4081612972565b9050919050565b60006020820190508181036000830152612e6081612995565b9050919050565b60006020820190508181036000830152612e80816129b8565b9050919050565b60006020820190508181036000830152612ea0816129db565b9050919050565b60006020820190508181036000830152612ec0816129fe565b9050919050565b60006020820190508181036000830152612ee081612a21565b9050919050565b60006020820190508181036000830152612f0081612a44565b9050919050565b60006020820190508181036000830152612f2081612a67565b9050919050565b60006020820190508181036000830152612f4081612a8a565b9050919050565b60006020820190508181036000830152612f6081612ad0565b9050919050565b60006020820190508181036000830152612f8081612b16565b9050919050565b60006020820190508181036000830152612fa081612b39565b9050919050565b60006020820190508181036000830152612fc081612b5c565b9050919050565b60006020820190508181036000830152612fe081612b7f565b9050919050565b6000602082019050818103600083015261300081612ba2565b9050919050565b6000602082019050818103600083015261302081612bc5565b9050919050565b6000602082019050818103600083015261304081612c0b565b9050919050565b600060208201905061305c6000830184612ca7565b92915050565b600061306c61307d565b905061307882826133b7565b919050565b6000604051905090565b600067ffffffffffffffff8211156130a2576130a16134ef565b5b6130ab8261351e565b9050602081019050919050565b600067ffffffffffffffff8211156130d3576130d26134ef565b5b6130dc8261351e565b9050602081019050919050565b6000819050602082019050919050565b600081519050919050565b600081519050919050565b600081519050919050565b6000602082019050919050565b600082825260208201905092915050565b600082825260208201905092915050565b600082825260208201905092915050565b600082825260208201905092915050565b600081905092915050565b60006131818261332c565b915061318c8361332c565b9250827fffffffffffffffffffffffffffffffffffffffffffffffffffffffffffffffff038211156131c1576131c0613462565b5b828201905092915050565b60006131d782613336565b91506131e283613336565b92508260ff038211156131f8576131f7613462565b5b828201905092915050565b600061320e8261332c565b91506132198361332c565b92508261322957613228613491565b5b828204905092915050565b600061323f8261332c565b915061324a8361332c565b9250817fffffffffffffffffffffffffffffffffffffffffffffffffffffffffffffffff048311821515161561328357613282613462565b5b828202905092915050565b60006132998261332c565b91506132a48361332c565b9250828210156132b7576132b6613462565b5b828203905092915050565b60006132cd8261330c565b9050919050565b60008115159050919050565b60007fffffffff0000000000000000000000000000000000000000000000000000000082169050919050565b600073ffffffffffffffffffffffffffffffffffffffff82169050919050565b6000819050919050565b600060ff82169050919050565b82818337600083830152505050565b60005b83811015613370578082015181840152602081019050613355565b8381111561337f576000848401525b50505050565b6000600282049050600182168061339d57607f821691505b602082108114156133b1576133b06134c0565b5b50919050565b6133c08261351e565b810181811067ffffffffffffffff821117156133df576133de6134ef565b5b80604052505050565b60006133f38261332c565b91507fffffffffffffffffffffffffffffffffffffffffffffffffffffffffffffffff82141561342657613425613462565b5b600182019050919050565b600061343c8261332c565b91506134478361332c565b92508261345757613456613491565b5b828206905092915050565b7f4e487b7100000000000000000000000000000000000000000000000000000000600052601160045260246000fd5b7f4e487b7100000000000000000000000000000000000000000000000000000000600052601260045260246000fd5b7f4e487b7100000000000000000000000000000000000000000000000000000000600052602260045260246000fd5b7f4e487b7100000000000000000000000000000000000000000000000000000000600052604160045260246000fd5b6000601f19601f8301169050919050565b7f7b226e616d65223a220000000000000000000000000000000000000000000000600082015250565b7f4552433732313a207472616e7366657220746f206e6f6e20455243373231526560008201527f63656976657220696d706c656d656e7465720000000000000000000000000000602082015250565b7f4f776e61626c653a206e6577206f776e657220697320746865207a65726f206160008201527f6464726573730000000000000000000000000000000000000000000000000000602082015250565b7f4552433732313a207472616e736665722066726f6d20696e636f72726563742060008201527f6f776e6572000000000000000000000000000000000000000000000000000000602082015250565b7f4552433732313a20746f6b656e20616c7265616479206d696e74656400000000600082015250565b7f4552433732313a207472616e7366657220746f20746865207a65726f2061646460008201527f7265737300000000000000000000000000000000000000000000000000000000602082015250565b7f4552433732313a20617070726f766520746f2063616c6c657200000000000000600082015250565b7f4552433732313a206f70657261746f7220717565727920666f72206e6f6e657860008201527f697374656e7420746f6b656e0000000000000000000000000000000000000000602082015250565b7f4552433732313a20617070726f76652063616c6c6572206973206e6f74206f7760008201527f6e6572206e6f7220617070726f76656420666f7220616c6c0000000000000000602082015250565b7f4552433732313a2062616c616e636520717565727920666f7220746865207a6560008201527f726f206164647265737300000000000000000000000000000000000000000000602082015250565b7f4552433732313a206f776e657220717565727920666f72206e6f6e657869737460008201527f656e7420746f6b656e0000000000000000000000000000000000000000000000602082015250565b7f222c2022696d616765223a220000000000000000000000000000000000000000600082015250565b7f45524337323155524953746f726167653a2055524920736574206f66206e6f6e60008201527f6578697374656e7420746f6b656e000000000000000000000000000000000000602082015250565b7f227d000000000000000000000000000000000000000000000000000000000000600082015250565b7f4552433732313a206d696e7420746f20746865207a65726f2061646472657373600082015250565b7f45524337323155524953746f726167653a2055524920717565727920666f722060008201527f6e6f6e6578697374656e7420746f6b656e000000000000000000000000000000602082015250565b7f4552433732313a20617070726f76656420717565727920666f72206e6f6e657860008201527f697374656e7420746f6b656e0000000000000000000000000000000000000000602082015250565b7f4f776e61626c653a2063616c6c6572206973206e6f7420746865206f776e6572600082015250565b7f4552433732314d657461646174613a2055524920717565727920666f72206e6f60008201527f6e6578697374656e7420746f6b656e0000000000000000000000000000000000602082015250565b7f4552433732313a20617070726f76616c20746f2063757272656e74206f776e6560008201527f7200000000000000000000000000000000000000000000000000000000000000602082015250565b7f646174613a6170706c69636174696f6e2f6a736f6e3b6261736536342c000000600082015250565b7f4552433732313a207472616e736665722063616c6c6572206973206e6f74206f60008201527f776e6572206e6f7220617070726f766564000000000000000000000000000000602082015250565b613ad2816132c2565b8114613add57600080fd5b50565b613ae9816132d4565b8114613af457600080fd5b50565b613b00816132e0565b8114613b0b57600080fd5b50565b613b178161332c565b8114613b2257600080fd5b5056fe4142434445464748494a4b4c4d4e4f505152535455565758595a6162636465666768696a6b6c6d6e6f707172737475767778797a303132333435363738392b2fa26469706673582212202787886d8f754c13779e2919b09b795db081f13c8ee8926a691f1c9e9612a36c64736f6c63430008040033",
  "linkReferences": {},
  "deployedLinkReferences": {}
}