{
  "_format": "hh-sol-artifact-1",
  "contractName": "vjkNFT",
  "sourceName": "contracts/vjkNFT.sol",
  "abi": [
    {
      "inputs": [],
      "stateMutability": "payable",
      "type": "constructor"
    },
    {
      "anonymous": false,
      "inputs": [
        {
          "indexed": true,
          "internalType": "address",
          "name": "owner",
          "type": "address"
        },
        {
          "indexed": true,
          "internalType": "address",
          "name": "approved",
          "type": "address"
        },
        {
          "indexed": true,
          "internalType": "uint256",
          "name": "tokenId",
          "type": "uint256"
        }
      ],
      "name": "Approval",
      "type": "event"
    },
    {
      "anonymous": false,
      "inputs": [
        {
          "indexed": true,
          "internalType": "address",
          "name": "owner",
          "type": "address"
        },
        {
          "indexed": true,
          "internalType": "address",
          "name": "operator",
          "type": "address"
        },
        {
          "indexed": false,
          "internalType": "bool",
          "name": "approved",
          "type": "bool"
        }
      ],
      "name": "ApprovalForAll",
      "type": "event"
    },
    {
      "anonymous": false,
      "inputs": [
        {
          "indexed": true,
          "internalType": "address",
          "name": "previousOwner",
          "type": "address"
        },
        {
          "indexed": true,
          "internalType": "address",
          "name": "newOwner",
          "type": "address"
        }
      ],
      "name": "OwnershipTransferred",
      "type": "event"
    },
    {
      "anonymous": false,
      "inputs": [
        {
          "indexed": false,
          "internalType": "address",
          "name": "account",
          "type": "address"
        }
      ],
      "name": "Paused",
      "type": "event"
    },
    {
      "anonymous": false,
      "inputs": [
        {
          "indexed": true,
          "internalType": "address",
          "name": "from",
          "type": "address"
        },
        {
          "indexed": true,
          "internalType": "address",
          "name": "to",
          "type": "address"
        },
        {
          "indexed": true,
          "internalType": "uint256",
          "name": "tokenId",
          "type": "uint256"
        }
      ],
      "name": "Transfer",
      "type": "event"
    },
    {
      "anonymous": false,
      "inputs": [
        {
          "indexed": false,
          "internalType": "address",
          "name": "account",
          "type": "address"
        }
      ],
      "name": "Unpaused",
      "type": "event"
    },
    {
      "inputs": [
        {
          "internalType": "address",
          "name": "to",
          "type": "address"
        },
        {
          "internalType": "uint256",
          "name": "tokenId",
          "type": "uint256"
        }
      ],
      "name": "approve",
      "outputs": [],
      "stateMutability": "nonpayable",
      "type": "function"
    },
    {
      "inputs": [
        {
          "internalType": "address",
          "name": "owner",
          "type": "address"
        }
      ],
      "name": "balanceOf",
      "outputs": [
        {
          "internalType": "uint256",
          "name": "",
          "type": "uint256"
        }
      ],
      "stateMutability": "view",
      "type": "function"
    },
    {
      "inputs": [],
      "name": "getAllCollections",
      "outputs": [
        {
          "components": [
            {
              "internalType": "address",
              "name": "sender",
              "type": "address"
            },
            {
              "internalType": "string",
              "name": "tokenId",
              "type": "string"
            },
            {
              "internalType": "string",
              "name": "uri",
              "type": "string"
            }
          ],
          "internalType": "struct vjkNFT.CollectionStruct[]",
          "name": "",
          "type": "tuple[]"
        }
      ],
      "stateMutability": "view",
      "type": "function"
    },
    {
      "inputs": [
        {
          "internalType": "uint256",
          "name": "tokenId",
          "type": "uint256"
        }
      ],
      "name": "getApproved",
      "outputs": [
        {
          "internalType": "address",
          "name": "",
          "type": "address"
        }
      ],
      "stateMutability": "view",
      "type": "function"
    },
    {
      "inputs": [
        {
          "internalType": "address",
          "name": "owner",
          "type": "address"
        },
        {
          "internalType": "address",
          "name": "operator",
          "type": "address"
        }
      ],
      "name": "isApprovedForAll",
      "outputs": [
        {
          "internalType": "bool",
          "name": "",
          "type": "bool"
        }
      ],
      "stateMutability": "view",
      "type": "function"
    },
    {
      "inputs": [],
      "name": "maxSupply",
      "outputs": [
        {
          "internalType": "uint256",
          "name": "",
          "type": "uint256"
        }
      ],
      "stateMutability": "view",
      "type": "function"
    },
    {
      "inputs": [],
      "name": "mintPrice",
      "outputs": [
        {
          "internalType": "uint256",
          "name": "",
          "type": "uint256"
        }
      ],
      "stateMutability": "view",
      "type": "function"
    },
    {
      "inputs": [
        {
          "internalType": "address",
          "name": "",
          "type": "address"
        }
      ],
      "name": "mintedWallets",
      "outputs": [
        {
          "internalType": "uint256",
          "name": "",
          "type": "uint256"
        }
      ],
      "stateMutability": "view",
      "type": "function"
    },
    {
      "inputs": [],
      "name": "name",
      "outputs": [
        {
          "internalType": "string",
          "name": "",
          "type": "string"
        }
      ],
      "stateMutability": "view",
      "type": "function"
    },
    {
      "inputs": [],
      "name": "owner",
      "outputs": [
        {
          "internalType": "address",
          "name": "",
          "type": "address"
        }
      ],
      "stateMutability": "view",
      "type": "function"
    },
    {
      "inputs": [
        {
          "internalType": "uint256",
          "name": "tokenId",
          "type": "uint256"
        }
      ],
      "name": "ownerOf",
      "outputs": [
        {
          "internalType": "address",
          "name": "",
          "type": "address"
        }
      ],
      "stateMutability": "view",
      "type": "function"
    },
    {
      "inputs": [],
      "name": "pause",
      "outputs": [],
      "stateMutability": "nonpayable",
      "type": "function"
    },
    {
      "inputs": [],
      "name": "paused",
      "outputs": [
        {
          "internalType": "bool",
          "name": "",
          "type": "bool"
        }
      ],
      "stateMutability": "view",
      "type": "function"
    },
    {
      "inputs": [],
      "name": "renounceOwnership",
      "outputs": [],
      "stateMutability": "nonpayable",
      "type": "function"
    },
    {
      "inputs": [
        {
          "internalType": "string",
          "name": "uri",
          "type": "string"
        }
      ],
      "name": "safeMint",
      "outputs": [],
      "stateMutability": "payable",
      "type": "function"
    },
    {
      "inputs": [
        {
          "internalType": "address",
          "name": "from",
          "type": "address"
        },
        {
          "internalType": "address",
          "name": "to",
          "type": "address"
        },
        {
          "internalType": "uint256",
          "name": "tokenId",
          "type": "uint256"
        }
      ],
      "name": "safeTransferFrom",
      "outputs": [],
      "stateMutability": "nonpayable",
      "type": "function"
    },
    {
      "inputs": [
        {
          "internalType": "address",
          "name": "from",
          "type": "address"
        },
        {
          "internalType": "address",
          "name": "to",
          "type": "address"
        },
        {
          "internalType": "uint256",
          "name": "tokenId",
          "type": "uint256"
        },
        {
          "internalType": "bytes",
          "name": "_data",
          "type": "bytes"
        }
      ],
      "name": "safeTransferFrom",
      "outputs": [],
      "stateMutability": "nonpayable",
      "type": "function"
    },
    {
      "inputs": [
        {
          "internalType": "address",
          "name": "operator",
          "type": "address"
        },
        {
          "internalType": "bool",
          "name": "approved",
          "type": "bool"
        }
      ],
      "name": "setApprovalForAll",
      "outputs": [],
      "stateMutability": "nonpayable",
      "type": "function"
    },
    {
      "inputs": [
        {
          "internalType": "uint256",
          "name": "_maxSupply",
          "type": "uint256"
        }
      ],
      "name": "setMaxSupply",
      "outputs": [],
      "stateMutability": "nonpayable",
      "type": "function"
    },
    {
      "inputs": [
        {
          "internalType": "bytes4",
          "name": "interfaceId",
          "type": "bytes4"
        }
      ],
      "name": "supportsInterface",
      "outputs": [
        {
          "internalType": "bool",
          "name": "",
          "type": "bool"
        }
      ],
      "stateMutability": "view",
      "type": "function"
    },
    {
      "inputs": [],
      "name": "symbol",
      "outputs": [
        {
          "internalType": "string",
          "name": "",
          "type": "string"
        }
      ],
      "stateMutability": "view",
      "type": "function"
    },
    {
      "inputs": [
        {
          "internalType": "uint256",
          "name": "tokenId",
          "type": "uint256"
        }
      ],
      "name": "tokenURI",
      "outputs": [
        {
          "internalType": "string",
          "name": "",
          "type": "string"
        }
      ],
      "stateMutability": "view",
      "type": "function"
    },
    {
      "inputs": [
        {
          "internalType": "address",
          "name": "from",
          "type": "address"
        },
        {
          "internalType": "address",
          "name": "to",
          "type": "address"
        },
        {
          "internalType": "uint256",
          "name": "tokenId",
          "type": "uint256"
        }
      ],
      "name": "transferFrom",
      "outputs": [],
      "stateMutability": "nonpayable",
      "type": "function"
    },
    {
      "inputs": [
        {
          "internalType": "address",
          "name": "newOwner",
          "type": "address"
        }
      ],
      "name": "transferOwnership",
      "outputs": [],
      "stateMutability": "nonpayable",
      "type": "function"
    },
    {
      "inputs": [],
      "name": "unpause",
      "outputs": [],
      "stateMutability": "nonpayable",
      "type": "function"
    }
  ],
  "bytecode": "0x608060405260006009556040518060400160405280600681526020017f766a6b4e465400000000000000000000000000000000000000000000000000008152506040518060400160405280600381526020017f564a4b000000000000000000000000000000000000000000000000000000000081525081600090805190602001906200008d929190620001c1565b508060019080519060200190620000a6929190620001c1565b5050506000600760006101000a81548160ff021916908315150217905550620000e4620000d8620000f360201b60201c565b620000fb60201b60201c565b612710600a81905550620002d6565b600033905090565b6000600760019054906101000a900473ffffffffffffffffffffffffffffffffffffffff16905081600760016101000a81548173ffffffffffffffffffffffffffffffffffffffff021916908373ffffffffffffffffffffffffffffffffffffffff1602179055508173ffffffffffffffffffffffffffffffffffffffff168173ffffffffffffffffffffffffffffffffffffffff167f8be0079c531659141344cd1fd0a4f28419497f9722a3daafe3b4186f6b6457e060405160405180910390a35050565b828054620001cf9062000271565b90600052602060002090601f016020900481019282620001f357600085556200023f565b82601f106200020e57805160ff19168380011785556200023f565b828001600101855582156200023f579182015b828111156200023e57825182559160200191906001019062000221565b5b5090506200024e919062000252565b5090565b5b808211156200026d57600081600090555060010162000253565b5090565b600060028204905060018216806200028a57607f821691505b60208210811415620002a157620002a0620002a7565b5b50919050565b7f4e487b7100000000000000000000000000000000000000000000000000000000600052602260045260246000fd5b613dc780620002e66000396000f3fe6080604052600436106101665760003560e01c80636f8b44b0116100d1578063a22cb4651161008a578063c87b56dd11610064578063c87b56dd146104f5578063d5abeb0114610532578063e985e9c51461055d578063f2fde38b1461059a57610166565b8063a22cb46514610466578063ada7c4ed1461048f578063b88d4fde146104cc57610166565b80636f8b44b01461037c57806370a08231146103a5578063715018a6146103e25780638456cb59146103f95780638da5cb5b1461041057806395d89b411461043b57610166565b806342842e0e1161012357806342842e0e146102795780635c975abb146102a25780636352211e146102cd5780636804a9581461030a5780636817c76c14610335578063695850fb1461036057610166565b806301ffc9a71461016b57806306fdde03146101a8578063081812fc146101d3578063095ea7b31461021057806323b872dd146102395780633f4ba83a14610262575b600080fd5b34801561017757600080fd5b50610192600480360381019061018d9190612985565b6105c3565b60405161019f919061300b565b60405180910390f35b3480156101b457600080fd5b506101bd6106a5565b6040516101ca9190613026565b60405180910390f35b3480156101df57600080fd5b506101fa60048036038101906101f59190612a18565b610737565b6040516102079190612f82565b60405180910390f35b34801561021c57600080fd5b5061023760048036038101906102329190612949565b6107bc565b005b34801561024557600080fd5b50610260600480360381019061025b9190612843565b6108d4565b005b34801561026e57600080fd5b50610277610934565b005b34801561028557600080fd5b506102a0600480360381019061029b9190612843565b6109ba565b005b3480156102ae57600080fd5b506102b76109da565b6040516102c4919061300b565b60405180910390f35b3480156102d957600080fd5b506102f460048036038101906102ef9190612a18565b6109f1565b6040516103019190612f82565b60405180910390f35b34801561031657600080fd5b5061031f610aa3565b60405161032c9190612fe9565b60405180910390f35b34801561034157600080fd5b5061034a610c7c565b6040516103579190613328565b60405180910390f35b61037a600480360381019061037591906129d7565b610c82565b005b34801561038857600080fd5b506103a3600480360381019061039e9190612a18565b610f2c565b005b3480156103b157600080fd5b506103cc60048036038101906103c791906127de565b610fb2565b6040516103d99190613328565b60405180910390f35b3480156103ee57600080fd5b506103f761106a565b005b34801561040557600080fd5b5061040e6110f2565b005b34801561041c57600080fd5b50610425611178565b6040516104329190612f82565b60405180910390f35b34801561044757600080fd5b506104506111a2565b60405161045d9190613026565b60405180910390f35b34801561047257600080fd5b5061048d6004803603810190610488919061290d565b611234565b005b34801561049b57600080fd5b506104b660048036038101906104b191906127de565b61124a565b6040516104c39190613328565b60405180910390f35b3480156104d857600080fd5b506104f360048036038101906104ee9190612892565b611262565b005b34801561050157600080fd5b5061051c60048036038101906105179190612a18565b6112c4565b6040516105299190613026565b60405180910390f35b34801561053e57600080fd5b506105476112d6565b6040516105549190613328565b60405180910390f35b34801561056957600080fd5b50610584600480360381019061057f9190612807565b6112dc565b604051610591919061300b565b60405180910390f35b3480156105a657600080fd5b506105c160048036038101906105bc91906127de565b611370565b005b60007f80ac58cd000000000000000000000000000000000000000000000000000000007bffffffffffffffffffffffffffffffffffffffffffffffffffffffff1916827bffffffffffffffffffffffffffffffffffffffffffffffffffffffff1916148061068e57507f5b5e139f000000000000000000000000000000000000000000000000000000007bffffffffffffffffffffffffffffffffffffffffffffffffffffffff1916827bffffffffffffffffffffffffffffffffffffffffffffffffffffffff1916145b8061069e575061069d82611468565b5b9050919050565b6060600080546106b4906135c8565b80601f01602080910402602001604051908101604052809291908181526020018280546106e0906135c8565b801561072d5780601f106107025761010080835404028352916020019161072d565b820191906000526020600020905b81548152906001019060200180831161071057829003601f168201915b5050505050905090565b6000610742826114d2565b610781576040517f08c379a000000000000000000000000000000000000000000000000000000000815260040161077890613288565b60405180910390fd5b6004600083815260200190815260200160002060009054906101000a900473ffffffffffffffffffffffffffffffffffffffff169050919050565b60006107c7826109f1565b90508073ffffffffffffffffffffffffffffffffffffffff168373ffffffffffffffffffffffffffffffffffffffff161415610838576040517f08c379a000000000000000000000000000000000000000000000000000000000815260040161082f906132e8565b60405180910390fd5b8073ffffffffffffffffffffffffffffffffffffffff1661085761153e565b73ffffffffffffffffffffffffffffffffffffffff16148061088657506108858161088061153e565b6112dc565b5b6108c5576040517f08c379a00000000000000000000000000000000000000000000000000000000081526004016108bc90613188565b60405180910390fd5b6108cf8383611546565b505050565b6108e56108df61153e565b826115ff565b610924576040517f08c379a000000000000000000000000000000000000000000000000000000000815260040161091b90613308565b60405180910390fd5b61092f8383836116dd565b505050565b61093c61153e565b73ffffffffffffffffffffffffffffffffffffffff1661095a611178565b73ffffffffffffffffffffffffffffffffffffffff16146109b0576040517f08c379a00000000000000000000000000000000000000000000000000000000081526004016109a7906132a8565b60405180910390fd5b6109b8611944565b565b6109d583838360405180602001604052806000815250611262565b505050565b6000600760009054906101000a900460ff16905090565b6000806002600084815260200190815260200160002060009054906101000a900473ffffffffffffffffffffffffffffffffffffffff169050600073ffffffffffffffffffffffffffffffffffffffff168173ffffffffffffffffffffffffffffffffffffffff161415610a9a576040517f08c379a0000000000000000000000000000000000000000000000000000000008152600401610a91906131c8565b60405180910390fd5b80915050919050565b6060600c805480602002602001604051908101604052809291908181526020016000905b82821015610c7357838290600052602060002090600302016040518060600160405290816000820160009054906101000a900473ffffffffffffffffffffffffffffffffffffffff1673ffffffffffffffffffffffffffffffffffffffff1673ffffffffffffffffffffffffffffffffffffffff168152602001600182018054610b50906135c8565b80601f0160208091040260200160405190810160405280929190818152602001828054610b7c906135c8565b8015610bc95780601f10610b9e57610100808354040283529160200191610bc9565b820191906000526020600020905b815481529060010190602001808311610bac57829003601f168201915b50505050508152602001600282018054610be2906135c8565b80601f0160208091040260200160405190810160405280929190818152602001828054610c0e906135c8565b8015610c5b5780601f10610c3057610100808354040283529160200191610c5b565b820191906000526020600020905b815481529060010190602001808311610c3e57829003601f168201915b50505050508152505081526020019060010190610ac7565b50505050905090565b60095481565b6000610c8e60086119e6565b90506001600b60003373ffffffffffffffffffffffffffffffffffffffff1673ffffffffffffffffffffffffffffffffffffffff1681526020019081526020016000205410610d12576040517f08c379a0000000000000000000000000000000000000000000000000000000008152600401610d0990613228565b60405180910390fd5b6009543414610d56576040517f08c379a0000000000000000000000000000000000000000000000000000000008152600401610d4d90613208565b60405180910390fd5b80600a5411610d9a576040517f08c379a0000000000000000000000000000000000000000000000000000000008152600401610d9190613148565b60405180910390fd5b600b60003373ffffffffffffffffffffffffffffffffffffffff1673ffffffffffffffffffffffffffffffffffffffff1681526020019081526020016000206000815480929190610dea9061362b565b9190505550610df960086119f4565b610e033382611a0a565b6000610e0d611a28565b905060008184604051602001610e24929190612f5e565b6040516020818303038152906040529050610e3f8382611a65565b600c60405180606001604052803373ffffffffffffffffffffffffffffffffffffffff168152602001610e7186611ad9565b815260200186815250908060018154018082558091505060019003906000526020600020906003020160009091909190915060008201518160000160006101000a81548173ffffffffffffffffffffffffffffffffffffffff021916908373ffffffffffffffffffffffffffffffffffffffff1602179055506020820151816001019080519060200190610f06929190612602565b506040820151816002019080519060200190610f23929190612602565b50505050505050565b610f3461153e565b73ffffffffffffffffffffffffffffffffffffffff16610f52611178565b73ffffffffffffffffffffffffffffffffffffffff1614610fa8576040517f08c379a0000000000000000000000000000000000000000000000000000000008152600401610f9f906132a8565b60405180910390fd5b80600a8190555050565b60008073ffffffffffffffffffffffffffffffffffffffff168273ffffffffffffffffffffffffffffffffffffffff161415611023576040517f08c379a000000000000000000000000000000000000000000000000000000000815260040161101a906131a8565b60405180910390fd5b600360008373ffffffffffffffffffffffffffffffffffffffff1673ffffffffffffffffffffffffffffffffffffffff168152602001908152602001600020549050919050565b61107261153e565b73ffffffffffffffffffffffffffffffffffffffff16611090611178565b73ffffffffffffffffffffffffffffffffffffffff16146110e6576040517f08c379a00000000000000000000000000000000000000000000000000000000081526004016110dd906132a8565b60405180910390fd5b6110f06000611c86565b565b6110fa61153e565b73ffffffffffffffffffffffffffffffffffffffff16611118611178565b73ffffffffffffffffffffffffffffffffffffffff161461116e576040517f08c379a0000000000000000000000000000000000000000000000000000000008152600401611165906132a8565b60405180910390fd5b611176611d4c565b565b6000600760019054906101000a900473ffffffffffffffffffffffffffffffffffffffff16905090565b6060600180546111b1906135c8565b80601f01602080910402602001604051908101604052809291908181526020018280546111dd906135c8565b801561122a5780601f106111ff5761010080835404028352916020019161122a565b820191906000526020600020905b81548152906001019060200180831161120d57829003601f168201915b5050505050905090565b61124661123f61153e565b8383611def565b5050565b600b6020528060005260406000206000915090505481565b61127361126d61153e565b836115ff565b6112b2576040517f08c379a00000000000000000000000000000000000000000000000000000000081526004016112a990613308565b60405180910390fd5b6112be84848484611f5c565b50505050565b60606112cf82611fb8565b9050919050565b600a5481565b6000600560008473ffffffffffffffffffffffffffffffffffffffff1673ffffffffffffffffffffffffffffffffffffffff16815260200190815260200160002060008373ffffffffffffffffffffffffffffffffffffffff1673ffffffffffffffffffffffffffffffffffffffff16815260200190815260200160002060009054906101000a900460ff16905092915050565b61137861153e565b73ffffffffffffffffffffffffffffffffffffffff16611396611178565b73ffffffffffffffffffffffffffffffffffffffff16146113ec576040517f08c379a00000000000000000000000000000000000000000000000000000000081526004016113e3906132a8565b60405180910390fd5b600073ffffffffffffffffffffffffffffffffffffffff168173ffffffffffffffffffffffffffffffffffffffff16141561145c576040517f08c379a000000000000000000000000000000000000000000000000000000000815260040161145390613088565b60405180910390fd5b61146581611c86565b50565b60007f01ffc9a7000000000000000000000000000000000000000000000000000000007bffffffffffffffffffffffffffffffffffffffffffffffffffffffff1916827bffffffffffffffffffffffffffffffffffffffffffffffffffffffff1916149050919050565b60008073ffffffffffffffffffffffffffffffffffffffff166002600084815260200190815260200160002060009054906101000a900473ffffffffffffffffffffffffffffffffffffffff1673ffffffffffffffffffffffffffffffffffffffff1614159050919050565b600033905090565b816004600083815260200190815260200160002060006101000a81548173ffffffffffffffffffffffffffffffffffffffff021916908373ffffffffffffffffffffffffffffffffffffffff160217905550808273ffffffffffffffffffffffffffffffffffffffff166115b9836109f1565b73ffffffffffffffffffffffffffffffffffffffff167f8c5be1e5ebec7d5bd14f71427d1e84f3dd0314c0f7b2291e5b200ac8c7c3b92560405160405180910390a45050565b600061160a826114d2565b611649576040517f08c379a000000000000000000000000000000000000000000000000000000000815260040161164090613128565b60405180910390fd5b6000611654836109f1565b90508073ffffffffffffffffffffffffffffffffffffffff168473ffffffffffffffffffffffffffffffffffffffff1614806116c357508373ffffffffffffffffffffffffffffffffffffffff166116ab84610737565b73ffffffffffffffffffffffffffffffffffffffff16145b806116d457506116d381856112dc565b5b91505092915050565b8273ffffffffffffffffffffffffffffffffffffffff166116fd826109f1565b73ffffffffffffffffffffffffffffffffffffffff1614611753576040517f08c379a000000000000000000000000000000000000000000000000000000000815260040161174a906130a8565b60405180910390fd5b600073ffffffffffffffffffffffffffffffffffffffff168273ffffffffffffffffffffffffffffffffffffffff1614156117c3576040517f08c379a00000000000000000000000000000000000000000000000000000000081526004016117ba906130e8565b60405180910390fd5b6117ce83838361210a565b6117d9600082611546565b6001600360008573ffffffffffffffffffffffffffffffffffffffff1673ffffffffffffffffffffffffffffffffffffffff168152602001908152602001600020600082825461182991906134de565b925050819055506001600360008473ffffffffffffffffffffffffffffffffffffffff1673ffffffffffffffffffffffffffffffffffffffff16815260200190815260200160002060008282546118809190613457565b92505081905550816002600083815260200190815260200160002060006101000a81548173ffffffffffffffffffffffffffffffffffffffff021916908373ffffffffffffffffffffffffffffffffffffffff160217905550808273ffffffffffffffffffffffffffffffffffffffff168473ffffffffffffffffffffffffffffffffffffffff167fddf252ad1be2c89b69c2b068fc378daa952ba7f163c4a11628f55a4df523b3ef60405160405180910390a461193f838383612162565b505050565b61194c6109da565b61198b576040517f08c379a000000000000000000000000000000000000000000000000000000000815260040161198290613048565b60405180910390fd5b6000600760006101000a81548160ff0219169083151502179055507f5db9ee0a495bf2e6ff9c91a7834c1ba4fdd244a5e8aa4e537bd38aeae4b073aa6119cf61153e565b6040516119dc9190612f82565b60405180910390a1565b600081600001549050919050565b6001816000016000828254019250508190555050565b611a24828260405180602001604052806000815250612167565b5050565b60606040518060400160405280601d81526020017f646174613a6170706c69636174696f6e2f6a736f6e3b6261736536342c000000815250905090565b611a6e826114d2565b611aad576040517f08c379a0000000000000000000000000000000000000000000000000000000008152600401611aa4906131e8565b60405180910390fd5b80600660008481526020019081526020016000209080519060200190611ad4929190612602565b505050565b60606000821415611b21576040518060400160405280600181526020017f30000000000000000000000000000000000000000000000000000000000000008152509050611c81565b600082905060005b60008214611b53578080611b3c9061362b565b915050600a82611b4c91906134ad565b9150611b29565b60008167ffffffffffffffff811115611b95577f4e487b7100000000000000000000000000000000000000000000000000000000600052604160045260246000fd5b6040519080825280601f01601f191660200182016040528015611bc75781602001600182028036833780820191505090505b5090505b60008514611c7a57600182611be091906134de565b9150600a85611bef9190613674565b6030611bfb9190613457565b60f81b818381518110611c37577f4e487b7100000000000000000000000000000000000000000000000000000000600052603260045260246000fd5b60200101907effffffffffffffffffffffffffffffffffffffffffffffffffffffffffffff1916908160001a905350600a85611c7391906134ad565b9450611bcb565b8093505050505b919050565b6000600760019054906101000a900473ffffffffffffffffffffffffffffffffffffffff16905081600760016101000a81548173ffffffffffffffffffffffffffffffffffffffff021916908373ffffffffffffffffffffffffffffffffffffffff1602179055508173ffffffffffffffffffffffffffffffffffffffff168173ffffffffffffffffffffffffffffffffffffffff167f8be0079c531659141344cd1fd0a4f28419497f9722a3daafe3b4186f6b6457e060405160405180910390a35050565b611d546109da565b15611d94576040517f08c379a0000000000000000000000000000000000000000000000000000000008152600401611d8b90613168565b60405180910390fd5b6001600760006101000a81548160ff0219169083151502179055507f62e78cea01bee320cd4e420270b5ea74000d11b0c9f74754ebdbfc544b05a258611dd861153e565b604051611de59190612f82565b60405180910390a1565b8173ffffffffffffffffffffffffffffffffffffffff168373ffffffffffffffffffffffffffffffffffffffff161415611e5e576040517f08c379a0000000000000000000000000000000000000000000000000000000008152600401611e5590613108565b60405180910390fd5b80600560008573ffffffffffffffffffffffffffffffffffffffff1673ffffffffffffffffffffffffffffffffffffffff16815260200190815260200160002060008473ffffffffffffffffffffffffffffffffffffffff1673ffffffffffffffffffffffffffffffffffffffff16815260200190815260200160002060006101000a81548160ff0219169083151502179055508173ffffffffffffffffffffffffffffffffffffffff168373ffffffffffffffffffffffffffffffffffffffff167f17307eab39ab6107e8899845ad3d59bd9653f200f220920489ca2b5937696c3183604051611f4f919061300b565b60405180910390a3505050565b611f678484846116dd565b611f73848484846121c2565b611fb2576040517f08c379a0000000000000000000000000000000000000000000000000000000008152600401611fa990613068565b60405180910390fd5b50505050565b6060611fc3826114d2565b612002576040517f08c379a0000000000000000000000000000000000000000000000000000000008152600401611ff990613268565b60405180910390fd5b6000600660008481526020019081526020016000208054612022906135c8565b80601f016020809104026020016040519081016040528092919081815260200182805461204e906135c8565b801561209b5780601f106120705761010080835404028352916020019161209b565b820191906000526020600020905b81548152906001019060200180831161207e57829003601f168201915b5050505050905060006120ac611a28565b90506000815114156120c2578192505050612105565b6000825111156120f75780826040516020016120df929190612f5e565b60405160208183030381529060405292505050612105565b61210084612359565b925050505b919050565b6121126109da565b15612152576040517f08c379a000000000000000000000000000000000000000000000000000000000815260040161214990613168565b60405180910390fd5b61215d838383612400565b505050565b505050565b6121718383612405565b61217e60008484846121c2565b6121bd576040517f08c379a00000000000000000000000000000000000000000000000000000000081526004016121b490613068565b60405180910390fd5b505050565b60006121e38473ffffffffffffffffffffffffffffffffffffffff166125df565b1561234c578373ffffffffffffffffffffffffffffffffffffffff1663150b7a0261220c61153e565b8786866040518563ffffffff1660e01b815260040161222e9493929190612f9d565b602060405180830381600087803b15801561224857600080fd5b505af192505050801561227957506040513d601f19601f8201168201806040525081019061227691906129ae565b60015b6122fc573d80600081146122a9576040519150601f19603f3d011682016040523d82523d6000602084013e6122ae565b606091505b506000815114156122f4576040517f08c379a00000000000000000000000000000000000000000000000000000000081526004016122eb90613068565b60405180910390fd5b805181602001fd5b63150b7a0260e01b7bffffffffffffffffffffffffffffffffffffffffffffffffffffffff1916817bffffffffffffffffffffffffffffffffffffffffffffffffffffffff191614915050612351565b600190505b949350505050565b6060612364826114d2565b6123a3576040517f08c379a000000000000000000000000000000000000000000000000000000000815260040161239a906132c8565b60405180910390fd5b60006123ad611a28565b905060008151116123cd57604051806020016040528060008152506123f8565b806123d784611ad9565b6040516020016123e8929190612f5e565b6040516020818303038152906040525b915050919050565b505050565b600073ffffffffffffffffffffffffffffffffffffffff168273ffffffffffffffffffffffffffffffffffffffff161415612475576040517f08c379a000000000000000000000000000000000000000000000000000000000815260040161246c90613248565b60405180910390fd5b61247e816114d2565b156124be576040517f08c379a00000000000000000000000000000000000000000000000000000000081526004016124b5906130c8565b60405180910390fd5b6124ca6000838361210a565b6001600360008473ffffffffffffffffffffffffffffffffffffffff1673ffffffffffffffffffffffffffffffffffffffff168152602001908152602001600020600082825461251a9190613457565b92505081905550816002600083815260200190815260200160002060006101000a81548173ffffffffffffffffffffffffffffffffffffffff021916908373ffffffffffffffffffffffffffffffffffffffff160217905550808273ffffffffffffffffffffffffffffffffffffffff16600073ffffffffffffffffffffffffffffffffffffffff167fddf252ad1be2c89b69c2b068fc378daa952ba7f163c4a11628f55a4df523b3ef60405160405180910390a46125db60008383612162565b5050565b6000808273ffffffffffffffffffffffffffffffffffffffff163b119050919050565b82805461260e906135c8565b90600052602060002090601f0160209004810192826126305760008555612677565b82601f1061264957805160ff1916838001178555612677565b82800160010185558215612677579182015b8281111561267657825182559160200191906001019061265b565b5b5090506126849190612688565b5090565b5b808211156126a1576000816000905550600101612689565b5090565b60006126b86126b384613368565b613343565b9050828152602081018484840111156126d057600080fd5b6126db848285613586565b509392505050565b60006126f66126f184613399565b613343565b90508281526020810184848401111561270e57600080fd5b612719848285613586565b509392505050565b60008135905061273081613d35565b92915050565b60008135905061274581613d4c565b92915050565b60008135905061275a81613d63565b92915050565b60008151905061276f81613d63565b92915050565b600082601f83011261278657600080fd5b81356127968482602086016126a5565b91505092915050565b600082601f8301126127b057600080fd5b81356127c08482602086016126e3565b91505092915050565b6000813590506127d881613d7a565b92915050565b6000602082840312156127f057600080fd5b60006127fe84828501612721565b91505092915050565b6000806040838503121561281a57600080fd5b600061282885828601612721565b925050602061283985828601612721565b9150509250929050565b60008060006060848603121561285857600080fd5b600061286686828701612721565b935050602061287786828701612721565b9250506040612888868287016127c9565b9150509250925092565b600080600080608085870312156128a857600080fd5b60006128b687828801612721565b94505060206128c787828801612721565b93505060406128d8878288016127c9565b925050606085013567ffffffffffffffff8111156128f557600080fd5b61290187828801612775565b91505092959194509250565b6000806040838503121561292057600080fd5b600061292e85828601612721565b925050602061293f85828601612736565b9150509250929050565b6000806040838503121561295c57600080fd5b600061296a85828601612721565b925050602061297b858286016127c9565b9150509250929050565b60006020828403121561299757600080fd5b60006129a58482850161274b565b91505092915050565b6000602082840312156129c057600080fd5b60006129ce84828501612760565b91505092915050565b6000602082840312156129e957600080fd5b600082013567ffffffffffffffff811115612a0357600080fd5b612a0f8482850161279f565b91505092915050565b600060208284031215612a2a57600080fd5b6000612a38848285016127c9565b91505092915050565b6000612a4d8383612ef8565b905092915050565b612a5e81613512565b82525050565b612a6d81613512565b82525050565b6000612a7e826133da565b612a888185613408565b935083602082028501612a9a856133ca565b8060005b85811015612ad65784840389528151612ab78582612a41565b9450612ac2836133fb565b925060208a01995050600181019050612a9e565b50829750879550505050505092915050565b612af181613524565b82525050565b6000612b02826133e5565b612b0c8185613419565b9350612b1c818560208601613595565b612b2581613761565b840191505092915050565b6000612b3b826133f0565b612b45818561342a565b9350612b55818560208601613595565b612b5e81613761565b840191505092915050565b6000612b74826133f0565b612b7e818561343b565b9350612b8e818560208601613595565b612b9781613761565b840191505092915050565b6000612bad826133f0565b612bb7818561344c565b9350612bc7818560208601613595565b80840191505092915050565b6000612be060148361343b565b9150612beb82613772565b602082019050919050565b6000612c0360328361343b565b9150612c0e8261379b565b604082019050919050565b6000612c2660268361343b565b9150612c31826137ea565b604082019050919050565b6000612c4960258361343b565b9150612c5482613839565b604082019050919050565b6000612c6c601c8361343b565b9150612c7782613888565b602082019050919050565b6000612c8f60248361343b565b9150612c9a826138b1565b604082019050919050565b6000612cb260198361343b565b9150612cbd82613900565b602082019050919050565b6000612cd5602c8361343b565b9150612ce082613929565b604082019050919050565b6000612cf860088361343b565b9150612d0382613978565b602082019050919050565b6000612d1b60108361343b565b9150612d26826139a1565b602082019050919050565b6000612d3e60388361343b565b9150612d49826139ca565b604082019050919050565b6000612d61602a8361343b565b9150612d6c82613a19565b604082019050919050565b6000612d8460298361343b565b9150612d8f82613a68565b604082019050919050565b6000612da7602e8361343b565b9150612db282613ab7565b604082019050919050565b6000612dca600b8361343b565b9150612dd582613b06565b602082019050919050565b6000612ded60168361343b565b9150612df882613b2f565b602082019050919050565b6000612e1060208361343b565b9150612e1b82613b58565b602082019050919050565b6000612e3360318361343b565b9150612e3e82613b81565b604082019050919050565b6000612e56602c8361343b565b9150612e6182613bd0565b604082019050919050565b6000612e7960208361343b565b9150612e8482613c1f565b602082019050919050565b6000612e9c602f8361343b565b9150612ea782613c48565b604082019050919050565b6000612ebf60218361343b565b9150612eca82613c97565b604082019050919050565b6000612ee260318361343b565b9150612eed82613ce6565b604082019050919050565b6000606083016000830151612f106000860182612a55565b5060208301518482036020860152612f288282612b30565b91505060408301518482036040860152612f428282612b30565b9150508091505092915050565b612f588161357c565b82525050565b6000612f6a8285612ba2565b9150612f768284612ba2565b91508190509392505050565b6000602082019050612f976000830184612a64565b92915050565b6000608082019050612fb26000830187612a64565b612fbf6020830186612a64565b612fcc6040830185612f4f565b8181036060830152612fde8184612af7565b905095945050505050565b600060208201905081810360008301526130038184612a73565b905092915050565b60006020820190506130206000830184612ae8565b92915050565b600060208201905081810360008301526130408184612b69565b905092915050565b6000602082019050818103600083015261306181612bd3565b9050919050565b6000602082019050818103600083015261308181612bf6565b9050919050565b600060208201905081810360008301526130a181612c19565b9050919050565b600060208201905081810360008301526130c181612c3c565b9050919050565b600060208201905081810360008301526130e181612c5f565b9050919050565b6000602082019050818103600083015261310181612c82565b9050919050565b6000602082019050818103600083015261312181612ca5565b9050919050565b6000602082019050818103600083015261314181612cc8565b9050919050565b6000602082019050818103600083015261316181612ceb565b9050919050565b6000602082019050818103600083015261318181612d0e565b9050919050565b600060208201905081810360008301526131a181612d31565b9050919050565b600060208201905081810360008301526131c181612d54565b9050919050565b600060208201905081810360008301526131e181612d77565b9050919050565b6000602082019050818103600083015261320181612d9a565b9050919050565b6000602082019050818103600083015261322181612dbd565b9050919050565b6000602082019050818103600083015261324181612de0565b9050919050565b6000602082019050818103600083015261326181612e03565b9050919050565b6000602082019050818103600083015261328181612e26565b9050919050565b600060208201905081810360008301526132a181612e49565b9050919050565b600060208201905081810360008301526132c181612e6c565b9050919050565b600060208201905081810360008301526132e181612e8f565b9050919050565b6000602082019050818103600083015261330181612eb2565b9050919050565b6000602082019050818103600083015261332181612ed5565b9050919050565b600060208201905061333d6000830184612f4f565b92915050565b600061334d61335e565b905061335982826135fa565b919050565b6000604051905090565b600067ffffffffffffffff82111561338357613382613732565b5b61338c82613761565b9050602081019050919050565b600067ffffffffffffffff8211156133b4576133b3613732565b5b6133bd82613761565b9050602081019050919050565b6000819050602082019050919050565b600081519050919050565b600081519050919050565b600081519050919050565b6000602082019050919050565b600082825260208201905092915050565b600082825260208201905092915050565b600082825260208201905092915050565b600082825260208201905092915050565b600081905092915050565b60006134628261357c565b915061346d8361357c565b9250827fffffffffffffffffffffffffffffffffffffffffffffffffffffffffffffffff038211156134a2576134a16136a5565b5b828201905092915050565b60006134b88261357c565b91506134c38361357c565b9250826134d3576134d26136d4565b5b828204905092915050565b60006134e98261357c565b91506134f48361357c565b925082821015613507576135066136a5565b5b828203905092915050565b600061351d8261355c565b9050919050565b60008115159050919050565b60007fffffffff0000000000000000000000000000000000000000000000000000000082169050919050565b600073ffffffffffffffffffffffffffffffffffffffff82169050919050565b6000819050919050565b82818337600083830152505050565b60005b838110156135b3578082015181840152602081019050613598565b838111156135c2576000848401525b50505050565b600060028204905060018216806135e057607f821691505b602082108114156135f4576135f3613703565b5b50919050565b61360382613761565b810181811067ffffffffffffffff8211171561362257613621613732565b5b80604052505050565b60006136368261357c565b91507fffffffffffffffffffffffffffffffffffffffffffffffffffffffffffffffff821415613669576136686136a5565b5b600182019050919050565b600061367f8261357c565b915061368a8361357c565b92508261369a576136996136d4565b5b828206905092915050565b7f4e487b7100000000000000000000000000000000000000000000000000000000600052601160045260246000fd5b7f4e487b7100000000000000000000000000000000000000000000000000000000600052601260045260246000fd5b7f4e487b7100000000000000000000000000000000000000000000000000000000600052602260045260246000fd5b7f4e487b7100000000000000000000000000000000000000000000000000000000600052604160045260246000fd5b6000601f19601f8301169050919050565b7f5061757361626c653a206e6f7420706175736564000000000000000000000000600082015250565b7f4552433732313a207472616e7366657220746f206e6f6e20455243373231526560008201527f63656976657220696d706c656d656e7465720000000000000000000000000000602082015250565b7f4f776e61626c653a206e6577206f776e657220697320746865207a65726f206160008201527f6464726573730000000000000000000000000000000000000000000000000000602082015250565b7f4552433732313a207472616e736665722066726f6d20696e636f72726563742060008201527f6f776e6572000000000000000000000000000000000000000000000000000000602082015250565b7f4552433732313a20746f6b656e20616c7265616479206d696e74656400000000600082015250565b7f4552433732313a207472616e7366657220746f20746865207a65726f2061646460008201527f7265737300000000000000000000000000000000000000000000000000000000602082015250565b7f4552433732313a20617070726f766520746f2063616c6c657200000000000000600082015250565b7f4552433732313a206f70657261746f7220717565727920666f72206e6f6e657860008201527f697374656e7420746f6b656e0000000000000000000000000000000000000000602082015250565b7f736f6c64206f7574000000000000000000000000000000000000000000000000600082015250565b7f5061757361626c653a2070617573656400000000000000000000000000000000600082015250565b7f4552433732313a20617070726f76652063616c6c6572206973206e6f74206f7760008201527f6e6572206e6f7220617070726f76656420666f7220616c6c0000000000000000602082015250565b7f4552433732313a2062616c616e636520717565727920666f7220746865207a6560008201527f726f206164647265737300000000000000000000000000000000000000000000602082015250565b7f4552433732313a206f776e657220717565727920666f72206e6f6e657869737460008201527f656e7420746f6b656e0000000000000000000000000000000000000000000000602082015250565b7f45524337323155524953746f726167653a2055524920736574206f66206e6f6e60008201527f6578697374656e7420746f6b656e000000000000000000000000000000000000602082015250565b7f77726f6e672076616c7565000000000000000000000000000000000000000000600082015250565b7f65786365656473206d6178207065722077616c6c657400000000000000000000600082015250565b7f4552433732313a206d696e7420746f20746865207a65726f2061646472657373600082015250565b7f45524337323155524953746f726167653a2055524920717565727920666f722060008201527f6e6f6e6578697374656e7420746f6b656e000000000000000000000000000000602082015250565b7f4552433732313a20617070726f76656420717565727920666f72206e6f6e657860008201527f697374656e7420746f6b656e0000000000000000000000000000000000000000602082015250565b7f4f776e61626c653a2063616c6c6572206973206e6f7420746865206f776e6572600082015250565b7f4552433732314d657461646174613a2055524920717565727920666f72206e6f60008201527f6e6578697374656e7420746f6b656e0000000000000000000000000000000000602082015250565b7f4552433732313a20617070726f76616c20746f2063757272656e74206f776e6560008201527f7200000000000000000000000000000000000000000000000000000000000000602082015250565b7f4552433732313a207472616e736665722063616c6c6572206973206e6f74206f60008201527f776e6572206e6f7220617070726f766564000000000000000000000000000000602082015250565b613d3e81613512565b8114613d4957600080fd5b50565b613d5581613524565b8114613d6057600080fd5b50565b613d6c81613530565b8114613d7757600080fd5b50565b613d838161357c565b8114613d8e57600080fd5b5056fea2646970667358221220dae74907d13b7c2b7df5ec7b2ef265d53362b7f689d2fea19104c151b9447ef464736f6c63430008040033",
  "linkReferences": {},
  "deployedLinkReferences": {}
}