{
  "_format": "hh-sol-artifact-1",
  "contractName": "vjkNFT",
  "sourceName": "contracts/vjkNFT.sol",
  "abi": [
    {
      "inputs": [],
      "stateMutability": "payable",
      "type": "constructor"
    },
    {
      "anonymous": false,
      "inputs": [
        {
          "indexed": true,
          "internalType": "address",
          "name": "owner",
          "type": "address"
        },
        {
          "indexed": true,
          "internalType": "address",
          "name": "approved",
          "type": "address"
        },
        {
          "indexed": true,
          "internalType": "uint256",
          "name": "tokenId",
          "type": "uint256"
        }
      ],
      "name": "Approval",
      "type": "event"
    },
    {
      "anonymous": false,
      "inputs": [
        {
          "indexed": true,
          "internalType": "address",
          "name": "owner",
          "type": "address"
        },
        {
          "indexed": true,
          "internalType": "address",
          "name": "operator",
          "type": "address"
        },
        {
          "indexed": false,
          "internalType": "bool",
          "name": "approved",
          "type": "bool"
        }
      ],
      "name": "ApprovalForAll",
      "type": "event"
    },
    {
      "anonymous": false,
      "inputs": [
        {
          "indexed": true,
          "internalType": "address",
          "name": "previousOwner",
          "type": "address"
        },
        {
          "indexed": true,
          "internalType": "address",
          "name": "newOwner",
          "type": "address"
        }
      ],
      "name": "OwnershipTransferred",
      "type": "event"
    },
    {
      "anonymous": false,
      "inputs": [
        {
          "indexed": false,
          "internalType": "address",
          "name": "account",
          "type": "address"
        }
      ],
      "name": "Paused",
      "type": "event"
    },
    {
      "anonymous": false,
      "inputs": [
        {
          "indexed": true,
          "internalType": "address",
          "name": "from",
          "type": "address"
        },
        {
          "indexed": true,
          "internalType": "address",
          "name": "to",
          "type": "address"
        },
        {
          "indexed": true,
          "internalType": "uint256",
          "name": "tokenId",
          "type": "uint256"
        }
      ],
      "name": "Transfer",
      "type": "event"
    },
    {
      "anonymous": false,
      "inputs": [
        {
          "indexed": false,
          "internalType": "address",
          "name": "account",
          "type": "address"
        }
      ],
      "name": "Unpaused",
      "type": "event"
    },
    {
      "inputs": [
        {
          "internalType": "address",
          "name": "to",
          "type": "address"
        },
        {
          "internalType": "uint256",
          "name": "tokenId",
          "type": "uint256"
        }
      ],
      "name": "approve",
      "outputs": [],
      "stateMutability": "nonpayable",
      "type": "function"
    },
    {
      "inputs": [
        {
          "internalType": "address",
          "name": "owner",
          "type": "address"
        }
      ],
      "name": "balanceOf",
      "outputs": [
        {
          "internalType": "uint256",
          "name": "",
          "type": "uint256"
        }
      ],
      "stateMutability": "view",
      "type": "function"
    },
    {
      "inputs": [
        {
          "internalType": "uint256",
          "name": "tokenId",
          "type": "uint256"
        }
      ],
      "name": "burn",
      "outputs": [],
      "stateMutability": "nonpayable",
      "type": "function"
    },
    {
      "inputs": [
        {
          "internalType": "uint256",
          "name": "tokenId",
          "type": "uint256"
        }
      ],
      "name": "getApproved",
      "outputs": [
        {
          "internalType": "address",
          "name": "",
          "type": "address"
        }
      ],
      "stateMutability": "view",
      "type": "function"
    },
    {
      "inputs": [
        {
          "internalType": "address",
          "name": "owner",
          "type": "address"
        },
        {
          "internalType": "address",
          "name": "operator",
          "type": "address"
        }
      ],
      "name": "isApprovedForAll",
      "outputs": [
        {
          "internalType": "bool",
          "name": "",
          "type": "bool"
        }
      ],
      "stateMutability": "view",
      "type": "function"
    },
    {
      "inputs": [],
      "name": "maxSupply",
      "outputs": [
        {
          "internalType": "uint256",
          "name": "",
          "type": "uint256"
        }
      ],
      "stateMutability": "view",
      "type": "function"
    },
    {
      "inputs": [],
      "name": "mintPrice",
      "outputs": [
        {
          "internalType": "uint256",
          "name": "",
          "type": "uint256"
        }
      ],
      "stateMutability": "view",
      "type": "function"
    },
    {
      "inputs": [
        {
          "internalType": "address",
          "name": "",
          "type": "address"
        }
      ],
      "name": "mintedWallets",
      "outputs": [
        {
          "internalType": "uint256",
          "name": "",
          "type": "uint256"
        }
      ],
      "stateMutability": "view",
      "type": "function"
    },
    {
      "inputs": [],
      "name": "name",
      "outputs": [
        {
          "internalType": "string",
          "name": "",
          "type": "string"
        }
      ],
      "stateMutability": "view",
      "type": "function"
    },
    {
      "inputs": [],
      "name": "owner",
      "outputs": [
        {
          "internalType": "address",
          "name": "",
          "type": "address"
        }
      ],
      "stateMutability": "view",
      "type": "function"
    },
    {
      "inputs": [
        {
          "internalType": "uint256",
          "name": "tokenId",
          "type": "uint256"
        }
      ],
      "name": "ownerOf",
      "outputs": [
        {
          "internalType": "address",
          "name": "",
          "type": "address"
        }
      ],
      "stateMutability": "view",
      "type": "function"
    },
    {
      "inputs": [],
      "name": "pause",
      "outputs": [],
      "stateMutability": "nonpayable",
      "type": "function"
    },
    {
      "inputs": [],
      "name": "paused",
      "outputs": [
        {
          "internalType": "bool",
          "name": "",
          "type": "bool"
        }
      ],
      "stateMutability": "view",
      "type": "function"
    },
    {
      "inputs": [],
      "name": "renounceOwnership",
      "outputs": [],
      "stateMutability": "nonpayable",
      "type": "function"
    },
    {
      "inputs": [
        {
          "internalType": "string",
          "name": "uri",
          "type": "string"
        }
      ],
      "name": "safeMint",
      "outputs": [],
      "stateMutability": "payable",
      "type": "function"
    },
    {
      "inputs": [
        {
          "internalType": "address",
          "name": "from",
          "type": "address"
        },
        {
          "internalType": "address",
          "name": "to",
          "type": "address"
        },
        {
          "internalType": "uint256",
          "name": "tokenId",
          "type": "uint256"
        }
      ],
      "name": "safeTransferFrom",
      "outputs": [],
      "stateMutability": "nonpayable",
      "type": "function"
    },
    {
      "inputs": [
        {
          "internalType": "address",
          "name": "from",
          "type": "address"
        },
        {
          "internalType": "address",
          "name": "to",
          "type": "address"
        },
        {
          "internalType": "uint256",
          "name": "tokenId",
          "type": "uint256"
        },
        {
          "internalType": "bytes",
          "name": "_data",
          "type": "bytes"
        }
      ],
      "name": "safeTransferFrom",
      "outputs": [],
      "stateMutability": "nonpayable",
      "type": "function"
    },
    {
      "inputs": [
        {
          "internalType": "address",
          "name": "operator",
          "type": "address"
        },
        {
          "internalType": "bool",
          "name": "approved",
          "type": "bool"
        }
      ],
      "name": "setApprovalForAll",
      "outputs": [],
      "stateMutability": "nonpayable",
      "type": "function"
    },
    {
      "inputs": [
        {
          "internalType": "uint256",
          "name": "_maxSupply",
          "type": "uint256"
        }
      ],
      "name": "setMaxSupply",
      "outputs": [],
      "stateMutability": "nonpayable",
      "type": "function"
    },
    {
      "inputs": [
        {
          "internalType": "bytes4",
          "name": "interfaceId",
          "type": "bytes4"
        }
      ],
      "name": "supportsInterface",
      "outputs": [
        {
          "internalType": "bool",
          "name": "",
          "type": "bool"
        }
      ],
      "stateMutability": "view",
      "type": "function"
    },
    {
      "inputs": [],
      "name": "symbol",
      "outputs": [
        {
          "internalType": "string",
          "name": "",
          "type": "string"
        }
      ],
      "stateMutability": "view",
      "type": "function"
    },
    {
      "inputs": [
        {
          "internalType": "uint256",
          "name": "index",
          "type": "uint256"
        }
      ],
      "name": "tokenByIndex",
      "outputs": [
        {
          "internalType": "uint256",
          "name": "",
          "type": "uint256"
        }
      ],
      "stateMutability": "view",
      "type": "function"
    },
    {
      "inputs": [
        {
          "internalType": "address",
          "name": "owner",
          "type": "address"
        },
        {
          "internalType": "uint256",
          "name": "index",
          "type": "uint256"
        }
      ],
      "name": "tokenOfOwnerByIndex",
      "outputs": [
        {
          "internalType": "uint256",
          "name": "",
          "type": "uint256"
        }
      ],
      "stateMutability": "view",
      "type": "function"
    },
    {
      "inputs": [
        {
          "internalType": "uint256",
          "name": "tokenId",
          "type": "uint256"
        }
      ],
      "name": "tokenURI",
      "outputs": [
        {
          "internalType": "string",
          "name": "",
          "type": "string"
        }
      ],
      "stateMutability": "view",
      "type": "function"
    },
    {
      "inputs": [],
      "name": "totalSupply",
      "outputs": [
        {
          "internalType": "uint256",
          "name": "",
          "type": "uint256"
        }
      ],
      "stateMutability": "view",
      "type": "function"
    },
    {
      "inputs": [
        {
          "internalType": "address",
          "name": "from",
          "type": "address"
        },
        {
          "internalType": "address",
          "name": "to",
          "type": "address"
        },
        {
          "internalType": "uint256",
          "name": "tokenId",
          "type": "uint256"
        }
      ],
      "name": "transferFrom",
      "outputs": [],
      "stateMutability": "nonpayable",
      "type": "function"
    },
    {
      "inputs": [
        {
          "internalType": "address",
          "name": "newOwner",
          "type": "address"
        }
      ],
      "name": "transferOwnership",
      "outputs": [],
      "stateMutability": "nonpayable",
      "type": "function"
    },
    {
      "inputs": [],
      "name": "unpause",
      "outputs": [],
      "stateMutability": "nonpayable",
      "type": "function"
    },
    {
      "inputs": [],
      "name": "withdraw",
      "outputs": [],
      "stateMutability": "payable",
      "type": "function"
    }
  ],
  "bytecode": "0x608060405268056bc75e2d63100000600d5561270f600e556040518060400160405280600681526020017f766a6b4e465400000000000000000000000000000000000000000000000000008152506040518060400160405280600381526020017f564a4b000000000000000000000000000000000000000000000000000000000081525081600090805190602001906200009b929190620001c6565b508060019080519060200190620000b4929190620001c6565b5050506000600b60006101000a81548160ff021916908315150217905550620000f2620000e6620000f860201b60201c565b6200010060201b60201c565b620002db565b600033905090565b6000600b60019054906101000a900473ffffffffffffffffffffffffffffffffffffffff16905081600b60016101000a81548173ffffffffffffffffffffffffffffffffffffffff021916908373ffffffffffffffffffffffffffffffffffffffff1602179055508173ffffffffffffffffffffffffffffffffffffffff168173ffffffffffffffffffffffffffffffffffffffff167f8be0079c531659141344cd1fd0a4f28419497f9722a3daafe3b4186f6b6457e060405160405180910390a35050565b828054620001d49062000276565b90600052602060002090601f016020900481019282620001f8576000855562000244565b82601f106200021357805160ff191683800117855562000244565b8280016001018555821562000244579182015b828111156200024357825182559160200191906001019062000226565b5b50905062000253919062000257565b5090565b5b808211156200027257600081600090555060010162000258565b5090565b600060028204905060018216806200028f57607f821691505b60208210811415620002a657620002a5620002ac565b5b50919050565b7f4e487b7100000000000000000000000000000000000000000000000000000000600052602260045260246000fd5b6145aa80620002eb6000396000f3fe6080604052600436106101c25760003560e01c80636817c76c116100f757806395d89b4111610095578063c87b56dd11610064578063c87b56dd146105fe578063d5abeb011461063b578063e985e9c514610666578063f2fde38b146106a3576101c2565b806395d89b4114610544578063a22cb4651461056f578063ada7c4ed14610598578063b88d4fde146105d5576101c2565b806370a08231116100d157806370a08231146104ae578063715018a6146104eb5780638456cb59146105025780638da5cb5b14610519576101c2565b80636817c76c1461043e578063695850fb146104695780636f8b44b014610485576101c2565b80633ccfd60b1161016457806342966c681161013e57806342966c68146103705780634f6ccce7146103995780635c975abb146103d65780636352211e14610401576101c2565b80633ccfd60b146103265780633f4ba83a1461033057806342842e0e14610347576101c2565b8063095ea7b3116101a0578063095ea7b31461026c57806318160ddd1461029557806323b872dd146102c05780632f745c59146102e9576101c2565b806301ffc9a7146101c757806306fdde0314610204578063081812fc1461022f575b600080fd5b3480156101d357600080fd5b506101ee60048036038101906101e991906130d8565b6106cc565b6040516101fb91906136c2565b60405180910390f35b34801561021057600080fd5b506102196106de565b60405161022691906136dd565b60405180910390f35b34801561023b57600080fd5b506102566004803603810190610251919061316b565b610770565b604051610263919061365b565b60405180910390f35b34801561027857600080fd5b50610293600480360381019061028e919061309c565b6107f5565b005b3480156102a157600080fd5b506102aa61090d565b6040516102b79190613a3f565b60405180910390f35b3480156102cc57600080fd5b506102e760048036038101906102e29190612f96565b61091a565b005b3480156102f557600080fd5b50610310600480360381019061030b919061309c565b61097a565b60405161031d9190613a3f565b60405180910390f35b61032e610a1f565b005b34801561033c57600080fd5b50610345610aeb565b005b34801561035357600080fd5b5061036e60048036038101906103699190612f96565b610b71565b005b34801561037c57600080fd5b506103976004803603810190610392919061316b565b610b91565b005b3480156103a557600080fd5b506103c060048036038101906103bb919061316b565b610bed565b6040516103cd9190613a3f565b60405180910390f35b3480156103e257600080fd5b506103eb610c84565b6040516103f891906136c2565b60405180910390f35b34801561040d57600080fd5b506104286004803603810190610423919061316b565b610c9b565b604051610435919061365b565b60405180910390f35b34801561044a57600080fd5b50610453610d4d565b6040516104609190613a3f565b60405180910390f35b610483600480360381019061047e919061312a565b610d53565b005b34801561049157600080fd5b506104ac60048036038101906104a7919061316b565b610f01565b005b3480156104ba57600080fd5b506104d560048036038101906104d09190612f31565b610f87565b6040516104e29190613a3f565b60405180910390f35b3480156104f757600080fd5b5061050061103f565b005b34801561050e57600080fd5b506105176110c7565b005b34801561052557600080fd5b5061052e61114d565b60405161053b919061365b565b60405180910390f35b34801561055057600080fd5b50610559611177565b60405161056691906136dd565b60405180910390f35b34801561057b57600080fd5b5061059660048036038101906105919190613060565b611209565b005b3480156105a457600080fd5b506105bf60048036038101906105ba9190612f31565b61121f565b6040516105cc9190613a3f565b60405180910390f35b3480156105e157600080fd5b506105fc60048036038101906105f79190612fe5565b611237565b005b34801561060a57600080fd5b506106256004803603810190610620919061316b565b611299565b60405161063291906136dd565b60405180910390f35b34801561064757600080fd5b506106506112ab565b60405161065d9190613a3f565b60405180910390f35b34801561067257600080fd5b5061068d60048036038101906106889190612f5a565b6112b1565b60405161069a91906136c2565b60405180910390f35b3480156106af57600080fd5b506106ca60048036038101906106c59190612f31565b611345565b005b60006106d78261143d565b9050919050565b6060600080546106ed90613c95565b80601f016020809104026020016040519081016040528092919081815260200182805461071990613c95565b80156107665780601f1061073b57610100808354040283529160200191610766565b820191906000526020600020905b81548152906001019060200180831161074957829003601f168201915b5050505050905090565b600061077b826114b7565b6107ba576040517f08c379a00000000000000000000000000000000000000000000000000000000081526004016107b19061395f565b60405180910390fd5b6004600083815260200190815260200160002060009054906101000a900473ffffffffffffffffffffffffffffffffffffffff169050919050565b600061080082610c9b565b90508073ffffffffffffffffffffffffffffffffffffffff168373ffffffffffffffffffffffffffffffffffffffff161415610871576040517f08c379a0000000000000000000000000000000000000000000000000000000008152600401610868906139bf565b60405180910390fd5b8073ffffffffffffffffffffffffffffffffffffffff16610890611523565b73ffffffffffffffffffffffffffffffffffffffff1614806108bf57506108be816108b9611523565b6112b1565b5b6108fe576040517f08c379a00000000000000000000000000000000000000000000000000000000081526004016108f59061385f565b60405180910390fd5b610908838361152b565b505050565b6000600880549050905090565b61092b610925611523565b826115e4565b61096a576040517f08c379a0000000000000000000000000000000000000000000000000000000008152600401610961906139df565b60405180910390fd5b6109758383836116c2565b505050565b600061098583610f87565b82106109c6576040517f08c379a00000000000000000000000000000000000000000000000000000000081526004016109bd9061371f565b60405180910390fd5b600660008473ffffffffffffffffffffffffffffffffffffffff1673ffffffffffffffffffffffffffffffffffffffff168152602001908152602001600020600083815260200190815260200160002054905092915050565b610a27611523565b73ffffffffffffffffffffffffffffffffffffffff16610a4561114d565b73ffffffffffffffffffffffffffffffffffffffff1614610a9b576040517f08c379a0000000000000000000000000000000000000000000000000000000008152600401610a929061397f565b60405180910390fd5b610aa361114d565b73ffffffffffffffffffffffffffffffffffffffff166108fc479081150290604051600060405180830381858888f19350505050158015610ae8573d6000803e3d6000fd5b50565b610af3611523565b73ffffffffffffffffffffffffffffffffffffffff16610b1161114d565b73ffffffffffffffffffffffffffffffffffffffff1614610b67576040517f08c379a0000000000000000000000000000000000000000000000000000000008152600401610b5e9061397f565b60405180910390fd5b610b6f611929565b565b610b8c83838360405180602001604052806000815250611237565b505050565b610ba2610b9c611523565b826115e4565b610be1576040517f08c379a0000000000000000000000000000000000000000000000000000000008152600401610bd890613a1f565b60405180910390fd5b610bea816119cb565b50565b6000610bf761090d565b8210610c38576040517f08c379a0000000000000000000000000000000000000000000000000000000008152600401610c2f906139ff565b60405180910390fd5b60088281548110610c72577f4e487b7100000000000000000000000000000000000000000000000000000000600052603260045260246000fd5b90600052602060002001549050919050565b6000600b60009054906101000a900460ff16905090565b6000806002600084815260200190815260200160002060009054906101000a900473ffffffffffffffffffffffffffffffffffffffff169050600073ffffffffffffffffffffffffffffffffffffffff168173ffffffffffffffffffffffffffffffffffffffff161415610d44576040517f08c379a0000000000000000000000000000000000000000000000000000000008152600401610d3b9061389f565b60405180910390fd5b80915050919050565b600d5481565b6000610d5f600c6119d7565b9050600a600f60003373ffffffffffffffffffffffffffffffffffffffff1673ffffffffffffffffffffffffffffffffffffffff1681526020019081526020016000205410610de3576040517f08c379a0000000000000000000000000000000000000000000000000000000008152600401610dda906138ff565b60405180910390fd5b600d543414610e27576040517f08c379a0000000000000000000000000000000000000000000000000000000008152600401610e1e906138df565b60405180910390fd5b80600e5411610e6b576040517f08c379a0000000000000000000000000000000000000000000000000000000008152600401610e629061381f565b60405180910390fd5b600f60003373ffffffffffffffffffffffffffffffffffffffff1673ffffffffffffffffffffffffffffffffffffffff1681526020019081526020016000206000815480929190610ebb90613cf8565b9190505550610eca600c6119e5565b610ed433826119fb565b610efd8183604051602001610ee99190613639565b604051602081830303815290604052611a19565b5050565b610f09611523565b73ffffffffffffffffffffffffffffffffffffffff16610f2761114d565b73ffffffffffffffffffffffffffffffffffffffff1614610f7d576040517f08c379a0000000000000000000000000000000000000000000000000000000008152600401610f749061397f565b60405180910390fd5b80600e8190555050565b60008073ffffffffffffffffffffffffffffffffffffffff168273ffffffffffffffffffffffffffffffffffffffff161415610ff8576040517f08c379a0000000000000000000000000000000000000000000000000000000008152600401610fef9061387f565b60405180910390fd5b600360008373ffffffffffffffffffffffffffffffffffffffff1673ffffffffffffffffffffffffffffffffffffffff168152602001908152602001600020549050919050565b611047611523565b73ffffffffffffffffffffffffffffffffffffffff1661106561114d565b73ffffffffffffffffffffffffffffffffffffffff16146110bb576040517f08c379a00000000000000000000000000000000000000000000000000000000081526004016110b29061397f565b60405180910390fd5b6110c56000611a8d565b565b6110cf611523565b73ffffffffffffffffffffffffffffffffffffffff166110ed61114d565b73ffffffffffffffffffffffffffffffffffffffff1614611143576040517f08c379a000000000000000000000000000000000000000000000000000000000815260040161113a9061397f565b60405180910390fd5b61114b611b53565b565b6000600b60019054906101000a900473ffffffffffffffffffffffffffffffffffffffff16905090565b60606001805461118690613c95565b80601f01602080910402602001604051908101604052809291908181526020018280546111b290613c95565b80156111ff5780601f106111d4576101008083540402835291602001916111ff565b820191906000526020600020905b8154815290600101906020018083116111e257829003601f168201915b5050505050905090565b61121b611214611523565b8383611bf6565b5050565b600f6020528060005260406000206000915090505481565b611248611242611523565b836115e4565b611287576040517f08c379a000000000000000000000000000000000000000000000000000000000815260040161127e906139df565b60405180910390fd5b61129384848484611d63565b50505050565b60606112a482611dbf565b9050919050565b600e5481565b6000600560008473ffffffffffffffffffffffffffffffffffffffff1673ffffffffffffffffffffffffffffffffffffffff16815260200190815260200160002060008373ffffffffffffffffffffffffffffffffffffffff1673ffffffffffffffffffffffffffffffffffffffff16815260200190815260200160002060009054906101000a900460ff16905092915050565b61134d611523565b73ffffffffffffffffffffffffffffffffffffffff1661136b61114d565b73ffffffffffffffffffffffffffffffffffffffff16146113c1576040517f08c379a00000000000000000000000000000000000000000000000000000000081526004016113b89061397f565b60405180910390fd5b600073ffffffffffffffffffffffffffffffffffffffff168173ffffffffffffffffffffffffffffffffffffffff161415611431576040517f08c379a00000000000000000000000000000000000000000000000000000000081526004016114289061375f565b60405180910390fd5b61143a81611a8d565b50565b60007f780e9d63000000000000000000000000000000000000000000000000000000007bffffffffffffffffffffffffffffffffffffffffffffffffffffffff1916827bffffffffffffffffffffffffffffffffffffffffffffffffffffffff191614806114b057506114af82611f11565b5b9050919050565b60008073ffffffffffffffffffffffffffffffffffffffff166002600084815260200190815260200160002060009054906101000a900473ffffffffffffffffffffffffffffffffffffffff1673ffffffffffffffffffffffffffffffffffffffff1614159050919050565b600033905090565b816004600083815260200190815260200160002060006101000a81548173ffffffffffffffffffffffffffffffffffffffff021916908373ffffffffffffffffffffffffffffffffffffffff160217905550808273ffffffffffffffffffffffffffffffffffffffff1661159e83610c9b565b73ffffffffffffffffffffffffffffffffffffffff167f8c5be1e5ebec7d5bd14f71427d1e84f3dd0314c0f7b2291e5b200ac8c7c3b92560405160405180910390a45050565b60006115ef826114b7565b61162e576040517f08c379a0000000000000000000000000000000000000000000000000000000008152600401611625906137ff565b60405180910390fd5b600061163983610c9b565b90508073ffffffffffffffffffffffffffffffffffffffff168473ffffffffffffffffffffffffffffffffffffffff1614806116a857508373ffffffffffffffffffffffffffffffffffffffff1661169084610770565b73ffffffffffffffffffffffffffffffffffffffff16145b806116b957506116b881856112b1565b5b91505092915050565b8273ffffffffffffffffffffffffffffffffffffffff166116e282610c9b565b73ffffffffffffffffffffffffffffffffffffffff1614611738576040517f08c379a000000000000000000000000000000000000000000000000000000000815260040161172f9061377f565b60405180910390fd5b600073ffffffffffffffffffffffffffffffffffffffff168273ffffffffffffffffffffffffffffffffffffffff1614156117a8576040517f08c379a000000000000000000000000000000000000000000000000000000000815260040161179f906137bf565b60405180910390fd5b6117b3838383611ff3565b6117be60008261152b565b6001600360008573ffffffffffffffffffffffffffffffffffffffff1673ffffffffffffffffffffffffffffffffffffffff168152602001908152602001600020600082825461180e9190613bab565b925050819055506001600360008473ffffffffffffffffffffffffffffffffffffffff1673ffffffffffffffffffffffffffffffffffffffff16815260200190815260200160002060008282546118659190613b24565b92505081905550816002600083815260200190815260200160002060006101000a81548173ffffffffffffffffffffffffffffffffffffffff021916908373ffffffffffffffffffffffffffffffffffffffff160217905550808273ffffffffffffffffffffffffffffffffffffffff168473ffffffffffffffffffffffffffffffffffffffff167fddf252ad1be2c89b69c2b068fc378daa952ba7f163c4a11628f55a4df523b3ef60405160405180910390a461192483838361204b565b505050565b611931610c84565b611970576040517f08c379a0000000000000000000000000000000000000000000000000000000008152600401611967906136ff565b60405180910390fd5b6000600b60006101000a81548160ff0219169083151502179055507f5db9ee0a495bf2e6ff9c91a7834c1ba4fdd244a5e8aa4e537bd38aeae4b073aa6119b4611523565b6040516119c1919061365b565b60405180910390a1565b6119d481612050565b50565b600081600001549050919050565b6001816000016000828254019250508190555050565b611a158282604051806020016040528060008152506120a3565b5050565b611a22826114b7565b611a61576040517f08c379a0000000000000000000000000000000000000000000000000000000008152600401611a58906138bf565b60405180910390fd5b80600a60008481526020019081526020016000209080519060200190611a88929190612d15565b505050565b6000600b60019054906101000a900473ffffffffffffffffffffffffffffffffffffffff16905081600b60016101000a81548173ffffffffffffffffffffffffffffffffffffffff021916908373ffffffffffffffffffffffffffffffffffffffff1602179055508173ffffffffffffffffffffffffffffffffffffffff168173ffffffffffffffffffffffffffffffffffffffff167f8be0079c531659141344cd1fd0a4f28419497f9722a3daafe3b4186f6b6457e060405160405180910390a35050565b611b5b610c84565b15611b9b576040517f08c379a0000000000000000000000000000000000000000000000000000000008152600401611b929061383f565b60405180910390fd5b6001600b60006101000a81548160ff0219169083151502179055507f62e78cea01bee320cd4e420270b5ea74000d11b0c9f74754ebdbfc544b05a258611bdf611523565b604051611bec919061365b565b60405180910390a1565b8173ffffffffffffffffffffffffffffffffffffffff168373ffffffffffffffffffffffffffffffffffffffff161415611c65576040517f08c379a0000000000000000000000000000000000000000000000000000000008152600401611c5c906137df565b60405180910390fd5b80600560008573ffffffffffffffffffffffffffffffffffffffff1673ffffffffffffffffffffffffffffffffffffffff16815260200190815260200160002060008473ffffffffffffffffffffffffffffffffffffffff1673ffffffffffffffffffffffffffffffffffffffff16815260200190815260200160002060006101000a81548160ff0219169083151502179055508173ffffffffffffffffffffffffffffffffffffffff168373ffffffffffffffffffffffffffffffffffffffff167f17307eab39ab6107e8899845ad3d59bd9653f200f220920489ca2b5937696c3183604051611d5691906136c2565b60405180910390a3505050565b611d6e8484846116c2565b611d7a848484846120fe565b611db9576040517f08c379a0000000000000000000000000000000000000000000000000000000008152600401611db09061373f565b60405180910390fd5b50505050565b6060611dca826114b7565b611e09576040517f08c379a0000000000000000000000000000000000000000000000000000000008152600401611e009061393f565b60405180910390fd5b6000600a60008481526020019081526020016000208054611e2990613c95565b80601f0160208091040260200160405190810160405280929190818152602001828054611e5590613c95565b8015611ea25780601f10611e7757610100808354040283529160200191611ea2565b820191906000526020600020905b815481529060010190602001808311611e8557829003601f168201915b505050505090506000611eb3612295565b9050600081511415611ec9578192505050611f0c565b600082511115611efe578082604051602001611ee6929190613615565b60405160208183030381529060405292505050611f0c565b611f07846122ac565b925050505b919050565b60007f80ac58cd000000000000000000000000000000000000000000000000000000007bffffffffffffffffffffffffffffffffffffffffffffffffffffffff1916827bffffffffffffffffffffffffffffffffffffffffffffffffffffffff19161480611fdc57507f5b5e139f000000000000000000000000000000000000000000000000000000007bffffffffffffffffffffffffffffffffffffffffffffffffffffffff1916827bffffffffffffffffffffffffffffffffffffffffffffffffffffffff1916145b80611fec5750611feb82612353565b5b9050919050565b611ffb610c84565b1561203b576040517f08c379a00000000000000000000000000000000000000000000000000000000081526004016120329061383f565b60405180910390fd5b6120468383836123bd565b505050565b505050565b612059816124d1565b6000600a6000838152602001908152602001600020805461207990613c95565b9050146120a057600a6000828152602001908152602001600020600061209f9190612d9b565b5b50565b6120ad83836125ee565b6120ba60008484846120fe565b6120f9576040517f08c379a00000000000000000000000000000000000000000000000000000000081526004016120f09061373f565b60405180910390fd5b505050565b600061211f8473ffffffffffffffffffffffffffffffffffffffff166127c8565b15612288578373ffffffffffffffffffffffffffffffffffffffff1663150b7a02612148611523565b8786866040518563ffffffff1660e01b815260040161216a9493929190613676565b602060405180830381600087803b15801561218457600080fd5b505af19250505080156121b557506040513d601f19601f820116820180604052508101906121b29190613101565b60015b612238573d80600081146121e5576040519150601f19603f3d011682016040523d82523d6000602084013e6121ea565b606091505b50600081511415612230576040517f08c379a00000000000000000000000000000000000000000000000000000000081526004016122279061373f565b60405180910390fd5b805181602001fd5b63150b7a0260e01b7bffffffffffffffffffffffffffffffffffffffffffffffffffffffff1916817bffffffffffffffffffffffffffffffffffffffffffffffffffffffff19161491505061228d565b600190505b949350505050565b606060405180602001604052806000815250905090565b60606122b7826114b7565b6122f6576040517f08c379a00000000000000000000000000000000000000000000000000000000081526004016122ed9061399f565b60405180910390fd5b6000612300612295565b90506000815111612320576040518060200160405280600081525061234b565b8061232a846127eb565b60405160200161233b929190613615565b6040516020818303038152906040525b915050919050565b60007f01ffc9a7000000000000000000000000000000000000000000000000000000007bffffffffffffffffffffffffffffffffffffffffffffffffffffffff1916827bffffffffffffffffffffffffffffffffffffffffffffffffffffffff1916149050919050565b6123c8838383612998565b600073ffffffffffffffffffffffffffffffffffffffff168373ffffffffffffffffffffffffffffffffffffffff16141561240b576124068161299d565b61244a565b8173ffffffffffffffffffffffffffffffffffffffff168373ffffffffffffffffffffffffffffffffffffffff16146124495761244883826129e6565b5b5b600073ffffffffffffffffffffffffffffffffffffffff168273ffffffffffffffffffffffffffffffffffffffff16141561248d5761248881612b53565b6124cc565b8273ffffffffffffffffffffffffffffffffffffffff168273ffffffffffffffffffffffffffffffffffffffff16146124cb576124ca8282612c96565b5b5b505050565b60006124dc82610c9b565b90506124ea81600084611ff3565b6124f560008361152b565b6001600360008373ffffffffffffffffffffffffffffffffffffffff1673ffffffffffffffffffffffffffffffffffffffff16815260200190815260200160002060008282546125459190613bab565b925050819055506002600083815260200190815260200160002060006101000a81549073ffffffffffffffffffffffffffffffffffffffff021916905581600073ffffffffffffffffffffffffffffffffffffffff168273ffffffffffffffffffffffffffffffffffffffff167fddf252ad1be2c89b69c2b068fc378daa952ba7f163c4a11628f55a4df523b3ef60405160405180910390a46125ea8160008461204b565b5050565b600073ffffffffffffffffffffffffffffffffffffffff168273ffffffffffffffffffffffffffffffffffffffff16141561265e576040517f08c379a00000000000000000000000000000000000000000000000000000000081526004016126559061391f565b60405180910390fd5b612667816114b7565b156126a7576040517f08c379a000000000000000000000000000000000000000000000000000000000815260040161269e9061379f565b60405180910390fd5b6126b360008383611ff3565b6001600360008473ffffffffffffffffffffffffffffffffffffffff1673ffffffffffffffffffffffffffffffffffffffff16815260200190815260200160002060008282546127039190613b24565b92505081905550816002600083815260200190815260200160002060006101000a81548173ffffffffffffffffffffffffffffffffffffffff021916908373ffffffffffffffffffffffffffffffffffffffff160217905550808273ffffffffffffffffffffffffffffffffffffffff16600073ffffffffffffffffffffffffffffffffffffffff167fddf252ad1be2c89b69c2b068fc378daa952ba7f163c4a11628f55a4df523b3ef60405160405180910390a46127c46000838361204b565b5050565b6000808273ffffffffffffffffffffffffffffffffffffffff163b119050919050565b60606000821415612833576040518060400160405280600181526020017f30000000000000000000000000000000000000000000000000000000000000008152509050612993565b600082905060005b6000821461286557808061284e90613cf8565b915050600a8261285e9190613b7a565b915061283b565b60008167ffffffffffffffff8111156128a7577f4e487b7100000000000000000000000000000000000000000000000000000000600052604160045260246000fd5b6040519080825280601f01601f1916602001820160405280156128d95781602001600182028036833780820191505090505b5090505b6000851461298c576001826128f29190613bab565b9150600a856129019190613d41565b603061290d9190613b24565b60f81b818381518110612949577f4e487b7100000000000000000000000000000000000000000000000000000000600052603260045260246000fd5b60200101907effffffffffffffffffffffffffffffffffffffffffffffffffffffffffffff1916908160001a905350600a856129859190613b7a565b94506128dd565b8093505050505b919050565b505050565b6008805490506009600083815260200190815260200160002081905550600881908060018154018082558091505060019003906000526020600020016000909190919091505550565b600060016129f384610f87565b6129fd9190613bab565b9050600060076000848152602001908152602001600020549050818114612ae2576000600660008673ffffffffffffffffffffffffffffffffffffffff1673ffffffffffffffffffffffffffffffffffffffff168152602001908152602001600020600084815260200190815260200160002054905080600660008773ffffffffffffffffffffffffffffffffffffffff1673ffffffffffffffffffffffffffffffffffffffff168152602001908152602001600020600084815260200190815260200160002081905550816007600083815260200190815260200160002081905550505b6007600084815260200190815260200160002060009055600660008573ffffffffffffffffffffffffffffffffffffffff1673ffffffffffffffffffffffffffffffffffffffff16815260200190815260200160002060008381526020019081526020016000206000905550505050565b60006001600880549050612b679190613bab565b9050600060096000848152602001908152602001600020549050600060088381548110612bbd577f4e487b7100000000000000000000000000000000000000000000000000000000600052603260045260246000fd5b906000526020600020015490508060088381548110612c05577f4e487b7100000000000000000000000000000000000000000000000000000000600052603260045260246000fd5b906000526020600020018190555081600960008381526020019081526020016000208190555060096000858152602001908152602001600020600090556008805480612c7a577f4e487b7100000000000000000000000000000000000000000000000000000000600052603160045260246000fd5b6001900381819060005260206000200160009055905550505050565b6000612ca183610f87565b905081600660008573ffffffffffffffffffffffffffffffffffffffff1673ffffffffffffffffffffffffffffffffffffffff168152602001908152602001600020600083815260200190815260200160002081905550806007600084815260200190815260200160002081905550505050565b828054612d2190613c95565b90600052602060002090601f016020900481019282612d435760008555612d8a565b82601f10612d5c57805160ff1916838001178555612d8a565b82800160010185558215612d8a579182015b82811115612d89578251825591602001919060010190612d6e565b5b509050612d979190612ddb565b5090565b508054612da790613c95565b6000825580601f10612db95750612dd8565b601f016020900490600052602060002090810190612dd79190612ddb565b5b50565b5b80821115612df4576000816000905550600101612ddc565b5090565b6000612e0b612e0684613a7f565b613a5a565b905082815260208101848484011115612e2357600080fd5b612e2e848285613c53565b509392505050565b6000612e49612e4484613ab0565b613a5a565b905082815260208101848484011115612e6157600080fd5b612e6c848285613c53565b509392505050565b600081359050612e8381614518565b92915050565b600081359050612e988161452f565b92915050565b600081359050612ead81614546565b92915050565b600081519050612ec281614546565b92915050565b600082601f830112612ed957600080fd5b8135612ee9848260208601612df8565b91505092915050565b600082601f830112612f0357600080fd5b8135612f13848260208601612e36565b91505092915050565b600081359050612f2b8161455d565b92915050565b600060208284031215612f4357600080fd5b6000612f5184828501612e74565b91505092915050565b60008060408385031215612f6d57600080fd5b6000612f7b85828601612e74565b9250506020612f8c85828601612e74565b9150509250929050565b600080600060608486031215612fab57600080fd5b6000612fb986828701612e74565b9350506020612fca86828701612e74565b9250506040612fdb86828701612f1c565b9150509250925092565b60008060008060808587031215612ffb57600080fd5b600061300987828801612e74565b945050602061301a87828801612e74565b935050604061302b87828801612f1c565b925050606085013567ffffffffffffffff81111561304857600080fd5b61305487828801612ec8565b91505092959194509250565b6000806040838503121561307357600080fd5b600061308185828601612e74565b925050602061309285828601612e89565b9150509250929050565b600080604083850312156130af57600080fd5b60006130bd85828601612e74565b92505060206130ce85828601612f1c565b9150509250929050565b6000602082840312156130ea57600080fd5b60006130f884828501612e9e565b91505092915050565b60006020828403121561311357600080fd5b600061312184828501612eb3565b91505092915050565b60006020828403121561313c57600080fd5b600082013567ffffffffffffffff81111561315657600080fd5b61316284828501612ef2565b91505092915050565b60006020828403121561317d57600080fd5b600061318b84828501612f1c565b91505092915050565b61319d81613bdf565b82525050565b6131ac81613bf1565b82525050565b60006131bd82613ae1565b6131c78185613af7565b93506131d7818560208601613c62565b6131e081613e2e565b840191505092915050565b60006131f682613aec565b6132008185613b08565b9350613210818560208601613c62565b61321981613e2e565b840191505092915050565b600061322f82613aec565b6132398185613b19565b9350613249818560208601613c62565b80840191505092915050565b6000613262601483613b08565b915061326d82613e3f565b602082019050919050565b6000613285602b83613b08565b915061329082613e68565b604082019050919050565b60006132a8603283613b08565b91506132b382613eb7565b604082019050919050565b60006132cb602683613b08565b91506132d682613f06565b604082019050919050565b60006132ee602583613b08565b91506132f982613f55565b604082019050919050565b6000613311601c83613b08565b915061331c82613fa4565b602082019050919050565b6000613334602483613b08565b915061333f82613fcd565b604082019050919050565b6000613357601983613b08565b91506133628261401c565b602082019050919050565b600061337a602c83613b08565b915061338582614045565b604082019050919050565b600061339d600883613b08565b91506133a882614094565b602082019050919050565b60006133c0601083613b08565b91506133cb826140bd565b602082019050919050565b60006133e3603883613b08565b91506133ee826140e6565b604082019050919050565b6000613406602a83613b08565b915061341182614135565b604082019050919050565b6000613429602983613b08565b915061343482614184565b604082019050919050565b600061344c602e83613b08565b9150613457826141d3565b604082019050919050565b600061346f600b83613b08565b915061347a82614222565b602082019050919050565b6000613492601683613b08565b915061349d8261424b565b602082019050919050565b60006134b5602083613b08565b91506134c082614274565b602082019050919050565b60006134d8603183613b08565b91506134e38261429d565b604082019050919050565b60006134fb602c83613b08565b9150613506826142ec565b604082019050919050565b600061351e602083613b08565b91506135298261433b565b602082019050919050565b6000613541602f83613b08565b915061354c82614364565b604082019050919050565b6000613564602183613b08565b915061356f826143b3565b604082019050919050565b6000613587601d83613b19565b915061359282614402565b601d82019050919050565b60006135aa603183613b08565b91506135b58261442b565b604082019050919050565b60006135cd602c83613b08565b91506135d88261447a565b604082019050919050565b60006135f0603083613b08565b91506135fb826144c9565b604082019050919050565b61360f81613c49565b82525050565b60006136218285613224565b915061362d8284613224565b91508190509392505050565b60006136448261357a565b91506136508284613224565b915081905092915050565b60006020820190506136706000830184613194565b92915050565b600060808201905061368b6000830187613194565b6136986020830186613194565b6136a56040830185613606565b81810360608301526136b781846131b2565b905095945050505050565b60006020820190506136d760008301846131a3565b92915050565b600060208201905081810360008301526136f781846131eb565b905092915050565b6000602082019050818103600083015261371881613255565b9050919050565b6000602082019050818103600083015261373881613278565b9050919050565b600060208201905081810360008301526137588161329b565b9050919050565b60006020820190508181036000830152613778816132be565b9050919050565b60006020820190508181036000830152613798816132e1565b9050919050565b600060208201905081810360008301526137b881613304565b9050919050565b600060208201905081810360008301526137d881613327565b9050919050565b600060208201905081810360008301526137f88161334a565b9050919050565b600060208201905081810360008301526138188161336d565b9050919050565b6000602082019050818103600083015261383881613390565b9050919050565b60006020820190508181036000830152613858816133b3565b9050919050565b60006020820190508181036000830152613878816133d6565b9050919050565b60006020820190508181036000830152613898816133f9565b9050919050565b600060208201905081810360008301526138b88161341c565b9050919050565b600060208201905081810360008301526138d88161343f565b9050919050565b600060208201905081810360008301526138f881613462565b9050919050565b6000602082019050818103600083015261391881613485565b9050919050565b60006020820190508181036000830152613938816134a8565b9050919050565b60006020820190508181036000830152613958816134cb565b9050919050565b60006020820190508181036000830152613978816134ee565b9050919050565b6000602082019050818103600083015261399881613511565b9050919050565b600060208201905081810360008301526139b881613534565b9050919050565b600060208201905081810360008301526139d881613557565b9050919050565b600060208201905081810360008301526139f88161359d565b9050919050565b60006020820190508181036000830152613a18816135c0565b9050919050565b60006020820190508181036000830152613a38816135e3565b9050919050565b6000602082019050613a546000830184613606565b92915050565b6000613a64613a75565b9050613a708282613cc7565b919050565b6000604051905090565b600067ffffffffffffffff821115613a9a57613a99613dff565b5b613aa382613e2e565b9050602081019050919050565b600067ffffffffffffffff821115613acb57613aca613dff565b5b613ad482613e2e565b9050602081019050919050565b600081519050919050565b600081519050919050565b600082825260208201905092915050565b600082825260208201905092915050565b600081905092915050565b6000613b2f82613c49565b9150613b3a83613c49565b9250827fffffffffffffffffffffffffffffffffffffffffffffffffffffffffffffffff03821115613b6f57613b6e613d72565b5b828201905092915050565b6000613b8582613c49565b9150613b9083613c49565b925082613ba057613b9f613da1565b5b828204905092915050565b6000613bb682613c49565b9150613bc183613c49565b925082821015613bd457613bd3613d72565b5b828203905092915050565b6000613bea82613c29565b9050919050565b60008115159050919050565b60007fffffffff0000000000000000000000000000000000000000000000000000000082169050919050565b600073ffffffffffffffffffffffffffffffffffffffff82169050919050565b6000819050919050565b82818337600083830152505050565b60005b83811015613c80578082015181840152602081019050613c65565b83811115613c8f576000848401525b50505050565b60006002820490506001821680613cad57607f821691505b60208210811415613cc157613cc0613dd0565b5b50919050565b613cd082613e2e565b810181811067ffffffffffffffff82111715613cef57613cee613dff565b5b80604052505050565b6000613d0382613c49565b91507fffffffffffffffffffffffffffffffffffffffffffffffffffffffffffffffff821415613d3657613d35613d72565b5b600182019050919050565b6000613d4c82613c49565b9150613d5783613c49565b925082613d6757613d66613da1565b5b828206905092915050565b7f4e487b7100000000000000000000000000000000000000000000000000000000600052601160045260246000fd5b7f4e487b7100000000000000000000000000000000000000000000000000000000600052601260045260246000fd5b7f4e487b7100000000000000000000000000000000000000000000000000000000600052602260045260246000fd5b7f4e487b7100000000000000000000000000000000000000000000000000000000600052604160045260246000fd5b6000601f19601f8301169050919050565b7f5061757361626c653a206e6f7420706175736564000000000000000000000000600082015250565b7f455243373231456e756d657261626c653a206f776e657220696e646578206f7560008201527f74206f6620626f756e6473000000000000000000000000000000000000000000602082015250565b7f4552433732313a207472616e7366657220746f206e6f6e20455243373231526560008201527f63656976657220696d706c656d656e7465720000000000000000000000000000602082015250565b7f4f776e61626c653a206e6577206f776e657220697320746865207a65726f206160008201527f6464726573730000000000000000000000000000000000000000000000000000602082015250565b7f4552433732313a207472616e736665722066726f6d20696e636f72726563742060008201527f6f776e6572000000000000000000000000000000000000000000000000000000602082015250565b7f4552433732313a20746f6b656e20616c7265616479206d696e74656400000000600082015250565b7f4552433732313a207472616e7366657220746f20746865207a65726f2061646460008201527f7265737300000000000000000000000000000000000000000000000000000000602082015250565b7f4552433732313a20617070726f766520746f2063616c6c657200000000000000600082015250565b7f4552433732313a206f70657261746f7220717565727920666f72206e6f6e657860008201527f697374656e7420746f6b656e0000000000000000000000000000000000000000602082015250565b7f736f6c64206f7574000000000000000000000000000000000000000000000000600082015250565b7f5061757361626c653a2070617573656400000000000000000000000000000000600082015250565b7f4552433732313a20617070726f76652063616c6c6572206973206e6f74206f7760008201527f6e6572206e6f7220617070726f76656420666f7220616c6c0000000000000000602082015250565b7f4552433732313a2062616c616e636520717565727920666f7220746865207a6560008201527f726f206164647265737300000000000000000000000000000000000000000000602082015250565b7f4552433732313a206f776e657220717565727920666f72206e6f6e657869737460008201527f656e7420746f6b656e0000000000000000000000000000000000000000000000602082015250565b7f45524337323155524953746f726167653a2055524920736574206f66206e6f6e60008201527f6578697374656e7420746f6b656e000000000000000000000000000000000000602082015250565b7f77726f6e672076616c7565000000000000000000000000000000000000000000600082015250565b7f65786365656473206d6178207065722077616c6c657400000000000000000000600082015250565b7f4552433732313a206d696e7420746f20746865207a65726f2061646472657373600082015250565b7f45524337323155524953746f726167653a2055524920717565727920666f722060008201527f6e6f6e6578697374656e7420746f6b656e000000000000000000000000000000602082015250565b7f4552433732313a20617070726f76656420717565727920666f72206e6f6e657860008201527f697374656e7420746f6b656e0000000000000000000000000000000000000000602082015250565b7f4f776e61626c653a2063616c6c6572206973206e6f7420746865206f776e6572600082015250565b7f4552433732314d657461646174613a2055524920717565727920666f72206e6f60008201527f6e6578697374656e7420746f6b656e0000000000000000000000000000000000602082015250565b7f4552433732313a20617070726f76616c20746f2063757272656e74206f776e6560008201527f7200000000000000000000000000000000000000000000000000000000000000602082015250565b7f646174613a6170706c69636174696f6e2f6a736f6e3b6261736536342c000000600082015250565b7f4552433732313a207472616e736665722063616c6c6572206973206e6f74206f60008201527f776e6572206e6f7220617070726f766564000000000000000000000000000000602082015250565b7f455243373231456e756d657261626c653a20676c6f62616c20696e646578206f60008201527f7574206f6620626f756e64730000000000000000000000000000000000000000602082015250565b7f4552433732314275726e61626c653a2063616c6c6572206973206e6f74206f7760008201527f6e6572206e6f7220617070726f76656400000000000000000000000000000000602082015250565b61452181613bdf565b811461452c57600080fd5b50565b61453881613bf1565b811461454357600080fd5b50565b61454f81613bfd565b811461455a57600080fd5b50565b61456681613c49565b811461457157600080fd5b5056fea2646970667358221220d2bb99410a8cad1e0937a989b621f3f3efee075b8e1fbd1c45f678f4830c980364736f6c63430008040033",
  "linkReferences": {},
  "deployedLinkReferences": {}
}