{
  "_format": "hh-sol-artifact-1",
  "contractName": "VjkNFT",
  "sourceName": "contracts/VjkNFT.sol",
  "abi": [
    {
      "inputs": [
        {
          "internalType": "contract IAPIConsumer",
          "name": "_apiConsumer",
          "type": "address"
        },
        {
          "internalType": "contract IVRF",
          "name": "_vrf",
          "type": "address"
        },
        {
          "internalType": "contract ISwaper",
          "name": "_swaper",
          "type": "address"
        },
        {
          "internalType": "contract LinkTokenInterface",
          "name": "_link",
          "type": "address"
        },
        {
          "internalType": "address",
          "name": "_registrar",
          "type": "address"
        },
        {
          "internalType": "contract AutomationRegistryInterface",
          "name": "_registry",
          "type": "address"
        },
        {
          "internalType": "uint96",
          "name": "_apiConsumerLinkAmount",
          "type": "uint96"
        },
        {
          "internalType": "uint96",
          "name": "_vrfLinkAmount",
          "type": "uint96"
        },
        {
          "internalType": "uint96",
          "name": "_automateLinkAmount",
          "type": "uint96"
        }
      ],
      "stateMutability": "nonpayable",
      "type": "constructor"
    },
    {
      "anonymous": false,
      "inputs": [
        {
          "indexed": true,
          "internalType": "address",
          "name": "owner",
          "type": "address"
        },
        {
          "indexed": true,
          "internalType": "address",
          "name": "approved",
          "type": "address"
        },
        {
          "indexed": true,
          "internalType": "uint256",
          "name": "tokenId",
          "type": "uint256"
        }
      ],
      "name": "Approval",
      "type": "event"
    },
    {
      "anonymous": false,
      "inputs": [
        {
          "indexed": true,
          "internalType": "address",
          "name": "owner",
          "type": "address"
        },
        {
          "indexed": true,
          "internalType": "address",
          "name": "operator",
          "type": "address"
        },
        {
          "indexed": false,
          "internalType": "bool",
          "name": "approved",
          "type": "bool"
        }
      ],
      "name": "ApprovalForAll",
      "type": "event"
    },
    {
      "anonymous": false,
      "inputs": [
        {
          "indexed": true,
          "internalType": "uint256",
          "name": "tokenID",
          "type": "uint256"
        }
      ],
      "name": "Created",
      "type": "event"
    },
    {
      "anonymous": false,
      "inputs": [
        {
          "indexed": true,
          "internalType": "address",
          "name": "previousOwner",
          "type": "address"
        },
        {
          "indexed": true,
          "internalType": "address",
          "name": "newOwner",
          "type": "address"
        }
      ],
      "name": "OwnershipTransferred",
      "type": "event"
    },
    {
      "anonymous": false,
      "inputs": [
        {
          "indexed": true,
          "internalType": "address",
          "name": "from",
          "type": "address"
        },
        {
          "indexed": true,
          "internalType": "address",
          "name": "to",
          "type": "address"
        },
        {
          "indexed": true,
          "internalType": "uint256",
          "name": "tokenId",
          "type": "uint256"
        }
      ],
      "name": "Transfer",
      "type": "event"
    },
    {
      "inputs": [
        {
          "internalType": "address",
          "name": "",
          "type": "address"
        },
        {
          "internalType": "uint256",
          "name": "",
          "type": "uint256"
        }
      ],
      "name": "IDbyAddres",
      "outputs": [
        {
          "internalType": "string",
          "name": "tokenName",
          "type": "string"
        },
        {
          "internalType": "uint256",
          "name": "tokenID",
          "type": "uint256"
        },
        {
          "internalType": "bytes32",
          "name": "quoteID",
          "type": "bytes32"
        },
        {
          "internalType": "uint256",
          "name": "svgID",
          "type": "uint256"
        }
      ],
      "stateMutability": "view",
      "type": "function"
    },
    {
      "inputs": [
        {
          "internalType": "address",
          "name": "to",
          "type": "address"
        },
        {
          "internalType": "uint256",
          "name": "tokenId",
          "type": "uint256"
        }
      ],
      "name": "approve",
      "outputs": [],
      "stateMutability": "nonpayable",
      "type": "function"
    },
    {
      "inputs": [
        {
          "internalType": "address",
          "name": "owner",
          "type": "address"
        }
      ],
      "name": "balanceOf",
      "outputs": [
        {
          "internalType": "uint256",
          "name": "",
          "type": "uint256"
        }
      ],
      "stateMutability": "view",
      "type": "function"
    },
    {
      "inputs": [
        {
          "internalType": "bytes",
          "name": "checkData",
          "type": "bytes"
        }
      ],
      "name": "checkUpkeep",
      "outputs": [
        {
          "internalType": "bool",
          "name": "upkeepNeeded",
          "type": "bool"
        },
        {
          "internalType": "bytes",
          "name": "performData",
          "type": "bytes"
        }
      ],
      "stateMutability": "view",
      "type": "function"
    },
    {
      "inputs": [],
      "name": "contractLinkBalance",
      "outputs": [
        {
          "internalType": "uint256",
          "name": "balance",
          "type": "uint256"
        }
      ],
      "stateMutability": "view",
      "type": "function"
    },
    {
      "inputs": [
        {
          "internalType": "uint256",
          "name": "tokenId",
          "type": "uint256"
        }
      ],
      "name": "getApproved",
      "outputs": [
        {
          "internalType": "address",
          "name": "",
          "type": "address"
        }
      ],
      "stateMutability": "view",
      "type": "function"
    },
    {
      "inputs": [
        {
          "internalType": "address",
          "name": "owner",
          "type": "address"
        },
        {
          "internalType": "address",
          "name": "operator",
          "type": "address"
        }
      ],
      "name": "isApprovedForAll",
      "outputs": [
        {
          "internalType": "bool",
          "name": "",
          "type": "bool"
        }
      ],
      "stateMutability": "view",
      "type": "function"
    },
    {
      "inputs": [],
      "name": "maxPerWallet",
      "outputs": [
        {
          "internalType": "uint256",
          "name": "",
          "type": "uint256"
        }
      ],
      "stateMutability": "view",
      "type": "function"
    },
    {
      "inputs": [],
      "name": "maxSupply",
      "outputs": [
        {
          "internalType": "uint256",
          "name": "",
          "type": "uint256"
        }
      ],
      "stateMutability": "view",
      "type": "function"
    },
    {
      "inputs": [
        {
          "internalType": "uint32",
          "name": "gasLimit",
          "type": "uint32"
        }
      ],
      "name": "mint",
      "outputs": [],
      "stateMutability": "payable",
      "type": "function"
    },
    {
      "inputs": [],
      "name": "mintPrice",
      "outputs": [
        {
          "internalType": "uint256",
          "name": "",
          "type": "uint256"
        }
      ],
      "stateMutability": "view",
      "type": "function"
    },
    {
      "inputs": [
        {
          "internalType": "address",
          "name": "",
          "type": "address"
        }
      ],
      "name": "mintedPerWallet",
      "outputs": [
        {
          "internalType": "uint256",
          "name": "",
          "type": "uint256"
        }
      ],
      "stateMutability": "view",
      "type": "function"
    },
    {
      "inputs": [],
      "name": "name",
      "outputs": [
        {
          "internalType": "string",
          "name": "",
          "type": "string"
        }
      ],
      "stateMutability": "view",
      "type": "function"
    },
    {
      "inputs": [],
      "name": "owner",
      "outputs": [
        {
          "internalType": "address",
          "name": "",
          "type": "address"
        }
      ],
      "stateMutability": "view",
      "type": "function"
    },
    {
      "inputs": [
        {
          "internalType": "uint256",
          "name": "tokenId",
          "type": "uint256"
        }
      ],
      "name": "ownerOf",
      "outputs": [
        {
          "internalType": "address",
          "name": "",
          "type": "address"
        }
      ],
      "stateMutability": "view",
      "type": "function"
    },
    {
      "inputs": [
        {
          "internalType": "bytes",
          "name": "performData",
          "type": "bytes"
        }
      ],
      "name": "performUpkeep",
      "outputs": [],
      "stateMutability": "nonpayable",
      "type": "function"
    },
    {
      "inputs": [],
      "name": "renounceOwnership",
      "outputs": [],
      "stateMutability": "nonpayable",
      "type": "function"
    },
    {
      "inputs": [
        {
          "internalType": "address",
          "name": "from",
          "type": "address"
        },
        {
          "internalType": "address",
          "name": "to",
          "type": "address"
        },
        {
          "internalType": "uint256",
          "name": "tokenId",
          "type": "uint256"
        }
      ],
      "name": "safeTransferFrom",
      "outputs": [],
      "stateMutability": "nonpayable",
      "type": "function"
    },
    {
      "inputs": [
        {
          "internalType": "address",
          "name": "from",
          "type": "address"
        },
        {
          "internalType": "address",
          "name": "to",
          "type": "address"
        },
        {
          "internalType": "uint256",
          "name": "tokenId",
          "type": "uint256"
        },
        {
          "internalType": "bytes",
          "name": "data",
          "type": "bytes"
        }
      ],
      "name": "safeTransferFrom",
      "outputs": [],
      "stateMutability": "nonpayable",
      "type": "function"
    },
    {
      "inputs": [
        {
          "internalType": "address",
          "name": "operator",
          "type": "address"
        },
        {
          "internalType": "bool",
          "name": "approved",
          "type": "bool"
        }
      ],
      "name": "setApprovalForAll",
      "outputs": [],
      "stateMutability": "nonpayable",
      "type": "function"
    },
    {
      "inputs": [
        {
          "internalType": "bytes4",
          "name": "interfaceId",
          "type": "bytes4"
        }
      ],
      "name": "supportsInterface",
      "outputs": [
        {
          "internalType": "bool",
          "name": "",
          "type": "bool"
        }
      ],
      "stateMutability": "view",
      "type": "function"
    },
    {
      "inputs": [],
      "name": "symbol",
      "outputs": [
        {
          "internalType": "string",
          "name": "",
          "type": "string"
        }
      ],
      "stateMutability": "view",
      "type": "function"
    },
    {
      "inputs": [
        {
          "internalType": "uint256",
          "name": "",
          "type": "uint256"
        }
      ],
      "name": "tokenToUpkeepID",
      "outputs": [
        {
          "internalType": "uint256",
          "name": "",
          "type": "uint256"
        }
      ],
      "stateMutability": "view",
      "type": "function"
    },
    {
      "inputs": [
        {
          "internalType": "uint256",
          "name": "tokenId",
          "type": "uint256"
        }
      ],
      "name": "tokenURI",
      "outputs": [
        {
          "internalType": "string",
          "name": "",
          "type": "string"
        }
      ],
      "stateMutability": "view",
      "type": "function"
    },
    {
      "inputs": [],
      "name": "totalSupply",
      "outputs": [
        {
          "internalType": "uint256",
          "name": "",
          "type": "uint256"
        }
      ],
      "stateMutability": "view",
      "type": "function"
    },
    {
      "inputs": [
        {
          "internalType": "address",
          "name": "from",
          "type": "address"
        },
        {
          "internalType": "address",
          "name": "to",
          "type": "address"
        },
        {
          "internalType": "uint256",
          "name": "tokenId",
          "type": "uint256"
        }
      ],
      "name": "transferFrom",
      "outputs": [],
      "stateMutability": "nonpayable",
      "type": "function"
    },
    {
      "inputs": [
        {
          "internalType": "address",
          "name": "newOwner",
          "type": "address"
        }
      ],
      "name": "transferOwnership",
      "outputs": [],
      "stateMutability": "nonpayable",
      "type": "function"
    },
    {
      "inputs": [],
      "name": "withdrawLink",
      "outputs": [],
      "stateMutability": "nonpayable",
      "type": "function"
    }
  ],
  "bytecode": "0x610140604052633659d66660e01b6011600c6101000a81548163ffffffff021916908360e01c02179055503480156200003757600080fd5b50604051620065ce380380620065ce83398181016040528101906200005d91906200054a565b6040518060400160405280600681526020017f566a6b4e465400000000000000000000000000000000000000000000000000008152506040518060400160405280600681526020017f4d54564a4b4b00000000000000000000000000000000000000000000000000008152508160009080519060200190620000e1929190620003f9565b508060019080519060200190620000fa929190620003f9565b5050506200011d620001116200032b60201b60201c565b6200033360201b60201c565b8873ffffffffffffffffffffffffffffffffffffffff1660c08173ffffffffffffffffffffffffffffffffffffffff1660601b815250508773ffffffffffffffffffffffffffffffffffffffff1660e08173ffffffffffffffffffffffffffffffffffffffff1660601b815250508673ffffffffffffffffffffffffffffffffffffffff1660a08173ffffffffffffffffffffffffffffffffffffffff1660601b815250508573ffffffffffffffffffffffffffffffffffffffff1660808173ffffffffffffffffffffffffffffffffffffffff1660601b815250508473ffffffffffffffffffffffffffffffffffffffff166101008173ffffffffffffffffffffffffffffffffffffffff1660601b815250508373ffffffffffffffffffffffffffffffffffffffff166101208173ffffffffffffffffffffffffffffffffffffffff1660601b81525050670155f2dd73a1a000600c819055506003600d8190555061270f600e8190555082601060006101000a8154816bffffffffffffffffffffffff02191690836bffffffffffffffffffffffff160217905550816010600c6101000a8154816bffffffffffffffffffffffff02191690836bffffffffffffffffffffffff16021790555080601160006101000a8154816bffffffffffffffffffffffff02191690836bffffffffffffffffffffffff160217905550505050505050505050620007f9565b600033905090565b6000600760009054906101000a900473ffffffffffffffffffffffffffffffffffffffff16905081600760006101000a81548173ffffffffffffffffffffffffffffffffffffffff021916908373ffffffffffffffffffffffffffffffffffffffff1602179055508173ffffffffffffffffffffffffffffffffffffffff168173ffffffffffffffffffffffffffffffffffffffff167f8be0079c531659141344cd1fd0a4f28419497f9722a3daafe3b4186f6b6457e060405160405180910390a35050565b8280546200040790620006d9565b90600052602060002090601f0160209004810192826200042b576000855562000477565b82601f106200044657805160ff191683800117855562000477565b8280016001018555821562000477579182015b828111156200047657825182559160200191906001019062000459565b5b5090506200048691906200048a565b5090565b5b80821115620004a55760008160009055506001016200048b565b5090565b600081519050620004ba8162000743565b92915050565b600081519050620004d1816200075d565b92915050565b600081519050620004e88162000777565b92915050565b600081519050620004ff8162000791565b92915050565b6000815190506200051681620007ab565b92915050565b6000815190506200052d81620007c5565b92915050565b6000815190506200054481620007df565b92915050565b60008060008060008060008060006101208a8c03121562000570576200056f6200073e565b5b6000620005808c828d01620004d7565b9950506020620005938c828d0162000505565b9850506040620005a68c828d01620004ee565b9750506060620005b98c828d016200051c565b9650506080620005cc8c828d01620004a9565b95505060a0620005df8c828d01620004c0565b94505060c0620005f28c828d0162000533565b93505060e0620006058c828d0162000533565b925050610100620006198c828d0162000533565b9150509295985092959850929598565b60006200063682620006a1565b9050919050565b60006200064a8262000629565b9050919050565b60006200065e8262000629565b9050919050565b6000620006728262000629565b9050919050565b6000620006868262000629565b9050919050565b60006200069a8262000629565b9050919050565b600073ffffffffffffffffffffffffffffffffffffffff82169050919050565b60006bffffffffffffffffffffffff82169050919050565b60006002820490506001821680620006f257607f821691505b602082108114156200070957620007086200070f565b5b50919050565b7f4e487b7100000000000000000000000000000000000000000000000000000000600052602260045260246000fd5b600080fd5b6200074e8162000629565b81146200075a57600080fd5b50565b62000768816200063d565b81146200077457600080fd5b50565b620007828162000651565b81146200078e57600080fd5b50565b6200079c8162000665565b8114620007a857600080fd5b50565b620007b68162000679565b8114620007c257600080fd5b50565b620007d0816200068d565b8114620007dc57600080fd5b50565b620007ea81620006c1565b8114620007f657600080fd5b50565b60805160601c60a05160601c60c05160601c60e05160601c6101005160601c6101205160601c615cfc620008d260003960008181611665015281816118ac015261198e015260006117ce015260008181610bf701528181610e4f0152818161112b015281816122550152818161282e0152612a0d015260008181610b4301528181610d9b0152818161104c0152818161219e0152818161270801526129680152600061157401526000818161120a015281816112470152818161179201528181611ab1015281816126cc01526127f20152615cfc6000f3fe6080604052600436106101b75760003560e01c806370a08231116100ec578063a71bbebe1161008a578063c87b56dd11610064578063c87b56dd14610615578063d5abeb0114610652578063e985e9c51461067d578063f2fde38b146106ba576101b7565b8063a71bbebe146105a5578063b88d4fde146105c1578063c17f31e1146105ea576101b7565b80638dc654a2116100c65780638dc654a2146104fd57806395d89b4114610514578063a22cb4651461053f578063a6b8376b14610568576101b7565b806370a082311461047e578063715018a6146104bb5780638da5cb5b146104d2576101b7565b80633a602b4d116101595780634585e33b116101335780634585e33b146103af5780636352211e146103d85780636817c76c146104155780636e04ff0d14610440576101b7565b80633a602b4d1461031e57806342842e0e1461035b578063453c231014610384576101b7565b8063095ea7b311610195578063095ea7b31461026157806318160ddd1461028a5780631bd3dbde146102b557806323b872dd146102f5576101b7565b806301ffc9a7146101bc57806306fdde03146101f9578063081812fc14610224575b600080fd5b3480156101c857600080fd5b506101e360048036038101906101de9190613fdc565b6106e3565b6040516101f09190614b08565b60405180910390f35b34801561020557600080fd5b5061020e6107c5565b60405161021b9190614b6e565b60405180910390f35b34801561023057600080fd5b5061024b60048036038101906102469190614186565b610857565b6040516102589190614a11565b60405180910390f35b34801561026d57600080fd5b5061028860048036038101906102839190613f42565b61089d565b005b34801561029657600080fd5b5061029f6109b5565b6040516102ac9190614f9e565b60405180910390f35b3480156102c157600080fd5b506102dc60048036038101906102d79190613f42565b6109bb565b6040516102ec9493929190614c30565b60405180910390f35b34801561030157600080fd5b5061031c60048036038101906103179190613e2c565b610a90565b005b34801561032a57600080fd5b5061034560048036038101906103409190613dbf565b610af0565b6040516103529190614f9e565b60405180910390f35b34801561036757600080fd5b50610382600480360381019061037d9190613e2c565b610b08565b005b34801561039057600080fd5b50610399610b28565b6040516103a69190614f9e565b60405180910390f35b3480156103bb57600080fd5b506103d660048036038101906103d19190614036565b610b2e565b005b3480156103e457600080fd5b506103ff60048036038101906103fa9190614186565b610cf5565b60405161040c9190614a11565b60405180910390f35b34801561042157600080fd5b5061042a610d7c565b6040516104379190614f9e565b60405180910390f35b34801561044c57600080fd5b5061046760048036038101906104629190614036565b610d82565b604051610475929190614b23565b60405180910390f35b34801561048a57600080fd5b506104a560048036038101906104a09190613dbf565b610f4c565b6040516104b29190614f9e565b60405180910390f35b3480156104c757600080fd5b506104d0611004565b005b3480156104de57600080fd5b506104e7611018565b6040516104f49190614a11565b60405180910390f35b34801561050957600080fd5b50610512611042565b005b34801561052057600080fd5b5061052961139e565b6040516105369190614b6e565b60405180910390f35b34801561054b57600080fd5b5061056660048036038101906105619190613f02565b611430565b005b34801561057457600080fd5b5061058f600480360381019061058a9190614186565b611446565b60405161059c9190614f9e565b60405180910390f35b6105bf60048036038101906105ba91906141e0565b61145e565b005b3480156105cd57600080fd5b506105e860048036038101906105e39190613e7f565b611a43565b005b3480156105f657600080fd5b506105ff611aa5565b60405161060c9190614f9e565b60405180910390f35b34801561062157600080fd5b5061063c60048036038101906106379190614186565b611b5d565b6040516106499190614b6e565b60405180910390f35b34801561065e57600080fd5b50610667611b6f565b6040516106749190614f9e565b60405180910390f35b34801561068957600080fd5b506106a4600480360381019061069f9190613dec565b611b75565b6040516106b19190614b08565b60405180910390f35b3480156106c657600080fd5b506106e160048036038101906106dc9190613dbf565b611c09565b005b60007f80ac58cd000000000000000000000000000000000000000000000000000000007bffffffffffffffffffffffffffffffffffffffffffffffffffffffff1916827bffffffffffffffffffffffffffffffffffffffffffffffffffffffff191614806107ae57507f5b5e139f000000000000000000000000000000000000000000000000000000007bffffffffffffffffffffffffffffffffffffffffffffffffffffffff1916827bffffffffffffffffffffffffffffffffffffffffffffffffffffffff1916145b806107be57506107bd82611c8d565b5b9050919050565b6060600080546107d490615316565b80601f016020809104026020016040519081016040528092919081815260200182805461080090615316565b801561084d5780601f106108225761010080835404028352916020019161084d565b820191906000526020600020905b81548152906001019060200180831161083057829003601f168201915b5050505050905090565b600061086282611cf7565b6004600083815260200190815260200160002060009054906101000a900473ffffffffffffffffffffffffffffffffffffffff169050919050565b60006108a882610cf5565b90508073ffffffffffffffffffffffffffffffffffffffff168373ffffffffffffffffffffffffffffffffffffffff161415610919576040517f08c379a000000000000000000000000000000000000000000000000000000000815260040161091090614f3c565b60405180910390fd5b8073ffffffffffffffffffffffffffffffffffffffff16610938611d42565b73ffffffffffffffffffffffffffffffffffffffff161480610967575061096681610961611d42565b611b75565b5b6109a6576040517f08c379a000000000000000000000000000000000000000000000000000000000815260040161099d90614f5c565b60405180910390fd5b6109b08383611d4a565b505050565b600f5481565b600960205281600052604060002081815481106109d757600080fd5b9060005260206000209060040201600091509150508060000180546109fb90615316565b80601f0160208091040260200160405190810160405280929190818152602001828054610a2790615316565b8015610a745780601f10610a4957610100808354040283529160200191610a74565b820191906000526020600020905b815481529060010190602001808311610a5757829003601f168201915b5050505050908060010154908060020154908060030154905084565b610aa1610a9b611d42565b82611e03565b610ae0576040517f08c379a0000000000000000000000000000000000000000000000000000000008152600401610ad790614c7c565b60405180910390fd5b610aeb838383611e98565b505050565b600a6020528060005260406000206000915090505481565b610b2383838360405180602001604052806000815250611a43565b505050565b600d5481565b60008282810190610b3f91906140cc565b90507f000000000000000000000000000000000000000000000000000000000000000073ffffffffffffffffffffffffffffffffffffffff166338a699a482604001516040518263ffffffff1660e01b8152600401610b9e9190614b53565b60206040518083038186803b158015610bb657600080fd5b505afa158015610bca573d6000803e3d6000fd5b505050506040513d601f19601f82011682018060405250810190610bee9190613f82565b8015610ca357507f000000000000000000000000000000000000000000000000000000000000000073ffffffffffffffffffffffffffffffffffffffff16634f558e7982606001516040518263ffffffff1660e01b8152600401610c529190614f9e565b60206040518083038186803b158015610c6a57600080fd5b505afa158015610c7e573d6000803e3d6000fd5b505050506040513d601f19601f82011682018060405250810190610ca29190613f82565b5b15610cf057610cbe8160200151610cb983612192565b612352565b80602001517f06acbfb32bcf8383f3b0a768b70ac9ec234ea0f2d3b9c77fa6a2de69b919aad160405160405180910390a25b505050565b600080610d01836123c6565b9050600073ffffffffffffffffffffffffffffffffffffffff168173ffffffffffffffffffffffffffffffffffffffff161415610d73576040517f08c379a0000000000000000000000000000000000000000000000000000000008152600401610d6a90614f1c565b60405180910390fd5b80915050919050565b600c5481565b6000606060008484810190610d9791906140cc565b90507f000000000000000000000000000000000000000000000000000000000000000073ffffffffffffffffffffffffffffffffffffffff166338a699a482604001516040518263ffffffff1660e01b8152600401610df69190614b53565b60206040518083038186803b158015610e0e57600080fd5b505afa158015610e22573d6000803e3d6000fd5b505050506040513d601f19601f82011682018060405250810190610e469190613f82565b8015610efb57507f000000000000000000000000000000000000000000000000000000000000000073ffffffffffffffffffffffffffffffffffffffff16634f558e7982606001516040518263ffffffff1660e01b8152600401610eaa9190614f9e565b60206040518083038186803b158015610ec257600080fd5b505afa158015610ed6573d6000803e3d6000fd5b505050506040513d601f19601f82011682018060405250810190610efa9190613f82565b5b925084848080601f016020809104026020016040519081016040528093929190818152602001838380828437600081840152601f19601f820116905080830192505050505050509150509250929050565b60008073ffffffffffffffffffffffffffffffffffffffff168273ffffffffffffffffffffffffffffffffffffffff161415610fbd576040517f08c379a0000000000000000000000000000000000000000000000000000000008152600401610fb490614ddc565b60405180910390fd5b600360008373ffffffffffffffffffffffffffffffffffffffff1673ffffffffffffffffffffffffffffffffffffffff168152602001908152602001600020549050919050565b61100c612403565b6110166000612481565b565b6000600760009054906101000a900473ffffffffffffffffffffffffffffffffffffffff16905090565b61104a612403565b7f000000000000000000000000000000000000000000000000000000000000000073ffffffffffffffffffffffffffffffffffffffff16638dc654a26040518163ffffffff1660e01b8152600401602060405180830381600087803b1580156110b257600080fd5b505af11580156110c6573d6000803e3d6000fd5b505050506040513d601f19601f820116820180604052508101906110ea9190613f82565b611129576040517f08c379a000000000000000000000000000000000000000000000000000000000815260040161112090614d1c565b60405180910390fd5b7f000000000000000000000000000000000000000000000000000000000000000073ffffffffffffffffffffffffffffffffffffffff16638dc654a26040518163ffffffff1660e01b8152600401602060405180830381600087803b15801561119157600080fd5b505af11580156111a5573d6000803e3d6000fd5b505050506040513d601f19601f820116820180604052508101906111c99190613f82565b611208576040517f08c379a00000000000000000000000000000000000000000000000000000000081526004016111ff90614d3c565b60405180910390fd5b7f000000000000000000000000000000000000000000000000000000000000000073ffffffffffffffffffffffffffffffffffffffff1663a9059cbb337f000000000000000000000000000000000000000000000000000000000000000073ffffffffffffffffffffffffffffffffffffffff166370a08231306040518263ffffffff1660e01b815260040161129e9190614a11565b60206040518083038186803b1580156112b657600080fd5b505afa1580156112ca573d6000803e3d6000fd5b505050506040513d601f19601f820116820180604052508101906112ee91906141b3565b6040518363ffffffff1660e01b815260040161130b929190614a78565b602060405180830381600087803b15801561132557600080fd5b505af1158015611339573d6000803e3d6000fd5b505050506040513d601f19601f8201168201806040525081019061135d9190613f82565b61139c576040517f08c379a000000000000000000000000000000000000000000000000000000000815260040161139390614ebc565b60405180910390fd5b565b6060600180546113ad90615316565b80601f01602080910402602001604051908101604052809291908181526020018280546113d990615316565b80156114265780601f106113fb57610100808354040283529160200191611426565b820191906000526020600020905b81548152906001019060200180831161140957829003601f168201915b5050505050905090565b61144261143b611d42565b8383612547565b5050565b600b6020528060005260406000206000915090505481565b600c5434146114a2576040517f08c379a000000000000000000000000000000000000000000000000000000000815260040161149990614e1c565b60405180910390fd5b600d54600a60003373ffffffffffffffffffffffffffffffffffffffff1673ffffffffffffffffffffffffffffffffffffffff1681526020019081526020016000205410611525576040517f08c379a000000000000000000000000000000000000000000000000000000000815260040161151c90614e5c565b60405180910390fd5b61152f60086126b4565b600e5411611572576040517f08c379a000000000000000000000000000000000000000000000000000000000815260040161156990614d9c565b60405180910390fd5b7f000000000000000000000000000000000000000000000000000000000000000073ffffffffffffffffffffffffffffffffffffffff1663c7d57deb346040518263ffffffff1660e01b81526004016020604051808303818588803b1580156115da57600080fd5b505af11580156115ee573d6000803e3d6000fd5b50505050506040513d601f19601f820116820180604052508101906116139190613f82565b611652576040517f08c379a000000000000000000000000000000000000000000000000000000000815260040161164990614e3c565b60405180910390fd5b600061165c6126c2565b905060008060007f000000000000000000000000000000000000000000000000000000000000000073ffffffffffffffffffffffffffffffffffffffff16631865c57d6040518163ffffffff1660e01b815260040160006040518083038186803b1580156116c957600080fd5b505afa1580156116dd573d6000803e3d6000fd5b505050506040513d6000823e3d601f19601f820116820180604052508101906117069190614115565b9250925092506000836000015163ffffffff16905060008560405160200161172e9190614f7c565b60405160208183030381529060405290506000866000015130893385601160009054906101000a90046bffffffffffffffffffffffff1660003060405160200161177f989796959493929190614b90565b60405160208183030381529060405290507f000000000000000000000000000000000000000000000000000000000000000073ffffffffffffffffffffffffffffffffffffffff16634000aea07f0000000000000000000000000000000000000000000000000000000000000000601160009054906101000a90046bffffffffffffffffffffffff166011600c9054906101000a900460e01b8560405160200161182a92919061490c565b6040516020818303038152906040526040518463ffffffff1660e01b815260040161185793929190614aca565b602060405180830381600087803b15801561187157600080fd5b505af1158015611885573d6000803e3d6000fd5b505050506040513d601f19601f820116820180604052508101906118a99190613f82565b507f000000000000000000000000000000000000000000000000000000000000000073ffffffffffffffffffffffffffffffffffffffff16631865c57d6040518163ffffffff1660e01b815260040160006040518083038186803b15801561191057600080fd5b505afa158015611924573d6000803e3d6000fd5b505050506040513d6000823e3d601f19601f8201168201806040525081019061194d9190614115565b8096508197508298505050506000866000015163ffffffff16905060018461197591906150cb565b8114156119fd57600060014361198b91906151ac565b407f0000000000000000000000000000000000000000000000000000000000000000866040516020016119c0939291906148cf565b6040516020818303038152906040528051906020012060001c905080600b60008b6020015181526020019081526020016000208190555050611a38565b6040517f08c379a0000000000000000000000000000000000000000000000000000000008152600401611a2f90614e9c565b60405180910390fd5b505050505050505050565b611a54611a4e611d42565b83611e03565b611a93576040517f08c379a0000000000000000000000000000000000000000000000000000000008152600401611a8a90614c7c565b60405180910390fd5b611a9f84848484612bde565b50505050565b6000611aaf612403565b7f000000000000000000000000000000000000000000000000000000000000000073ffffffffffffffffffffffffffffffffffffffff166370a08231306040518263ffffffff1660e01b8152600401611b089190614a11565b60206040518083038186803b158015611b2057600080fd5b505afa158015611b34573d6000803e3d6000fd5b505050506040513d601f19601f82011682018060405250810190611b5891906141b3565b905090565b6060611b6882612c3a565b9050919050565b600e5481565b6000600560008473ffffffffffffffffffffffffffffffffffffffff1673ffffffffffffffffffffffffffffffffffffffff16815260200190815260200160002060008373ffffffffffffffffffffffffffffffffffffffff1673ffffffffffffffffffffffffffffffffffffffff16815260200190815260200160002060009054906101000a900460ff16905092915050565b611c11612403565b600073ffffffffffffffffffffffffffffffffffffffff168173ffffffffffffffffffffffffffffffffffffffff161415611c81576040517f08c379a0000000000000000000000000000000000000000000000000000000008152600401611c7890614cbc565b60405180910390fd5b611c8a81612481565b50565b60007f01ffc9a7000000000000000000000000000000000000000000000000000000007bffffffffffffffffffffffffffffffffffffffffffffffffffffffff1916827bffffffffffffffffffffffffffffffffffffffffffffffffffffffff1916149050919050565b611d0081612d4d565b611d3f576040517f08c379a0000000000000000000000000000000000000000000000000000000008152600401611d3690614f1c565b60405180910390fd5b50565b600033905090565b816004600083815260200190815260200160002060006101000a81548173ffffffffffffffffffffffffffffffffffffffff021916908373ffffffffffffffffffffffffffffffffffffffff160217905550808273ffffffffffffffffffffffffffffffffffffffff16611dbd83610cf5565b73ffffffffffffffffffffffffffffffffffffffff167f8c5be1e5ebec7d5bd14f71427d1e84f3dd0314c0f7b2291e5b200ac8c7c3b92560405160405180910390a45050565b600080611e0f83610cf5565b90508073ffffffffffffffffffffffffffffffffffffffff168473ffffffffffffffffffffffffffffffffffffffff161480611e515750611e508185611b75565b5b80611e8f57508373ffffffffffffffffffffffffffffffffffffffff16611e7784610857565b73ffffffffffffffffffffffffffffffffffffffff16145b91505092915050565b8273ffffffffffffffffffffffffffffffffffffffff16611eb882610cf5565b73ffffffffffffffffffffffffffffffffffffffff1614611f0e576040517f08c379a0000000000000000000000000000000000000000000000000000000008152600401611f0590614cdc565b60405180910390fd5b600073ffffffffffffffffffffffffffffffffffffffff168273ffffffffffffffffffffffffffffffffffffffff161415611f7e576040517f08c379a0000000000000000000000000000000000000000000000000000000008152600401611f7590614d5c565b60405180910390fd5b611f8b8383836001612d8e565b8273ffffffffffffffffffffffffffffffffffffffff16611fab82610cf5565b73ffffffffffffffffffffffffffffffffffffffff1614612001576040517f08c379a0000000000000000000000000000000000000000000000000000000008152600401611ff890614cdc565b60405180910390fd5b6004600082815260200190815260200160002060006101000a81549073ffffffffffffffffffffffffffffffffffffffff02191690556001600360008573ffffffffffffffffffffffffffffffffffffffff1673ffffffffffffffffffffffffffffffffffffffff168152602001908152602001600020600082825403925050819055506001600360008473ffffffffffffffffffffffffffffffffffffffff1673ffffffffffffffffffffffffffffffffffffffff16815260200190815260200160002060008282540192505081905550816002600083815260200190815260200160002060006101000a81548173ffffffffffffffffffffffffffffffffffffffff021916908373ffffffffffffffffffffffffffffffffffffffff160217905550808273ffffffffffffffffffffffffffffffffffffffff168473ffffffffffffffffffffffffffffffffffffffff167fddf252ad1be2c89b69c2b068fc378daa952ba7f163c4a11628f55a4df523b3ef60405160405180910390a461218d8383836001612eb4565b505050565b606061232c82600001517f000000000000000000000000000000000000000000000000000000000000000073ffffffffffffffffffffffffffffffffffffffff166315f05b0585604001516040518263ffffffff1660e01b81526004016121f99190614b53565b60006040518083038186803b15801561221157600080fd5b505afa158015612225573d6000803e3d6000fd5b505050506040513d6000823e3d601f19601f8201168201806040525081019061224e9190614083565b84600001517f000000000000000000000000000000000000000000000000000000000000000073ffffffffffffffffffffffffffffffffffffffff166344b285db87606001516040518263ffffffff1660e01b81526004016122b09190614f9e565b60006040518083038186803b1580156122c857600080fd5b505afa1580156122dc573d6000803e3d6000fd5b505050506040513d6000823e3d601f19601f820116820180604052508101906123059190614083565b6040516020016123189493929190614958565b604051602081830303815290604052612eba565b60405160200161233c91906149ef565b6040516020818303038152906040529050919050565b61235b82612d4d565b61239a576040517f08c379a000000000000000000000000000000000000000000000000000000000815260040161239190614dfc565b60405180910390fd5b806006600084815260200190815260200160002090805190602001906123c1929190613744565b505050565b60006002600083815260200190815260200160002060009054906101000a900473ffffffffffffffffffffffffffffffffffffffff169050919050565b61240b611d42565b73ffffffffffffffffffffffffffffffffffffffff16612429611018565b73ffffffffffffffffffffffffffffffffffffffff161461247f576040517f08c379a000000000000000000000000000000000000000000000000000000000815260040161247690614efc565b60405180910390fd5b565b6000600760009054906101000a900473ffffffffffffffffffffffffffffffffffffffff16905081600760006101000a81548173ffffffffffffffffffffffffffffffffffffffff021916908373ffffffffffffffffffffffffffffffffffffffff1602179055508173ffffffffffffffffffffffffffffffffffffffff168173ffffffffffffffffffffffffffffffffffffffff167f8be0079c531659141344cd1fd0a4f28419497f9722a3daafe3b4186f6b6457e060405160405180910390a35050565b8173ffffffffffffffffffffffffffffffffffffffff168373ffffffffffffffffffffffffffffffffffffffff1614156125b6576040517f08c379a00000000000000000000000000000000000000000000000000000000081526004016125ad90614d7c565b60405180910390fd5b80600560008573ffffffffffffffffffffffffffffffffffffffff1673ffffffffffffffffffffffffffffffffffffffff16815260200190815260200160002060008473ffffffffffffffffffffffffffffffffffffffff1673ffffffffffffffffffffffffffffffffffffffff16815260200190815260200160002060006101000a81548160ff0219169083151502179055508173ffffffffffffffffffffffffffffffffffffffff168373ffffffffffffffffffffffffffffffffffffffff167f17307eab39ab6107e8899845ad3d59bd9653f200f220920489ca2b5937696c31836040516126a79190614b08565b60405180910390a3505050565b600081600001549050919050565b6126ca6137ca565b7f000000000000000000000000000000000000000000000000000000000000000073ffffffffffffffffffffffffffffffffffffffff1663a9059cbb7f0000000000000000000000000000000000000000000000000000000000000000601060009054906101000a90046bffffffffffffffffffffffff166040518363ffffffff1660e01b815260040161275f929190614aa1565b602060405180830381600087803b15801561277957600080fd5b505af115801561278d573d6000803e3d6000fd5b505050506040513d601f19601f820116820180604052508101906127b19190613f82565b6127f0576040517f08c379a00000000000000000000000000000000000000000000000000000000081526004016127e790614edc565b60405180910390fd5b7f000000000000000000000000000000000000000000000000000000000000000073ffffffffffffffffffffffffffffffffffffffff1663a9059cbb7f00000000000000000000000000000000000000000000000000000000000000006010600c9054906101000a90046bffffffffffffffffffffffff166040518363ffffffff1660e01b8152600401612885929190614aa1565b602060405180830381600087803b15801561289f57600080fd5b505af11580156128b3573d6000803e3d6000fd5b505050506040513d601f19601f820116820180604052508101906128d79190613f82565b612916576040517f08c379a000000000000000000000000000000000000000000000000000000000815260040161290d90614dbc565b60405180910390fd5b604051806080016040528061293361292e60086126b4565b613033565b60405160200161294391906149cd565b604051602081830303815290604052815260200161296160086126b4565b81526020017f000000000000000000000000000000000000000000000000000000000000000073ffffffffffffffffffffffffffffffffffffffff1663179cf9f56040518163ffffffff1660e01b8152600401602060405180830381600087803b1580156129ce57600080fd5b505af11580156129e2573d6000803e3d6000fd5b505050506040513d601f19601f82011682018060405250810190612a069190613faf565b81526020017f000000000000000000000000000000000000000000000000000000000000000073ffffffffffffffffffffffffffffffffffffffff1663e0c862896040518163ffffffff1660e01b8152600401602060405180830381600087803b158015612a7357600080fd5b505af1158015612a87573d6000803e3d6000fd5b505050506040513d601f19601f82011682018060405250810190612aab91906141b3565b8152509050612aba600861310b565b600f6000815480929190612acd90615379565b9190505550600a60003373ffffffffffffffffffffffffffffffffffffffff1673ffffffffffffffffffffffffffffffffffffffff1681526020019081526020016000206000815480929190612b2290615379565b9190505550600960003373ffffffffffffffffffffffffffffffffffffffff1673ffffffffffffffffffffffffffffffffffffffff1681526020019081526020016000208190806001815401808255809150506001900390600052602060002090600402016000909190919091506000820151816000019080519060200190612bac929190613744565b506020820151816001015560408201518160020155606082015181600301555050612bdb338260200151613121565b90565b612be9848484611e98565b612bf58484848461313f565b612c34576040517f08c379a0000000000000000000000000000000000000000000000000000000008152600401612c2b90614c9c565b60405180910390fd5b50505050565b6060612c4582611cf7565b6000600660008481526020019081526020016000208054612c6590615316565b80601f0160208091040260200160405190810160405280929190818152602001828054612c9190615316565b8015612cde5780601f10612cb357610100808354040283529160200191612cde565b820191906000526020600020905b815481529060010190602001808311612cc157829003601f168201915b505050505090506000612cef6132d6565b9050600081511415612d05578192505050612d48565b600082511115612d3a578082604051602001612d22929190614934565b60405160208183030381529060405292505050612d48565b612d43846132ed565b925050505b919050565b60008073ffffffffffffffffffffffffffffffffffffffff16612d6f836123c6565b73ffffffffffffffffffffffffffffffffffffffff1614159050919050565b6001811115612eae57600073ffffffffffffffffffffffffffffffffffffffff168473ffffffffffffffffffffffffffffffffffffffff1614612e225780600360008673ffffffffffffffffffffffffffffffffffffffff1673ffffffffffffffffffffffffffffffffffffffff1681526020019081526020016000206000828254612e1a91906151ac565b925050819055505b600073ffffffffffffffffffffffffffffffffffffffff168373ffffffffffffffffffffffffffffffffffffffff1614612ead5780600360008573ffffffffffffffffffffffffffffffffffffffff1673ffffffffffffffffffffffffffffffffffffffff1681526020019081526020016000206000828254612ea591906150cb565b925050819055505b5b50505050565b50505050565b6060600082511415612edd5760405180602001604052806000815250905061302e565b6000604051806060016040528060408152602001615c876040913990506000600360028551612f0c91906150cb565b612f169190615121565b6004612f229190615152565b90506000602082612f3391906150cb565b67ffffffffffffffff811115612f4c57612f4b615499565b5b6040519080825280601f01601f191660200182016040528015612f7e5781602001600182028036833780820191505090505b509050818152600183018586518101602084015b81831015612fed576003830192508251603f8160121c168501518253600182019150603f81600c1c168501518253600182019150603f8160061c168501518253600182019150603f8116850151825360018201915050612f92565b600389510660018114613007576002811461301757613022565b613d3d60f01b6002830352613022565b603d60f81b60018303525b50505050508093505050505b919050565b60606000600161304284613355565b01905060008167ffffffffffffffff81111561306157613060615499565b5b6040519080825280601f01601f1916602001820160405280156130935781602001600182028036833780820191505090505b509050600082602001820190505b600115613100578080600190039150507f3031323334353637383961626364656600000000000000000000000000000000600a86061a8153600a85816130ea576130e961543b565b5b04945060008514156130fb57613100565b6130a1565b819350505050919050565b6001816000016000828254019250508190555050565b61313b8282604051806020016040528060008152506134a8565b5050565b60006131608473ffffffffffffffffffffffffffffffffffffffff16613503565b156132c9578373ffffffffffffffffffffffffffffffffffffffff1663150b7a02613189611d42565b8786866040518563ffffffff1660e01b81526004016131ab9493929190614a2c565b602060405180830381600087803b1580156131c557600080fd5b505af19250505080156131f657506040513d601f19601f820116820180604052508101906131f39190614009565b60015b613279573d8060008114613226576040519150601f19603f3d011682016040523d82523d6000602084013e61322b565b606091505b50600081511415613271576040517f08c379a000000000000000000000000000000000000000000000000000000000815260040161326890614c9c565b60405180910390fd5b805181602001fd5b63150b7a0260e01b7bffffffffffffffffffffffffffffffffffffffffffffffffffffffff1916817bffffffffffffffffffffffffffffffffffffffffffffffffffffffff1916149150506132ce565b600190505b949350505050565b606060405180602001604052806000815250905090565b60606132f882611cf7565b60006133026132d6565b90506000815111613322576040518060200160405280600081525061334d565b8061332c84613033565b60405160200161333d929190614934565b6040516020818303038152906040525b915050919050565b600080600090507a184f03e93ff9f4daa797ed6e38ed64bf6a1f01000000000000000083106133b3577a184f03e93ff9f4daa797ed6e38ed64bf6a1f01000000000000000083816133a9576133a861543b565b5b0492506040810190505b6d04ee2d6d415b85acef810000000083106133f0576d04ee2d6d415b85acef810000000083816133e6576133e561543b565b5b0492506020810190505b662386f26fc10000831061341f57662386f26fc1000083816134155761341461543b565b5b0492506010810190505b6305f5e1008310613448576305f5e100838161343e5761343d61543b565b5b0492506008810190505b612710831061346d5761271083816134635761346261543b565b5b0492506004810190505b6064831061349057606483816134865761348561543b565b5b0492506002810190505b600a831061349f576001810190505b80915050919050565b6134b28383613526565b6134bf600084848461313f565b6134fe576040517f08c379a00000000000000000000000000000000000000000000000000000000081526004016134f590614c9c565b60405180910390fd5b505050565b6000808273ffffffffffffffffffffffffffffffffffffffff163b119050919050565b600073ffffffffffffffffffffffffffffffffffffffff168273ffffffffffffffffffffffffffffffffffffffff161415613596576040517f08c379a000000000000000000000000000000000000000000000000000000000815260040161358d90614e7c565b60405180910390fd5b61359f81612d4d565b156135df576040517f08c379a00000000000000000000000000000000000000000000000000000000081526004016135d690614cfc565b60405180910390fd5b6135ed600083836001612d8e565b6135f681612d4d565b15613636576040517f08c379a000000000000000000000000000000000000000000000000000000000815260040161362d90614cfc565b60405180910390fd5b6001600360008473ffffffffffffffffffffffffffffffffffffffff1673ffffffffffffffffffffffffffffffffffffffff16815260200190815260200160002060008282540192505081905550816002600083815260200190815260200160002060006101000a81548173ffffffffffffffffffffffffffffffffffffffff021916908373ffffffffffffffffffffffffffffffffffffffff160217905550808273ffffffffffffffffffffffffffffffffffffffff16600073ffffffffffffffffffffffffffffffffffffffff167fddf252ad1be2c89b69c2b068fc378daa952ba7f163c4a11628f55a4df523b3ef60405160405180910390a4613740600083836001612eb4565b5050565b82805461375090615316565b90600052602060002090601f01602090048101928261377257600085556137b9565b82601f1061378b57805160ff19168380011785556137b9565b828001600101855582156137b9579182015b828111156137b857825182559160200191906001019061379d565b5b5090506137c691906137f5565b5090565b6040518060800160405280606081526020016000815260200160008019168152602001600081525090565b5b8082111561380e5760008160009055506001016137f6565b5090565b600061382561382084614fde565b614fb9565b90508083825260208201905082856020860282011115613848576138476154dc565b5b60005b85811015613878578161385e888261395d565b84526020840193506020830192505060018101905061384b565b5050509392505050565b60006138956138908461500a565b614fb9565b9050828152602081018484840111156138b1576138b06154e1565b5b6138bc8482856152d4565b509392505050565b60006138d76138d28461503b565b614fb9565b9050828152602081018484840111156138f3576138f26154e1565b5b6138fe8482856152d4565b509392505050565b60006139196139148461503b565b614fb9565b905082815260208101848484011115613935576139346154e1565b5b6139408482856152e3565b509392505050565b60008135905061395781615bb7565b92915050565b60008151905061396c81615bb7565b92915050565b600082601f830112613987576139866154cd565b5b8151613997848260208601613812565b91505092915050565b6000813590506139af81615bce565b92915050565b6000815190506139c481615bce565b92915050565b6000813590506139d981615be5565b92915050565b6000815190506139ee81615be5565b92915050565b600081359050613a0381615bfc565b92915050565b600081519050613a1881615bfc565b92915050565b60008083601f840112613a3457613a336154cd565b5b8235905067ffffffffffffffff811115613a5157613a506154c8565b5b602083019150836001820283011115613a6d57613a6c6154dc565b5b9250929050565b600082601f830112613a8957613a886154cd565b5b8135613a99848260208601613882565b91505092915050565b600082601f830112613ab757613ab66154cd565b5b8135613ac78482602086016138c4565b91505092915050565b600082601f830112613ae557613ae46154cd565b5b8151613af5848260208601613906565b91505092915050565b60006101808284031215613b1557613b146154d2565b5b613b20610180614fb9565b90506000613b3084828501613d95565b6000830152506020613b4484828501613d95565b6020830152506040613b5884828501613d41565b6040830152506060613b6c84828501613d95565b6060830152506080613b8084828501613d41565b60808301525060a0613b9484828501613d2c565b60a08301525060c0613ba884828501613daa565b60c08301525060e0613bbc84828501613d95565b60e083015250610100613bd184828501613d6b565b61010083015250610120613be784828501613d6b565b61012083015250610140613bfd8482850161395d565b61014083015250610160613c138482850161395d565b6101608301525092915050565b600060808284031215613c3657613c356154d2565b5b613c406080614fb9565b9050600082013567ffffffffffffffff811115613c6057613c5f6154d7565b5b613c6c84828501613aa2565b6000830152506020613c8084828501613d56565b6020830152506040613c94848285016139ca565b6040830152506060613ca884828501613d56565b60608301525092915050565b600060808284031215613cca57613cc96154d2565b5b613cd46080614fb9565b90506000613ce484828501613d95565b6000830152506020613cf884828501613daa565b6020830152506040613d0c84828501613d6b565b6040830152506060613d2084828501613d6b565b60608301525092915050565b600081519050613d3b81615c13565b92915050565b600081519050613d5081615c2a565b92915050565b600081359050613d6581615c41565b92915050565b600081519050613d7a81615c41565b92915050565b600081359050613d8f81615c58565b92915050565b600081519050613da481615c58565b92915050565b600081519050613db981615c6f565b92915050565b600060208284031215613dd557613dd46154eb565b5b6000613de384828501613948565b91505092915050565b60008060408385031215613e0357613e026154eb565b5b6000613e1185828601613948565b9250506020613e2285828601613948565b9150509250929050565b600080600060608486031215613e4557613e446154eb565b5b6000613e5386828701613948565b9350506020613e6486828701613948565b9250506040613e7586828701613d56565b9150509250925092565b60008060008060808587031215613e9957613e986154eb565b5b6000613ea787828801613948565b9450506020613eb887828801613948565b9350506040613ec987828801613d56565b925050606085013567ffffffffffffffff811115613eea57613ee96154e6565b5b613ef687828801613a74565b91505092959194509250565b60008060408385031215613f1957613f186154eb565b5b6000613f2785828601613948565b9250506020613f38858286016139a0565b9150509250929050565b60008060408385031215613f5957613f586154eb565b5b6000613f6785828601613948565b9250506020613f7885828601613d56565b9150509250929050565b600060208284031215613f9857613f976154eb565b5b6000613fa6848285016139b5565b91505092915050565b600060208284031215613fc557613fc46154eb565b5b6000613fd3848285016139df565b91505092915050565b600060208284031215613ff257613ff16154eb565b5b6000614000848285016139f4565b91505092915050565b60006020828403121561401f5761401e6154eb565b5b600061402d84828501613a09565b91505092915050565b6000806020838503121561404d5761404c6154eb565b5b600083013567ffffffffffffffff81111561406b5761406a6154e6565b5b61407785828601613a1e565b92509250509250929050565b600060208284031215614099576140986154eb565b5b600082015167ffffffffffffffff8111156140b7576140b66154e6565b5b6140c384828501613ad0565b91505092915050565b6000602082840312156140e2576140e16154eb565b5b600082013567ffffffffffffffff811115614100576140ff6154e6565b5b61410c84828501613c20565b91505092915050565b6000806000610220848603121561412f5761412e6154eb565b5b600061413d86828701613cb4565b935050608061414e86828701613afe565b92505061020084015167ffffffffffffffff8111156141705761416f6154e6565b5b61417c86828701613972565b9150509250925092565b60006020828403121561419c5761419b6154eb565b5b60006141aa84828501613d56565b91505092915050565b6000602082840312156141c9576141c86154eb565b5b60006141d784828501613d6b565b91505092915050565b6000602082840312156141f6576141f56154eb565b5b600061420484828501613d80565b91505092915050565b614216816151e0565b82525050565b61422d614228826151e0565b6153c2565b82525050565b61423c816151f2565b82525050565b61424b816151fe565b82525050565b61425a816151fe565b82525050565b61427161426c826151fe565b6153d4565b82525050565b61428861428382615208565b6153de565b82525050565b60006142998261506c565b6142a38185615082565b93506142b38185602086016152e3565b6142bc816154f0565b840191505092915050565b60006142d28261506c565b6142dc8185615093565b93506142ec8185602086016152e3565b80840191505092915050565b614301816152b0565b82525050565b600061431282615077565b61431c818561509e565b935061432c8185602086016152e3565b614335816154f0565b840191505092915050565b600061434b82615077565b61435581856150af565b93506143658185602086016152e3565b61436e816154f0565b840191505092915050565b600061438482615077565b61438e81856150c0565b935061439e8185602086016152e3565b80840191505092915050565b60006143b7602d836150af565b91506143c28261551b565b604082019050919050565b60006143da6009836150c0565b91506143e58261556a565b600982019050919050565b60006143fd600b836150c0565b915061440882615593565b600b82019050919050565b60006144206032836150af565b915061442b826155bc565b604082019050919050565b60006144436026836150af565b915061444e8261560b565b604082019050919050565b60006144666025836150af565b91506144718261565a565b604082019050919050565b60006144896009836150c0565b9150614494826156a9565b600982019050919050565b60006144ac601c836150af565b91506144b7826156d2565b602082019050919050565b60006144cf601e836150af565b91506144da826156fb565b602082019050919050565b60006144f26002836150af565b91506144fd82615724565b602082019050919050565b60006145156026836150c0565b91506145208261574d565b602682019050919050565b60006145386016836150af565b91506145438261579c565b602082019050919050565b600061455b6024836150af565b9150614566826157c5565b604082019050919050565b600061457e6019836150af565b915061458982615814565b602082019050919050565b60006145a16011836150c0565b91506145ac8261583d565b601182019050919050565b60006145c46008836150af565b91506145cf82615866565b602082019050919050565b60006145e76014836150af565b91506145f28261588f565b602082019050919050565b600061460a6029836150af565b9150614615826158b8565b604082019050919050565b600061462d602e836150af565b915061463882615907565b604082019050919050565b6000614650600b836150af565b915061465b82615956565b602082019050919050565b60006146736016836150af565b915061467e8261597f565b602082019050919050565b60006146966002836150c0565b91506146a1826159a8565b600282019050919050565b60006146b96016836150af565b91506146c4826159d1565b602082019050919050565b60006146dc6020836150af565b91506146e7826159fa565b602082019050919050565b60006146ff6015836150af565b915061470a82615a23565b602082019050919050565b60006147226012836150af565b915061472d82615a4c565b602082019050919050565b6000614745601c836150af565b915061475082615a75565b602082019050919050565b60006147686020836150af565b915061477382615a9e565b602082019050919050565b600061478b6018836150af565b915061479682615ac7565b602082019050919050565b60006147ae6021836150af565b91506147b982615af0565b604082019050919050565b60006147d1601d836150c0565b91506147dc82615b3f565b601d82019050919050565b60006147f4603d836150af565b91506147ff82615b68565b604082019050919050565b600060808301600083015184820360008601526148278282614307565b915050602083015161483c602086018261486d565b50604083015161484f6040860182614242565b506060830151614862606086018261486d565b508091505092915050565b61487681615271565b82525050565b61488581615271565b82525050565b6148948161527b565b82525050565b6148ab6148a68261527b565b6153fa565b82525050565b6148ba816152c2565b82525050565b6148c981615298565b82525050565b60006148db8286614260565b6020820191506148eb828561421c565b6014820191506148fb828461489a565b600482019150819050949350505050565b60006149188285614277565b60048201915061492882846142c7565b91508190509392505050565b60006149408285614379565b915061494c8284614379565b91508190509392505050565b6000614963826143cd565b915061496f8287614379565b915061497a82614594565b91506149868286614379565b915061499182614508565b915061499d8285614379565b91506149a8826143f0565b91506149b48284614379565b91506149bf82614689565b915081905095945050505050565b60006149d88261447c565b91506149e48284614379565b915081905092915050565b60006149fa826147c4565b9150614a068284614379565b915081905092915050565b6000602082019050614a26600083018461420d565b92915050565b6000608082019050614a41600083018761420d565b614a4e602083018661420d565b614a5b604083018561487c565b8181036060830152614a6d818461428e565b905095945050505050565b6000604082019050614a8d600083018561420d565b614a9a602083018461487c565b9392505050565b6000604082019050614ab6600083018561420d565b614ac360208301846148b1565b9392505050565b6000606082019050614adf600083018661420d565b614aec60208301856148b1565b8181036040830152614afe818461428e565b9050949350505050565b6000602082019050614b1d6000830184614233565b92915050565b6000604082019050614b386000830185614233565b8181036020830152614b4a818461428e565b90509392505050565b6000602082019050614b686000830184614251565b92915050565b60006020820190508181036000830152614b888184614340565b905092915050565b6000610120820190508181036000830152614bab818b614340565b90508181036020830152614bbe816144e5565b9050614bcd604083018a61420d565b614bda606083018961488b565b614be7608083018861420d565b81810360a0830152614bf9818761428e565b9050614c0860c08301866148c0565b614c1560e08301856142f8565b614c2361010083018461420d565b9998505050505050505050565b60006080820190508181036000830152614c4a8187614340565b9050614c59602083018661487c565b614c666040830185614251565b614c73606083018461487c565b95945050505050565b60006020820190508181036000830152614c95816143aa565b9050919050565b60006020820190508181036000830152614cb581614413565b9050919050565b60006020820190508181036000830152614cd581614436565b9050919050565b60006020820190508181036000830152614cf581614459565b9050919050565b60006020820190508181036000830152614d158161449f565b9050919050565b60006020820190508181036000830152614d35816144c2565b9050919050565b60006020820190508181036000830152614d558161452b565b9050919050565b60006020820190508181036000830152614d758161454e565b9050919050565b60006020820190508181036000830152614d9581614571565b9050919050565b60006020820190508181036000830152614db5816145b7565b9050919050565b60006020820190508181036000830152614dd5816145da565b9050919050565b60006020820190508181036000830152614df5816145fd565b9050919050565b60006020820190508181036000830152614e1581614620565b9050919050565b60006020820190508181036000830152614e3581614643565b9050919050565b60006020820190508181036000830152614e5581614666565b9050919050565b60006020820190508181036000830152614e75816146ac565b9050919050565b60006020820190508181036000830152614e95816146cf565b9050919050565b60006020820190508181036000830152614eb5816146f2565b9050919050565b60006020820190508181036000830152614ed581614715565b9050919050565b60006020820190508181036000830152614ef581614738565b9050919050565b60006020820190508181036000830152614f158161475b565b9050919050565b60006020820190508181036000830152614f358161477e565b9050919050565b60006020820190508181036000830152614f55816147a1565b9050919050565b60006020820190508181036000830152614f75816147e7565b9050919050565b60006020820190508181036000830152614f96818461480a565b905092915050565b6000602082019050614fb3600083018461487c565b92915050565b6000614fc3614fd4565b9050614fcf8282615348565b919050565b6000604051905090565b600067ffffffffffffffff821115614ff957614ff8615499565b5b602082029050602081019050919050565b600067ffffffffffffffff82111561502557615024615499565b5b61502e826154f0565b9050602081019050919050565b600067ffffffffffffffff82111561505657615055615499565b5b61505f826154f0565b9050602081019050919050565b600081519050919050565b600081519050919050565b600082825260208201905092915050565b600081905092915050565b600082825260208201905092915050565b600082825260208201905092915050565b600081905092915050565b60006150d682615271565b91506150e183615271565b9250827fffffffffffffffffffffffffffffffffffffffffffffffffffffffffffffffff038211156151165761511561540c565b5b828201905092915050565b600061512c82615271565b915061513783615271565b9250826151475761514661543b565b5b828204905092915050565b600061515d82615271565b915061516883615271565b9250817fffffffffffffffffffffffffffffffffffffffffffffffffffffffffffffffff04831182151516156151a1576151a061540c565b5b828202905092915050565b60006151b782615271565b91506151c283615271565b9250828210156151d5576151d461540c565b5b828203905092915050565b60006151eb82615242565b9050919050565b60008115159050919050565b6000819050919050565b60007fffffffff0000000000000000000000000000000000000000000000000000000082169050919050565b600061ffff82169050919050565b600073ffffffffffffffffffffffffffffffffffffffff82169050919050565b600062ffffff82169050919050565b6000819050919050565b600063ffffffff82169050919050565b600060ff82169050919050565b60006bffffffffffffffffffffffff82169050919050565b60006152bb8261528b565b9050919050565b60006152cd82615298565b9050919050565b82818337600083830152505050565b60005b838110156153015780820151818401526020810190506152e6565b83811115615310576000848401525b50505050565b6000600282049050600182168061532e57607f821691505b602082108114156153425761534161546a565b5b50919050565b615351826154f0565b810181811067ffffffffffffffff821117156153705761536f615499565b5b80604052505050565b600061538482615271565b91507fffffffffffffffffffffffffffffffffffffffffffffffffffffffffffffffff8214156153b7576153b661540c565b5b600182019050919050565b60006153cd826153e8565b9050919050565b6000819050919050565b6000819050919050565b60006153f38261550e565b9050919050565b600061540582615501565b9050919050565b7f4e487b7100000000000000000000000000000000000000000000000000000000600052601160045260246000fd5b7f4e487b7100000000000000000000000000000000000000000000000000000000600052601260045260246000fd5b7f4e487b7100000000000000000000000000000000000000000000000000000000600052602260045260246000fd5b7f4e487b7100000000000000000000000000000000000000000000000000000000600052604160045260246000fd5b600080fd5b600080fd5b600080fd5b600080fd5b600080fd5b600080fd5b600080fd5b600080fd5b6000601f19601f8301169050919050565b60008160e01b9050919050565b60008160601b9050919050565b7f4552433732313a2063616c6c6572206973206e6f7420746f6b656e206f776e6560008201527f72206f7220617070726f76656400000000000000000000000000000000000000602082015250565b7f7b226e616d65223a220000000000000000000000000000000000000000000000600082015250565b7f222c22696d616765223a22000000000000000000000000000000000000000000600082015250565b7f4552433732313a207472616e7366657220746f206e6f6e20455243373231526560008201527f63656976657220696d706c656d656e7465720000000000000000000000000000602082015250565b7f4f776e61626c653a206e6577206f776e657220697320746865207a65726f206160008201527f6464726573730000000000000000000000000000000000000000000000000000602082015250565b7f4552433732313a207472616e736665722066726f6d20696e636f72726563742060008201527f6f776e6572000000000000000000000000000000000000000000000000000000602082015250565b7f566a6b4e46543a20230000000000000000000000000000000000000000000000600082015250565b7f4552433732313a20746f6b656e20616c7265616479206d696e74656400000000600082015250565b7f556e61626c6520746f20776974686472617720415049436f6e73756d65720000600082015250565b7f3078000000000000000000000000000000000000000000000000000000000000600082015250565b7f222c2265787465726e616c5f75726c223a22766a6b6e66742e6272756e6f766a60008201527f6b2e636f6d2f0000000000000000000000000000000000000000000000000000602082015250565b7f556e61626c6520746f2077697468647261772056524600000000000000000000600082015250565b7f4552433732313a207472616e7366657220746f20746865207a65726f2061646460008201527f7265737300000000000000000000000000000000000000000000000000000000602082015250565b7f4552433732313a20617070726f766520746f2063616c6c657200000000000000600082015250565b7f222c226465736372697074696f6e223a22000000000000000000000000000000600082015250565b7f736f6c64206f7574000000000000000000000000000000000000000000000000600082015250565b7f6e6f742061626c6520746f2066756e6420767266000000000000000000000000600082015250565b7f4552433732313a2061646472657373207a65726f206973206e6f74206120766160008201527f6c6964206f776e65720000000000000000000000000000000000000000000000602082015250565b7f45524337323155524953746f726167653a2055524920736574206f66206e6f6e60008201527f6578697374656e7420746f6b656e000000000000000000000000000000000000602082015250565b7f77726f6e672076616c7565000000000000000000000000000000000000000000600082015250565b7f6e6f742061626c6520746f2066756e64205061696e7400000000000000000000600082015250565b7f227d000000000000000000000000000000000000000000000000000000000000600082015250565b7f65786365656473206d6178207065722077616c6c657400000000000000000000600082015250565b7f4552433732313a206d696e7420746f20746865207a65726f2061646472657373600082015250565b7f6175746f2d617070726f76652064697361626c65640000000000000000000000600082015250565b7f556e61626c6520746f207472616e736665720000000000000000000000000000600082015250565b7f6e6f742061626c6520746f2066756e6420617069436f6e73756d657200000000600082015250565b7f4f776e61626c653a2063616c6c6572206973206e6f7420746865206f776e6572600082015250565b7f4552433732313a20696e76616c696420746f6b656e2049440000000000000000600082015250565b7f4552433732313a20617070726f76616c20746f2063757272656e74206f776e6560008201527f7200000000000000000000000000000000000000000000000000000000000000602082015250565b7f646174613a6170706c69636174696f6e2f6a736f6e3b6261736536342c000000600082015250565b7f4552433732313a20617070726f76652063616c6c6572206973206e6f7420746f60008201527f6b656e206f776e6572206f7220617070726f76656420666f7220616c6c000000602082015250565b615bc0816151e0565b8114615bcb57600080fd5b50565b615bd7816151f2565b8114615be257600080fd5b50565b615bee816151fe565b8114615bf957600080fd5b50565b615c0581615208565b8114615c1057600080fd5b50565b615c1c81615234565b8114615c2757600080fd5b50565b615c3381615262565b8114615c3e57600080fd5b50565b615c4a81615271565b8114615c5557600080fd5b50565b615c618161527b565b8114615c6c57600080fd5b50565b615c7881615298565b8114615c8357600080fd5b5056fe4142434445464748494a4b4c4d4e4f505152535455565758595a6162636465666768696a6b6c6d6e6f707172737475767778797a303132333435363738392b2fa26469706673582212206b734dd8d6be25b20c3299e6b784b1edaf60413b844e1b19bf1c8ff13081c30c64736f6c63430008070033",
  "linkReferences": {},
  "deployedLinkReferences": {}
}